{
  "_format": "hh-sol-artifact-1",
  "contractName": "NFT",
  "sourceName": "contracts/NFT.sol",
  "abi": [
    {
      "inputs": [
        {
          "internalType": "string",
          "name": "_name",
          "type": "string"
        },
        {
          "internalType": "string",
          "name": "_symbol",
          "type": "string"
        },
        {
          "internalType": "uint256",
          "name": "_cost",
          "type": "uint256"
        },
        {
          "internalType": "uint256",
          "name": "_maxSupply",
          "type": "uint256"
        },
        {
          "internalType": "uint256",
          "name": "_maxMint",
          "type": "uint256"
        },
        {
          "internalType": "uint256",
          "name": "_allowMintingOn",
          "type": "uint256"
        },
        {
          "internalType": "string",
          "name": "_baseURI",
          "type": "string"
        }
      ],
      "stateMutability": "nonpayable",
      "type": "constructor"
    },
    {
      "anonymous": false,
      "inputs": [
        {
          "indexed": true,
          "internalType": "address",
          "name": "owner",
          "type": "address"
        },
        {
          "indexed": true,
          "internalType": "address",
          "name": "approved",
          "type": "address"
        },
        {
          "indexed": true,
          "internalType": "uint256",
          "name": "tokenId",
          "type": "uint256"
        }
      ],
      "name": "Approval",
      "type": "event"
    },
    {
      "anonymous": false,
      "inputs": [
        {
          "indexed": true,
          "internalType": "address",
          "name": "owner",
          "type": "address"
        },
        {
          "indexed": true,
          "internalType": "address",
          "name": "operator",
          "type": "address"
        },
        {
          "indexed": false,
          "internalType": "bool",
          "name": "approved",
          "type": "bool"
        }
      ],
      "name": "ApprovalForAll",
      "type": "event"
    },
    {
      "anonymous": false,
      "inputs": [
        {
          "indexed": false,
          "internalType": "uint256",
          "name": "amount",
          "type": "uint256"
        },
        {
          "indexed": false,
          "internalType": "address",
          "name": "minter",
          "type": "address"
        }
      ],
      "name": "Mint",
      "type": "event"
    },
    {
      "anonymous": false,
      "inputs": [
        {
          "indexed": true,
          "internalType": "address",
          "name": "previousOwner",
          "type": "address"
        },
        {
          "indexed": true,
          "internalType": "address",
          "name": "newOwner",
          "type": "address"
        }
      ],
      "name": "OwnershipTransferred",
      "type": "event"
    },
    {
      "anonymous": false,
      "inputs": [
        {
          "indexed": true,
          "internalType": "address",
          "name": "from",
          "type": "address"
        },
        {
          "indexed": true,
          "internalType": "address",
          "name": "to",
          "type": "address"
        },
        {
          "indexed": true,
          "internalType": "uint256",
          "name": "tokenId",
          "type": "uint256"
        }
      ],
      "name": "Transfer",
      "type": "event"
    },
    {
      "anonymous": false,
      "inputs": [
        {
          "indexed": false,
          "internalType": "uint256",
          "name": "amount",
          "type": "uint256"
        },
        {
          "indexed": false,
          "internalType": "address",
          "name": "owner",
          "type": "address"
        }
      ],
      "name": "Withdraw",
      "type": "event"
    },
    {
      "inputs": [
        {
          "internalType": "address",
          "name": "_address",
          "type": "address"
        }
      ],
      "name": "addAddress",
      "outputs": [],
      "stateMutability": "nonpayable",
      "type": "function"
    },
    {
      "inputs": [],
      "name": "allowMintingOn",
      "outputs": [
        {
          "internalType": "uint256",
          "name": "",
          "type": "uint256"
        }
      ],
      "stateMutability": "view",
      "type": "function"
    },
    {
      "inputs": [
        {
          "internalType": "address",
          "name": "to",
          "type": "address"
        },
        {
          "internalType": "uint256",
          "name": "tokenId",
          "type": "uint256"
        }
      ],
      "name": "approve",
      "outputs": [],
      "stateMutability": "nonpayable",
      "type": "function"
    },
    {
      "inputs": [
        {
          "internalType": "address",
          "name": "owner",
          "type": "address"
        }
      ],
      "name": "balanceOf",
      "outputs": [
        {
          "internalType": "uint256",
          "name": "",
          "type": "uint256"
        }
      ],
      "stateMutability": "view",
      "type": "function"
    },
    {
      "inputs": [],
      "name": "baseExtension",
      "outputs": [
        {
          "internalType": "string",
          "name": "",
          "type": "string"
        }
      ],
      "stateMutability": "view",
      "type": "function"
    },
    {
      "inputs": [],
      "name": "baseURI",
      "outputs": [
        {
          "internalType": "string",
          "name": "",
          "type": "string"
        }
      ],
      "stateMutability": "view",
      "type": "function"
    },
    {
      "inputs": [],
      "name": "cost",
      "outputs": [
        {
          "internalType": "uint256",
          "name": "",
          "type": "uint256"
        }
      ],
      "stateMutability": "view",
      "type": "function"
    },
    {
      "inputs": [
        {
          "internalType": "uint256",
          "name": "tokenId",
          "type": "uint256"
        }
      ],
      "name": "getApproved",
      "outputs": [
        {
          "internalType": "address",
          "name": "",
          "type": "address"
        }
      ],
      "stateMutability": "view",
      "type": "function"
    },
    {
      "inputs": [
        {
          "internalType": "address",
          "name": "owner",
          "type": "address"
        },
        {
          "internalType": "address",
          "name": "operator",
          "type": "address"
        }
      ],
      "name": "isApprovedForAll",
      "outputs": [
        {
          "internalType": "bool",
          "name": "",
          "type": "bool"
        }
      ],
      "stateMutability": "view",
      "type": "function"
    },
    {
      "inputs": [
        {
          "internalType": "address",
          "name": "_address",
          "type": "address"
        }
      ],
      "name": "isOnList",
      "outputs": [
        {
          "internalType": "bool",
          "name": "",
          "type": "bool"
        }
      ],
      "stateMutability": "view",
      "type": "function"
    },
    {
      "inputs": [
        {
          "internalType": "uint256",
          "name": "tokenId",
          "type": "uint256"
        }
      ],
      "name": "isStaked",
      "outputs": [
        {
          "internalType": "bool",
          "name": "",
          "type": "bool"
        }
      ],
      "stateMutability": "view",
      "type": "function"
    },
    {
      "inputs": [],
      "name": "maxMint",
      "outputs": [
        {
          "internalType": "uint256",
          "name": "",
          "type": "uint256"
        }
      ],
      "stateMutability": "view",
      "type": "function"
    },
    {
      "inputs": [],
      "name": "maxSupply",
      "outputs": [
        {
          "internalType": "uint256",
          "name": "",
          "type": "uint256"
        }
      ],
      "stateMutability": "view",
      "type": "function"
    },
    {
      "inputs": [
        {
          "internalType": "uint256",
          "name": "_mintAmount",
          "type": "uint256"
        }
      ],
      "name": "mint",
      "outputs": [],
      "stateMutability": "payable",
      "type": "function"
    },
    {
      "inputs": [],
      "name": "name",
      "outputs": [
        {
          "internalType": "string",
          "name": "",
          "type": "string"
        }
      ],
      "stateMutability": "view",
      "type": "function"
    },
    {
      "inputs": [
        {
          "internalType": "address",
          "name": "",
          "type": "address"
        },
        {
          "internalType": "address",
          "name": "",
          "type": "address"
        },
        {
          "internalType": "uint256",
          "name": "",
          "type": "uint256"
        },
        {
          "internalType": "bytes",
          "name": "",
          "type": "bytes"
        }
      ],
      "name": "onERC721Received",
      "outputs": [
        {
          "internalType": "bytes4",
          "name": "",
          "type": "bytes4"
        }
      ],
      "stateMutability": "pure",
      "type": "function"
    },
    {
      "inputs": [],
      "name": "owner",
      "outputs": [
        {
          "internalType": "address",
          "name": "",
          "type": "address"
        }
      ],
      "stateMutability": "view",
      "type": "function"
    },
    {
      "inputs": [
        {
          "internalType": "uint256",
          "name": "tokenId",
          "type": "uint256"
        }
      ],
      "name": "ownerOf",
      "outputs": [
        {
          "internalType": "address",
          "name": "",
          "type": "address"
        }
      ],
      "stateMutability": "view",
      "type": "function"
    },
    {
      "inputs": [],
      "name": "pauseMint",
      "outputs": [],
      "stateMutability": "nonpayable",
      "type": "function"
    },
    {
      "inputs": [],
      "name": "pauseMinting",
      "outputs": [
        {
          "internalType": "bool",
          "name": "",
          "type": "bool"
        }
      ],
      "stateMutability": "view",
      "type": "function"
    },
    {
      "inputs": [],
      "name": "renounceOwnership",
      "outputs": [],
      "stateMutability": "nonpayable",
      "type": "function"
    },
    {
      "inputs": [
        {
          "internalType": "address",
          "name": "from",
          "type": "address"
        },
        {
          "internalType": "address",
          "name": "to",
          "type": "address"
        },
        {
          "internalType": "uint256",
          "name": "tokenId",
          "type": "uint256"
        }
      ],
      "name": "safeTransferFrom",
      "outputs": [],
      "stateMutability": "nonpayable",
      "type": "function"
    },
    {
      "inputs": [
        {
          "internalType": "address",
          "name": "from",
          "type": "address"
        },
        {
          "internalType": "address",
          "name": "to",
          "type": "address"
        },
        {
          "internalType": "uint256",
          "name": "tokenId",
          "type": "uint256"
        },
        {
          "internalType": "bytes",
          "name": "data",
          "type": "bytes"
        }
      ],
      "name": "safeTransferFrom",
      "outputs": [],
      "stateMutability": "nonpayable",
      "type": "function"
    },
    {
      "inputs": [
        {
          "internalType": "address",
          "name": "operator",
          "type": "address"
        },
        {
          "internalType": "bool",
          "name": "approved",
          "type": "bool"
        }
      ],
      "name": "setApprovalForAll",
      "outputs": [],
      "stateMutability": "nonpayable",
      "type": "function"
    },
    {
      "inputs": [
        {
          "internalType": "uint256",
          "name": "_newCost",
          "type": "uint256"
        }
      ],
      "name": "setCost",
      "outputs": [],
      "stateMutability": "nonpayable",
      "type": "function"
    },
    {
      "inputs": [
        {
          "internalType": "uint256",
          "name": "tokenId",
          "type": "uint256"
        }
      ],
      "name": "stakeNFT",
      "outputs": [],
      "stateMutability": "nonpayable",
      "type": "function"
    },
    {
      "inputs": [
        {
          "internalType": "bytes4",
          "name": "interfaceId",
          "type": "bytes4"
        }
      ],
      "name": "supportsInterface",
      "outputs": [
        {
          "internalType": "bool",
          "name": "",
          "type": "bool"
        }
      ],
      "stateMutability": "view",
      "type": "function"
    },
    {
      "inputs": [],
      "name": "symbol",
      "outputs": [
        {
          "internalType": "string",
          "name": "",
          "type": "string"
        }
      ],
      "stateMutability": "view",
      "type": "function"
    },
    {
      "inputs": [
        {
          "internalType": "uint256",
          "name": "index",
          "type": "uint256"
        }
      ],
      "name": "tokenByIndex",
      "outputs": [
        {
          "internalType": "uint256",
          "name": "",
          "type": "uint256"
        }
      ],
      "stateMutability": "view",
      "type": "function"
    },
    {
      "inputs": [
        {
          "internalType": "address",
          "name": "owner",
          "type": "address"
        },
        {
          "internalType": "uint256",
          "name": "index",
          "type": "uint256"
        }
      ],
      "name": "tokenOfOwnerByIndex",
      "outputs": [
        {
          "internalType": "uint256",
          "name": "",
          "type": "uint256"
        }
      ],
      "stateMutability": "view",
      "type": "function"
    },
    {
      "inputs": [
        {
          "internalType": "uint256",
          "name": "_tokenId",
          "type": "uint256"
        }
      ],
      "name": "tokenURI",
      "outputs": [
        {
          "internalType": "string",
          "name": "",
          "type": "string"
        }
      ],
      "stateMutability": "view",
      "type": "function"
    },
    {
      "inputs": [],
      "name": "totalSupply",
      "outputs": [
        {
          "internalType": "uint256",
          "name": "",
          "type": "uint256"
        }
      ],
      "stateMutability": "view",
      "type": "function"
    },
    {
      "inputs": [
        {
          "internalType": "address",
          "name": "from",
          "type": "address"
        },
        {
          "internalType": "address",
          "name": "to",
          "type": "address"
        },
        {
          "internalType": "uint256",
          "name": "tokenId",
          "type": "uint256"
        }
      ],
      "name": "transferFrom",
      "outputs": [],
      "stateMutability": "nonpayable",
      "type": "function"
    },
    {
      "inputs": [
        {
          "internalType": "address",
          "name": "newOwner",
          "type": "address"
        }
      ],
      "name": "transferOwnership",
      "outputs": [],
      "stateMutability": "nonpayable",
      "type": "function"
    },
    {
      "inputs": [],
      "name": "unPauseMint",
      "outputs": [],
      "stateMutability": "nonpayable",
      "type": "function"
    },
    {
      "inputs": [
        {
          "internalType": "uint256",
          "name": "tokenId",
          "type": "uint256"
        }
      ],
      "name": "unstakeNFT",
      "outputs": [],
      "stateMutability": "nonpayable",
      "type": "function"
    },
    {
      "inputs": [
        {
          "internalType": "address",
          "name": "_owner",
          "type": "address"
        }
      ],
      "name": "walletOfOwner",
      "outputs": [
        {
          "internalType": "uint256[]",
          "name": "",
          "type": "uint256[]"
        }
      ],
      "stateMutability": "view",
      "type": "function"
    },
    {
      "inputs": [],
      "name": "withdraw",
      "outputs": [],
      "stateMutability": "nonpayable",
      "type": "function"
    }
  ],
  "bytecode": "0x60806040526040518060400160405280600581526020017f2e6a736f6e000000000000000000000000000000000000000000000000000000815250601090805190602001906200005192919062000206565b506000601160006101000a81548160ff0219169083151502179055503480156200007a57600080fd5b5060405162004de838038062004de88339818101604052810190620000a091906200048e565b86868160009080519060200190620000ba92919062000206565b508060019080519060200190620000d392919062000206565b505050620000f6620000ea6200013860201b60201c565b6200014060201b60201c565b84600b8190555083600c8190555082600d8190555081600e8190555080600f90805190602001906200012a92919062000206565b505050505050505062000603565b600033905090565b6000600a60009054906101000a900473ffffffffffffffffffffffffffffffffffffffff16905081600a60006101000a81548173ffffffffffffffffffffffffffffffffffffffff021916908373ffffffffffffffffffffffffffffffffffffffff1602179055508173ffffffffffffffffffffffffffffffffffffffff168173ffffffffffffffffffffffffffffffffffffffff167f8be0079c531659141344cd1fd0a4f28419497f9722a3daafe3b4186f6b6457e060405160405180910390a35050565b8280546200021490620005cd565b90600052602060002090601f01602090048101928262000238576000855562000284565b82601f106200025357805160ff191683800117855562000284565b8280016001018555821562000284579182015b828111156200028357825182559160200191906001019062000266565b5b50905062000293919062000297565b5090565b5b80821115620002b257600081600090555060010162000298565b5090565b6000604051905090565b600080fd5b600080fd5b600080fd5b600080fd5b6000601f19601f8301169050919050565b7f4e487b7100000000000000000000000000000000000000000000000000000000600052604160045260246000fd5b6200031f82620002d4565b810181811067ffffffffffffffff82111715620003415762000340620002e5565b5b80604052505050565b600062000356620002b6565b905062000364828262000314565b919050565b600067ffffffffffffffff821115620003875762000386620002e5565b5b6200039282620002d4565b9050602081019050919050565b60005b83811015620003bf578082015181840152602081019050620003a2565b83811115620003cf576000848401525b50505050565b6000620003ec620003e68462000369565b6200034a565b9050828152602081018484840111156200040b576200040a620002cf565b5b620004188482856200039f565b509392505050565b600082601f830112620004385762000437620002ca565b5b81516200044a848260208601620003d5565b91505092915050565b6000819050919050565b620004688162000453565b81146200047457600080fd5b50565b60008151905062000488816200045d565b92915050565b600080600080600080600060e0888a031215620004b057620004af620002c0565b5b600088015167ffffffffffffffff811115620004d157620004d0620002c5565b5b620004df8a828b0162000420565b975050602088015167ffffffffffffffff811115620005035762000502620002c5565b5b620005118a828b0162000420565b9650506040620005248a828b0162000477565b9550506060620005378a828b0162000477565b94505060806200054a8a828b0162000477565b93505060a06200055d8a828b0162000477565b92505060c088015167ffffffffffffffff811115620005815762000580620002c5565b5b6200058f8a828b0162000420565b91505092959891949750929550565b7f4e487b7100000000000000000000000000000000000000000000000000000000600052602260045260246000fd5b60006002820490506001821680620005e657607f821691505b60208210811415620005fd57620005fc6200059e565b5b50919050565b6147d580620006136000396000f3fe6080604052600436106102255760003560e01c80636eb604e011610123578063b88d4fde116100ab578063cd85cdb51161006f578063cd85cdb51461081e578063d5abeb0114610835578063da8fbf2a14610860578063e985e9c51461088b578063f2fde38b146108c857610225565b8063b88d4fde14610727578063baa51f8614610750578063c1dfa0bb1461078d578063c6682862146107b6578063c87b56dd146107e157610225565b80637501f741116100f25780637501f741146106615780638da5cb5b1461068c57806395d89b41146106b7578063a0712d68146106e2578063a22cb465146106fe57610225565b80636eb604e0146105a757806370a08231146105d0578063715018a61461060d5780637330daac1461062457610225565b806323b872dd116101b1578063438b630011610175578063438b63001461049c57806344a0d68a146104d95780634f6ccce7146105025780636352211e1461053f5780636c0360eb1461057c57610225565b806323b872dd146103cd5780632f745c59146103f657806338eada1c146104335780633ccfd60b1461045c57806342842e0e1461047357610225565b8063095ea7b3116101f8578063095ea7b3146102fa5780630be218d61461032357806313faede61461033a578063150b7a021461036557806318160ddd146103a257610225565b8063014679961461022a57806301ffc9a71461025557806306fdde0314610292578063081812fc146102bd575b600080fd5b34801561023657600080fd5b5061023f6108f1565b60405161024c9190612dd7565b60405180910390f35b34801561026157600080fd5b5061027c60048036038101906102779190612e5e565b6108f7565b6040516102899190612ea6565b60405180910390f35b34801561029e57600080fd5b506102a7610971565b6040516102b49190612f5a565b60405180910390f35b3480156102c957600080fd5b506102e460048036038101906102df9190612fa8565b610a03565b6040516102f19190613016565b60405180910390f35b34801561030657600080fd5b50610321600480360381019061031c919061305d565b610a49565b005b34801561032f57600080fd5b50610338610b61565b005b34801561034657600080fd5b5061034f610b86565b60405161035c9190612dd7565b60405180910390f35b34801561037157600080fd5b5061038c60048036038101906103879190613102565b610b8c565b6040516103999190613199565b60405180910390f35b3480156103ae57600080fd5b506103b7610ba1565b6040516103c49190612dd7565b60405180910390f35b3480156103d957600080fd5b506103f460048036038101906103ef91906131b4565b610bae565b005b34801561040257600080fd5b5061041d6004803603810190610418919061305d565b610c0e565b60405161042a9190612dd7565b60405180910390f35b34801561043f57600080fd5b5061045a60048036038101906104559190613207565b610cb3565b005b34801561046857600080fd5b50610471610d16565b005b34801561047f57600080fd5b5061049a600480360381019061049591906131b4565b610dd6565b005b3480156104a857600080fd5b506104c360048036038101906104be9190613207565b610df6565b6040516104d091906132f2565b60405180910390f35b3480156104e557600080fd5b5061050060048036038101906104fb9190612fa8565b610ea4565b005b34801561050e57600080fd5b5061052960048036038101906105249190612fa8565b610eb6565b6040516105369190612dd7565b60405180910390f35b34801561054b57600080fd5b5061056660048036038101906105619190612fa8565b610f27565b6040516105739190613016565b60405180910390f35b34801561058857600080fd5b50610591610fae565b60405161059e9190612f5a565b60405180910390f35b3480156105b357600080fd5b506105ce60048036038101906105c99190612fa8565b61103c565b005b3480156105dc57600080fd5b506105f760048036038101906105f29190613207565b61114d565b6040516106049190612dd7565b60405180910390f35b34801561061957600080fd5b50610622611205565b005b34801561063057600080fd5b5061064b60048036038101906106469190613207565b611219565b6040516106589190612ea6565b60405180910390f35b34801561066d57600080fd5b5061067661126e565b6040516106839190612dd7565b60405180910390f35b34801561069857600080fd5b506106a1611274565b6040516106ae9190613016565b60405180910390f35b3480156106c357600080fd5b506106cc61129e565b6040516106d99190612f5a565b60405180910390f35b6106fc60048036038101906106f79190612fa8565b611330565b005b34801561070a57600080fd5b5061072560048036038101906107209190613340565b6115b5565b005b34801561073357600080fd5b5061074e600480360381019061074991906134b0565b6115cb565b005b34801561075c57600080fd5b5061077760048036038101906107729190612fa8565b61162d565b6040516107849190612ea6565b60405180910390f35b34801561079957600080fd5b506107b460048036038101906107af9190612fa8565b611657565b005b3480156107c257600080fd5b506107cb6116fb565b6040516107d89190612f5a565b60405180910390f35b3480156107ed57600080fd5b5061080860048036038101906108039190612fa8565b611789565b6040516108159190612f5a565b60405180910390f35b34801561082a57600080fd5b50610833611808565b005b34801561084157600080fd5b5061084a61182d565b6040516108579190612dd7565b60405180910390f35b34801561086c57600080fd5b50610875611833565b6040516108829190612ea6565b60405180910390f35b34801561089757600080fd5b506108b260048036038101906108ad9190613533565b611846565b6040516108bf9190612ea6565b60405180910390f35b3480156108d457600080fd5b506108ef60048036038101906108ea9190613207565b6118da565b005b600e5481565b60007f780e9d63000000000000000000000000000000000000000000000000000000007bffffffffffffffffffffffffffffffffffffffffffffffffffffffff1916827bffffffffffffffffffffffffffffffffffffffffffffffffffffffff1916148061096a57506109698261195e565b5b9050919050565b606060008054610980906135a2565b80601f01602080910402602001604051908101604052809291908181526020018280546109ac906135a2565b80156109f95780601f106109ce576101008083540402835291602001916109f9565b820191906000526020600020905b8154815290600101906020018083116109dc57829003601f168201915b5050505050905090565b6000610a0e82611a40565b6004600083815260200190815260200160002060009054906101000a900473ffffffffffffffffffffffffffffffffffffffff169050919050565b6000610a5482610f27565b90508073ffffffffffffffffffffffffffffffffffffffff168373ffffffffffffffffffffffffffffffffffffffff161415610ac5576040517f08c379a0000000000000000000000000000000000000000000000000000000008152600401610abc90613646565b60405180910390fd5b8073ffffffffffffffffffffffffffffffffffffffff16610ae4611a8b565b73ffffffffffffffffffffffffffffffffffffffff161480610b135750610b1281610b0d611a8b565b611846565b5b610b52576040517f08c379a0000000000000000000000000000000000000000000000000000000008152600401610b49906136d8565b60405180910390fd5b610b5c8383611a93565b505050565b610b69611b4c565b6000601160006101000a81548160ff021916908315150217905550565b600b5481565b600063150b7a0260e01b905095945050505050565b6000600880549050905090565b610bbf610bb9611a8b565b82611bca565b610bfe576040517f08c379a0000000000000000000000000000000000000000000000000000000008152600401610bf59061376a565b60405180910390fd5b610c09838383611c5f565b505050565b6000610c198361114d565b8210610c5a576040517f08c379a0000000000000000000000000000000000000000000000000000000008152600401610c51906137fc565b60405180910390fd5b600660008473ffffffffffffffffffffffffffffffffffffffff1673ffffffffffffffffffffffffffffffffffffffff168152602001908152602001600020600083815260200190815260200160002054905092915050565b610cbb611b4c565b600081604051602001610cce9190613864565b60405160208183030381529060405280519060200120905060016012600083815260200190815260200160002060006101000a81548160ff0219169083151502179055505050565b610d1e611b4c565b600047905060003373ffffffffffffffffffffffffffffffffffffffff1682604051610d49906138b0565b60006040518083038185875af1925050503d8060008114610d86576040519150601f19603f3d011682016040523d82523d6000602084013e610d8b565b606091505b5050905080610d9957600080fd5b7f8353ffcac0876ad14e226d9783c04540bfebf13871e868157d2a391cad98e9188233604051610dca9291906138c5565b60405180910390a15050565b610df1838383604051806020016040528060008152506115cb565b505050565b60606000610e038361114d565b905060008167ffffffffffffffff811115610e2157610e20613385565b5b604051908082528060200260200182016040528015610e4f5781602001602082028036833780820191505090505b50905060005b82811015610e9957610e678582610c0e565b828281518110610e7a57610e796138ee565b5b6020026020010181815250508080610e919061394c565b915050610e55565b508092505050919050565b610eac611b4c565b80600b8190555050565b6000610ec0610ba1565b8210610f01576040517f08c379a0000000000000000000000000000000000000000000000000000000008152600401610ef890613a07565b60405180910390fd5b60088281548110610f1557610f146138ee565b5b90600052602060002001549050919050565b600080610f3383611f59565b9050600073ffffffffffffffffffffffffffffffffffffffff168173ffffffffffffffffffffffffffffffffffffffff161415610fa5576040517f08c379a0000000000000000000000000000000000000000000000000000000008152600401610f9c90613a73565b60405180910390fd5b80915050919050565b600f8054610fbb906135a2565b80601f0160208091040260200160405190810160405280929190818152602001828054610fe7906135a2565b80156110345780601f1061100957610100808354040283529160200191611034565b820191906000526020600020905b81548152906001019060200180831161101757829003601f168201915b505050505081565b3373ffffffffffffffffffffffffffffffffffffffff1661105c82610f27565b73ffffffffffffffffffffffffffffffffffffffff16146110b2576040517f08c379a00000000000000000000000000000000000000000000000000000000081526004016110a990613adf565b60405180910390fd5b6013600082815260200190815260200160002060009054906101000a900460ff1615611113576040517f08c379a000000000000000000000000000000000000000000000000000000000815260040161110a90613b4b565b60405180910390fd5b61111e333083610dd6565b60016013600083815260200190815260200160002060006101000a81548160ff02191690831515021790555050565b60008073ffffffffffffffffffffffffffffffffffffffff168273ffffffffffffffffffffffffffffffffffffffff1614156111be576040517f08c379a00000000000000000000000000000000000000000000000000000000081526004016111b590613bdd565b60405180910390fd5b600360008373ffffffffffffffffffffffffffffffffffffffff1673ffffffffffffffffffffffffffffffffffffffff168152602001908152602001600020549050919050565b61120d611b4c565b6112176000611f96565b565b6000808260405160200161122d9190613864565b6040516020818303038152906040528051906020012090506012600082815260200190815260200160002060009054906101000a900460ff16915050919050565b600d5481565b6000600a60009054906101000a900473ffffffffffffffffffffffffffffffffffffffff16905090565b6060600180546112ad906135a2565b80601f01602080910402602001604051908101604052809291908181526020018280546112d9906135a2565b80156113265780601f106112fb57610100808354040283529160200191611326565b820191906000526020600020905b81548152906001019060200180831161130957829003601f168201915b5050505050905090565b600e54421015611375576040517f08c379a000000000000000000000000000000000000000000000000000000000815260040161136c90613c49565b60405180910390fd5b601160009054906101000a900460ff16156113c5576040517f08c379a00000000000000000000000000000000000000000000000000000000081526004016113bc90613cb5565b60405180910390fd5b6113ce33611219565b61140d576040517f08c379a000000000000000000000000000000000000000000000000000000000815260040161140490613d47565b60405180910390fd5b60008111611450576040517f08c379a000000000000000000000000000000000000000000000000000000000815260040161144790613db3565b60405180910390fd5b80600b5461145e9190613dd3565b3410156114a0576040517f08c379a000000000000000000000000000000000000000000000000000000000815260040161149790613e79565b60405180910390fd5b600d548111156114e5576040517f08c379a00000000000000000000000000000000000000000000000000000000081526004016114dc90613ee5565b60405180910390fd5b60006114ef610ba1565b9050600c5482826115009190613f05565b1115611541576040517f08c379a000000000000000000000000000000000000000000000000000000000815260040161153890613fa7565b60405180910390fd5b6000600190505b8281116115775761156433828461155f9190613f05565b61205c565b808061156f9061394c565b915050611548565b507ff3cea5493d790af0133817606f7350a91d7f154ea52eaa79d179d4d231e5010282336040516115a99291906138c5565b60405180910390a15050565b6115c76115c0611a8b565b838361207a565b5050565b6115dc6115d6611a8b565b83611bca565b61161b576040517f08c379a00000000000000000000000000000000000000000000000000000000081526004016116129061376a565b60405180910390fd5b611627848484846121e7565b50505050565b60006013600083815260200190815260200160002060009054906101000a900460ff169050919050565b6013600082815260200190815260200160002060009054906101000a900460ff166116b7576040517f08c379a00000000000000000000000000000000000000000000000000000000081526004016116ae90614013565b60405180910390fd5b6116c13382611a93565b6116cc303383610dd6565b60006013600083815260200190815260200160002060006101000a81548160ff02191690831515021790555050565b60108054611708906135a2565b80601f0160208091040260200160405190810160405280929190818152602001828054611734906135a2565b80156117815780601f1061175657610100808354040283529160200191611781565b820191906000526020600020905b81548152906001019060200180831161176457829003601f168201915b505050505081565b606061179482612243565b6117d3576040517f08c379a00000000000000000000000000000000000000000000000000000000081526004016117ca9061407f565b60405180910390fd5b600f6117de83612284565b60106040516020016117f29392919061416f565b6040516020818303038152906040529050919050565b611810611b4c565b6001601160006101000a81548160ff021916908315150217905550565b600c5481565b601160009054906101000a900460ff1681565b6000600560008473ffffffffffffffffffffffffffffffffffffffff1673ffffffffffffffffffffffffffffffffffffffff16815260200190815260200160002060008373ffffffffffffffffffffffffffffffffffffffff1673ffffffffffffffffffffffffffffffffffffffff16815260200190815260200160002060009054906101000a900460ff16905092915050565b6118e2611b4c565b600073ffffffffffffffffffffffffffffffffffffffff168173ffffffffffffffffffffffffffffffffffffffff161415611952576040517f08c379a000000000000000000000000000000000000000000000000000000000815260040161194990614212565b60405180910390fd5b61195b81611f96565b50565b60007f80ac58cd000000000000000000000000000000000000000000000000000000007bffffffffffffffffffffffffffffffffffffffffffffffffffffffff1916827bffffffffffffffffffffffffffffffffffffffffffffffffffffffff19161480611a2957507f5b5e139f000000000000000000000000000000000000000000000000000000007bffffffffffffffffffffffffffffffffffffffffffffffffffffffff1916827bffffffffffffffffffffffffffffffffffffffffffffffffffffffff1916145b80611a395750611a388261235c565b5b9050919050565b611a4981612243565b611a88576040517f08c379a0000000000000000000000000000000000000000000000000000000008152600401611a7f90613a73565b60405180910390fd5b50565b600033905090565b816004600083815260200190815260200160002060006101000a81548173ffffffffffffffffffffffffffffffffffffffff021916908373ffffffffffffffffffffffffffffffffffffffff160217905550808273ffffffffffffffffffffffffffffffffffffffff16611b0683610f27565b73ffffffffffffffffffffffffffffffffffffffff167f8c5be1e5ebec7d5bd14f71427d1e84f3dd0314c0f7b2291e5b200ac8c7c3b92560405160405180910390a45050565b611b54611a8b565b73ffffffffffffffffffffffffffffffffffffffff16611b72611274565b73ffffffffffffffffffffffffffffffffffffffff1614611bc8576040517f08c379a0000000000000000000000000000000000000000000000000000000008152600401611bbf9061427e565b60405180910390fd5b565b600080611bd683610f27565b90508073ffffffffffffffffffffffffffffffffffffffff168473ffffffffffffffffffffffffffffffffffffffff161480611c185750611c178185611846565b5b80611c5657508373ffffffffffffffffffffffffffffffffffffffff16611c3e84610a03565b73ffffffffffffffffffffffffffffffffffffffff16145b91505092915050565b8273ffffffffffffffffffffffffffffffffffffffff16611c7f82610f27565b73ffffffffffffffffffffffffffffffffffffffff1614611cd5576040517f08c379a0000000000000000000000000000000000000000000000000000000008152600401611ccc90614310565b60405180910390fd5b600073ffffffffffffffffffffffffffffffffffffffff168273ffffffffffffffffffffffffffffffffffffffff161415611d45576040517f08c379a0000000000000000000000000000000000000000000000000000000008152600401611d3c906143a2565b60405180910390fd5b611d5283838360016123c6565b8273ffffffffffffffffffffffffffffffffffffffff16611d7282610f27565b73ffffffffffffffffffffffffffffffffffffffff1614611dc8576040517f08c379a0000000000000000000000000000000000000000000000000000000008152600401611dbf90614310565b60405180910390fd5b6004600082815260200190815260200160002060006101000a81549073ffffffffffffffffffffffffffffffffffffffff02191690556001600360008573ffffffffffffffffffffffffffffffffffffffff1673ffffffffffffffffffffffffffffffffffffffff168152602001908152602001600020600082825403925050819055506001600360008473ffffffffffffffffffffffffffffffffffffffff1673ffffffffffffffffffffffffffffffffffffffff16815260200190815260200160002060008282540192505081905550816002600083815260200190815260200160002060006101000a81548173ffffffffffffffffffffffffffffffffffffffff021916908373ffffffffffffffffffffffffffffffffffffffff160217905550808273ffffffffffffffffffffffffffffffffffffffff168473ffffffffffffffffffffffffffffffffffffffff167fddf252ad1be2c89b69c2b068fc378daa952ba7f163c4a11628f55a4df523b3ef60405160405180910390a4611f548383836001612526565b505050565b60006002600083815260200190815260200160002060009054906101000a900473ffffffffffffffffffffffffffffffffffffffff169050919050565b6000600a60009054906101000a900473ffffffffffffffffffffffffffffffffffffffff16905081600a60006101000a81548173ffffffffffffffffffffffffffffffffffffffff021916908373ffffffffffffffffffffffffffffffffffffffff1602179055508173ffffffffffffffffffffffffffffffffffffffff168173ffffffffffffffffffffffffffffffffffffffff167f8be0079c531659141344cd1fd0a4f28419497f9722a3daafe3b4186f6b6457e060405160405180910390a35050565b61207682826040518060200160405280600081525061252c565b5050565b8173ffffffffffffffffffffffffffffffffffffffff168373ffffffffffffffffffffffffffffffffffffffff1614156120e9576040517f08c379a00000000000000000000000000000000000000000000000000000000081526004016120e09061440e565b60405180910390fd5b80600560008573ffffffffffffffffffffffffffffffffffffffff1673ffffffffffffffffffffffffffffffffffffffff16815260200190815260200160002060008473ffffffffffffffffffffffffffffffffffffffff1673ffffffffffffffffffffffffffffffffffffffff16815260200190815260200160002060006101000a81548160ff0219169083151502179055508173ffffffffffffffffffffffffffffffffffffffff168373ffffffffffffffffffffffffffffffffffffffff167f17307eab39ab6107e8899845ad3d59bd9653f200f220920489ca2b5937696c31836040516121da9190612ea6565b60405180910390a3505050565b6121f2848484611c5f565b6121fe84848484612587565b61223d576040517f08c379a0000000000000000000000000000000000000000000000000000000008152600401612234906144a0565b60405180910390fd5b50505050565b60008073ffffffffffffffffffffffffffffffffffffffff1661226583611f59565b73ffffffffffffffffffffffffffffffffffffffff1614159050919050565b6060600060016122938461271e565b01905060008167ffffffffffffffff8111156122b2576122b1613385565b5b6040519080825280601f01601f1916602001820160405280156122e45781602001600182028036833780820191505090505b509050600082602001820190505b600115612351578080600190039150507f3031323334353637383961626364656600000000000000000000000000000000600a86061a8153600a858161233b5761233a6144c0565b5b049450600085141561234c57612351565b6122f2565b819350505050919050565b60007f01ffc9a7000000000000000000000000000000000000000000000000000000007bffffffffffffffffffffffffffffffffffffffffffffffffffffffff1916827bffffffffffffffffffffffffffffffffffffffffffffffffffffffff1916149050919050565b6123d284848484612871565b6001811115612416576040517f08c379a000000000000000000000000000000000000000000000000000000000815260040161240d90614561565b60405180910390fd5b6000829050600073ffffffffffffffffffffffffffffffffffffffff168573ffffffffffffffffffffffffffffffffffffffff16141561245e5761245981612877565b61249d565b8373ffffffffffffffffffffffffffffffffffffffff168573ffffffffffffffffffffffffffffffffffffffff161461249c5761249b85826128c0565b5b5b600073ffffffffffffffffffffffffffffffffffffffff168473ffffffffffffffffffffffffffffffffffffffff1614156124e0576124db81612a2d565b61251f565b8473ffffffffffffffffffffffffffffffffffffffff168473ffffffffffffffffffffffffffffffffffffffff161461251e5761251d8482612afe565b5b5b5050505050565b50505050565b6125368383612b7d565b6125436000848484612587565b612582576040517f08c379a0000000000000000000000000000000000000000000000000000000008152600401612579906144a0565b60405180910390fd5b505050565b60006125a88473ffffffffffffffffffffffffffffffffffffffff16612d9b565b15612711578373ffffffffffffffffffffffffffffffffffffffff1663150b7a026125d1611a8b565b8786866040518563ffffffff1660e01b81526004016125f394939291906145d6565b602060405180830381600087803b15801561260d57600080fd5b505af192505050801561263e57506040513d601f19601f8201168201806040525081019061263b9190614637565b60015b6126c1573d806000811461266e576040519150601f19603f3d011682016040523d82523d6000602084013e612673565b606091505b506000815114156126b9576040517f08c379a00000000000000000000000000000000000000000000000000000000081526004016126b0906144a0565b60405180910390fd5b805181602001fd5b63150b7a0260e01b7bffffffffffffffffffffffffffffffffffffffffffffffffffffffff1916817bffffffffffffffffffffffffffffffffffffffffffffffffffffffff191614915050612716565b600190505b949350505050565b600080600090507a184f03e93ff9f4daa797ed6e38ed64bf6a1f010000000000000000831061277c577a184f03e93ff9f4daa797ed6e38ed64bf6a1f0100000000000000008381612772576127716144c0565b5b0492506040810190505b6d04ee2d6d415b85acef810000000083106127b9576d04ee2d6d415b85acef810000000083816127af576127ae6144c0565b5b0492506020810190505b662386f26fc1000083106127e857662386f26fc1000083816127de576127dd6144c0565b5b0492506010810190505b6305f5e1008310612811576305f5e1008381612807576128066144c0565b5b0492506008810190505b612710831061283657612710838161282c5761282b6144c0565b5b0492506004810190505b60648310612859576064838161284f5761284e6144c0565b5b0492506002810190505b600a8310612868576001810190505b80915050919050565b50505050565b6008805490506009600083815260200190815260200160002081905550600881908060018154018082558091505060019003906000526020600020016000909190919091505550565b600060016128cd8461114d565b6128d79190614664565b90506000600760008481526020019081526020016000205490508181146129bc576000600660008673ffffffffffffffffffffffffffffffffffffffff1673ffffffffffffffffffffffffffffffffffffffff168152602001908152602001600020600084815260200190815260200160002054905080600660008773ffffffffffffffffffffffffffffffffffffffff1673ffffffffffffffffffffffffffffffffffffffff168152602001908152602001600020600084815260200190815260200160002081905550816007600083815260200190815260200160002081905550505b6007600084815260200190815260200160002060009055600660008573ffffffffffffffffffffffffffffffffffffffff1673ffffffffffffffffffffffffffffffffffffffff16815260200190815260200160002060008381526020019081526020016000206000905550505050565b60006001600880549050612a419190614664565b9050600060096000848152602001908152602001600020549050600060088381548110612a7157612a706138ee565b5b906000526020600020015490508060088381548110612a9357612a926138ee565b5b906000526020600020018190555081600960008381526020019081526020016000208190555060096000858152602001908152602001600020600090556008805480612ae257612ae1614698565b5b6001900381819060005260206000200160009055905550505050565b6000612b098361114d565b905081600660008573ffffffffffffffffffffffffffffffffffffffff1673ffffffffffffffffffffffffffffffffffffffff168152602001908152602001600020600083815260200190815260200160002081905550806007600084815260200190815260200160002081905550505050565b600073ffffffffffffffffffffffffffffffffffffffff168273ffffffffffffffffffffffffffffffffffffffff161415612bed576040517f08c379a0000000000000000000000000000000000000000000000000000000008152600401612be490614713565b60405180910390fd5b612bf681612243565b15612c36576040517f08c379a0000000000000000000000000000000000000000000000000000000008152600401612c2d9061477f565b60405180910390fd5b612c446000838360016123c6565b612c4d81612243565b15612c8d576040517f08c379a0000000000000000000000000000000000000000000000000000000008152600401612c849061477f565b60405180910390fd5b6001600360008473ffffffffffffffffffffffffffffffffffffffff1673ffffffffffffffffffffffffffffffffffffffff16815260200190815260200160002060008282540192505081905550816002600083815260200190815260200160002060006101000a81548173ffffffffffffffffffffffffffffffffffffffff021916908373ffffffffffffffffffffffffffffffffffffffff160217905550808273ffffffffffffffffffffffffffffffffffffffff16600073ffffffffffffffffffffffffffffffffffffffff167fddf252ad1be2c89b69c2b068fc378daa952ba7f163c4a11628f55a4df523b3ef60405160405180910390a4612d97600083836001612526565b5050565b6000808273ffffffffffffffffffffffffffffffffffffffff163b119050919050565b6000819050919050565b612dd181612dbe565b82525050565b6000602082019050612dec6000830184612dc8565b92915050565b6000604051905090565b600080fd5b600080fd5b60007fffffffff0000000000000000000000000000000000000000000000000000000082169050919050565b612e3b81612e06565b8114612e4657600080fd5b50565b600081359050612e5881612e32565b92915050565b600060208284031215612e7457612e73612dfc565b5b6000612e8284828501612e49565b91505092915050565b60008115159050919050565b612ea081612e8b565b82525050565b6000602082019050612ebb6000830184612e97565b92915050565b600081519050919050565b600082825260208201905092915050565b60005b83811015612efb578082015181840152602081019050612ee0565b83811115612f0a576000848401525b50505050565b6000601f19601f8301169050919050565b6000612f2c82612ec1565b612f368185612ecc565b9350612f46818560208601612edd565b612f4f81612f10565b840191505092915050565b60006020820190508181036000830152612f748184612f21565b905092915050565b612f8581612dbe565b8114612f9057600080fd5b50565b600081359050612fa281612f7c565b92915050565b600060208284031215612fbe57612fbd612dfc565b5b6000612fcc84828501612f93565b91505092915050565b600073ffffffffffffffffffffffffffffffffffffffff82169050919050565b600061300082612fd5565b9050919050565b61301081612ff5565b82525050565b600060208201905061302b6000830184613007565b92915050565b61303a81612ff5565b811461304557600080fd5b50565b60008135905061305781613031565b92915050565b6000806040838503121561307457613073612dfc565b5b600061308285828601613048565b925050602061309385828601612f93565b9150509250929050565b600080fd5b600080fd5b600080fd5b60008083601f8401126130c2576130c161309d565b5b8235905067ffffffffffffffff8111156130df576130de6130a2565b5b6020830191508360018202830111156130fb576130fa6130a7565b5b9250929050565b60008060008060006080868803121561311e5761311d612dfc565b5b600061312c88828901613048565b955050602061313d88828901613048565b945050604061314e88828901612f93565b935050606086013567ffffffffffffffff81111561316f5761316e612e01565b5b61317b888289016130ac565b92509250509295509295909350565b61319381612e06565b82525050565b60006020820190506131ae600083018461318a565b92915050565b6000806000606084860312156131cd576131cc612dfc565b5b60006131db86828701613048565b93505060206131ec86828701613048565b92505060406131fd86828701612f93565b9150509250925092565b60006020828403121561321d5761321c612dfc565b5b600061322b84828501613048565b91505092915050565b600081519050919050565b600082825260208201905092915050565b6000819050602082019050919050565b61326981612dbe565b82525050565b600061327b8383613260565b60208301905092915050565b6000602082019050919050565b600061329f82613234565b6132a9818561323f565b93506132b483613250565b8060005b838110156132e55781516132cc888261326f565b97506132d783613287565b9250506001810190506132b8565b5085935050505092915050565b6000602082019050818103600083015261330c8184613294565b905092915050565b61331d81612e8b565b811461332857600080fd5b50565b60008135905061333a81613314565b92915050565b6000806040838503121561335757613356612dfc565b5b600061336585828601613048565b92505060206133768582860161332b565b9150509250929050565b600080fd5b7f4e487b7100000000000000000000000000000000000000000000000000000000600052604160045260246000fd5b6133bd82612f10565b810181811067ffffffffffffffff821117156133dc576133db613385565b5b80604052505050565b60006133ef612df2565b90506133fb82826133b4565b919050565b600067ffffffffffffffff82111561341b5761341a613385565b5b61342482612f10565b9050602081019050919050565b82818337600083830152505050565b600061345361344e84613400565b6133e5565b90508281526020810184848401111561346f5761346e613380565b5b61347a848285613431565b509392505050565b600082601f8301126134975761349661309d565b5b81356134a7848260208601613440565b91505092915050565b600080600080608085870312156134ca576134c9612dfc565b5b60006134d887828801613048565b94505060206134e987828801613048565b93505060406134fa87828801612f93565b925050606085013567ffffffffffffffff81111561351b5761351a612e01565b5b61352787828801613482565b91505092959194509250565b6000806040838503121561354a57613549612dfc565b5b600061355885828601613048565b925050602061356985828601613048565b9150509250929050565b7f4e487b7100000000000000000000000000000000000000000000000000000000600052602260045260246000fd5b600060028204905060018216806135ba57607f821691505b602082108114156135ce576135cd613573565b5b50919050565b7f4552433732313a20617070726f76616c20746f2063757272656e74206f776e6560008201527f7200000000000000000000000000000000000000000000000000000000000000602082015250565b6000613630602183612ecc565b915061363b826135d4565b604082019050919050565b6000602082019050818103600083015261365f81613623565b9050919050565b7f4552433732313a20617070726f76652063616c6c6572206973206e6f7420746f60008201527f6b656e206f776e6572206f7220617070726f76656420666f7220616c6c000000602082015250565b60006136c2603d83612ecc565b91506136cd82613666565b604082019050919050565b600060208201905081810360008301526136f1816136b5565b9050919050565b7f4552433732313a2063616c6c6572206973206e6f7420746f6b656e206f776e6560008201527f72206f7220617070726f76656400000000000000000000000000000000000000602082015250565b6000613754602d83612ecc565b915061375f826136f8565b604082019050919050565b6000602082019050818103600083015261378381613747565b9050919050565b7f455243373231456e756d657261626c653a206f776e657220696e646578206f7560008201527f74206f6620626f756e6473000000000000000000000000000000000000000000602082015250565b60006137e6602b83612ecc565b91506137f18261378a565b604082019050919050565b60006020820190508181036000830152613815816137d9565b9050919050565b60008160601b9050919050565b60006138348261381c565b9050919050565b600061384682613829565b9050919050565b61385e61385982612ff5565b61383b565b82525050565b6000613870828461384d565b60148201915081905092915050565b600081905092915050565b50565b600061389a60008361387f565b91506138a58261388a565b600082019050919050565b60006138bb8261388d565b9150819050919050565b60006040820190506138da6000830185612dc8565b6138e76020830184613007565b9392505050565b7f4e487b7100000000000000000000000000000000000000000000000000000000600052603260045260246000fd5b7f4e487b7100000000000000000000000000000000000000000000000000000000600052601160045260246000fd5b600061395782612dbe565b91507fffffffffffffffffffffffffffffffffffffffffffffffffffffffffffffffff82141561398a5761398961391d565b5b600182019050919050565b7f455243373231456e756d657261626c653a20676c6f62616c20696e646578206f60008201527f7574206f6620626f756e64730000000000000000000000000000000000000000602082015250565b60006139f1602c83612ecc565b91506139fc82613995565b604082019050919050565b60006020820190508181036000830152613a20816139e4565b9050919050565b7f4552433732313a20696e76616c696420746f6b656e2049440000000000000000600082015250565b6000613a5d601883612ecc565b9150613a6882613a27565b602082019050919050565b60006020820190508181036000830152613a8c81613a50565b9050919050565b7f4e6f7420746865206f776e657200000000000000000000000000000000000000600082015250565b6000613ac9600d83612ecc565b9150613ad482613a93565b602082019050919050565b60006020820190508181036000830152613af881613abc565b9050919050565b7f546f6b656e20616c7265616479207374616b6564000000000000000000000000600082015250565b6000613b35601483612ecc565b9150613b4082613aff565b602082019050919050565b60006020820190508181036000830152613b6481613b28565b9050919050565b7f4552433732313a2061646472657373207a65726f206973206e6f74206120766160008201527f6c6964206f776e65720000000000000000000000000000000000000000000000602082015250565b6000613bc7602983612ecc565b9150613bd282613b6b565b604082019050919050565b60006020820190508181036000830152613bf681613bba565b9050919050565b7f4d696e74696e67206e6f74206f70656e20796574000000000000000000000000600082015250565b6000613c33601483612ecc565b9150613c3e82613bfd565b602082019050919050565b60006020820190508181036000830152613c6281613c26565b9050919050565b7f4d696e74696e6720686173206265656e20706175736564000000000000000000600082015250565b6000613c9f601783612ecc565b9150613caa82613c69565b602082019050919050565b60006020820190508181036000830152613cce81613c92565b9050919050565b7f746869732061646472657373206973206e6f74206f6e2074686520616c6c6f7760008201527f206c697374000000000000000000000000000000000000000000000000000000602082015250565b6000613d31602583612ecc565b9150613d3c82613cd5565b604082019050919050565b60006020820190508181036000830152613d6081613d24565b9050919050565b7f6d757374206d696e74206174206c656173742031204e46540000000000000000600082015250565b6000613d9d601883612ecc565b9150613da882613d67565b602082019050919050565b60006020820190508181036000830152613dcc81613d90565b9050919050565b6000613dde82612dbe565b9150613de983612dbe565b9250817fffffffffffffffffffffffffffffffffffffffffffffffffffffffffffffffff0483118215151615613e2257613e2161391d565b5b828202905092915050565b7f696e737566666963656e74207061796d656e7400000000000000000000000000600082015250565b6000613e63601383612ecc565b9150613e6e82613e2d565b602082019050919050565b60006020820190508181036000830152613e9281613e56565b9050919050565b7f43616e6e6f74206d696e74206d6f7265207468616e2035204e46547300000000600082015250565b6000613ecf601c83612ecc565b9150613eda82613e99565b602082019050919050565b60006020820190508181036000830152613efe81613ec2565b9050919050565b6000613f1082612dbe565b9150613f1b83612dbe565b9250827fffffffffffffffffffffffffffffffffffffffffffffffffffffffffffffffff03821115613f5057613f4f61391d565b5b828201905092915050565b7f6578636565646564206d617820737570706c7900000000000000000000000000600082015250565b6000613f91601383612ecc565b9150613f9c82613f5b565b602082019050919050565b60006020820190508181036000830152613fc081613f84565b9050919050565b7f546f6b656e206973206e6f74207374616b656400000000000000000000000000600082015250565b6000613ffd601383612ecc565b915061400882613fc7565b602082019050919050565b6000602082019050818103600083015261402c81613ff0565b9050919050565b7f746f6b656e20646f6573206e6f74206578697374000000000000000000000000600082015250565b6000614069601483612ecc565b915061407482614033565b602082019050919050565b600060208201905081810360008301526140988161405c565b9050919050565b600081905092915050565b60008190508160005260206000209050919050565b600081546140cc816135a2565b6140d6818661409f565b945060018216600081146140f1576001811461410257614135565b60ff19831686528186019350614135565b61410b856140aa565b60005b8381101561412d5781548189015260018201915060208101905061410e565b838801955050505b50505092915050565b600061414982612ec1565b614153818561409f565b9350614163818560208601612edd565b80840191505092915050565b600061417b82866140bf565b9150614187828561413e565b915061419382846140bf565b9150819050949350505050565b7f4f776e61626c653a206e6577206f776e657220697320746865207a65726f206160008201527f6464726573730000000000000000000000000000000000000000000000000000602082015250565b60006141fc602683612ecc565b9150614207826141a0565b604082019050919050565b6000602082019050818103600083015261422b816141ef565b9050919050565b7f4f776e61626c653a2063616c6c6572206973206e6f7420746865206f776e6572600082015250565b6000614268602083612ecc565b915061427382614232565b602082019050919050565b600060208201905081810360008301526142978161425b565b9050919050565b7f4552433732313a207472616e736665722066726f6d20696e636f72726563742060008201527f6f776e6572000000000000000000000000000000000000000000000000000000602082015250565b60006142fa602583612ecc565b91506143058261429e565b604082019050919050565b60006020820190508181036000830152614329816142ed565b9050919050565b7f4552433732313a207472616e7366657220746f20746865207a65726f2061646460008201527f7265737300000000000000000000000000000000000000000000000000000000602082015250565b600061438c602483612ecc565b915061439782614330565b604082019050919050565b600060208201905081810360008301526143bb8161437f565b9050919050565b7f4552433732313a20617070726f766520746f2063616c6c657200000000000000600082015250565b60006143f8601983612ecc565b9150614403826143c2565b602082019050919050565b60006020820190508181036000830152614427816143eb565b9050919050565b7f4552433732313a207472616e7366657220746f206e6f6e20455243373231526560008201527f63656976657220696d706c656d656e7465720000000000000000000000000000602082015250565b600061448a603283612ecc565b91506144958261442e565b604082019050919050565b600060208201905081810360008301526144b98161447d565b9050919050565b7f4e487b7100000000000000000000000000000000000000000000000000000000600052601260045260246000fd5b7f455243373231456e756d657261626c653a20636f6e736563757469766520747260008201527f616e7366657273206e6f7420737570706f727465640000000000000000000000602082015250565b600061454b603583612ecc565b9150614556826144ef565b604082019050919050565b6000602082019050818103600083015261457a8161453e565b9050919050565b600081519050919050565b600082825260208201905092915050565b60006145a882614581565b6145b2818561458c565b93506145c2818560208601612edd565b6145cb81612f10565b840191505092915050565b60006080820190506145eb6000830187613007565b6145f86020830186613007565b6146056040830185612dc8565b8181036060830152614617818461459d565b905095945050505050565b60008151905061463181612e32565b92915050565b60006020828403121561464d5761464c612dfc565b5b600061465b84828501614622565b91505092915050565b600061466f82612dbe565b915061467a83612dbe565b92508282101561468d5761468c61391d565b5b828203905092915050565b7f4e487b7100000000000000000000000000000000000000000000000000000000600052603160045260246000fd5b7f4552433732313a206d696e7420746f20746865207a65726f2061646472657373600082015250565b60006146fd602083612ecc565b9150614708826146c7565b602082019050919050565b6000602082019050818103600083015261472c816146f0565b9050919050565b7f4552433732313a20746f6b656e20616c7265616479206d696e74656400000000600082015250565b6000614769601c83612ecc565b915061477482614733565b602082019050919050565b600060208201905081810360008301526147988161475c565b905091905056fea2646970667358221220f689c71ea4aeae1d331fdd131c3b206e01ba2dbb1bfda9e02f671a54ea93331b64736f6c63430008090033",
  "linkReferences": {},
  "deployedLinkReferences": {}
}