{
  "_format": "hh-sol-artifact-1",
  "contractName": "NFT",
  "sourceName": "contracts/NFT.sol",
  "abi": [
    {
      "inputs": [
        {
          "internalType": "string",
          "name": "_name",
          "type": "string"
        },
        {
          "internalType": "string",
          "name": "_symbol",
          "type": "string"
        },
        {
          "internalType": "uint256",
          "name": "_cost",
          "type": "uint256"
        },
        {
          "internalType": "uint256",
          "name": "_maxSupply",
          "type": "uint256"
        },
        {
          "internalType": "uint256",
          "name": "_allowMintingOn",
          "type": "uint256"
        },
        {
          "internalType": "string",
          "name": "_baseURI",
          "type": "string"
        }
      ],
      "stateMutability": "nonpayable",
      "type": "constructor"
    },
    {
      "anonymous": false,
      "inputs": [
        {
          "indexed": true,
          "internalType": "address",
          "name": "owner",
          "type": "address"
        },
        {
          "indexed": true,
          "internalType": "address",
          "name": "approved",
          "type": "address"
        },
        {
          "indexed": true,
          "internalType": "uint256",
          "name": "tokenId",
          "type": "uint256"
        }
      ],
      "name": "Approval",
      "type": "event"
    },
    {
      "anonymous": false,
      "inputs": [
        {
          "indexed": true,
          "internalType": "address",
          "name": "owner",
          "type": "address"
        },
        {
          "indexed": true,
          "internalType": "address",
          "name": "operator",
          "type": "address"
        },
        {
          "indexed": false,
          "internalType": "bool",
          "name": "approved",
          "type": "bool"
        }
      ],
      "name": "ApprovalForAll",
      "type": "event"
    },
    {
      "anonymous": false,
      "inputs": [
        {
          "indexed": false,
          "internalType": "uint256",
          "name": "amount",
          "type": "uint256"
        },
        {
          "indexed": false,
          "internalType": "address",
          "name": "minter",
          "type": "address"
        }
      ],
      "name": "Mint",
      "type": "event"
    },
    {
      "anonymous": false,
      "inputs": [
        {
          "indexed": true,
          "internalType": "address",
          "name": "previousOwner",
          "type": "address"
        },
        {
          "indexed": true,
          "internalType": "address",
          "name": "newOwner",
          "type": "address"
        }
      ],
      "name": "OwnershipTransferred",
      "type": "event"
    },
    {
      "anonymous": false,
      "inputs": [
        {
          "indexed": true,
          "internalType": "address",
          "name": "from",
          "type": "address"
        },
        {
          "indexed": true,
          "internalType": "address",
          "name": "to",
          "type": "address"
        },
        {
          "indexed": true,
          "internalType": "uint256",
          "name": "tokenId",
          "type": "uint256"
        }
      ],
      "name": "Transfer",
      "type": "event"
    },
    {
      "inputs": [
        {
          "internalType": "address",
          "name": "_address",
          "type": "address"
        }
      ],
      "name": "addAddress",
      "outputs": [],
      "stateMutability": "nonpayable",
      "type": "function"
    },
    {
      "inputs": [],
      "name": "allowMintingOn",
      "outputs": [
        {
          "internalType": "uint256",
          "name": "",
          "type": "uint256"
        }
      ],
      "stateMutability": "view",
      "type": "function"
    },
    {
      "inputs": [
        {
          "internalType": "address",
          "name": "to",
          "type": "address"
        },
        {
          "internalType": "uint256",
          "name": "tokenId",
          "type": "uint256"
        }
      ],
      "name": "approve",
      "outputs": [],
      "stateMutability": "nonpayable",
      "type": "function"
    },
    {
      "inputs": [
        {
          "internalType": "address",
          "name": "owner",
          "type": "address"
        }
      ],
      "name": "balanceOf",
      "outputs": [
        {
          "internalType": "uint256",
          "name": "",
          "type": "uint256"
        }
      ],
      "stateMutability": "view",
      "type": "function"
    },
    {
      "inputs": [],
      "name": "baseExtension",
      "outputs": [
        {
          "internalType": "string",
          "name": "",
          "type": "string"
        }
      ],
      "stateMutability": "view",
      "type": "function"
    },
    {
      "inputs": [],
      "name": "baseURI",
      "outputs": [
        {
          "internalType": "string",
          "name": "",
          "type": "string"
        }
      ],
      "stateMutability": "view",
      "type": "function"
    },
    {
      "inputs": [],
      "name": "cost",
      "outputs": [
        {
          "internalType": "uint256",
          "name": "",
          "type": "uint256"
        }
      ],
      "stateMutability": "view",
      "type": "function"
    },
    {
      "inputs": [
        {
          "internalType": "uint256",
          "name": "tokenId",
          "type": "uint256"
        }
      ],
      "name": "getApproved",
      "outputs": [
        {
          "internalType": "address",
          "name": "",
          "type": "address"
        }
      ],
      "stateMutability": "view",
      "type": "function"
    },
    {
      "inputs": [
        {
          "internalType": "address",
          "name": "owner",
          "type": "address"
        },
        {
          "internalType": "address",
          "name": "operator",
          "type": "address"
        }
      ],
      "name": "isApprovedForAll",
      "outputs": [
        {
          "internalType": "bool",
          "name": "",
          "type": "bool"
        }
      ],
      "stateMutability": "view",
      "type": "function"
    },
    {
      "inputs": [
        {
          "internalType": "address",
          "name": "_address",
          "type": "address"
        }
      ],
      "name": "isOnList",
      "outputs": [
        {
          "internalType": "bool",
          "name": "",
          "type": "bool"
        }
      ],
      "stateMutability": "view",
      "type": "function"
    },
    {
      "inputs": [],
      "name": "maxSupply",
      "outputs": [
        {
          "internalType": "uint256",
          "name": "",
          "type": "uint256"
        }
      ],
      "stateMutability": "view",
      "type": "function"
    },
    {
      "inputs": [
        {
          "internalType": "uint256",
          "name": "_mintAmount",
          "type": "uint256"
        }
      ],
      "name": "mint",
      "outputs": [],
      "stateMutability": "payable",
      "type": "function"
    },
    {
      "inputs": [],
      "name": "name",
      "outputs": [
        {
          "internalType": "string",
          "name": "",
          "type": "string"
        }
      ],
      "stateMutability": "view",
      "type": "function"
    },
    {
      "inputs": [],
      "name": "owner",
      "outputs": [
        {
          "internalType": "address",
          "name": "",
          "type": "address"
        }
      ],
      "stateMutability": "view",
      "type": "function"
    },
    {
      "inputs": [
        {
          "internalType": "uint256",
          "name": "tokenId",
          "type": "uint256"
        }
      ],
      "name": "ownerOf",
      "outputs": [
        {
          "internalType": "address",
          "name": "",
          "type": "address"
        }
      ],
      "stateMutability": "view",
      "type": "function"
    },
    {
      "inputs": [],
      "name": "renounceOwnership",
      "outputs": [],
      "stateMutability": "nonpayable",
      "type": "function"
    },
    {
      "inputs": [
        {
          "internalType": "address",
          "name": "from",
          "type": "address"
        },
        {
          "internalType": "address",
          "name": "to",
          "type": "address"
        },
        {
          "internalType": "uint256",
          "name": "tokenId",
          "type": "uint256"
        }
      ],
      "name": "safeTransferFrom",
      "outputs": [],
      "stateMutability": "nonpayable",
      "type": "function"
    },
    {
      "inputs": [
        {
          "internalType": "address",
          "name": "from",
          "type": "address"
        },
        {
          "internalType": "address",
          "name": "to",
          "type": "address"
        },
        {
          "internalType": "uint256",
          "name": "tokenId",
          "type": "uint256"
        },
        {
          "internalType": "bytes",
          "name": "data",
          "type": "bytes"
        }
      ],
      "name": "safeTransferFrom",
      "outputs": [],
      "stateMutability": "nonpayable",
      "type": "function"
    },
    {
      "inputs": [
        {
          "internalType": "address",
          "name": "operator",
          "type": "address"
        },
        {
          "internalType": "bool",
          "name": "approved",
          "type": "bool"
        }
      ],
      "name": "setApprovalForAll",
      "outputs": [],
      "stateMutability": "nonpayable",
      "type": "function"
    },
    {
      "inputs": [
        {
          "internalType": "bytes4",
          "name": "interfaceId",
          "type": "bytes4"
        }
      ],
      "name": "supportsInterface",
      "outputs": [
        {
          "internalType": "bool",
          "name": "",
          "type": "bool"
        }
      ],
      "stateMutability": "view",
      "type": "function"
    },
    {
      "inputs": [],
      "name": "symbol",
      "outputs": [
        {
          "internalType": "string",
          "name": "",
          "type": "string"
        }
      ],
      "stateMutability": "view",
      "type": "function"
    },
    {
      "inputs": [
        {
          "internalType": "uint256",
          "name": "index",
          "type": "uint256"
        }
      ],
      "name": "tokenByIndex",
      "outputs": [
        {
          "internalType": "uint256",
          "name": "",
          "type": "uint256"
        }
      ],
      "stateMutability": "view",
      "type": "function"
    },
    {
      "inputs": [
        {
          "internalType": "address",
          "name": "owner",
          "type": "address"
        },
        {
          "internalType": "uint256",
          "name": "index",
          "type": "uint256"
        }
      ],
      "name": "tokenOfOwnerByIndex",
      "outputs": [
        {
          "internalType": "uint256",
          "name": "",
          "type": "uint256"
        }
      ],
      "stateMutability": "view",
      "type": "function"
    },
    {
      "inputs": [
        {
          "internalType": "uint256",
          "name": "_tokenId",
          "type": "uint256"
        }
      ],
      "name": "tokenURI",
      "outputs": [
        {
          "internalType": "string",
          "name": "",
          "type": "string"
        }
      ],
      "stateMutability": "view",
      "type": "function"
    },
    {
      "inputs": [],
      "name": "totalSupply",
      "outputs": [
        {
          "internalType": "uint256",
          "name": "",
          "type": "uint256"
        }
      ],
      "stateMutability": "view",
      "type": "function"
    },
    {
      "inputs": [
        {
          "internalType": "address",
          "name": "from",
          "type": "address"
        },
        {
          "internalType": "address",
          "name": "to",
          "type": "address"
        },
        {
          "internalType": "uint256",
          "name": "tokenId",
          "type": "uint256"
        }
      ],
      "name": "transferFrom",
      "outputs": [],
      "stateMutability": "nonpayable",
      "type": "function"
    },
    {
      "inputs": [
        {
          "internalType": "address",
          "name": "newOwner",
          "type": "address"
        }
      ],
      "name": "transferOwnership",
      "outputs": [],
      "stateMutability": "nonpayable",
      "type": "function"
    },
    {
      "inputs": [
        {
          "internalType": "address",
          "name": "_owner",
          "type": "address"
        }
      ],
      "name": "walletOfOwner",
      "outputs": [
        {
          "internalType": "uint256[]",
          "name": "",
          "type": "uint256[]"
        }
      ],
      "stateMutability": "view",
      "type": "function"
    }
  ],
  "bytecode": "0x60806040526040518060400160405280600581526020017f2e6a736f6e000000000000000000000000000000000000000000000000000000815250600f908051906020019062000051929190620001e3565b503480156200005f57600080fd5b506040516200447e3803806200447e83398181016040528101906200008591906200046b565b858581600090805190602001906200009f929190620001e3565b508060019080519060200190620000b8929190620001e3565b505050620000db620000cf6200011560201b60201c565b6200011d60201b60201c565b83600b8190555082600c8190555081600d8190555080600e908051906020019062000108929190620001e3565b50505050505050620005c9565b600033905090565b6000600a60009054906101000a900473ffffffffffffffffffffffffffffffffffffffff16905081600a60006101000a81548173ffffffffffffffffffffffffffffffffffffffff021916908373ffffffffffffffffffffffffffffffffffffffff1602179055508173ffffffffffffffffffffffffffffffffffffffff168173ffffffffffffffffffffffffffffffffffffffff167f8be0079c531659141344cd1fd0a4f28419497f9722a3daafe3b4186f6b6457e060405160405180910390a35050565b828054620001f19062000593565b90600052602060002090601f01602090048101928262000215576000855562000261565b82601f106200023057805160ff191683800117855562000261565b8280016001018555821562000261579182015b828111156200026057825182559160200191906001019062000243565b5b50905062000270919062000274565b5090565b5b808211156200028f57600081600090555060010162000275565b5090565b6000604051905090565b600080fd5b600080fd5b600080fd5b600080fd5b6000601f19601f8301169050919050565b7f4e487b7100000000000000000000000000000000000000000000000000000000600052604160045260246000fd5b620002fc82620002b1565b810181811067ffffffffffffffff821117156200031e576200031d620002c2565b5b80604052505050565b60006200033362000293565b9050620003418282620002f1565b919050565b600067ffffffffffffffff821115620003645762000363620002c2565b5b6200036f82620002b1565b9050602081019050919050565b60005b838110156200039c5780820151818401526020810190506200037f565b83811115620003ac576000848401525b50505050565b6000620003c9620003c38462000346565b62000327565b905082815260208101848484011115620003e857620003e7620002ac565b5b620003f58482856200037c565b509392505050565b600082601f830112620004155762000414620002a7565b5b815162000427848260208601620003b2565b91505092915050565b6000819050919050565b620004458162000430565b81146200045157600080fd5b50565b60008151905062000465816200043a565b92915050565b60008060008060008060c087890312156200048b576200048a6200029d565b5b600087015167ffffffffffffffff811115620004ac57620004ab620002a2565b5b620004ba89828a01620003fd565b965050602087015167ffffffffffffffff811115620004de57620004dd620002a2565b5b620004ec89828a01620003fd565b9550506040620004ff89828a0162000454565b94505060606200051289828a0162000454565b93505060806200052589828a0162000454565b92505060a087015167ffffffffffffffff811115620005495762000548620002a2565b5b6200055789828a01620003fd565b9150509295509295509295565b7f4e487b7100000000000000000000000000000000000000000000000000000000600052602260045260246000fd5b60006002820490506001821680620005ac57607f821691505b60208210811415620005c357620005c262000564565b5b50919050565b613ea580620005d96000396000f3fe6080604052600436106101b75760003560e01c80636c0360eb116100ec578063a22cb4651161008a578063c87b56dd11610064578063c87b56dd14610625578063d5abeb0114610662578063e985e9c51461068d578063f2fde38b146106ca576101b7565b8063a22cb465146105a8578063b88d4fde146105d1578063c6682862146105fa576101b7565b80637330daac116100c65780637330daac146104f95780638da5cb5b1461053657806395d89b4114610561578063a0712d681461058c576101b7565b80636c0360eb1461047a57806370a08231146104a5578063715018a6146104e2576101b7565b806323b872dd1161015957806342842e0e1161013357806342842e0e1461039a578063438b6300146103c35780634f6ccce7146104005780636352211e1461043d576101b7565b806323b872dd1461030b5780632f745c591461033457806338eada1c14610371576101b7565b8063081812fc11610195578063081812fc1461024f578063095ea7b31461028c57806313faede6146102b557806318160ddd146102e0576101b7565b806301467996146101bc57806301ffc9a7146101e757806306fdde0314610224575b600080fd5b3480156101c857600080fd5b506101d16106f3565b6040516101de919061281b565b60405180910390f35b3480156101f357600080fd5b5061020e600480360381019061020991906128a2565b6106f9565b60405161021b91906128ea565b60405180910390f35b34801561023057600080fd5b50610239610773565b604051610246919061299e565b60405180910390f35b34801561025b57600080fd5b50610276600480360381019061027191906129ec565b610805565b6040516102839190612a5a565b60405180910390f35b34801561029857600080fd5b506102b360048036038101906102ae9190612aa1565b61084b565b005b3480156102c157600080fd5b506102ca610963565b6040516102d7919061281b565b60405180910390f35b3480156102ec57600080fd5b506102f5610969565b604051610302919061281b565b60405180910390f35b34801561031757600080fd5b50610332600480360381019061032d9190612ae1565b610976565b005b34801561034057600080fd5b5061035b60048036038101906103569190612aa1565b6109d6565b604051610368919061281b565b60405180910390f35b34801561037d57600080fd5b5061039860048036038101906103939190612b34565b610a7b565b005b3480156103a657600080fd5b506103c160048036038101906103bc9190612ae1565b610ade565b005b3480156103cf57600080fd5b506103ea60048036038101906103e59190612b34565b610afe565b6040516103f79190612c1f565b60405180910390f35b34801561040c57600080fd5b50610427600480360381019061042291906129ec565b610bac565b604051610434919061281b565b60405180910390f35b34801561044957600080fd5b50610464600480360381019061045f91906129ec565b610c1d565b6040516104719190612a5a565b60405180910390f35b34801561048657600080fd5b5061048f610ca4565b60405161049c919061299e565b60405180910390f35b3480156104b157600080fd5b506104cc60048036038101906104c79190612b34565b610d32565b6040516104d9919061281b565b60405180910390f35b3480156104ee57600080fd5b506104f7610dea565b005b34801561050557600080fd5b50610520600480360381019061051b9190612b34565b610dfe565b60405161052d91906128ea565b60405180910390f35b34801561054257600080fd5b5061054b610e53565b6040516105589190612a5a565b60405180910390f35b34801561056d57600080fd5b50610576610e7d565b604051610583919061299e565b60405180910390f35b6105a660048036038101906105a191906129ec565b610f0f565b005b3480156105b457600080fd5b506105cf60048036038101906105ca9190612c6d565b6110ff565b005b3480156105dd57600080fd5b506105f860048036038101906105f39190612de2565b611115565b005b34801561060657600080fd5b5061060f611177565b60405161061c919061299e565b60405180910390f35b34801561063157600080fd5b5061064c600480360381019061064791906129ec565b611205565b604051610659919061299e565b60405180910390f35b34801561066e57600080fd5b50610677611284565b604051610684919061281b565b60405180910390f35b34801561069957600080fd5b506106b460048036038101906106af9190612e65565b61128a565b6040516106c191906128ea565b60405180910390f35b3480156106d657600080fd5b506106f160048036038101906106ec9190612b34565b61131e565b005b600d5481565b60007f780e9d63000000000000000000000000000000000000000000000000000000007bffffffffffffffffffffffffffffffffffffffffffffffffffffffff1916827bffffffffffffffffffffffffffffffffffffffffffffffffffffffff1916148061076c575061076b826113a2565b5b9050919050565b60606000805461078290612ed4565b80601f01602080910402602001604051908101604052809291908181526020018280546107ae90612ed4565b80156107fb5780601f106107d0576101008083540402835291602001916107fb565b820191906000526020600020905b8154815290600101906020018083116107de57829003601f168201915b5050505050905090565b600061081082611484565b6004600083815260200190815260200160002060009054906101000a900473ffffffffffffffffffffffffffffffffffffffff169050919050565b600061085682610c1d565b90508073ffffffffffffffffffffffffffffffffffffffff168373ffffffffffffffffffffffffffffffffffffffff1614156108c7576040517f08c379a00000000000000000000000000000000000000000000000000000000081526004016108be90612f78565b60405180910390fd5b8073ffffffffffffffffffffffffffffffffffffffff166108e66114cf565b73ffffffffffffffffffffffffffffffffffffffff16148061091557506109148161090f6114cf565b61128a565b5b610954576040517f08c379a000000000000000000000000000000000000000000000000000000000815260040161094b9061300a565b60405180910390fd5b61095e83836114d7565b505050565b600b5481565b6000600880549050905090565b6109876109816114cf565b82611590565b6109c6576040517f08c379a00000000000000000000000000000000000000000000000000000000081526004016109bd9061309c565b60405180910390fd5b6109d1838383611625565b505050565b60006109e183610d32565b8210610a22576040517f08c379a0000000000000000000000000000000000000000000000000000000008152600401610a199061312e565b60405180910390fd5b600660008473ffffffffffffffffffffffffffffffffffffffff1673ffffffffffffffffffffffffffffffffffffffff168152602001908152602001600020600083815260200190815260200160002054905092915050565b610a8361191f565b600081604051602001610a969190613196565b60405160208183030381529060405280519060200120905060016010600083815260200190815260200160002060006101000a81548160ff0219169083151502179055505050565b610af983838360405180602001604052806000815250611115565b505050565b60606000610b0b83610d32565b905060008167ffffffffffffffff811115610b2957610b28612cb7565b5b604051908082528060200260200182016040528015610b575781602001602082028036833780820191505090505b50905060005b82811015610ba157610b6f85826109d6565b828281518110610b8257610b816131b1565b5b6020026020010181815250508080610b999061320f565b915050610b5d565b508092505050919050565b6000610bb6610969565b8210610bf7576040517f08c379a0000000000000000000000000000000000000000000000000000000008152600401610bee906132ca565b60405180910390fd5b60088281548110610c0b57610c0a6131b1565b5b90600052602060002001549050919050565b600080610c298361199d565b9050600073ffffffffffffffffffffffffffffffffffffffff168173ffffffffffffffffffffffffffffffffffffffff161415610c9b576040517f08c379a0000000000000000000000000000000000000000000000000000000008152600401610c9290613336565b60405180910390fd5b80915050919050565b600e8054610cb190612ed4565b80601f0160208091040260200160405190810160405280929190818152602001828054610cdd90612ed4565b8015610d2a5780601f10610cff57610100808354040283529160200191610d2a565b820191906000526020600020905b815481529060010190602001808311610d0d57829003601f168201915b505050505081565b60008073ffffffffffffffffffffffffffffffffffffffff168273ffffffffffffffffffffffffffffffffffffffff161415610da3576040517f08c379a0000000000000000000000000000000000000000000000000000000008152600401610d9a906133c8565b60405180910390fd5b600360008373ffffffffffffffffffffffffffffffffffffffff1673ffffffffffffffffffffffffffffffffffffffff168152602001908152602001600020549050919050565b610df261191f565b610dfc60006119da565b565b60008082604051602001610e129190613196565b6040516020818303038152906040528051906020012090506010600082815260200190815260200160002060009054906101000a900460ff16915050919050565b6000600a60009054906101000a900473ffffffffffffffffffffffffffffffffffffffff16905090565b606060018054610e8c90612ed4565b80601f0160208091040260200160405190810160405280929190818152602001828054610eb890612ed4565b8015610f055780601f10610eda57610100808354040283529160200191610f05565b820191906000526020600020905b815481529060010190602001808311610ee857829003601f168201915b5050505050905090565b600d54421015610f54576040517f08c379a0000000000000000000000000000000000000000000000000000000008152600401610f4b90613434565b60405180910390fd5b610f5d33610dfe565b610f9c576040517f08c379a0000000000000000000000000000000000000000000000000000000008152600401610f93906134c6565b60405180910390fd5b60008111610fdf576040517f08c379a0000000000000000000000000000000000000000000000000000000008152600401610fd690613532565b60405180910390fd5b80600b54610fed9190613552565b34101561102f576040517f08c379a0000000000000000000000000000000000000000000000000000000008152600401611026906135f8565b60405180910390fd5b6000611039610969565b9050600c54828261104a9190613618565b111561108b576040517f08c379a0000000000000000000000000000000000000000000000000000000008152600401611082906136ba565b60405180910390fd5b6000600190505b8281116110c1576110ae3382846110a99190613618565b611aa0565b80806110b99061320f565b915050611092565b507ff3cea5493d790af0133817606f7350a91d7f154ea52eaa79d179d4d231e5010282336040516110f39291906136da565b60405180910390a15050565b61111161110a6114cf565b8383611abe565b5050565b6111266111206114cf565b83611590565b611165576040517f08c379a000000000000000000000000000000000000000000000000000000000815260040161115c9061309c565b60405180910390fd5b61117184848484611c2b565b50505050565b600f805461118490612ed4565b80601f01602080910402602001604051908101604052809291908181526020018280546111b090612ed4565b80156111fd5780601f106111d2576101008083540402835291602001916111fd565b820191906000526020600020905b8154815290600101906020018083116111e057829003601f168201915b505050505081565b606061121082611c87565b61124f576040517f08c379a00000000000000000000000000000000000000000000000000000000081526004016112469061374f565b60405180910390fd5b600e61125a83611cc8565b600f60405160200161126e9392919061383f565b6040516020818303038152906040529050919050565b600c5481565b6000600560008473ffffffffffffffffffffffffffffffffffffffff1673ffffffffffffffffffffffffffffffffffffffff16815260200190815260200160002060008373ffffffffffffffffffffffffffffffffffffffff1673ffffffffffffffffffffffffffffffffffffffff16815260200190815260200160002060009054906101000a900460ff16905092915050565b61132661191f565b600073ffffffffffffffffffffffffffffffffffffffff168173ffffffffffffffffffffffffffffffffffffffff161415611396576040517f08c379a000000000000000000000000000000000000000000000000000000000815260040161138d906138e2565b60405180910390fd5b61139f816119da565b50565b60007f80ac58cd000000000000000000000000000000000000000000000000000000007bffffffffffffffffffffffffffffffffffffffffffffffffffffffff1916827bffffffffffffffffffffffffffffffffffffffffffffffffffffffff1916148061146d57507f5b5e139f000000000000000000000000000000000000000000000000000000007bffffffffffffffffffffffffffffffffffffffffffffffffffffffff1916827bffffffffffffffffffffffffffffffffffffffffffffffffffffffff1916145b8061147d575061147c82611da0565b5b9050919050565b61148d81611c87565b6114cc576040517f08c379a00000000000000000000000000000000000000000000000000000000081526004016114c390613336565b60405180910390fd5b50565b600033905090565b816004600083815260200190815260200160002060006101000a81548173ffffffffffffffffffffffffffffffffffffffff021916908373ffffffffffffffffffffffffffffffffffffffff160217905550808273ffffffffffffffffffffffffffffffffffffffff1661154a83610c1d565b73ffffffffffffffffffffffffffffffffffffffff167f8c5be1e5ebec7d5bd14f71427d1e84f3dd0314c0f7b2291e5b200ac8c7c3b92560405160405180910390a45050565b60008061159c83610c1d565b90508073ffffffffffffffffffffffffffffffffffffffff168473ffffffffffffffffffffffffffffffffffffffff1614806115de57506115dd818561128a565b5b8061161c57508373ffffffffffffffffffffffffffffffffffffffff1661160484610805565b73ffffffffffffffffffffffffffffffffffffffff16145b91505092915050565b8273ffffffffffffffffffffffffffffffffffffffff1661164582610c1d565b73ffffffffffffffffffffffffffffffffffffffff161461169b576040517f08c379a000000000000000000000000000000000000000000000000000000000815260040161169290613974565b60405180910390fd5b600073ffffffffffffffffffffffffffffffffffffffff168273ffffffffffffffffffffffffffffffffffffffff16141561170b576040517f08c379a000000000000000000000000000000000000000000000000000000000815260040161170290613a06565b60405180910390fd5b6117188383836001611e0a565b8273ffffffffffffffffffffffffffffffffffffffff1661173882610c1d565b73ffffffffffffffffffffffffffffffffffffffff161461178e576040517f08c379a000000000000000000000000000000000000000000000000000000000815260040161178590613974565b60405180910390fd5b6004600082815260200190815260200160002060006101000a81549073ffffffffffffffffffffffffffffffffffffffff02191690556001600360008573ffffffffffffffffffffffffffffffffffffffff1673ffffffffffffffffffffffffffffffffffffffff168152602001908152602001600020600082825403925050819055506001600360008473ffffffffffffffffffffffffffffffffffffffff1673ffffffffffffffffffffffffffffffffffffffff16815260200190815260200160002060008282540192505081905550816002600083815260200190815260200160002060006101000a81548173ffffffffffffffffffffffffffffffffffffffff021916908373ffffffffffffffffffffffffffffffffffffffff160217905550808273ffffffffffffffffffffffffffffffffffffffff168473ffffffffffffffffffffffffffffffffffffffff167fddf252ad1be2c89b69c2b068fc378daa952ba7f163c4a11628f55a4df523b3ef60405160405180910390a461191a8383836001611f6a565b505050565b6119276114cf565b73ffffffffffffffffffffffffffffffffffffffff16611945610e53565b73ffffffffffffffffffffffffffffffffffffffff161461199b576040517f08c379a000000000000000000000000000000000000000000000000000000000815260040161199290613a72565b60405180910390fd5b565b60006002600083815260200190815260200160002060009054906101000a900473ffffffffffffffffffffffffffffffffffffffff169050919050565b6000600a60009054906101000a900473ffffffffffffffffffffffffffffffffffffffff16905081600a60006101000a81548173ffffffffffffffffffffffffffffffffffffffff021916908373ffffffffffffffffffffffffffffffffffffffff1602179055508173ffffffffffffffffffffffffffffffffffffffff168173ffffffffffffffffffffffffffffffffffffffff167f8be0079c531659141344cd1fd0a4f28419497f9722a3daafe3b4186f6b6457e060405160405180910390a35050565b611aba828260405180602001604052806000815250611f70565b5050565b8173ffffffffffffffffffffffffffffffffffffffff168373ffffffffffffffffffffffffffffffffffffffff161415611b2d576040517f08c379a0000000000000000000000000000000000000000000000000000000008152600401611b2490613ade565b60405180910390fd5b80600560008573ffffffffffffffffffffffffffffffffffffffff1673ffffffffffffffffffffffffffffffffffffffff16815260200190815260200160002060008473ffffffffffffffffffffffffffffffffffffffff1673ffffffffffffffffffffffffffffffffffffffff16815260200190815260200160002060006101000a81548160ff0219169083151502179055508173ffffffffffffffffffffffffffffffffffffffff168373ffffffffffffffffffffffffffffffffffffffff167f17307eab39ab6107e8899845ad3d59bd9653f200f220920489ca2b5937696c3183604051611c1e91906128ea565b60405180910390a3505050565b611c36848484611625565b611c4284848484611fcb565b611c81576040517f08c379a0000000000000000000000000000000000000000000000000000000008152600401611c7890613b70565b60405180910390fd5b50505050565b60008073ffffffffffffffffffffffffffffffffffffffff16611ca98361199d565b73ffffffffffffffffffffffffffffffffffffffff1614159050919050565b606060006001611cd784612162565b01905060008167ffffffffffffffff811115611cf657611cf5612cb7565b5b6040519080825280601f01601f191660200182016040528015611d285781602001600182028036833780820191505090505b509050600082602001820190505b600115611d95578080600190039150507f3031323334353637383961626364656600000000000000000000000000000000600a86061a8153600a8581611d7f57611d7e613b90565b5b0494506000851415611d9057611d95565b611d36565b819350505050919050565b60007f01ffc9a7000000000000000000000000000000000000000000000000000000007bffffffffffffffffffffffffffffffffffffffffffffffffffffffff1916827bffffffffffffffffffffffffffffffffffffffffffffffffffffffff1916149050919050565b611e16848484846122b5565b6001811115611e5a576040517f08c379a0000000000000000000000000000000000000000000000000000000008152600401611e5190613c31565b60405180910390fd5b6000829050600073ffffffffffffffffffffffffffffffffffffffff168573ffffffffffffffffffffffffffffffffffffffff161415611ea257611e9d816122bb565b611ee1565b8373ffffffffffffffffffffffffffffffffffffffff168573ffffffffffffffffffffffffffffffffffffffff1614611ee057611edf8582612304565b5b5b600073ffffffffffffffffffffffffffffffffffffffff168473ffffffffffffffffffffffffffffffffffffffff161415611f2457611f1f81612471565b611f63565b8473ffffffffffffffffffffffffffffffffffffffff168473ffffffffffffffffffffffffffffffffffffffff1614611f6257611f618482612542565b5b5b5050505050565b50505050565b611f7a83836125c1565b611f876000848484611fcb565b611fc6576040517f08c379a0000000000000000000000000000000000000000000000000000000008152600401611fbd90613b70565b60405180910390fd5b505050565b6000611fec8473ffffffffffffffffffffffffffffffffffffffff166127df565b15612155578373ffffffffffffffffffffffffffffffffffffffff1663150b7a026120156114cf565b8786866040518563ffffffff1660e01b81526004016120379493929190613ca6565b602060405180830381600087803b15801561205157600080fd5b505af192505050801561208257506040513d601f19601f8201168201806040525081019061207f9190613d07565b60015b612105573d80600081146120b2576040519150601f19603f3d011682016040523d82523d6000602084013e6120b7565b606091505b506000815114156120fd576040517f08c379a00000000000000000000000000000000000000000000000000000000081526004016120f490613b70565b60405180910390fd5b805181602001fd5b63150b7a0260e01b7bffffffffffffffffffffffffffffffffffffffffffffffffffffffff1916817bffffffffffffffffffffffffffffffffffffffffffffffffffffffff19161491505061215a565b600190505b949350505050565b600080600090507a184f03e93ff9f4daa797ed6e38ed64bf6a1f01000000000000000083106121c0577a184f03e93ff9f4daa797ed6e38ed64bf6a1f01000000000000000083816121b6576121b5613b90565b5b0492506040810190505b6d04ee2d6d415b85acef810000000083106121fd576d04ee2d6d415b85acef810000000083816121f3576121f2613b90565b5b0492506020810190505b662386f26fc10000831061222c57662386f26fc10000838161222257612221613b90565b5b0492506010810190505b6305f5e1008310612255576305f5e100838161224b5761224a613b90565b5b0492506008810190505b612710831061227a5761271083816122705761226f613b90565b5b0492506004810190505b6064831061229d576064838161229357612292613b90565b5b0492506002810190505b600a83106122ac576001810190505b80915050919050565b50505050565b6008805490506009600083815260200190815260200160002081905550600881908060018154018082558091505060019003906000526020600020016000909190919091505550565b6000600161231184610d32565b61231b9190613d34565b9050600060076000848152602001908152602001600020549050818114612400576000600660008673ffffffffffffffffffffffffffffffffffffffff1673ffffffffffffffffffffffffffffffffffffffff168152602001908152602001600020600084815260200190815260200160002054905080600660008773ffffffffffffffffffffffffffffffffffffffff1673ffffffffffffffffffffffffffffffffffffffff168152602001908152602001600020600084815260200190815260200160002081905550816007600083815260200190815260200160002081905550505b6007600084815260200190815260200160002060009055600660008573ffffffffffffffffffffffffffffffffffffffff1673ffffffffffffffffffffffffffffffffffffffff16815260200190815260200160002060008381526020019081526020016000206000905550505050565b600060016008805490506124859190613d34565b90506000600960008481526020019081526020016000205490506000600883815481106124b5576124b46131b1565b5b9060005260206000200154905080600883815481106124d7576124d66131b1565b5b90600052602060002001819055508160096000838152602001908152602001600020819055506009600085815260200190815260200160002060009055600880548061252657612525613d68565b5b6001900381819060005260206000200160009055905550505050565b600061254d83610d32565b905081600660008573ffffffffffffffffffffffffffffffffffffffff1673ffffffffffffffffffffffffffffffffffffffff168152602001908152602001600020600083815260200190815260200160002081905550806007600084815260200190815260200160002081905550505050565b600073ffffffffffffffffffffffffffffffffffffffff168273ffffffffffffffffffffffffffffffffffffffff161415612631576040517f08c379a000000000000000000000000000000000000000000000000000000000815260040161262890613de3565b60405180910390fd5b61263a81611c87565b1561267a576040517f08c379a000000000000000000000000000000000000000000000000000000000815260040161267190613e4f565b60405180910390fd5b612688600083836001611e0a565b61269181611c87565b156126d1576040517f08c379a00000000000000000000000000000000000000000000000000000000081526004016126c890613e4f565b60405180910390fd5b6001600360008473ffffffffffffffffffffffffffffffffffffffff1673ffffffffffffffffffffffffffffffffffffffff16815260200190815260200160002060008282540192505081905550816002600083815260200190815260200160002060006101000a81548173ffffffffffffffffffffffffffffffffffffffff021916908373ffffffffffffffffffffffffffffffffffffffff160217905550808273ffffffffffffffffffffffffffffffffffffffff16600073ffffffffffffffffffffffffffffffffffffffff167fddf252ad1be2c89b69c2b068fc378daa952ba7f163c4a11628f55a4df523b3ef60405160405180910390a46127db600083836001611f6a565b5050565b6000808273ffffffffffffffffffffffffffffffffffffffff163b119050919050565b6000819050919050565b61281581612802565b82525050565b6000602082019050612830600083018461280c565b92915050565b6000604051905090565b600080fd5b600080fd5b60007fffffffff0000000000000000000000000000000000000000000000000000000082169050919050565b61287f8161284a565b811461288a57600080fd5b50565b60008135905061289c81612876565b92915050565b6000602082840312156128b8576128b7612840565b5b60006128c68482850161288d565b91505092915050565b60008115159050919050565b6128e4816128cf565b82525050565b60006020820190506128ff60008301846128db565b92915050565b600081519050919050565b600082825260208201905092915050565b60005b8381101561293f578082015181840152602081019050612924565b8381111561294e576000848401525b50505050565b6000601f19601f8301169050919050565b600061297082612905565b61297a8185612910565b935061298a818560208601612921565b61299381612954565b840191505092915050565b600060208201905081810360008301526129b88184612965565b905092915050565b6129c981612802565b81146129d457600080fd5b50565b6000813590506129e6816129c0565b92915050565b600060208284031215612a0257612a01612840565b5b6000612a10848285016129d7565b91505092915050565b600073ffffffffffffffffffffffffffffffffffffffff82169050919050565b6000612a4482612a19565b9050919050565b612a5481612a39565b82525050565b6000602082019050612a6f6000830184612a4b565b92915050565b612a7e81612a39565b8114612a8957600080fd5b50565b600081359050612a9b81612a75565b92915050565b60008060408385031215612ab857612ab7612840565b5b6000612ac685828601612a8c565b9250506020612ad7858286016129d7565b9150509250929050565b600080600060608486031215612afa57612af9612840565b5b6000612b0886828701612a8c565b9350506020612b1986828701612a8c565b9250506040612b2a868287016129d7565b9150509250925092565b600060208284031215612b4a57612b49612840565b5b6000612b5884828501612a8c565b91505092915050565b600081519050919050565b600082825260208201905092915050565b6000819050602082019050919050565b612b9681612802565b82525050565b6000612ba88383612b8d565b60208301905092915050565b6000602082019050919050565b6000612bcc82612b61565b612bd68185612b6c565b9350612be183612b7d565b8060005b83811015612c12578151612bf98882612b9c565b9750612c0483612bb4565b925050600181019050612be5565b5085935050505092915050565b60006020820190508181036000830152612c398184612bc1565b905092915050565b612c4a816128cf565b8114612c5557600080fd5b50565b600081359050612c6781612c41565b92915050565b60008060408385031215612c8457612c83612840565b5b6000612c9285828601612a8c565b9250506020612ca385828601612c58565b9150509250929050565b600080fd5b600080fd5b7f4e487b7100000000000000000000000000000000000000000000000000000000600052604160045260246000fd5b612cef82612954565b810181811067ffffffffffffffff82111715612d0e57612d0d612cb7565b5b80604052505050565b6000612d21612836565b9050612d2d8282612ce6565b919050565b600067ffffffffffffffff821115612d4d57612d4c612cb7565b5b612d5682612954565b9050602081019050919050565b82818337600083830152505050565b6000612d85612d8084612d32565b612d17565b905082815260208101848484011115612da157612da0612cb2565b5b612dac848285612d63565b509392505050565b600082601f830112612dc957612dc8612cad565b5b8135612dd9848260208601612d72565b91505092915050565b60008060008060808587031215612dfc57612dfb612840565b5b6000612e0a87828801612a8c565b9450506020612e1b87828801612a8c565b9350506040612e2c878288016129d7565b925050606085013567ffffffffffffffff811115612e4d57612e4c612845565b5b612e5987828801612db4565b91505092959194509250565b60008060408385031215612e7c57612e7b612840565b5b6000612e8a85828601612a8c565b9250506020612e9b85828601612a8c565b9150509250929050565b7f4e487b7100000000000000000000000000000000000000000000000000000000600052602260045260246000fd5b60006002820490506001821680612eec57607f821691505b60208210811415612f0057612eff612ea5565b5b50919050565b7f4552433732313a20617070726f76616c20746f2063757272656e74206f776e6560008201527f7200000000000000000000000000000000000000000000000000000000000000602082015250565b6000612f62602183612910565b9150612f6d82612f06565b604082019050919050565b60006020820190508181036000830152612f9181612f55565b9050919050565b7f4552433732313a20617070726f76652063616c6c6572206973206e6f7420746f60008201527f6b656e206f776e6572206f7220617070726f76656420666f7220616c6c000000602082015250565b6000612ff4603d83612910565b9150612fff82612f98565b604082019050919050565b6000602082019050818103600083015261302381612fe7565b9050919050565b7f4552433732313a2063616c6c6572206973206e6f7420746f6b656e206f776e6560008201527f72206f7220617070726f76656400000000000000000000000000000000000000602082015250565b6000613086602d83612910565b91506130918261302a565b604082019050919050565b600060208201905081810360008301526130b581613079565b9050919050565b7f455243373231456e756d657261626c653a206f776e657220696e646578206f7560008201527f74206f6620626f756e6473000000000000000000000000000000000000000000602082015250565b6000613118602b83612910565b9150613123826130bc565b604082019050919050565b600060208201905081810360008301526131478161310b565b9050919050565b60008160601b9050919050565b60006131668261314e565b9050919050565b60006131788261315b565b9050919050565b61319061318b82612a39565b61316d565b82525050565b60006131a2828461317f565b60148201915081905092915050565b7f4e487b7100000000000000000000000000000000000000000000000000000000600052603260045260246000fd5b7f4e487b7100000000000000000000000000000000000000000000000000000000600052601160045260246000fd5b600061321a82612802565b91507fffffffffffffffffffffffffffffffffffffffffffffffffffffffffffffffff82141561324d5761324c6131e0565b5b600182019050919050565b7f455243373231456e756d657261626c653a20676c6f62616c20696e646578206f60008201527f7574206f6620626f756e64730000000000000000000000000000000000000000602082015250565b60006132b4602c83612910565b91506132bf82613258565b604082019050919050565b600060208201905081810360008301526132e3816132a7565b9050919050565b7f4552433732313a20696e76616c696420746f6b656e2049440000000000000000600082015250565b6000613320601883612910565b915061332b826132ea565b602082019050919050565b6000602082019050818103600083015261334f81613313565b9050919050565b7f4552433732313a2061646472657373207a65726f206973206e6f74206120766160008201527f6c6964206f776e65720000000000000000000000000000000000000000000000602082015250565b60006133b2602983612910565b91506133bd82613356565b604082019050919050565b600060208201905081810360008301526133e1816133a5565b9050919050565b7f4d696e74696e67206e6f74206f70656e20796574000000000000000000000000600082015250565b600061341e601483612910565b9150613429826133e8565b602082019050919050565b6000602082019050818103600083015261344d81613411565b9050919050565b7f746869732061646472657373206973206e6f74206f6e2074686520616c6c6f7760008201527f206c697374000000000000000000000000000000000000000000000000000000602082015250565b60006134b0602583612910565b91506134bb82613454565b604082019050919050565b600060208201905081810360008301526134df816134a3565b9050919050565b7f6d757374206d696e74206174206c656173742031204e46540000000000000000600082015250565b600061351c601883612910565b9150613527826134e6565b602082019050919050565b6000602082019050818103600083015261354b8161350f565b9050919050565b600061355d82612802565b915061356883612802565b9250817fffffffffffffffffffffffffffffffffffffffffffffffffffffffffffffffff04831182151516156135a1576135a06131e0565b5b828202905092915050565b7f696e737566666963656e74207061796d656e7400000000000000000000000000600082015250565b60006135e2601383612910565b91506135ed826135ac565b602082019050919050565b60006020820190508181036000830152613611816135d5565b9050919050565b600061362382612802565b915061362e83612802565b9250827fffffffffffffffffffffffffffffffffffffffffffffffffffffffffffffffff03821115613663576136626131e0565b5b828201905092915050565b7f6578636565646564206d617820737570706c7900000000000000000000000000600082015250565b60006136a4601383612910565b91506136af8261366e565b602082019050919050565b600060208201905081810360008301526136d381613697565b9050919050565b60006040820190506136ef600083018561280c565b6136fc6020830184612a4b565b9392505050565b7f746f6b656e20646f6573206e6f74206578697374000000000000000000000000600082015250565b6000613739601483612910565b915061374482613703565b602082019050919050565b600060208201905081810360008301526137688161372c565b9050919050565b600081905092915050565b60008190508160005260206000209050919050565b6000815461379c81612ed4565b6137a6818661376f565b945060018216600081146137c157600181146137d257613805565b60ff19831686528186019350613805565b6137db8561377a565b60005b838110156137fd578154818901526001820191506020810190506137de565b838801955050505b50505092915050565b600061381982612905565b613823818561376f565b9350613833818560208601612921565b80840191505092915050565b600061384b828661378f565b9150613857828561380e565b9150613863828461378f565b9150819050949350505050565b7f4f776e61626c653a206e6577206f776e657220697320746865207a65726f206160008201527f6464726573730000000000000000000000000000000000000000000000000000602082015250565b60006138cc602683612910565b91506138d782613870565b604082019050919050565b600060208201905081810360008301526138fb816138bf565b9050919050565b7f4552433732313a207472616e736665722066726f6d20696e636f72726563742060008201527f6f776e6572000000000000000000000000000000000000000000000000000000602082015250565b600061395e602583612910565b915061396982613902565b604082019050919050565b6000602082019050818103600083015261398d81613951565b9050919050565b7f4552433732313a207472616e7366657220746f20746865207a65726f2061646460008201527f7265737300000000000000000000000000000000000000000000000000000000602082015250565b60006139f0602483612910565b91506139fb82613994565b604082019050919050565b60006020820190508181036000830152613a1f816139e3565b9050919050565b7f4f776e61626c653a2063616c6c6572206973206e6f7420746865206f776e6572600082015250565b6000613a5c602083612910565b9150613a6782613a26565b602082019050919050565b60006020820190508181036000830152613a8b81613a4f565b9050919050565b7f4552433732313a20617070726f766520746f2063616c6c657200000000000000600082015250565b6000613ac8601983612910565b9150613ad382613a92565b602082019050919050565b60006020820190508181036000830152613af781613abb565b9050919050565b7f4552433732313a207472616e7366657220746f206e6f6e20455243373231526560008201527f63656976657220696d706c656d656e7465720000000000000000000000000000602082015250565b6000613b5a603283612910565b9150613b6582613afe565b604082019050919050565b60006020820190508181036000830152613b8981613b4d565b9050919050565b7f4e487b7100000000000000000000000000000000000000000000000000000000600052601260045260246000fd5b7f455243373231456e756d657261626c653a20636f6e736563757469766520747260008201527f616e7366657273206e6f7420737570706f727465640000000000000000000000602082015250565b6000613c1b603583612910565b9150613c2682613bbf565b604082019050919050565b60006020820190508181036000830152613c4a81613c0e565b9050919050565b600081519050919050565b600082825260208201905092915050565b6000613c7882613c51565b613c828185613c5c565b9350613c92818560208601612921565b613c9b81612954565b840191505092915050565b6000608082019050613cbb6000830187612a4b565b613cc86020830186612a4b565b613cd5604083018561280c565b8181036060830152613ce78184613c6d565b905095945050505050565b600081519050613d0181612876565b92915050565b600060208284031215613d1d57613d1c612840565b5b6000613d2b84828501613cf2565b91505092915050565b6000613d3f82612802565b9150613d4a83612802565b925082821015613d5d57613d5c6131e0565b5b828203905092915050565b7f4e487b7100000000000000000000000000000000000000000000000000000000600052603160045260246000fd5b7f4552433732313a206d696e7420746f20746865207a65726f2061646472657373600082015250565b6000613dcd602083612910565b9150613dd882613d97565b602082019050919050565b60006020820190508181036000830152613dfc81613dc0565b9050919050565b7f4552433732313a20746f6b656e20616c7265616479206d696e74656400000000600082015250565b6000613e39601c83612910565b9150613e4482613e03565b602082019050919050565b60006020820190508181036000830152613e6881613e2c565b905091905056fea2646970667358221220f2ee1ceadf84018783d113642c689a72bfb90f6faabcba38991d73148682d84864736f6c63430008090033",
  "linkReferences": {},
  "deployedLinkReferences": {}
}