{
  "_format": "hh-sol-artifact-1",
  "contractName": "NFT",
  "sourceName": "contracts/NFT.sol",
  "abi": [
    {
      "inputs": [
        {
          "internalType": "string",
          "name": "_name",
          "type": "string"
        },
        {
          "internalType": "string",
          "name": "_symbol",
          "type": "string"
        },
        {
          "internalType": "uint256",
          "name": "_cost",
          "type": "uint256"
        },
        {
          "internalType": "uint256",
          "name": "_maxSupply",
          "type": "uint256"
        },
        {
          "internalType": "uint256",
          "name": "_maxMint",
          "type": "uint256"
        },
        {
          "internalType": "uint256",
          "name": "_allowMintingOn",
          "type": "uint256"
        },
        {
          "internalType": "string",
          "name": "_baseURI",
          "type": "string"
        }
      ],
      "stateMutability": "nonpayable",
      "type": "constructor"
    },
    {
      "anonymous": false,
      "inputs": [
        {
          "indexed": true,
          "internalType": "address",
          "name": "owner",
          "type": "address"
        },
        {
          "indexed": true,
          "internalType": "address",
          "name": "approved",
          "type": "address"
        },
        {
          "indexed": true,
          "internalType": "uint256",
          "name": "tokenId",
          "type": "uint256"
        }
      ],
      "name": "Approval",
      "type": "event"
    },
    {
      "anonymous": false,
      "inputs": [
        {
          "indexed": true,
          "internalType": "address",
          "name": "owner",
          "type": "address"
        },
        {
          "indexed": true,
          "internalType": "address",
          "name": "operator",
          "type": "address"
        },
        {
          "indexed": false,
          "internalType": "bool",
          "name": "approved",
          "type": "bool"
        }
      ],
      "name": "ApprovalForAll",
      "type": "event"
    },
    {
      "anonymous": false,
      "inputs": [
        {
          "indexed": false,
          "internalType": "uint256",
          "name": "amount",
          "type": "uint256"
        },
        {
          "indexed": false,
          "internalType": "address",
          "name": "minter",
          "type": "address"
        }
      ],
      "name": "Mint",
      "type": "event"
    },
    {
      "anonymous": false,
      "inputs": [
        {
          "indexed": true,
          "internalType": "address",
          "name": "previousOwner",
          "type": "address"
        },
        {
          "indexed": true,
          "internalType": "address",
          "name": "newOwner",
          "type": "address"
        }
      ],
      "name": "OwnershipTransferred",
      "type": "event"
    },
    {
      "anonymous": false,
      "inputs": [
        {
          "indexed": true,
          "internalType": "address",
          "name": "from",
          "type": "address"
        },
        {
          "indexed": true,
          "internalType": "address",
          "name": "to",
          "type": "address"
        },
        {
          "indexed": true,
          "internalType": "uint256",
          "name": "tokenId",
          "type": "uint256"
        }
      ],
      "name": "Transfer",
      "type": "event"
    },
    {
      "anonymous": false,
      "inputs": [
        {
          "indexed": false,
          "internalType": "uint256",
          "name": "amount",
          "type": "uint256"
        },
        {
          "indexed": false,
          "internalType": "address",
          "name": "owner",
          "type": "address"
        }
      ],
      "name": "Withdraw",
      "type": "event"
    },
    {
      "inputs": [
        {
          "internalType": "address",
          "name": "_address",
          "type": "address"
        }
      ],
      "name": "addAddress",
      "outputs": [],
      "stateMutability": "nonpayable",
      "type": "function"
    },
    {
      "inputs": [],
      "name": "allowMintingOn",
      "outputs": [
        {
          "internalType": "uint256",
          "name": "",
          "type": "uint256"
        }
      ],
      "stateMutability": "view",
      "type": "function"
    },
    {
      "inputs": [
        {
          "internalType": "address",
          "name": "to",
          "type": "address"
        },
        {
          "internalType": "uint256",
          "name": "tokenId",
          "type": "uint256"
        }
      ],
      "name": "approve",
      "outputs": [],
      "stateMutability": "nonpayable",
      "type": "function"
    },
    {
      "inputs": [
        {
          "internalType": "address",
          "name": "owner",
          "type": "address"
        }
      ],
      "name": "balanceOf",
      "outputs": [
        {
          "internalType": "uint256",
          "name": "",
          "type": "uint256"
        }
      ],
      "stateMutability": "view",
      "type": "function"
    },
    {
      "inputs": [],
      "name": "baseExtension",
      "outputs": [
        {
          "internalType": "string",
          "name": "",
          "type": "string"
        }
      ],
      "stateMutability": "view",
      "type": "function"
    },
    {
      "inputs": [],
      "name": "baseURI",
      "outputs": [
        {
          "internalType": "string",
          "name": "",
          "type": "string"
        }
      ],
      "stateMutability": "view",
      "type": "function"
    },
    {
      "inputs": [],
      "name": "cost",
      "outputs": [
        {
          "internalType": "uint256",
          "name": "",
          "type": "uint256"
        }
      ],
      "stateMutability": "view",
      "type": "function"
    },
    {
      "inputs": [
        {
          "internalType": "uint256",
          "name": "tokenId",
          "type": "uint256"
        }
      ],
      "name": "getApproved",
      "outputs": [
        {
          "internalType": "address",
          "name": "",
          "type": "address"
        }
      ],
      "stateMutability": "view",
      "type": "function"
    },
    {
      "inputs": [
        {
          "internalType": "address",
          "name": "owner",
          "type": "address"
        },
        {
          "internalType": "address",
          "name": "operator",
          "type": "address"
        }
      ],
      "name": "isApprovedForAll",
      "outputs": [
        {
          "internalType": "bool",
          "name": "",
          "type": "bool"
        }
      ],
      "stateMutability": "view",
      "type": "function"
    },
    {
      "inputs": [
        {
          "internalType": "address",
          "name": "_address",
          "type": "address"
        }
      ],
      "name": "isOnList",
      "outputs": [
        {
          "internalType": "bool",
          "name": "",
          "type": "bool"
        }
      ],
      "stateMutability": "view",
      "type": "function"
    },
    {
      "inputs": [],
      "name": "maxMint",
      "outputs": [
        {
          "internalType": "uint256",
          "name": "",
          "type": "uint256"
        }
      ],
      "stateMutability": "view",
      "type": "function"
    },
    {
      "inputs": [],
      "name": "maxSupply",
      "outputs": [
        {
          "internalType": "uint256",
          "name": "",
          "type": "uint256"
        }
      ],
      "stateMutability": "view",
      "type": "function"
    },
    {
      "inputs": [
        {
          "internalType": "uint256",
          "name": "_mintAmount",
          "type": "uint256"
        }
      ],
      "name": "mint",
      "outputs": [],
      "stateMutability": "payable",
      "type": "function"
    },
    {
      "inputs": [],
      "name": "name",
      "outputs": [
        {
          "internalType": "string",
          "name": "",
          "type": "string"
        }
      ],
      "stateMutability": "view",
      "type": "function"
    },
    {
      "inputs": [],
      "name": "owner",
      "outputs": [
        {
          "internalType": "address",
          "name": "",
          "type": "address"
        }
      ],
      "stateMutability": "view",
      "type": "function"
    },
    {
      "inputs": [
        {
          "internalType": "uint256",
          "name": "tokenId",
          "type": "uint256"
        }
      ],
      "name": "ownerOf",
      "outputs": [
        {
          "internalType": "address",
          "name": "",
          "type": "address"
        }
      ],
      "stateMutability": "view",
      "type": "function"
    },
    {
      "inputs": [],
      "name": "pauseMint",
      "outputs": [],
      "stateMutability": "nonpayable",
      "type": "function"
    },
    {
      "inputs": [],
      "name": "pauseMinting",
      "outputs": [
        {
          "internalType": "bool",
          "name": "",
          "type": "bool"
        }
      ],
      "stateMutability": "view",
      "type": "function"
    },
    {
      "inputs": [],
      "name": "renounceOwnership",
      "outputs": [],
      "stateMutability": "nonpayable",
      "type": "function"
    },
    {
      "inputs": [
        {
          "internalType": "address",
          "name": "from",
          "type": "address"
        },
        {
          "internalType": "address",
          "name": "to",
          "type": "address"
        },
        {
          "internalType": "uint256",
          "name": "tokenId",
          "type": "uint256"
        }
      ],
      "name": "safeTransferFrom",
      "outputs": [],
      "stateMutability": "nonpayable",
      "type": "function"
    },
    {
      "inputs": [
        {
          "internalType": "address",
          "name": "from",
          "type": "address"
        },
        {
          "internalType": "address",
          "name": "to",
          "type": "address"
        },
        {
          "internalType": "uint256",
          "name": "tokenId",
          "type": "uint256"
        },
        {
          "internalType": "bytes",
          "name": "data",
          "type": "bytes"
        }
      ],
      "name": "safeTransferFrom",
      "outputs": [],
      "stateMutability": "nonpayable",
      "type": "function"
    },
    {
      "inputs": [
        {
          "internalType": "address",
          "name": "operator",
          "type": "address"
        },
        {
          "internalType": "bool",
          "name": "approved",
          "type": "bool"
        }
      ],
      "name": "setApprovalForAll",
      "outputs": [],
      "stateMutability": "nonpayable",
      "type": "function"
    },
    {
      "inputs": [
        {
          "internalType": "uint256",
          "name": "_newCost",
          "type": "uint256"
        }
      ],
      "name": "setCost",
      "outputs": [],
      "stateMutability": "nonpayable",
      "type": "function"
    },
    {
      "inputs": [
        {
          "internalType": "bytes4",
          "name": "interfaceId",
          "type": "bytes4"
        }
      ],
      "name": "supportsInterface",
      "outputs": [
        {
          "internalType": "bool",
          "name": "",
          "type": "bool"
        }
      ],
      "stateMutability": "view",
      "type": "function"
    },
    {
      "inputs": [],
      "name": "symbol",
      "outputs": [
        {
          "internalType": "string",
          "name": "",
          "type": "string"
        }
      ],
      "stateMutability": "view",
      "type": "function"
    },
    {
      "inputs": [
        {
          "internalType": "uint256",
          "name": "index",
          "type": "uint256"
        }
      ],
      "name": "tokenByIndex",
      "outputs": [
        {
          "internalType": "uint256",
          "name": "",
          "type": "uint256"
        }
      ],
      "stateMutability": "view",
      "type": "function"
    },
    {
      "inputs": [
        {
          "internalType": "address",
          "name": "owner",
          "type": "address"
        },
        {
          "internalType": "uint256",
          "name": "index",
          "type": "uint256"
        }
      ],
      "name": "tokenOfOwnerByIndex",
      "outputs": [
        {
          "internalType": "uint256",
          "name": "",
          "type": "uint256"
        }
      ],
      "stateMutability": "view",
      "type": "function"
    },
    {
      "inputs": [
        {
          "internalType": "uint256",
          "name": "_tokenId",
          "type": "uint256"
        }
      ],
      "name": "tokenURI",
      "outputs": [
        {
          "internalType": "string",
          "name": "",
          "type": "string"
        }
      ],
      "stateMutability": "view",
      "type": "function"
    },
    {
      "inputs": [],
      "name": "totalSupply",
      "outputs": [
        {
          "internalType": "uint256",
          "name": "",
          "type": "uint256"
        }
      ],
      "stateMutability": "view",
      "type": "function"
    },
    {
      "inputs": [
        {
          "internalType": "address",
          "name": "from",
          "type": "address"
        },
        {
          "internalType": "address",
          "name": "to",
          "type": "address"
        },
        {
          "internalType": "uint256",
          "name": "tokenId",
          "type": "uint256"
        }
      ],
      "name": "transferFrom",
      "outputs": [],
      "stateMutability": "nonpayable",
      "type": "function"
    },
    {
      "inputs": [
        {
          "internalType": "address",
          "name": "newOwner",
          "type": "address"
        }
      ],
      "name": "transferOwnership",
      "outputs": [],
      "stateMutability": "nonpayable",
      "type": "function"
    },
    {
      "inputs": [],
      "name": "unPauseMint",
      "outputs": [],
      "stateMutability": "nonpayable",
      "type": "function"
    },
    {
      "inputs": [
        {
          "internalType": "address",
          "name": "_owner",
          "type": "address"
        }
      ],
      "name": "walletOfOwner",
      "outputs": [
        {
          "internalType": "uint256[]",
          "name": "",
          "type": "uint256[]"
        }
      ],
      "stateMutability": "view",
      "type": "function"
    },
    {
      "inputs": [],
      "name": "withdraw",
      "outputs": [],
      "stateMutability": "nonpayable",
      "type": "function"
    }
  ],
  "bytecode": "0x60806040526040518060400160405280600581526020017f2e6a736f6e000000000000000000000000000000000000000000000000000000815250601090805190602001906200005192919062000206565b506000601160006101000a81548160ff0219169083151502179055503480156200007a57600080fd5b50604051620048a6380380620048a68339818101604052810190620000a091906200048e565b86868160009080519060200190620000ba92919062000206565b508060019080519060200190620000d392919062000206565b505050620000f6620000ea6200013860201b60201c565b6200014060201b60201c565b84600b8190555083600c8190555082600d8190555081600e8190555080600f90805190602001906200012a92919062000206565b505050505050505062000603565b600033905090565b6000600a60009054906101000a900473ffffffffffffffffffffffffffffffffffffffff16905081600a60006101000a81548173ffffffffffffffffffffffffffffffffffffffff021916908373ffffffffffffffffffffffffffffffffffffffff1602179055508173ffffffffffffffffffffffffffffffffffffffff168173ffffffffffffffffffffffffffffffffffffffff167f8be0079c531659141344cd1fd0a4f28419497f9722a3daafe3b4186f6b6457e060405160405180910390a35050565b8280546200021490620005cd565b90600052602060002090601f01602090048101928262000238576000855562000284565b82601f106200025357805160ff191683800117855562000284565b8280016001018555821562000284579182015b828111156200028357825182559160200191906001019062000266565b5b50905062000293919062000297565b5090565b5b80821115620002b257600081600090555060010162000298565b5090565b6000604051905090565b600080fd5b600080fd5b600080fd5b600080fd5b6000601f19601f8301169050919050565b7f4e487b7100000000000000000000000000000000000000000000000000000000600052604160045260246000fd5b6200031f82620002d4565b810181811067ffffffffffffffff82111715620003415762000340620002e5565b5b80604052505050565b600062000356620002b6565b905062000364828262000314565b919050565b600067ffffffffffffffff821115620003875762000386620002e5565b5b6200039282620002d4565b9050602081019050919050565b60005b83811015620003bf578082015181840152602081019050620003a2565b83811115620003cf576000848401525b50505050565b6000620003ec620003e68462000369565b6200034a565b9050828152602081018484840111156200040b576200040a620002cf565b5b620004188482856200039f565b509392505050565b600082601f830112620004385762000437620002ca565b5b81516200044a848260208601620003d5565b91505092915050565b6000819050919050565b620004688162000453565b81146200047457600080fd5b50565b60008151905062000488816200045d565b92915050565b600080600080600080600060e0888a031215620004b057620004af620002c0565b5b600088015167ffffffffffffffff811115620004d157620004d0620002c5565b5b620004df8a828b0162000420565b975050602088015167ffffffffffffffff811115620005035762000502620002c5565b5b620005118a828b0162000420565b9650506040620005248a828b0162000477565b9550506060620005378a828b0162000477565b94505060806200054a8a828b0162000477565b93505060a06200055d8a828b0162000477565b92505060c088015167ffffffffffffffff811115620005815762000580620002c5565b5b6200058f8a828b0162000420565b91505092959891949750929550565b7f4e487b7100000000000000000000000000000000000000000000000000000000600052602260045260246000fd5b60006002820490506001821680620005e657607f821691505b60208210811415620005fd57620005fc6200059e565b5b50919050565b61429380620006136000396000f3fe6080604052600436106101f95760003560e01c80636c0360eb1161010d578063a22cb465116100a0578063cd85cdb51161006f578063cd85cdb514610726578063d5abeb011461073d578063da8fbf2a14610768578063e985e9c514610793578063f2fde38b146107d0576101f9565b8063a22cb4651461066c578063b88d4fde14610695578063c6682862146106be578063c87b56dd146106e9576101f9565b80637501f741116100dc5780637501f741146105cf5780638da5cb5b146105fa57806395d89b4114610625578063a0712d6814610650576101f9565b80636c0360eb1461051357806370a082311461053e578063715018a61461057b5780637330daac14610592576101f9565b806323b872dd1161019057806342842e0e1161015f57806342842e0e1461040a578063438b63001461043357806344a0d68a146104705780634f6ccce7146104995780636352211e146104d6576101f9565b806323b872dd146103645780632f745c591461038d57806338eada1c146103ca5780633ccfd60b146103f3576101f9565b8063095ea7b3116101cc578063095ea7b3146102ce5780630be218d6146102f757806313faede61461030e57806318160ddd14610339576101f9565b806301467996146101fe57806301ffc9a71461022957806306fdde0314610266578063081812fc14610291575b600080fd5b34801561020a57600080fd5b506102136107f9565b6040516102209190612aeb565b60405180910390f35b34801561023557600080fd5b50610250600480360381019061024b9190612b72565b6107ff565b60405161025d9190612bba565b60405180910390f35b34801561027257600080fd5b5061027b610879565b6040516102889190612c6e565b60405180910390f35b34801561029d57600080fd5b506102b860048036038101906102b39190612cbc565b61090b565b6040516102c59190612d2a565b60405180910390f35b3480156102da57600080fd5b506102f560048036038101906102f09190612d71565b610951565b005b34801561030357600080fd5b5061030c610a69565b005b34801561031a57600080fd5b50610323610a8e565b6040516103309190612aeb565b60405180910390f35b34801561034557600080fd5b5061034e610a94565b60405161035b9190612aeb565b60405180910390f35b34801561037057600080fd5b5061038b60048036038101906103869190612db1565b610aa1565b005b34801561039957600080fd5b506103b460048036038101906103af9190612d71565b610b01565b6040516103c19190612aeb565b60405180910390f35b3480156103d657600080fd5b506103f160048036038101906103ec9190612e04565b610ba6565b005b3480156103ff57600080fd5b50610408610c09565b005b34801561041657600080fd5b50610431600480360381019061042c9190612db1565b610cc9565b005b34801561043f57600080fd5b5061045a60048036038101906104559190612e04565b610ce9565b6040516104679190612eef565b60405180910390f35b34801561047c57600080fd5b5061049760048036038101906104929190612cbc565b610d97565b005b3480156104a557600080fd5b506104c060048036038101906104bb9190612cbc565b610da9565b6040516104cd9190612aeb565b60405180910390f35b3480156104e257600080fd5b506104fd60048036038101906104f89190612cbc565b610e1a565b60405161050a9190612d2a565b60405180910390f35b34801561051f57600080fd5b50610528610ea1565b6040516105359190612c6e565b60405180910390f35b34801561054a57600080fd5b5061056560048036038101906105609190612e04565b610f2f565b6040516105729190612aeb565b60405180910390f35b34801561058757600080fd5b50610590610fe7565b005b34801561059e57600080fd5b506105b960048036038101906105b49190612e04565b610ffb565b6040516105c69190612bba565b60405180910390f35b3480156105db57600080fd5b506105e4611050565b6040516105f19190612aeb565b60405180910390f35b34801561060657600080fd5b5061060f611056565b60405161061c9190612d2a565b60405180910390f35b34801561063157600080fd5b5061063a611080565b6040516106479190612c6e565b60405180910390f35b61066a60048036038101906106659190612cbc565b611112565b005b34801561067857600080fd5b50610693600480360381019061068e9190612f3d565b611397565b005b3480156106a157600080fd5b506106bc60048036038101906106b791906130b2565b6113ad565b005b3480156106ca57600080fd5b506106d361140f565b6040516106e09190612c6e565b60405180910390f35b3480156106f557600080fd5b50610710600480360381019061070b9190612cbc565b61149d565b60405161071d9190612c6e565b60405180910390f35b34801561073257600080fd5b5061073b61151c565b005b34801561074957600080fd5b50610752611541565b60405161075f9190612aeb565b60405180910390f35b34801561077457600080fd5b5061077d611547565b60405161078a9190612bba565b60405180910390f35b34801561079f57600080fd5b506107ba60048036038101906107b59190613135565b61155a565b6040516107c79190612bba565b60405180910390f35b3480156107dc57600080fd5b506107f760048036038101906107f29190612e04565b6115ee565b005b600e5481565b60007f780e9d63000000000000000000000000000000000000000000000000000000007bffffffffffffffffffffffffffffffffffffffffffffffffffffffff1916827bffffffffffffffffffffffffffffffffffffffffffffffffffffffff19161480610872575061087182611672565b5b9050919050565b606060008054610888906131a4565b80601f01602080910402602001604051908101604052809291908181526020018280546108b4906131a4565b80156109015780601f106108d657610100808354040283529160200191610901565b820191906000526020600020905b8154815290600101906020018083116108e457829003601f168201915b5050505050905090565b600061091682611754565b6004600083815260200190815260200160002060009054906101000a900473ffffffffffffffffffffffffffffffffffffffff169050919050565b600061095c82610e1a565b90508073ffffffffffffffffffffffffffffffffffffffff168373ffffffffffffffffffffffffffffffffffffffff1614156109cd576040517f08c379a00000000000000000000000000000000000000000000000000000000081526004016109c490613248565b60405180910390fd5b8073ffffffffffffffffffffffffffffffffffffffff166109ec61179f565b73ffffffffffffffffffffffffffffffffffffffff161480610a1b5750610a1a81610a1561179f565b61155a565b5b610a5a576040517f08c379a0000000000000000000000000000000000000000000000000000000008152600401610a51906132da565b60405180910390fd5b610a6483836117a7565b505050565b610a71611860565b6000601160006101000a81548160ff021916908315150217905550565b600b5481565b6000600880549050905090565b610ab2610aac61179f565b826118de565b610af1576040517f08c379a0000000000000000000000000000000000000000000000000000000008152600401610ae89061336c565b60405180910390fd5b610afc838383611973565b505050565b6000610b0c83610f2f565b8210610b4d576040517f08c379a0000000000000000000000000000000000000000000000000000000008152600401610b44906133fe565b60405180910390fd5b600660008473ffffffffffffffffffffffffffffffffffffffff1673ffffffffffffffffffffffffffffffffffffffff168152602001908152602001600020600083815260200190815260200160002054905092915050565b610bae611860565b600081604051602001610bc19190613466565b60405160208183030381529060405280519060200120905060016012600083815260200190815260200160002060006101000a81548160ff0219169083151502179055505050565b610c11611860565b600047905060003373ffffffffffffffffffffffffffffffffffffffff1682604051610c3c906134b2565b60006040518083038185875af1925050503d8060008114610c79576040519150601f19603f3d011682016040523d82523d6000602084013e610c7e565b606091505b5050905080610c8c57600080fd5b7f8353ffcac0876ad14e226d9783c04540bfebf13871e868157d2a391cad98e9188233604051610cbd9291906134c7565b60405180910390a15050565b610ce4838383604051806020016040528060008152506113ad565b505050565b60606000610cf683610f2f565b905060008167ffffffffffffffff811115610d1457610d13612f87565b5b604051908082528060200260200182016040528015610d425781602001602082028036833780820191505090505b50905060005b82811015610d8c57610d5a8582610b01565b828281518110610d6d57610d6c6134f0565b5b6020026020010181815250508080610d849061354e565b915050610d48565b508092505050919050565b610d9f611860565b80600b8190555050565b6000610db3610a94565b8210610df4576040517f08c379a0000000000000000000000000000000000000000000000000000000008152600401610deb90613609565b60405180910390fd5b60088281548110610e0857610e076134f0565b5b90600052602060002001549050919050565b600080610e2683611c6d565b9050600073ffffffffffffffffffffffffffffffffffffffff168173ffffffffffffffffffffffffffffffffffffffff161415610e98576040517f08c379a0000000000000000000000000000000000000000000000000000000008152600401610e8f90613675565b60405180910390fd5b80915050919050565b600f8054610eae906131a4565b80601f0160208091040260200160405190810160405280929190818152602001828054610eda906131a4565b8015610f275780601f10610efc57610100808354040283529160200191610f27565b820191906000526020600020905b815481529060010190602001808311610f0a57829003601f168201915b505050505081565b60008073ffffffffffffffffffffffffffffffffffffffff168273ffffffffffffffffffffffffffffffffffffffff161415610fa0576040517f08c379a0000000000000000000000000000000000000000000000000000000008152600401610f9790613707565b60405180910390fd5b600360008373ffffffffffffffffffffffffffffffffffffffff1673ffffffffffffffffffffffffffffffffffffffff168152602001908152602001600020549050919050565b610fef611860565b610ff96000611caa565b565b6000808260405160200161100f9190613466565b6040516020818303038152906040528051906020012090506012600082815260200190815260200160002060009054906101000a900460ff16915050919050565b600d5481565b6000600a60009054906101000a900473ffffffffffffffffffffffffffffffffffffffff16905090565b60606001805461108f906131a4565b80601f01602080910402602001604051908101604052809291908181526020018280546110bb906131a4565b80156111085780601f106110dd57610100808354040283529160200191611108565b820191906000526020600020905b8154815290600101906020018083116110eb57829003601f168201915b5050505050905090565b600e54421015611157576040517f08c379a000000000000000000000000000000000000000000000000000000000815260040161114e90613773565b60405180910390fd5b601160009054906101000a900460ff16156111a7576040517f08c379a000000000000000000000000000000000000000000000000000000000815260040161119e906137df565b60405180910390fd5b6111b033610ffb565b6111ef576040517f08c379a00000000000000000000000000000000000000000000000000000000081526004016111e690613871565b60405180910390fd5b60008111611232576040517f08c379a0000000000000000000000000000000000000000000000000000000008152600401611229906138dd565b60405180910390fd5b80600b5461124091906138fd565b341015611282576040517f08c379a0000000000000000000000000000000000000000000000000000000008152600401611279906139a3565b60405180910390fd5b600d548111156112c7576040517f08c379a00000000000000000000000000000000000000000000000000000000081526004016112be90613a0f565b60405180910390fd5b60006112d1610a94565b9050600c5482826112e29190613a2f565b1115611323576040517f08c379a000000000000000000000000000000000000000000000000000000000815260040161131a90613ad1565b60405180910390fd5b6000600190505b828111611359576113463382846113419190613a2f565b611d70565b80806113519061354e565b91505061132a565b507ff3cea5493d790af0133817606f7350a91d7f154ea52eaa79d179d4d231e50102823360405161138b9291906134c7565b60405180910390a15050565b6113a96113a261179f565b8383611d8e565b5050565b6113be6113b861179f565b836118de565b6113fd576040517f08c379a00000000000000000000000000000000000000000000000000000000081526004016113f49061336c565b60405180910390fd5b61140984848484611efb565b50505050565b6010805461141c906131a4565b80601f0160208091040260200160405190810160405280929190818152602001828054611448906131a4565b80156114955780601f1061146a57610100808354040283529160200191611495565b820191906000526020600020905b81548152906001019060200180831161147857829003601f168201915b505050505081565b60606114a882611f57565b6114e7576040517f08c379a00000000000000000000000000000000000000000000000000000000081526004016114de90613b3d565b60405180910390fd5b600f6114f283611f98565b601060405160200161150693929190613c2d565b6040516020818303038152906040529050919050565b611524611860565b6001601160006101000a81548160ff021916908315150217905550565b600c5481565b601160009054906101000a900460ff1681565b6000600560008473ffffffffffffffffffffffffffffffffffffffff1673ffffffffffffffffffffffffffffffffffffffff16815260200190815260200160002060008373ffffffffffffffffffffffffffffffffffffffff1673ffffffffffffffffffffffffffffffffffffffff16815260200190815260200160002060009054906101000a900460ff16905092915050565b6115f6611860565b600073ffffffffffffffffffffffffffffffffffffffff168173ffffffffffffffffffffffffffffffffffffffff161415611666576040517f08c379a000000000000000000000000000000000000000000000000000000000815260040161165d90613cd0565b60405180910390fd5b61166f81611caa565b50565b60007f80ac58cd000000000000000000000000000000000000000000000000000000007bffffffffffffffffffffffffffffffffffffffffffffffffffffffff1916827bffffffffffffffffffffffffffffffffffffffffffffffffffffffff1916148061173d57507f5b5e139f000000000000000000000000000000000000000000000000000000007bffffffffffffffffffffffffffffffffffffffffffffffffffffffff1916827bffffffffffffffffffffffffffffffffffffffffffffffffffffffff1916145b8061174d575061174c82612070565b5b9050919050565b61175d81611f57565b61179c576040517f08c379a000000000000000000000000000000000000000000000000000000000815260040161179390613675565b60405180910390fd5b50565b600033905090565b816004600083815260200190815260200160002060006101000a81548173ffffffffffffffffffffffffffffffffffffffff021916908373ffffffffffffffffffffffffffffffffffffffff160217905550808273ffffffffffffffffffffffffffffffffffffffff1661181a83610e1a565b73ffffffffffffffffffffffffffffffffffffffff167f8c5be1e5ebec7d5bd14f71427d1e84f3dd0314c0f7b2291e5b200ac8c7c3b92560405160405180910390a45050565b61186861179f565b73ffffffffffffffffffffffffffffffffffffffff16611886611056565b73ffffffffffffffffffffffffffffffffffffffff16146118dc576040517f08c379a00000000000000000000000000000000000000000000000000000000081526004016118d390613d3c565b60405180910390fd5b565b6000806118ea83610e1a565b90508073ffffffffffffffffffffffffffffffffffffffff168473ffffffffffffffffffffffffffffffffffffffff16148061192c575061192b818561155a565b5b8061196a57508373ffffffffffffffffffffffffffffffffffffffff166119528461090b565b73ffffffffffffffffffffffffffffffffffffffff16145b91505092915050565b8273ffffffffffffffffffffffffffffffffffffffff1661199382610e1a565b73ffffffffffffffffffffffffffffffffffffffff16146119e9576040517f08c379a00000000000000000000000000000000000000000000000000000000081526004016119e090613dce565b60405180910390fd5b600073ffffffffffffffffffffffffffffffffffffffff168273ffffffffffffffffffffffffffffffffffffffff161415611a59576040517f08c379a0000000000000000000000000000000000000000000000000000000008152600401611a5090613e60565b60405180910390fd5b611a6683838360016120da565b8273ffffffffffffffffffffffffffffffffffffffff16611a8682610e1a565b73ffffffffffffffffffffffffffffffffffffffff1614611adc576040517f08c379a0000000000000000000000000000000000000000000000000000000008152600401611ad390613dce565b60405180910390fd5b6004600082815260200190815260200160002060006101000a81549073ffffffffffffffffffffffffffffffffffffffff02191690556001600360008573ffffffffffffffffffffffffffffffffffffffff1673ffffffffffffffffffffffffffffffffffffffff168152602001908152602001600020600082825403925050819055506001600360008473ffffffffffffffffffffffffffffffffffffffff1673ffffffffffffffffffffffffffffffffffffffff16815260200190815260200160002060008282540192505081905550816002600083815260200190815260200160002060006101000a81548173ffffffffffffffffffffffffffffffffffffffff021916908373ffffffffffffffffffffffffffffffffffffffff160217905550808273ffffffffffffffffffffffffffffffffffffffff168473ffffffffffffffffffffffffffffffffffffffff167fddf252ad1be2c89b69c2b068fc378daa952ba7f163c4a11628f55a4df523b3ef60405160405180910390a4611c68838383600161223a565b505050565b60006002600083815260200190815260200160002060009054906101000a900473ffffffffffffffffffffffffffffffffffffffff169050919050565b6000600a60009054906101000a900473ffffffffffffffffffffffffffffffffffffffff16905081600a60006101000a81548173ffffffffffffffffffffffffffffffffffffffff021916908373ffffffffffffffffffffffffffffffffffffffff1602179055508173ffffffffffffffffffffffffffffffffffffffff168173ffffffffffffffffffffffffffffffffffffffff167f8be0079c531659141344cd1fd0a4f28419497f9722a3daafe3b4186f6b6457e060405160405180910390a35050565b611d8a828260405180602001604052806000815250612240565b5050565b8173ffffffffffffffffffffffffffffffffffffffff168373ffffffffffffffffffffffffffffffffffffffff161415611dfd576040517f08c379a0000000000000000000000000000000000000000000000000000000008152600401611df490613ecc565b60405180910390fd5b80600560008573ffffffffffffffffffffffffffffffffffffffff1673ffffffffffffffffffffffffffffffffffffffff16815260200190815260200160002060008473ffffffffffffffffffffffffffffffffffffffff1673ffffffffffffffffffffffffffffffffffffffff16815260200190815260200160002060006101000a81548160ff0219169083151502179055508173ffffffffffffffffffffffffffffffffffffffff168373ffffffffffffffffffffffffffffffffffffffff167f17307eab39ab6107e8899845ad3d59bd9653f200f220920489ca2b5937696c3183604051611eee9190612bba565b60405180910390a3505050565b611f06848484611973565b611f128484848461229b565b611f51576040517f08c379a0000000000000000000000000000000000000000000000000000000008152600401611f4890613f5e565b60405180910390fd5b50505050565b60008073ffffffffffffffffffffffffffffffffffffffff16611f7983611c6d565b73ffffffffffffffffffffffffffffffffffffffff1614159050919050565b606060006001611fa784612432565b01905060008167ffffffffffffffff811115611fc657611fc5612f87565b5b6040519080825280601f01601f191660200182016040528015611ff85781602001600182028036833780820191505090505b509050600082602001820190505b600115612065578080600190039150507f3031323334353637383961626364656600000000000000000000000000000000600a86061a8153600a858161204f5761204e613f7e565b5b049450600085141561206057612065565b612006565b819350505050919050565b60007f01ffc9a7000000000000000000000000000000000000000000000000000000007bffffffffffffffffffffffffffffffffffffffffffffffffffffffff1916827bffffffffffffffffffffffffffffffffffffffffffffffffffffffff1916149050919050565b6120e684848484612585565b600181111561212a576040517f08c379a00000000000000000000000000000000000000000000000000000000081526004016121219061401f565b60405180910390fd5b6000829050600073ffffffffffffffffffffffffffffffffffffffff168573ffffffffffffffffffffffffffffffffffffffff1614156121725761216d8161258b565b6121b1565b8373ffffffffffffffffffffffffffffffffffffffff168573ffffffffffffffffffffffffffffffffffffffff16146121b0576121af85826125d4565b5b5b600073ffffffffffffffffffffffffffffffffffffffff168473ffffffffffffffffffffffffffffffffffffffff1614156121f4576121ef81612741565b612233565b8473ffffffffffffffffffffffffffffffffffffffff168473ffffffffffffffffffffffffffffffffffffffff1614612232576122318482612812565b5b5b5050505050565b50505050565b61224a8383612891565b612257600084848461229b565b612296576040517f08c379a000000000000000000000000000000000000000000000000000000000815260040161228d90613f5e565b60405180910390fd5b505050565b60006122bc8473ffffffffffffffffffffffffffffffffffffffff16612aaf565b15612425578373ffffffffffffffffffffffffffffffffffffffff1663150b7a026122e561179f565b8786866040518563ffffffff1660e01b81526004016123079493929190614094565b602060405180830381600087803b15801561232157600080fd5b505af192505050801561235257506040513d601f19601f8201168201806040525081019061234f91906140f5565b60015b6123d5573d8060008114612382576040519150601f19603f3d011682016040523d82523d6000602084013e612387565b606091505b506000815114156123cd576040517f08c379a00000000000000000000000000000000000000000000000000000000081526004016123c490613f5e565b60405180910390fd5b805181602001fd5b63150b7a0260e01b7bffffffffffffffffffffffffffffffffffffffffffffffffffffffff1916817bffffffffffffffffffffffffffffffffffffffffffffffffffffffff19161491505061242a565b600190505b949350505050565b600080600090507a184f03e93ff9f4daa797ed6e38ed64bf6a1f0100000000000000008310612490577a184f03e93ff9f4daa797ed6e38ed64bf6a1f010000000000000000838161248657612485613f7e565b5b0492506040810190505b6d04ee2d6d415b85acef810000000083106124cd576d04ee2d6d415b85acef810000000083816124c3576124c2613f7e565b5b0492506020810190505b662386f26fc1000083106124fc57662386f26fc1000083816124f2576124f1613f7e565b5b0492506010810190505b6305f5e1008310612525576305f5e100838161251b5761251a613f7e565b5b0492506008810190505b612710831061254a5761271083816125405761253f613f7e565b5b0492506004810190505b6064831061256d576064838161256357612562613f7e565b5b0492506002810190505b600a831061257c576001810190505b80915050919050565b50505050565b6008805490506009600083815260200190815260200160002081905550600881908060018154018082558091505060019003906000526020600020016000909190919091505550565b600060016125e184610f2f565b6125eb9190614122565b90506000600760008481526020019081526020016000205490508181146126d0576000600660008673ffffffffffffffffffffffffffffffffffffffff1673ffffffffffffffffffffffffffffffffffffffff168152602001908152602001600020600084815260200190815260200160002054905080600660008773ffffffffffffffffffffffffffffffffffffffff1673ffffffffffffffffffffffffffffffffffffffff168152602001908152602001600020600084815260200190815260200160002081905550816007600083815260200190815260200160002081905550505b6007600084815260200190815260200160002060009055600660008573ffffffffffffffffffffffffffffffffffffffff1673ffffffffffffffffffffffffffffffffffffffff16815260200190815260200160002060008381526020019081526020016000206000905550505050565b600060016008805490506127559190614122565b9050600060096000848152602001908152602001600020549050600060088381548110612785576127846134f0565b5b9060005260206000200154905080600883815481106127a7576127a66134f0565b5b9060005260206000200181905550816009600083815260200190815260200160002081905550600960008581526020019081526020016000206000905560088054806127f6576127f5614156565b5b6001900381819060005260206000200160009055905550505050565b600061281d83610f2f565b905081600660008573ffffffffffffffffffffffffffffffffffffffff1673ffffffffffffffffffffffffffffffffffffffff168152602001908152602001600020600083815260200190815260200160002081905550806007600084815260200190815260200160002081905550505050565b600073ffffffffffffffffffffffffffffffffffffffff168273ffffffffffffffffffffffffffffffffffffffff161415612901576040517f08c379a00000000000000000000000000000000000000000000000000000000081526004016128f8906141d1565b60405180910390fd5b61290a81611f57565b1561294a576040517f08c379a00000000000000000000000000000000000000000000000000000000081526004016129419061423d565b60405180910390fd5b6129586000838360016120da565b61296181611f57565b156129a1576040517f08c379a00000000000000000000000000000000000000000000000000000000081526004016129989061423d565b60405180910390fd5b6001600360008473ffffffffffffffffffffffffffffffffffffffff1673ffffffffffffffffffffffffffffffffffffffff16815260200190815260200160002060008282540192505081905550816002600083815260200190815260200160002060006101000a81548173ffffffffffffffffffffffffffffffffffffffff021916908373ffffffffffffffffffffffffffffffffffffffff160217905550808273ffffffffffffffffffffffffffffffffffffffff16600073ffffffffffffffffffffffffffffffffffffffff167fddf252ad1be2c89b69c2b068fc378daa952ba7f163c4a11628f55a4df523b3ef60405160405180910390a4612aab60008383600161223a565b5050565b6000808273ffffffffffffffffffffffffffffffffffffffff163b119050919050565b6000819050919050565b612ae581612ad2565b82525050565b6000602082019050612b006000830184612adc565b92915050565b6000604051905090565b600080fd5b600080fd5b60007fffffffff0000000000000000000000000000000000000000000000000000000082169050919050565b612b4f81612b1a565b8114612b5a57600080fd5b50565b600081359050612b6c81612b46565b92915050565b600060208284031215612b8857612b87612b10565b5b6000612b9684828501612b5d565b91505092915050565b60008115159050919050565b612bb481612b9f565b82525050565b6000602082019050612bcf6000830184612bab565b92915050565b600081519050919050565b600082825260208201905092915050565b60005b83811015612c0f578082015181840152602081019050612bf4565b83811115612c1e576000848401525b50505050565b6000601f19601f8301169050919050565b6000612c4082612bd5565b612c4a8185612be0565b9350612c5a818560208601612bf1565b612c6381612c24565b840191505092915050565b60006020820190508181036000830152612c888184612c35565b905092915050565b612c9981612ad2565b8114612ca457600080fd5b50565b600081359050612cb681612c90565b92915050565b600060208284031215612cd257612cd1612b10565b5b6000612ce084828501612ca7565b91505092915050565b600073ffffffffffffffffffffffffffffffffffffffff82169050919050565b6000612d1482612ce9565b9050919050565b612d2481612d09565b82525050565b6000602082019050612d3f6000830184612d1b565b92915050565b612d4e81612d09565b8114612d5957600080fd5b50565b600081359050612d6b81612d45565b92915050565b60008060408385031215612d8857612d87612b10565b5b6000612d9685828601612d5c565b9250506020612da785828601612ca7565b9150509250929050565b600080600060608486031215612dca57612dc9612b10565b5b6000612dd886828701612d5c565b9350506020612de986828701612d5c565b9250506040612dfa86828701612ca7565b9150509250925092565b600060208284031215612e1a57612e19612b10565b5b6000612e2884828501612d5c565b91505092915050565b600081519050919050565b600082825260208201905092915050565b6000819050602082019050919050565b612e6681612ad2565b82525050565b6000612e788383612e5d565b60208301905092915050565b6000602082019050919050565b6000612e9c82612e31565b612ea68185612e3c565b9350612eb183612e4d565b8060005b83811015612ee2578151612ec98882612e6c565b9750612ed483612e84565b925050600181019050612eb5565b5085935050505092915050565b60006020820190508181036000830152612f098184612e91565b905092915050565b612f1a81612b9f565b8114612f2557600080fd5b50565b600081359050612f3781612f11565b92915050565b60008060408385031215612f5457612f53612b10565b5b6000612f6285828601612d5c565b9250506020612f7385828601612f28565b9150509250929050565b600080fd5b600080fd5b7f4e487b7100000000000000000000000000000000000000000000000000000000600052604160045260246000fd5b612fbf82612c24565b810181811067ffffffffffffffff82111715612fde57612fdd612f87565b5b80604052505050565b6000612ff1612b06565b9050612ffd8282612fb6565b919050565b600067ffffffffffffffff82111561301d5761301c612f87565b5b61302682612c24565b9050602081019050919050565b82818337600083830152505050565b600061305561305084613002565b612fe7565b90508281526020810184848401111561307157613070612f82565b5b61307c848285613033565b509392505050565b600082601f83011261309957613098612f7d565b5b81356130a9848260208601613042565b91505092915050565b600080600080608085870312156130cc576130cb612b10565b5b60006130da87828801612d5c565b94505060206130eb87828801612d5c565b93505060406130fc87828801612ca7565b925050606085013567ffffffffffffffff81111561311d5761311c612b15565b5b61312987828801613084565b91505092959194509250565b6000806040838503121561314c5761314b612b10565b5b600061315a85828601612d5c565b925050602061316b85828601612d5c565b9150509250929050565b7f4e487b7100000000000000000000000000000000000000000000000000000000600052602260045260246000fd5b600060028204905060018216806131bc57607f821691505b602082108114156131d0576131cf613175565b5b50919050565b7f4552433732313a20617070726f76616c20746f2063757272656e74206f776e6560008201527f7200000000000000000000000000000000000000000000000000000000000000602082015250565b6000613232602183612be0565b915061323d826131d6565b604082019050919050565b6000602082019050818103600083015261326181613225565b9050919050565b7f4552433732313a20617070726f76652063616c6c6572206973206e6f7420746f60008201527f6b656e206f776e6572206f7220617070726f76656420666f7220616c6c000000602082015250565b60006132c4603d83612be0565b91506132cf82613268565b604082019050919050565b600060208201905081810360008301526132f3816132b7565b9050919050565b7f4552433732313a2063616c6c6572206973206e6f7420746f6b656e206f776e6560008201527f72206f7220617070726f76656400000000000000000000000000000000000000602082015250565b6000613356602d83612be0565b9150613361826132fa565b604082019050919050565b6000602082019050818103600083015261338581613349565b9050919050565b7f455243373231456e756d657261626c653a206f776e657220696e646578206f7560008201527f74206f6620626f756e6473000000000000000000000000000000000000000000602082015250565b60006133e8602b83612be0565b91506133f38261338c565b604082019050919050565b60006020820190508181036000830152613417816133db565b9050919050565b60008160601b9050919050565b60006134368261341e565b9050919050565b60006134488261342b565b9050919050565b61346061345b82612d09565b61343d565b82525050565b6000613472828461344f565b60148201915081905092915050565b600081905092915050565b50565b600061349c600083613481565b91506134a78261348c565b600082019050919050565b60006134bd8261348f565b9150819050919050565b60006040820190506134dc6000830185612adc565b6134e96020830184612d1b565b9392505050565b7f4e487b7100000000000000000000000000000000000000000000000000000000600052603260045260246000fd5b7f4e487b7100000000000000000000000000000000000000000000000000000000600052601160045260246000fd5b600061355982612ad2565b91507fffffffffffffffffffffffffffffffffffffffffffffffffffffffffffffffff82141561358c5761358b61351f565b5b600182019050919050565b7f455243373231456e756d657261626c653a20676c6f62616c20696e646578206f60008201527f7574206f6620626f756e64730000000000000000000000000000000000000000602082015250565b60006135f3602c83612be0565b91506135fe82613597565b604082019050919050565b60006020820190508181036000830152613622816135e6565b9050919050565b7f4552433732313a20696e76616c696420746f6b656e2049440000000000000000600082015250565b600061365f601883612be0565b915061366a82613629565b602082019050919050565b6000602082019050818103600083015261368e81613652565b9050919050565b7f4552433732313a2061646472657373207a65726f206973206e6f74206120766160008201527f6c6964206f776e65720000000000000000000000000000000000000000000000602082015250565b60006136f1602983612be0565b91506136fc82613695565b604082019050919050565b60006020820190508181036000830152613720816136e4565b9050919050565b7f4d696e74696e67206e6f74206f70656e20796574000000000000000000000000600082015250565b600061375d601483612be0565b915061376882613727565b602082019050919050565b6000602082019050818103600083015261378c81613750565b9050919050565b7f4d696e74696e6720686173206265656e20706175736564000000000000000000600082015250565b60006137c9601783612be0565b91506137d482613793565b602082019050919050565b600060208201905081810360008301526137f8816137bc565b9050919050565b7f746869732061646472657373206973206e6f74206f6e2074686520616c6c6f7760008201527f206c697374000000000000000000000000000000000000000000000000000000602082015250565b600061385b602583612be0565b9150613866826137ff565b604082019050919050565b6000602082019050818103600083015261388a8161384e565b9050919050565b7f6d757374206d696e74206174206c656173742031204e46540000000000000000600082015250565b60006138c7601883612be0565b91506138d282613891565b602082019050919050565b600060208201905081810360008301526138f6816138ba565b9050919050565b600061390882612ad2565b915061391383612ad2565b9250817fffffffffffffffffffffffffffffffffffffffffffffffffffffffffffffffff048311821515161561394c5761394b61351f565b5b828202905092915050565b7f696e737566666963656e74207061796d656e7400000000000000000000000000600082015250565b600061398d601383612be0565b915061399882613957565b602082019050919050565b600060208201905081810360008301526139bc81613980565b9050919050565b7f43616e6e6f74206d696e74206d6f7265207468616e2035204e46547300000000600082015250565b60006139f9601c83612be0565b9150613a04826139c3565b602082019050919050565b60006020820190508181036000830152613a28816139ec565b9050919050565b6000613a3a82612ad2565b9150613a4583612ad2565b9250827fffffffffffffffffffffffffffffffffffffffffffffffffffffffffffffffff03821115613a7a57613a7961351f565b5b828201905092915050565b7f6578636565646564206d617820737570706c7900000000000000000000000000600082015250565b6000613abb601383612be0565b9150613ac682613a85565b602082019050919050565b60006020820190508181036000830152613aea81613aae565b9050919050565b7f746f6b656e20646f6573206e6f74206578697374000000000000000000000000600082015250565b6000613b27601483612be0565b9150613b3282613af1565b602082019050919050565b60006020820190508181036000830152613b5681613b1a565b9050919050565b600081905092915050565b60008190508160005260206000209050919050565b60008154613b8a816131a4565b613b948186613b5d565b94506001821660008114613baf5760018114613bc057613bf3565b60ff19831686528186019350613bf3565b613bc985613b68565b60005b83811015613beb57815481890152600182019150602081019050613bcc565b838801955050505b50505092915050565b6000613c0782612bd5565b613c118185613b5d565b9350613c21818560208601612bf1565b80840191505092915050565b6000613c398286613b7d565b9150613c458285613bfc565b9150613c518284613b7d565b9150819050949350505050565b7f4f776e61626c653a206e6577206f776e657220697320746865207a65726f206160008201527f6464726573730000000000000000000000000000000000000000000000000000602082015250565b6000613cba602683612be0565b9150613cc582613c5e565b604082019050919050565b60006020820190508181036000830152613ce981613cad565b9050919050565b7f4f776e61626c653a2063616c6c6572206973206e6f7420746865206f776e6572600082015250565b6000613d26602083612be0565b9150613d3182613cf0565b602082019050919050565b60006020820190508181036000830152613d5581613d19565b9050919050565b7f4552433732313a207472616e736665722066726f6d20696e636f72726563742060008201527f6f776e6572000000000000000000000000000000000000000000000000000000602082015250565b6000613db8602583612be0565b9150613dc382613d5c565b604082019050919050565b60006020820190508181036000830152613de781613dab565b9050919050565b7f4552433732313a207472616e7366657220746f20746865207a65726f2061646460008201527f7265737300000000000000000000000000000000000000000000000000000000602082015250565b6000613e4a602483612be0565b9150613e5582613dee565b604082019050919050565b60006020820190508181036000830152613e7981613e3d565b9050919050565b7f4552433732313a20617070726f766520746f2063616c6c657200000000000000600082015250565b6000613eb6601983612be0565b9150613ec182613e80565b602082019050919050565b60006020820190508181036000830152613ee581613ea9565b9050919050565b7f4552433732313a207472616e7366657220746f206e6f6e20455243373231526560008201527f63656976657220696d706c656d656e7465720000000000000000000000000000602082015250565b6000613f48603283612be0565b9150613f5382613eec565b604082019050919050565b60006020820190508181036000830152613f7781613f3b565b9050919050565b7f4e487b7100000000000000000000000000000000000000000000000000000000600052601260045260246000fd5b7f455243373231456e756d657261626c653a20636f6e736563757469766520747260008201527f616e7366657273206e6f7420737570706f727465640000000000000000000000602082015250565b6000614009603583612be0565b915061401482613fad565b604082019050919050565b6000602082019050818103600083015261403881613ffc565b9050919050565b600081519050919050565b600082825260208201905092915050565b60006140668261403f565b614070818561404a565b9350614080818560208601612bf1565b61408981612c24565b840191505092915050565b60006080820190506140a96000830187612d1b565b6140b66020830186612d1b565b6140c36040830185612adc565b81810360608301526140d5818461405b565b905095945050505050565b6000815190506140ef81612b46565b92915050565b60006020828403121561410b5761410a612b10565b5b6000614119848285016140e0565b91505092915050565b600061412d82612ad2565b915061413883612ad2565b92508282101561414b5761414a61351f565b5b828203905092915050565b7f4e487b7100000000000000000000000000000000000000000000000000000000600052603160045260246000fd5b7f4552433732313a206d696e7420746f20746865207a65726f2061646472657373600082015250565b60006141bb602083612be0565b91506141c682614185565b602082019050919050565b600060208201905081810360008301526141ea816141ae565b9050919050565b7f4552433732313a20746f6b656e20616c7265616479206d696e74656400000000600082015250565b6000614227601c83612be0565b9150614232826141f1565b602082019050919050565b600060208201905081810360008301526142568161421a565b905091905056fea2646970667358221220aa43e66442451d678fc95a7119a775dac33dfa96abba0c92c8f6a8fd0d788b8d64736f6c63430008090033",
  "linkReferences": {},
  "deployedLinkReferences": {}
}