{
  "_format": "hh-sol-artifact-1",
  "contractName": "NFT",
  "sourceName": "contracts/NFT.sol",
  "abi": [
    {
      "inputs": [
        {
          "internalType": "string",
          "name": "_name",
          "type": "string"
        },
        {
          "internalType": "string",
          "name": "_symbol",
          "type": "string"
        },
        {
          "internalType": "uint256",
          "name": "_cost",
          "type": "uint256"
        },
        {
          "internalType": "uint256",
          "name": "_maxSupply",
          "type": "uint256"
        },
        {
          "internalType": "uint256",
          "name": "_maxMint",
          "type": "uint256"
        },
        {
          "internalType": "uint256",
          "name": "_allowMintingOn",
          "type": "uint256"
        },
        {
          "internalType": "string",
          "name": "_baseURI",
          "type": "string"
        }
      ],
      "stateMutability": "nonpayable",
      "type": "constructor"
    },
    {
      "anonymous": false,
      "inputs": [
        {
          "indexed": true,
          "internalType": "address",
          "name": "owner",
          "type": "address"
        },
        {
          "indexed": true,
          "internalType": "address",
          "name": "approved",
          "type": "address"
        },
        {
          "indexed": true,
          "internalType": "uint256",
          "name": "tokenId",
          "type": "uint256"
        }
      ],
      "name": "Approval",
      "type": "event"
    },
    {
      "anonymous": false,
      "inputs": [
        {
          "indexed": true,
          "internalType": "address",
          "name": "owner",
          "type": "address"
        },
        {
          "indexed": true,
          "internalType": "address",
          "name": "operator",
          "type": "address"
        },
        {
          "indexed": false,
          "internalType": "bool",
          "name": "approved",
          "type": "bool"
        }
      ],
      "name": "ApprovalForAll",
      "type": "event"
    },
    {
      "anonymous": false,
      "inputs": [
        {
          "indexed": false,
          "internalType": "uint256",
          "name": "amount",
          "type": "uint256"
        },
        {
          "indexed": false,
          "internalType": "address",
          "name": "minter",
          "type": "address"
        }
      ],
      "name": "Mint",
      "type": "event"
    },
    {
      "anonymous": false,
      "inputs": [
        {
          "indexed": true,
          "internalType": "address",
          "name": "previousOwner",
          "type": "address"
        },
        {
          "indexed": true,
          "internalType": "address",
          "name": "newOwner",
          "type": "address"
        }
      ],
      "name": "OwnershipTransferred",
      "type": "event"
    },
    {
      "anonymous": false,
      "inputs": [
        {
          "indexed": true,
          "internalType": "address",
          "name": "from",
          "type": "address"
        },
        {
          "indexed": true,
          "internalType": "address",
          "name": "to",
          "type": "address"
        },
        {
          "indexed": true,
          "internalType": "uint256",
          "name": "tokenId",
          "type": "uint256"
        }
      ],
      "name": "Transfer",
      "type": "event"
    },
    {
      "anonymous": false,
      "inputs": [
        {
          "indexed": false,
          "internalType": "uint256",
          "name": "amount",
          "type": "uint256"
        },
        {
          "indexed": false,
          "internalType": "address",
          "name": "owner",
          "type": "address"
        }
      ],
      "name": "Withdraw",
      "type": "event"
    },
    {
      "inputs": [
        {
          "internalType": "address",
          "name": "_address",
          "type": "address"
        }
      ],
      "name": "addAddress",
      "outputs": [],
      "stateMutability": "nonpayable",
      "type": "function"
    },
    {
      "inputs": [],
      "name": "allowMintingOn",
      "outputs": [
        {
          "internalType": "uint256",
          "name": "",
          "type": "uint256"
        }
      ],
      "stateMutability": "view",
      "type": "function"
    },
    {
      "inputs": [
        {
          "internalType": "address",
          "name": "to",
          "type": "address"
        },
        {
          "internalType": "uint256",
          "name": "tokenId",
          "type": "uint256"
        }
      ],
      "name": "approve",
      "outputs": [],
      "stateMutability": "nonpayable",
      "type": "function"
    },
    {
      "inputs": [
        {
          "internalType": "address",
          "name": "owner",
          "type": "address"
        }
      ],
      "name": "balanceOf",
      "outputs": [
        {
          "internalType": "uint256",
          "name": "",
          "type": "uint256"
        }
      ],
      "stateMutability": "view",
      "type": "function"
    },
    {
      "inputs": [],
      "name": "baseExtension",
      "outputs": [
        {
          "internalType": "string",
          "name": "",
          "type": "string"
        }
      ],
      "stateMutability": "view",
      "type": "function"
    },
    {
      "inputs": [],
      "name": "baseURI",
      "outputs": [
        {
          "internalType": "string",
          "name": "",
          "type": "string"
        }
      ],
      "stateMutability": "view",
      "type": "function"
    },
    {
      "inputs": [],
      "name": "cost",
      "outputs": [
        {
          "internalType": "uint256",
          "name": "",
          "type": "uint256"
        }
      ],
      "stateMutability": "view",
      "type": "function"
    },
    {
      "inputs": [
        {
          "internalType": "uint256",
          "name": "tokenId",
          "type": "uint256"
        }
      ],
      "name": "getApproved",
      "outputs": [
        {
          "internalType": "address",
          "name": "",
          "type": "address"
        }
      ],
      "stateMutability": "view",
      "type": "function"
    },
    {
      "inputs": [
        {
          "internalType": "uint256",
          "name": "_tokenId",
          "type": "uint256"
        }
      ],
      "name": "getTokenOrigin",
      "outputs": [
        {
          "internalType": "address",
          "name": "",
          "type": "address"
        }
      ],
      "stateMutability": "view",
      "type": "function"
    },
    {
      "inputs": [
        {
          "internalType": "address",
          "name": "owner",
          "type": "address"
        },
        {
          "internalType": "address",
          "name": "operator",
          "type": "address"
        }
      ],
      "name": "isApprovedForAll",
      "outputs": [
        {
          "internalType": "bool",
          "name": "",
          "type": "bool"
        }
      ],
      "stateMutability": "view",
      "type": "function"
    },
    {
      "inputs": [
        {
          "internalType": "address",
          "name": "_address",
          "type": "address"
        }
      ],
      "name": "isOnList",
      "outputs": [
        {
          "internalType": "bool",
          "name": "",
          "type": "bool"
        }
      ],
      "stateMutability": "view",
      "type": "function"
    },
    {
      "inputs": [],
      "name": "maxMint",
      "outputs": [
        {
          "internalType": "uint256",
          "name": "",
          "type": "uint256"
        }
      ],
      "stateMutability": "view",
      "type": "function"
    },
    {
      "inputs": [],
      "name": "maxSupply",
      "outputs": [
        {
          "internalType": "uint256",
          "name": "",
          "type": "uint256"
        }
      ],
      "stateMutability": "view",
      "type": "function"
    },
    {
      "inputs": [
        {
          "internalType": "uint256",
          "name": "_mintAmount",
          "type": "uint256"
        }
      ],
      "name": "mint",
      "outputs": [],
      "stateMutability": "payable",
      "type": "function"
    },
    {
      "inputs": [],
      "name": "name",
      "outputs": [
        {
          "internalType": "string",
          "name": "",
          "type": "string"
        }
      ],
      "stateMutability": "view",
      "type": "function"
    },
    {
      "inputs": [],
      "name": "owner",
      "outputs": [
        {
          "internalType": "address",
          "name": "",
          "type": "address"
        }
      ],
      "stateMutability": "view",
      "type": "function"
    },
    {
      "inputs": [
        {
          "internalType": "uint256",
          "name": "tokenId",
          "type": "uint256"
        }
      ],
      "name": "ownerOf",
      "outputs": [
        {
          "internalType": "address",
          "name": "",
          "type": "address"
        }
      ],
      "stateMutability": "view",
      "type": "function"
    },
    {
      "inputs": [],
      "name": "pauseMint",
      "outputs": [],
      "stateMutability": "nonpayable",
      "type": "function"
    },
    {
      "inputs": [],
      "name": "pauseMinting",
      "outputs": [
        {
          "internalType": "bool",
          "name": "",
          "type": "bool"
        }
      ],
      "stateMutability": "view",
      "type": "function"
    },
    {
      "inputs": [],
      "name": "renounceOwnership",
      "outputs": [],
      "stateMutability": "nonpayable",
      "type": "function"
    },
    {
      "inputs": [
        {
          "internalType": "address",
          "name": "from",
          "type": "address"
        },
        {
          "internalType": "address",
          "name": "to",
          "type": "address"
        },
        {
          "internalType": "uint256",
          "name": "tokenId",
          "type": "uint256"
        }
      ],
      "name": "safeTransferFrom",
      "outputs": [],
      "stateMutability": "nonpayable",
      "type": "function"
    },
    {
      "inputs": [
        {
          "internalType": "address",
          "name": "from",
          "type": "address"
        },
        {
          "internalType": "address",
          "name": "to",
          "type": "address"
        },
        {
          "internalType": "uint256",
          "name": "tokenId",
          "type": "uint256"
        },
        {
          "internalType": "bytes",
          "name": "data",
          "type": "bytes"
        }
      ],
      "name": "safeTransferFrom",
      "outputs": [],
      "stateMutability": "nonpayable",
      "type": "function"
    },
    {
      "inputs": [
        {
          "internalType": "address",
          "name": "operator",
          "type": "address"
        },
        {
          "internalType": "bool",
          "name": "approved",
          "type": "bool"
        }
      ],
      "name": "setApprovalForAll",
      "outputs": [],
      "stateMutability": "nonpayable",
      "type": "function"
    },
    {
      "inputs": [
        {
          "internalType": "uint256",
          "name": "_newCost",
          "type": "uint256"
        }
      ],
      "name": "setCost",
      "outputs": [],
      "stateMutability": "nonpayable",
      "type": "function"
    },
    {
      "inputs": [
        {
          "internalType": "uint256",
          "name": "",
          "type": "uint256"
        }
      ],
      "name": "stakedTimestamps",
      "outputs": [
        {
          "internalType": "uint256",
          "name": "",
          "type": "uint256"
        }
      ],
      "stateMutability": "view",
      "type": "function"
    },
    {
      "inputs": [
        {
          "internalType": "bytes4",
          "name": "interfaceId",
          "type": "bytes4"
        }
      ],
      "name": "supportsInterface",
      "outputs": [
        {
          "internalType": "bool",
          "name": "",
          "type": "bool"
        }
      ],
      "stateMutability": "view",
      "type": "function"
    },
    {
      "inputs": [],
      "name": "symbol",
      "outputs": [
        {
          "internalType": "string",
          "name": "",
          "type": "string"
        }
      ],
      "stateMutability": "view",
      "type": "function"
    },
    {
      "inputs": [
        {
          "internalType": "uint256",
          "name": "index",
          "type": "uint256"
        }
      ],
      "name": "tokenByIndex",
      "outputs": [
        {
          "internalType": "uint256",
          "name": "",
          "type": "uint256"
        }
      ],
      "stateMutability": "view",
      "type": "function"
    },
    {
      "inputs": [
        {
          "internalType": "address",
          "name": "owner",
          "type": "address"
        },
        {
          "internalType": "uint256",
          "name": "index",
          "type": "uint256"
        }
      ],
      "name": "tokenOfOwnerByIndex",
      "outputs": [
        {
          "internalType": "uint256",
          "name": "",
          "type": "uint256"
        }
      ],
      "stateMutability": "view",
      "type": "function"
    },
    {
      "inputs": [
        {
          "internalType": "uint256",
          "name": "_tokenId",
          "type": "uint256"
        }
      ],
      "name": "tokenURI",
      "outputs": [
        {
          "internalType": "string",
          "name": "",
          "type": "string"
        }
      ],
      "stateMutability": "view",
      "type": "function"
    },
    {
      "inputs": [],
      "name": "totalSupply",
      "outputs": [
        {
          "internalType": "uint256",
          "name": "",
          "type": "uint256"
        }
      ],
      "stateMutability": "view",
      "type": "function"
    },
    {
      "inputs": [
        {
          "internalType": "address",
          "name": "from",
          "type": "address"
        },
        {
          "internalType": "address",
          "name": "to",
          "type": "address"
        },
        {
          "internalType": "uint256",
          "name": "tokenId",
          "type": "uint256"
        }
      ],
      "name": "transferFrom",
      "outputs": [],
      "stateMutability": "nonpayable",
      "type": "function"
    },
    {
      "inputs": [
        {
          "internalType": "address",
          "name": "newOwner",
          "type": "address"
        }
      ],
      "name": "transferOwnership",
      "outputs": [],
      "stateMutability": "nonpayable",
      "type": "function"
    },
    {
      "inputs": [],
      "name": "unPauseMint",
      "outputs": [],
      "stateMutability": "nonpayable",
      "type": "function"
    },
    {
      "inputs": [
        {
          "internalType": "address",
          "name": "_owner",
          "type": "address"
        }
      ],
      "name": "walletOfOwner",
      "outputs": [
        {
          "internalType": "uint256[]",
          "name": "",
          "type": "uint256[]"
        }
      ],
      "stateMutability": "view",
      "type": "function"
    },
    {
      "inputs": [],
      "name": "withdraw",
      "outputs": [],
      "stateMutability": "nonpayable",
      "type": "function"
    }
  ],
  "bytecode": "0x60806040526040518060400160405280600581526020017f2e6a736f6e000000000000000000000000000000000000000000000000000000815250601090805190602001906200005192919062000206565b506000601160006101000a81548160ff0219169083151502179055503480156200007a57600080fd5b50604051620049e8380380620049e88339818101604052810190620000a091906200048e565b86868160009080519060200190620000ba92919062000206565b508060019080519060200190620000d392919062000206565b505050620000f6620000ea6200013860201b60201c565b6200014060201b60201c565b84600b8190555083600c8190555082600d8190555081600e8190555080600f90805190602001906200012a92919062000206565b505050505050505062000603565b600033905090565b6000600a60009054906101000a900473ffffffffffffffffffffffffffffffffffffffff16905081600a60006101000a81548173ffffffffffffffffffffffffffffffffffffffff021916908373ffffffffffffffffffffffffffffffffffffffff1602179055508173ffffffffffffffffffffffffffffffffffffffff168173ffffffffffffffffffffffffffffffffffffffff167f8be0079c531659141344cd1fd0a4f28419497f9722a3daafe3b4186f6b6457e060405160405180910390a35050565b8280546200021490620005cd565b90600052602060002090601f01602090048101928262000238576000855562000284565b82601f106200025357805160ff191683800117855562000284565b8280016001018555821562000284579182015b828111156200028357825182559160200191906001019062000266565b5b50905062000293919062000297565b5090565b5b80821115620002b257600081600090555060010162000298565b5090565b6000604051905090565b600080fd5b600080fd5b600080fd5b600080fd5b6000601f19601f8301169050919050565b7f4e487b7100000000000000000000000000000000000000000000000000000000600052604160045260246000fd5b6200031f82620002d4565b810181811067ffffffffffffffff82111715620003415762000340620002e5565b5b80604052505050565b600062000356620002b6565b905062000364828262000314565b919050565b600067ffffffffffffffff821115620003875762000386620002e5565b5b6200039282620002d4565b9050602081019050919050565b60005b83811015620003bf578082015181840152602081019050620003a2565b83811115620003cf576000848401525b50505050565b6000620003ec620003e68462000369565b6200034a565b9050828152602081018484840111156200040b576200040a620002cf565b5b620004188482856200039f565b509392505050565b600082601f830112620004385762000437620002ca565b5b81516200044a848260208601620003d5565b91505092915050565b6000819050919050565b620004688162000453565b81146200047457600080fd5b50565b60008151905062000488816200045d565b92915050565b600080600080600080600060e0888a031215620004b057620004af620002c0565b5b600088015167ffffffffffffffff811115620004d157620004d0620002c5565b5b620004df8a828b0162000420565b975050602088015167ffffffffffffffff811115620005035762000502620002c5565b5b620005118a828b0162000420565b9650506040620005248a828b0162000477565b9550506060620005378a828b0162000477565b94505060806200054a8a828b0162000477565b93505060a06200055d8a828b0162000477565b92505060c088015167ffffffffffffffff811115620005815762000580620002c5565b5b6200058f8a828b0162000420565b91505092959891949750929550565b7f4e487b7100000000000000000000000000000000000000000000000000000000600052602260045260246000fd5b60006002820490506001821680620005e657607f821691505b60208210811415620005fd57620005fc6200059e565b5b50919050565b6143d580620006136000396000f3fe60806040526004361061020f5760003560e01c80636352211e11610118578063a22cb465116100a0578063cd85cdb51161006f578063cd85cdb5146107b6578063d5abeb01146107cd578063da8fbf2a146107f8578063e985e9c514610823578063f2fde38b146108605761020f565b8063a22cb465146106fc578063b88d4fde14610725578063c66828621461074e578063c87b56dd146107795761020f565b80637330daac116100e75780637330daac146106225780637501f7411461065f5780638da5cb5b1461068a57806395d89b41146106b5578063a0712d68146106e05761020f565b80636352211e146105665780636c0360eb146105a357806370a08231146105ce578063715018a61461060b5761020f565b806323b872dd1161019b57806342842e0e1161016a57806342842e0e1461045d578063438b63001461048657806344a0d68a146104c35780634f6ccce7146104ec5780636117c1f9146105295761020f565b806323b872dd146103b75780632f745c59146103e057806338eada1c1461041d5780633ccfd60b146104465761020f565b8063095ea7b3116101e2578063095ea7b3146102e45780630be218d61461030d57806313faede61461032457806318160ddd1461034f5780631adc100c1461037a5761020f565b8063014679961461021457806301ffc9a71461023f57806306fdde031461027c578063081812fc146102a7575b600080fd5b34801561022057600080fd5b50610229610889565b6040516102369190612c2d565b60405180910390f35b34801561024b57600080fd5b5061026660048036038101906102619190612cb4565b61088f565b6040516102739190612cfc565b60405180910390f35b34801561028857600080fd5b50610291610909565b60405161029e9190612db0565b60405180910390f35b3480156102b357600080fd5b506102ce60048036038101906102c99190612dfe565b61099b565b6040516102db9190612e6c565b60405180910390f35b3480156102f057600080fd5b5061030b60048036038101906103069190612eb3565b6109e1565b005b34801561031957600080fd5b50610322610af9565b005b34801561033057600080fd5b50610339610b1e565b6040516103469190612c2d565b60405180910390f35b34801561035b57600080fd5b50610364610b24565b6040516103719190612c2d565b60405180910390f35b34801561038657600080fd5b506103a1600480360381019061039c9190612dfe565b610b31565b6040516103ae9190612c2d565b60405180910390f35b3480156103c357600080fd5b506103de60048036038101906103d99190612ef3565b610b49565b005b3480156103ec57600080fd5b5061040760048036038101906104029190612eb3565b610ba9565b6040516104149190612c2d565b60405180910390f35b34801561042957600080fd5b50610444600480360381019061043f9190612f46565b610c4e565b005b34801561045257600080fd5b5061045b610cb1565b005b34801561046957600080fd5b50610484600480360381019061047f9190612ef3565b610d71565b005b34801561049257600080fd5b506104ad60048036038101906104a89190612f46565b610d91565b6040516104ba9190613031565b60405180910390f35b3480156104cf57600080fd5b506104ea60048036038101906104e59190612dfe565b610e3f565b005b3480156104f857600080fd5b50610513600480360381019061050e9190612dfe565b610e51565b6040516105209190612c2d565b60405180910390f35b34801561053557600080fd5b50610550600480360381019061054b9190612dfe565b610ec2565b60405161055d9190612e6c565b60405180910390f35b34801561057257600080fd5b5061058d60048036038101906105889190612dfe565b610eff565b60405161059a9190612e6c565b60405180910390f35b3480156105af57600080fd5b506105b8610f86565b6040516105c59190612db0565b60405180910390f35b3480156105da57600080fd5b506105f560048036038101906105f09190612f46565b611014565b6040516106029190612c2d565b60405180910390f35b34801561061757600080fd5b506106206110cc565b005b34801561062e57600080fd5b5061064960048036038101906106449190612f46565b6110e0565b6040516106569190612cfc565b60405180910390f35b34801561066b57600080fd5b50610674611135565b6040516106819190612c2d565b60405180910390f35b34801561069657600080fd5b5061069f61113b565b6040516106ac9190612e6c565b60405180910390f35b3480156106c157600080fd5b506106ca611165565b6040516106d79190612db0565b60405180910390f35b6106fa60048036038101906106f59190612dfe565b6111f7565b005b34801561070857600080fd5b50610723600480360381019061071e919061307f565b6114d9565b005b34801561073157600080fd5b5061074c600480360381019061074791906131f4565b6114ef565b005b34801561075a57600080fd5b50610763611551565b6040516107709190612db0565b60405180910390f35b34801561078557600080fd5b506107a0600480360381019061079b9190612dfe565b6115df565b6040516107ad9190612db0565b60405180910390f35b3480156107c257600080fd5b506107cb61165e565b005b3480156107d957600080fd5b506107e2611683565b6040516107ef9190612c2d565b60405180910390f35b34801561080457600080fd5b5061080d611689565b60405161081a9190612cfc565b60405180910390f35b34801561082f57600080fd5b5061084a60048036038101906108459190613277565b61169c565b6040516108579190612cfc565b60405180910390f35b34801561086c57600080fd5b5061088760048036038101906108829190612f46565b611730565b005b600e5481565b60007f780e9d63000000000000000000000000000000000000000000000000000000007bffffffffffffffffffffffffffffffffffffffffffffffffffffffff1916827bffffffffffffffffffffffffffffffffffffffffffffffffffffffff191614806109025750610901826117b4565b5b9050919050565b606060008054610918906132e6565b80601f0160208091040260200160405190810160405280929190818152602001828054610944906132e6565b80156109915780601f1061096657610100808354040283529160200191610991565b820191906000526020600020905b81548152906001019060200180831161097457829003601f168201915b5050505050905090565b60006109a682611896565b6004600083815260200190815260200160002060009054906101000a900473ffffffffffffffffffffffffffffffffffffffff169050919050565b60006109ec82610eff565b90508073ffffffffffffffffffffffffffffffffffffffff168373ffffffffffffffffffffffffffffffffffffffff161415610a5d576040517f08c379a0000000000000000000000000000000000000000000000000000000008152600401610a549061338a565b60405180910390fd5b8073ffffffffffffffffffffffffffffffffffffffff16610a7c6118e1565b73ffffffffffffffffffffffffffffffffffffffff161480610aab5750610aaa81610aa56118e1565b61169c565b5b610aea576040517f08c379a0000000000000000000000000000000000000000000000000000000008152600401610ae19061341c565b60405180910390fd5b610af483836118e9565b505050565b610b016119a2565b6000601160006101000a81548160ff021916908315150217905550565b600b5481565b6000600880549050905090565b60146020528060005260406000206000915090505481565b610b5a610b546118e1565b82611a20565b610b99576040517f08c379a0000000000000000000000000000000000000000000000000000000008152600401610b90906134ae565b60405180910390fd5b610ba4838383611ab5565b505050565b6000610bb483611014565b8210610bf5576040517f08c379a0000000000000000000000000000000000000000000000000000000008152600401610bec90613540565b60405180910390fd5b600660008473ffffffffffffffffffffffffffffffffffffffff1673ffffffffffffffffffffffffffffffffffffffff168152602001908152602001600020600083815260200190815260200160002054905092915050565b610c566119a2565b600081604051602001610c6991906135a8565b60405160208183030381529060405280519060200120905060016012600083815260200190815260200160002060006101000a81548160ff0219169083151502179055505050565b610cb96119a2565b600047905060003373ffffffffffffffffffffffffffffffffffffffff1682604051610ce4906135f4565b60006040518083038185875af1925050503d8060008114610d21576040519150601f19603f3d011682016040523d82523d6000602084013e610d26565b606091505b5050905080610d3457600080fd5b7f8353ffcac0876ad14e226d9783c04540bfebf13871e868157d2a391cad98e9188233604051610d65929190613609565b60405180910390a15050565b610d8c838383604051806020016040528060008152506114ef565b505050565b60606000610d9e83611014565b905060008167ffffffffffffffff811115610dbc57610dbb6130c9565b5b604051908082528060200260200182016040528015610dea5781602001602082028036833780820191505090505b50905060005b82811015610e3457610e028582610ba9565b828281518110610e1557610e14613632565b5b6020026020010181815250508080610e2c90613690565b915050610df0565b508092505050919050565b610e476119a2565b80600b8190555050565b6000610e5b610b24565b8210610e9c576040517f08c379a0000000000000000000000000000000000000000000000000000000008152600401610e939061374b565b60405180910390fd5b60088281548110610eb057610eaf613632565b5b90600052602060002001549050919050565b60006013600083815260200190815260200160002060009054906101000a900473ffffffffffffffffffffffffffffffffffffffff169050919050565b600080610f0b83611daf565b9050600073ffffffffffffffffffffffffffffffffffffffff168173ffffffffffffffffffffffffffffffffffffffff161415610f7d576040517f08c379a0000000000000000000000000000000000000000000000000000000008152600401610f74906137b7565b60405180910390fd5b80915050919050565b600f8054610f93906132e6565b80601f0160208091040260200160405190810160405280929190818152602001828054610fbf906132e6565b801561100c5780601f10610fe15761010080835404028352916020019161100c565b820191906000526020600020905b815481529060010190602001808311610fef57829003601f168201915b505050505081565b60008073ffffffffffffffffffffffffffffffffffffffff168273ffffffffffffffffffffffffffffffffffffffff161415611085576040517f08c379a000000000000000000000000000000000000000000000000000000000815260040161107c90613849565b60405180910390fd5b600360008373ffffffffffffffffffffffffffffffffffffffff1673ffffffffffffffffffffffffffffffffffffffff168152602001908152602001600020549050919050565b6110d46119a2565b6110de6000611dec565b565b600080826040516020016110f491906135a8565b6040516020818303038152906040528051906020012090506012600082815260200190815260200160002060009054906101000a900460ff16915050919050565b600d5481565b6000600a60009054906101000a900473ffffffffffffffffffffffffffffffffffffffff16905090565b606060018054611174906132e6565b80601f01602080910402602001604051908101604052809291908181526020018280546111a0906132e6565b80156111ed5780601f106111c2576101008083540402835291602001916111ed565b820191906000526020600020905b8154815290600101906020018083116111d057829003601f168201915b5050505050905090565b600e5442101561123c576040517f08c379a0000000000000000000000000000000000000000000000000000000008152600401611233906138b5565b60405180910390fd5b601160009054906101000a900460ff161561128c576040517f08c379a000000000000000000000000000000000000000000000000000000000815260040161128390613921565b60405180910390fd5b611295336110e0565b6112d4576040517f08c379a00000000000000000000000000000000000000000000000000000000081526004016112cb906139b3565b60405180910390fd5b60008111611317576040517f08c379a000000000000000000000000000000000000000000000000000000000815260040161130e90613a1f565b60405180910390fd5b80600b546113259190613a3f565b341015611367576040517f08c379a000000000000000000000000000000000000000000000000000000000815260040161135e90613ae5565b60405180910390fd5b600d548111156113ac576040517f08c379a00000000000000000000000000000000000000000000000000000000081526004016113a390613b51565b60405180910390fd5b60006113b6610b24565b9050600c5482826113c79190613b71565b1115611408576040517f08c379a00000000000000000000000000000000000000000000000000000000081526004016113ff90613c13565b60405180910390fd5b6000600190505b82811161149b5761142b3382846114269190613b71565b611eb2565b3360136000838561143c9190613b71565b815260200190815260200160002060006101000a81548173ffffffffffffffffffffffffffffffffffffffff021916908373ffffffffffffffffffffffffffffffffffffffff160217905550808061149390613690565b91505061140f565b507ff3cea5493d790af0133817606f7350a91d7f154ea52eaa79d179d4d231e5010282336040516114cd929190613609565b60405180910390a15050565b6114eb6114e46118e1565b8383611ed0565b5050565b6115006114fa6118e1565b83611a20565b61153f576040517f08c379a0000000000000000000000000000000000000000000000000000000008152600401611536906134ae565b60405180910390fd5b61154b8484848461203d565b50505050565b6010805461155e906132e6565b80601f016020809104026020016040519081016040528092919081815260200182805461158a906132e6565b80156115d75780601f106115ac576101008083540402835291602001916115d7565b820191906000526020600020905b8154815290600101906020018083116115ba57829003601f168201915b505050505081565b60606115ea82612099565b611629576040517f08c379a000000000000000000000000000000000000000000000000000000000815260040161162090613c7f565b60405180910390fd5b600f611634836120da565b601060405160200161164893929190613d6f565b6040516020818303038152906040529050919050565b6116666119a2565b6001601160006101000a81548160ff021916908315150217905550565b600c5481565b601160009054906101000a900460ff1681565b6000600560008473ffffffffffffffffffffffffffffffffffffffff1673ffffffffffffffffffffffffffffffffffffffff16815260200190815260200160002060008373ffffffffffffffffffffffffffffffffffffffff1673ffffffffffffffffffffffffffffffffffffffff16815260200190815260200160002060009054906101000a900460ff16905092915050565b6117386119a2565b600073ffffffffffffffffffffffffffffffffffffffff168173ffffffffffffffffffffffffffffffffffffffff1614156117a8576040517f08c379a000000000000000000000000000000000000000000000000000000000815260040161179f90613e12565b60405180910390fd5b6117b181611dec565b50565b60007f80ac58cd000000000000000000000000000000000000000000000000000000007bffffffffffffffffffffffffffffffffffffffffffffffffffffffff1916827bffffffffffffffffffffffffffffffffffffffffffffffffffffffff1916148061187f57507f5b5e139f000000000000000000000000000000000000000000000000000000007bffffffffffffffffffffffffffffffffffffffffffffffffffffffff1916827bffffffffffffffffffffffffffffffffffffffffffffffffffffffff1916145b8061188f575061188e826121b2565b5b9050919050565b61189f81612099565b6118de576040517f08c379a00000000000000000000000000000000000000000000000000000000081526004016118d5906137b7565b60405180910390fd5b50565b600033905090565b816004600083815260200190815260200160002060006101000a81548173ffffffffffffffffffffffffffffffffffffffff021916908373ffffffffffffffffffffffffffffffffffffffff160217905550808273ffffffffffffffffffffffffffffffffffffffff1661195c83610eff565b73ffffffffffffffffffffffffffffffffffffffff167f8c5be1e5ebec7d5bd14f71427d1e84f3dd0314c0f7b2291e5b200ac8c7c3b92560405160405180910390a45050565b6119aa6118e1565b73ffffffffffffffffffffffffffffffffffffffff166119c861113b565b73ffffffffffffffffffffffffffffffffffffffff1614611a1e576040517f08c379a0000000000000000000000000000000000000000000000000000000008152600401611a1590613e7e565b60405180910390fd5b565b600080611a2c83610eff565b90508073ffffffffffffffffffffffffffffffffffffffff168473ffffffffffffffffffffffffffffffffffffffff161480611a6e5750611a6d818561169c565b5b80611aac57508373ffffffffffffffffffffffffffffffffffffffff16611a948461099b565b73ffffffffffffffffffffffffffffffffffffffff16145b91505092915050565b8273ffffffffffffffffffffffffffffffffffffffff16611ad582610eff565b73ffffffffffffffffffffffffffffffffffffffff1614611b2b576040517f08c379a0000000000000000000000000000000000000000000000000000000008152600401611b2290613f10565b60405180910390fd5b600073ffffffffffffffffffffffffffffffffffffffff168273ffffffffffffffffffffffffffffffffffffffff161415611b9b576040517f08c379a0000000000000000000000000000000000000000000000000000000008152600401611b9290613fa2565b60405180910390fd5b611ba8838383600161221c565b8273ffffffffffffffffffffffffffffffffffffffff16611bc882610eff565b73ffffffffffffffffffffffffffffffffffffffff1614611c1e576040517f08c379a0000000000000000000000000000000000000000000000000000000008152600401611c1590613f10565b60405180910390fd5b6004600082815260200190815260200160002060006101000a81549073ffffffffffffffffffffffffffffffffffffffff02191690556001600360008573ffffffffffffffffffffffffffffffffffffffff1673ffffffffffffffffffffffffffffffffffffffff168152602001908152602001600020600082825403925050819055506001600360008473ffffffffffffffffffffffffffffffffffffffff1673ffffffffffffffffffffffffffffffffffffffff16815260200190815260200160002060008282540192505081905550816002600083815260200190815260200160002060006101000a81548173ffffffffffffffffffffffffffffffffffffffff021916908373ffffffffffffffffffffffffffffffffffffffff160217905550808273ffffffffffffffffffffffffffffffffffffffff168473ffffffffffffffffffffffffffffffffffffffff167fddf252ad1be2c89b69c2b068fc378daa952ba7f163c4a11628f55a4df523b3ef60405160405180910390a4611daa838383600161237c565b505050565b60006002600083815260200190815260200160002060009054906101000a900473ffffffffffffffffffffffffffffffffffffffff169050919050565b6000600a60009054906101000a900473ffffffffffffffffffffffffffffffffffffffff16905081600a60006101000a81548173ffffffffffffffffffffffffffffffffffffffff021916908373ffffffffffffffffffffffffffffffffffffffff1602179055508173ffffffffffffffffffffffffffffffffffffffff168173ffffffffffffffffffffffffffffffffffffffff167f8be0079c531659141344cd1fd0a4f28419497f9722a3daafe3b4186f6b6457e060405160405180910390a35050565b611ecc828260405180602001604052806000815250612382565b5050565b8173ffffffffffffffffffffffffffffffffffffffff168373ffffffffffffffffffffffffffffffffffffffff161415611f3f576040517f08c379a0000000000000000000000000000000000000000000000000000000008152600401611f369061400e565b60405180910390fd5b80600560008573ffffffffffffffffffffffffffffffffffffffff1673ffffffffffffffffffffffffffffffffffffffff16815260200190815260200160002060008473ffffffffffffffffffffffffffffffffffffffff1673ffffffffffffffffffffffffffffffffffffffff16815260200190815260200160002060006101000a81548160ff0219169083151502179055508173ffffffffffffffffffffffffffffffffffffffff168373ffffffffffffffffffffffffffffffffffffffff167f17307eab39ab6107e8899845ad3d59bd9653f200f220920489ca2b5937696c31836040516120309190612cfc565b60405180910390a3505050565b612048848484611ab5565b612054848484846123dd565b612093576040517f08c379a000000000000000000000000000000000000000000000000000000000815260040161208a906140a0565b60405180910390fd5b50505050565b60008073ffffffffffffffffffffffffffffffffffffffff166120bb83611daf565b73ffffffffffffffffffffffffffffffffffffffff1614159050919050565b6060600060016120e984612574565b01905060008167ffffffffffffffff811115612108576121076130c9565b5b6040519080825280601f01601f19166020018201604052801561213a5781602001600182028036833780820191505090505b509050600082602001820190505b6001156121a7578080600190039150507f3031323334353637383961626364656600000000000000000000000000000000600a86061a8153600a8581612191576121906140c0565b5b04945060008514156121a2576121a7565b612148565b819350505050919050565b60007f01ffc9a7000000000000000000000000000000000000000000000000000000007bffffffffffffffffffffffffffffffffffffffffffffffffffffffff1916827bffffffffffffffffffffffffffffffffffffffffffffffffffffffff1916149050919050565b612228848484846126c7565b600181111561226c576040517f08c379a000000000000000000000000000000000000000000000000000000000815260040161226390614161565b60405180910390fd5b6000829050600073ffffffffffffffffffffffffffffffffffffffff168573ffffffffffffffffffffffffffffffffffffffff1614156122b4576122af816126cd565b6122f3565b8373ffffffffffffffffffffffffffffffffffffffff168573ffffffffffffffffffffffffffffffffffffffff16146122f2576122f18582612716565b5b5b600073ffffffffffffffffffffffffffffffffffffffff168473ffffffffffffffffffffffffffffffffffffffff1614156123365761233181612883565b612375565b8473ffffffffffffffffffffffffffffffffffffffff168473ffffffffffffffffffffffffffffffffffffffff1614612374576123738482612954565b5b5b5050505050565b50505050565b61238c83836129d3565b61239960008484846123dd565b6123d8576040517f08c379a00000000000000000000000000000000000000000000000000000000081526004016123cf906140a0565b60405180910390fd5b505050565b60006123fe8473ffffffffffffffffffffffffffffffffffffffff16612bf1565b15612567578373ffffffffffffffffffffffffffffffffffffffff1663150b7a026124276118e1565b8786866040518563ffffffff1660e01b815260040161244994939291906141d6565b602060405180830381600087803b15801561246357600080fd5b505af192505050801561249457506040513d601f19601f820116820180604052508101906124919190614237565b60015b612517573d80600081146124c4576040519150601f19603f3d011682016040523d82523d6000602084013e6124c9565b606091505b5060008151141561250f576040517f08c379a0000000000000000000000000000000000000000000000000000000008152600401612506906140a0565b60405180910390fd5b805181602001fd5b63150b7a0260e01b7bffffffffffffffffffffffffffffffffffffffffffffffffffffffff1916817bffffffffffffffffffffffffffffffffffffffffffffffffffffffff19161491505061256c565b600190505b949350505050565b600080600090507a184f03e93ff9f4daa797ed6e38ed64bf6a1f01000000000000000083106125d2577a184f03e93ff9f4daa797ed6e38ed64bf6a1f01000000000000000083816125c8576125c76140c0565b5b0492506040810190505b6d04ee2d6d415b85acef8100000000831061260f576d04ee2d6d415b85acef81000000008381612605576126046140c0565b5b0492506020810190505b662386f26fc10000831061263e57662386f26fc100008381612634576126336140c0565b5b0492506010810190505b6305f5e1008310612667576305f5e100838161265d5761265c6140c0565b5b0492506008810190505b612710831061268c576127108381612682576126816140c0565b5b0492506004810190505b606483106126af57606483816126a5576126a46140c0565b5b0492506002810190505b600a83106126be576001810190505b80915050919050565b50505050565b6008805490506009600083815260200190815260200160002081905550600881908060018154018082558091505060019003906000526020600020016000909190919091505550565b6000600161272384611014565b61272d9190614264565b9050600060076000848152602001908152602001600020549050818114612812576000600660008673ffffffffffffffffffffffffffffffffffffffff1673ffffffffffffffffffffffffffffffffffffffff168152602001908152602001600020600084815260200190815260200160002054905080600660008773ffffffffffffffffffffffffffffffffffffffff1673ffffffffffffffffffffffffffffffffffffffff168152602001908152602001600020600084815260200190815260200160002081905550816007600083815260200190815260200160002081905550505b6007600084815260200190815260200160002060009055600660008573ffffffffffffffffffffffffffffffffffffffff1673ffffffffffffffffffffffffffffffffffffffff16815260200190815260200160002060008381526020019081526020016000206000905550505050565b600060016008805490506128979190614264565b90506000600960008481526020019081526020016000205490506000600883815481106128c7576128c6613632565b5b9060005260206000200154905080600883815481106128e9576128e8613632565b5b90600052602060002001819055508160096000838152602001908152602001600020819055506009600085815260200190815260200160002060009055600880548061293857612937614298565b5b6001900381819060005260206000200160009055905550505050565b600061295f83611014565b905081600660008573ffffffffffffffffffffffffffffffffffffffff1673ffffffffffffffffffffffffffffffffffffffff168152602001908152602001600020600083815260200190815260200160002081905550806007600084815260200190815260200160002081905550505050565b600073ffffffffffffffffffffffffffffffffffffffff168273ffffffffffffffffffffffffffffffffffffffff161415612a43576040517f08c379a0000000000000000000000000000000000000000000000000000000008152600401612a3a90614313565b60405180910390fd5b612a4c81612099565b15612a8c576040517f08c379a0000000000000000000000000000000000000000000000000000000008152600401612a839061437f565b60405180910390fd5b612a9a60008383600161221c565b612aa381612099565b15612ae3576040517f08c379a0000000000000000000000000000000000000000000000000000000008152600401612ada9061437f565b60405180910390fd5b6001600360008473ffffffffffffffffffffffffffffffffffffffff1673ffffffffffffffffffffffffffffffffffffffff16815260200190815260200160002060008282540192505081905550816002600083815260200190815260200160002060006101000a81548173ffffffffffffffffffffffffffffffffffffffff021916908373ffffffffffffffffffffffffffffffffffffffff160217905550808273ffffffffffffffffffffffffffffffffffffffff16600073ffffffffffffffffffffffffffffffffffffffff167fddf252ad1be2c89b69c2b068fc378daa952ba7f163c4a11628f55a4df523b3ef60405160405180910390a4612bed60008383600161237c565b5050565b6000808273ffffffffffffffffffffffffffffffffffffffff163b119050919050565b6000819050919050565b612c2781612c14565b82525050565b6000602082019050612c426000830184612c1e565b92915050565b6000604051905090565b600080fd5b600080fd5b60007fffffffff0000000000000000000000000000000000000000000000000000000082169050919050565b612c9181612c5c565b8114612c9c57600080fd5b50565b600081359050612cae81612c88565b92915050565b600060208284031215612cca57612cc9612c52565b5b6000612cd884828501612c9f565b91505092915050565b60008115159050919050565b612cf681612ce1565b82525050565b6000602082019050612d116000830184612ced565b92915050565b600081519050919050565b600082825260208201905092915050565b60005b83811015612d51578082015181840152602081019050612d36565b83811115612d60576000848401525b50505050565b6000601f19601f8301169050919050565b6000612d8282612d17565b612d8c8185612d22565b9350612d9c818560208601612d33565b612da581612d66565b840191505092915050565b60006020820190508181036000830152612dca8184612d77565b905092915050565b612ddb81612c14565b8114612de657600080fd5b50565b600081359050612df881612dd2565b92915050565b600060208284031215612e1457612e13612c52565b5b6000612e2284828501612de9565b91505092915050565b600073ffffffffffffffffffffffffffffffffffffffff82169050919050565b6000612e5682612e2b565b9050919050565b612e6681612e4b565b82525050565b6000602082019050612e816000830184612e5d565b92915050565b612e9081612e4b565b8114612e9b57600080fd5b50565b600081359050612ead81612e87565b92915050565b60008060408385031215612eca57612ec9612c52565b5b6000612ed885828601612e9e565b9250506020612ee985828601612de9565b9150509250929050565b600080600060608486031215612f0c57612f0b612c52565b5b6000612f1a86828701612e9e565b9350506020612f2b86828701612e9e565b9250506040612f3c86828701612de9565b9150509250925092565b600060208284031215612f5c57612f5b612c52565b5b6000612f6a84828501612e9e565b91505092915050565b600081519050919050565b600082825260208201905092915050565b6000819050602082019050919050565b612fa881612c14565b82525050565b6000612fba8383612f9f565b60208301905092915050565b6000602082019050919050565b6000612fde82612f73565b612fe88185612f7e565b9350612ff383612f8f565b8060005b8381101561302457815161300b8882612fae565b975061301683612fc6565b925050600181019050612ff7565b5085935050505092915050565b6000602082019050818103600083015261304b8184612fd3565b905092915050565b61305c81612ce1565b811461306757600080fd5b50565b60008135905061307981613053565b92915050565b6000806040838503121561309657613095612c52565b5b60006130a485828601612e9e565b92505060206130b58582860161306a565b9150509250929050565b600080fd5b600080fd5b7f4e487b7100000000000000000000000000000000000000000000000000000000600052604160045260246000fd5b61310182612d66565b810181811067ffffffffffffffff821117156131205761311f6130c9565b5b80604052505050565b6000613133612c48565b905061313f82826130f8565b919050565b600067ffffffffffffffff82111561315f5761315e6130c9565b5b61316882612d66565b9050602081019050919050565b82818337600083830152505050565b600061319761319284613144565b613129565b9050828152602081018484840111156131b3576131b26130c4565b5b6131be848285613175565b509392505050565b600082601f8301126131db576131da6130bf565b5b81356131eb848260208601613184565b91505092915050565b6000806000806080858703121561320e5761320d612c52565b5b600061321c87828801612e9e565b945050602061322d87828801612e9e565b935050604061323e87828801612de9565b925050606085013567ffffffffffffffff81111561325f5761325e612c57565b5b61326b878288016131c6565b91505092959194509250565b6000806040838503121561328e5761328d612c52565b5b600061329c85828601612e9e565b92505060206132ad85828601612e9e565b9150509250929050565b7f4e487b7100000000000000000000000000000000000000000000000000000000600052602260045260246000fd5b600060028204905060018216806132fe57607f821691505b60208210811415613312576133116132b7565b5b50919050565b7f4552433732313a20617070726f76616c20746f2063757272656e74206f776e6560008201527f7200000000000000000000000000000000000000000000000000000000000000602082015250565b6000613374602183612d22565b915061337f82613318565b604082019050919050565b600060208201905081810360008301526133a381613367565b9050919050565b7f4552433732313a20617070726f76652063616c6c6572206973206e6f7420746f60008201527f6b656e206f776e6572206f7220617070726f76656420666f7220616c6c000000602082015250565b6000613406603d83612d22565b9150613411826133aa565b604082019050919050565b60006020820190508181036000830152613435816133f9565b9050919050565b7f4552433732313a2063616c6c6572206973206e6f7420746f6b656e206f776e6560008201527f72206f7220617070726f76656400000000000000000000000000000000000000602082015250565b6000613498602d83612d22565b91506134a38261343c565b604082019050919050565b600060208201905081810360008301526134c78161348b565b9050919050565b7f455243373231456e756d657261626c653a206f776e657220696e646578206f7560008201527f74206f6620626f756e6473000000000000000000000000000000000000000000602082015250565b600061352a602b83612d22565b9150613535826134ce565b604082019050919050565b600060208201905081810360008301526135598161351d565b9050919050565b60008160601b9050919050565b600061357882613560565b9050919050565b600061358a8261356d565b9050919050565b6135a261359d82612e4b565b61357f565b82525050565b60006135b48284613591565b60148201915081905092915050565b600081905092915050565b50565b60006135de6000836135c3565b91506135e9826135ce565b600082019050919050565b60006135ff826135d1565b9150819050919050565b600060408201905061361e6000830185612c1e565b61362b6020830184612e5d565b9392505050565b7f4e487b7100000000000000000000000000000000000000000000000000000000600052603260045260246000fd5b7f4e487b7100000000000000000000000000000000000000000000000000000000600052601160045260246000fd5b600061369b82612c14565b91507fffffffffffffffffffffffffffffffffffffffffffffffffffffffffffffffff8214156136ce576136cd613661565b5b600182019050919050565b7f455243373231456e756d657261626c653a20676c6f62616c20696e646578206f60008201527f7574206f6620626f756e64730000000000000000000000000000000000000000602082015250565b6000613735602c83612d22565b9150613740826136d9565b604082019050919050565b6000602082019050818103600083015261376481613728565b9050919050565b7f4552433732313a20696e76616c696420746f6b656e2049440000000000000000600082015250565b60006137a1601883612d22565b91506137ac8261376b565b602082019050919050565b600060208201905081810360008301526137d081613794565b9050919050565b7f4552433732313a2061646472657373207a65726f206973206e6f74206120766160008201527f6c6964206f776e65720000000000000000000000000000000000000000000000602082015250565b6000613833602983612d22565b915061383e826137d7565b604082019050919050565b6000602082019050818103600083015261386281613826565b9050919050565b7f4d696e74696e67206e6f74206f70656e20796574000000000000000000000000600082015250565b600061389f601483612d22565b91506138aa82613869565b602082019050919050565b600060208201905081810360008301526138ce81613892565b9050919050565b7f4d696e74696e6720686173206265656e20706175736564000000000000000000600082015250565b600061390b601783612d22565b9150613916826138d5565b602082019050919050565b6000602082019050818103600083015261393a816138fe565b9050919050565b7f746869732061646472657373206973206e6f74206f6e2074686520616c6c6f7760008201527f206c697374000000000000000000000000000000000000000000000000000000602082015250565b600061399d602583612d22565b91506139a882613941565b604082019050919050565b600060208201905081810360008301526139cc81613990565b9050919050565b7f6d757374206d696e74206174206c656173742031204e46540000000000000000600082015250565b6000613a09601883612d22565b9150613a14826139d3565b602082019050919050565b60006020820190508181036000830152613a38816139fc565b9050919050565b6000613a4a82612c14565b9150613a5583612c14565b9250817fffffffffffffffffffffffffffffffffffffffffffffffffffffffffffffffff0483118215151615613a8e57613a8d613661565b5b828202905092915050565b7f696e737566666963656e74207061796d656e7400000000000000000000000000600082015250565b6000613acf601383612d22565b9150613ada82613a99565b602082019050919050565b60006020820190508181036000830152613afe81613ac2565b9050919050565b7f43616e6e6f74206d696e74206d6f7265207468616e2035204e46547300000000600082015250565b6000613b3b601c83612d22565b9150613b4682613b05565b602082019050919050565b60006020820190508181036000830152613b6a81613b2e565b9050919050565b6000613b7c82612c14565b9150613b8783612c14565b9250827fffffffffffffffffffffffffffffffffffffffffffffffffffffffffffffffff03821115613bbc57613bbb613661565b5b828201905092915050565b7f6578636565646564206d617820737570706c7900000000000000000000000000600082015250565b6000613bfd601383612d22565b9150613c0882613bc7565b602082019050919050565b60006020820190508181036000830152613c2c81613bf0565b9050919050565b7f746f6b656e20646f6573206e6f74206578697374000000000000000000000000600082015250565b6000613c69601483612d22565b9150613c7482613c33565b602082019050919050565b60006020820190508181036000830152613c9881613c5c565b9050919050565b600081905092915050565b60008190508160005260206000209050919050565b60008154613ccc816132e6565b613cd68186613c9f565b94506001821660008114613cf15760018114613d0257613d35565b60ff19831686528186019350613d35565b613d0b85613caa565b60005b83811015613d2d57815481890152600182019150602081019050613d0e565b838801955050505b50505092915050565b6000613d4982612d17565b613d538185613c9f565b9350613d63818560208601612d33565b80840191505092915050565b6000613d7b8286613cbf565b9150613d878285613d3e565b9150613d938284613cbf565b9150819050949350505050565b7f4f776e61626c653a206e6577206f776e657220697320746865207a65726f206160008201527f6464726573730000000000000000000000000000000000000000000000000000602082015250565b6000613dfc602683612d22565b9150613e0782613da0565b604082019050919050565b60006020820190508181036000830152613e2b81613def565b9050919050565b7f4f776e61626c653a2063616c6c6572206973206e6f7420746865206f776e6572600082015250565b6000613e68602083612d22565b9150613e7382613e32565b602082019050919050565b60006020820190508181036000830152613e9781613e5b565b9050919050565b7f4552433732313a207472616e736665722066726f6d20696e636f72726563742060008201527f6f776e6572000000000000000000000000000000000000000000000000000000602082015250565b6000613efa602583612d22565b9150613f0582613e9e565b604082019050919050565b60006020820190508181036000830152613f2981613eed565b9050919050565b7f4552433732313a207472616e7366657220746f20746865207a65726f2061646460008201527f7265737300000000000000000000000000000000000000000000000000000000602082015250565b6000613f8c602483612d22565b9150613f9782613f30565b604082019050919050565b60006020820190508181036000830152613fbb81613f7f565b9050919050565b7f4552433732313a20617070726f766520746f2063616c6c657200000000000000600082015250565b6000613ff8601983612d22565b915061400382613fc2565b602082019050919050565b6000602082019050818103600083015261402781613feb565b9050919050565b7f4552433732313a207472616e7366657220746f206e6f6e20455243373231526560008201527f63656976657220696d706c656d656e7465720000000000000000000000000000602082015250565b600061408a603283612d22565b91506140958261402e565b604082019050919050565b600060208201905081810360008301526140b98161407d565b9050919050565b7f4e487b7100000000000000000000000000000000000000000000000000000000600052601260045260246000fd5b7f455243373231456e756d657261626c653a20636f6e736563757469766520747260008201527f616e7366657273206e6f7420737570706f727465640000000000000000000000602082015250565b600061414b603583612d22565b9150614156826140ef565b604082019050919050565b6000602082019050818103600083015261417a8161413e565b9050919050565b600081519050919050565b600082825260208201905092915050565b60006141a882614181565b6141b2818561418c565b93506141c2818560208601612d33565b6141cb81612d66565b840191505092915050565b60006080820190506141eb6000830187612e5d565b6141f86020830186612e5d565b6142056040830185612c1e565b8181036060830152614217818461419d565b905095945050505050565b60008151905061423181612c88565b92915050565b60006020828403121561424d5761424c612c52565b5b600061425b84828501614222565b91505092915050565b600061426f82612c14565b915061427a83612c14565b92508282101561428d5761428c613661565b5b828203905092915050565b7f4e487b7100000000000000000000000000000000000000000000000000000000600052603160045260246000fd5b7f4552433732313a206d696e7420746f20746865207a65726f2061646472657373600082015250565b60006142fd602083612d22565b9150614308826142c7565b602082019050919050565b6000602082019050818103600083015261432c816142f0565b9050919050565b7f4552433732313a20746f6b656e20616c7265616479206d696e74656400000000600082015250565b6000614369601c83612d22565b915061437482614333565b602082019050919050565b600060208201905081810360008301526143988161435c565b905091905056fea2646970667358221220b9881a7976d6f49dadcd88f0aa43b084ef78cbbd6869d6f3327911c83a06adc964736f6c63430008090033",
  "linkReferences": {},
  "deployedLinkReferences": {}
}