{
  "_format": "hh-sol-artifact-1",
  "contractName": "NFT",
  "sourceName": "contracts/NFT.sol",
  "abi": [
    {
      "inputs": [
        {
          "internalType": "string",
          "name": "_name",
          "type": "string"
        },
        {
          "internalType": "string",
          "name": "_symbol",
          "type": "string"
        },
        {
          "internalType": "uint256",
          "name": "_cost",
          "type": "uint256"
        },
        {
          "internalType": "uint256",
          "name": "_maxSupply",
          "type": "uint256"
        },
        {
          "internalType": "uint256",
          "name": "_maxMint",
          "type": "uint256"
        },
        {
          "internalType": "uint256",
          "name": "_allowMintingOn",
          "type": "uint256"
        },
        {
          "internalType": "string",
          "name": "_baseURI",
          "type": "string"
        },
        {
          "internalType": "address",
          "name": "_royaltyReceiver",
          "type": "address"
        },
        {
          "internalType": "uint256",
          "name": "_royaltyRate",
          "type": "uint256"
        }
      ],
      "stateMutability": "nonpayable",
      "type": "constructor"
    },
    {
      "anonymous": false,
      "inputs": [
        {
          "indexed": true,
          "internalType": "address",
          "name": "owner",
          "type": "address"
        },
        {
          "indexed": true,
          "internalType": "address",
          "name": "approved",
          "type": "address"
        },
        {
          "indexed": true,
          "internalType": "uint256",
          "name": "tokenId",
          "type": "uint256"
        }
      ],
      "name": "Approval",
      "type": "event"
    },
    {
      "anonymous": false,
      "inputs": [
        {
          "indexed": true,
          "internalType": "address",
          "name": "owner",
          "type": "address"
        },
        {
          "indexed": true,
          "internalType": "address",
          "name": "operator",
          "type": "address"
        },
        {
          "indexed": false,
          "internalType": "bool",
          "name": "approved",
          "type": "bool"
        }
      ],
      "name": "ApprovalForAll",
      "type": "event"
    },
    {
      "anonymous": false,
      "inputs": [
        {
          "indexed": false,
          "internalType": "uint256",
          "name": "amount",
          "type": "uint256"
        },
        {
          "indexed": false,
          "internalType": "address",
          "name": "minter",
          "type": "address"
        }
      ],
      "name": "Mint",
      "type": "event"
    },
    {
      "anonymous": false,
      "inputs": [
        {
          "indexed": true,
          "internalType": "address",
          "name": "previousOwner",
          "type": "address"
        },
        {
          "indexed": true,
          "internalType": "address",
          "name": "newOwner",
          "type": "address"
        }
      ],
      "name": "OwnershipTransferred",
      "type": "event"
    },
    {
      "anonymous": false,
      "inputs": [
        {
          "indexed": true,
          "internalType": "address",
          "name": "from",
          "type": "address"
        },
        {
          "indexed": true,
          "internalType": "address",
          "name": "to",
          "type": "address"
        },
        {
          "indexed": true,
          "internalType": "uint256",
          "name": "tokenId",
          "type": "uint256"
        }
      ],
      "name": "Transfer",
      "type": "event"
    },
    {
      "anonymous": false,
      "inputs": [
        {
          "indexed": false,
          "internalType": "uint256",
          "name": "amount",
          "type": "uint256"
        },
        {
          "indexed": false,
          "internalType": "address",
          "name": "owner",
          "type": "address"
        }
      ],
      "name": "Withdraw",
      "type": "event"
    },
    {
      "inputs": [
        {
          "internalType": "address",
          "name": "_address",
          "type": "address"
        }
      ],
      "name": "addAddress",
      "outputs": [],
      "stateMutability": "nonpayable",
      "type": "function"
    },
    {
      "inputs": [],
      "name": "allowMintingOn",
      "outputs": [
        {
          "internalType": "uint256",
          "name": "",
          "type": "uint256"
        }
      ],
      "stateMutability": "view",
      "type": "function"
    },
    {
      "inputs": [
        {
          "internalType": "address",
          "name": "to",
          "type": "address"
        },
        {
          "internalType": "uint256",
          "name": "tokenId",
          "type": "uint256"
        }
      ],
      "name": "approve",
      "outputs": [],
      "stateMutability": "nonpayable",
      "type": "function"
    },
    {
      "inputs": [
        {
          "internalType": "address",
          "name": "owner",
          "type": "address"
        }
      ],
      "name": "balanceOf",
      "outputs": [
        {
          "internalType": "uint256",
          "name": "",
          "type": "uint256"
        }
      ],
      "stateMutability": "view",
      "type": "function"
    },
    {
      "inputs": [],
      "name": "baseExtension",
      "outputs": [
        {
          "internalType": "string",
          "name": "",
          "type": "string"
        }
      ],
      "stateMutability": "view",
      "type": "function"
    },
    {
      "inputs": [],
      "name": "baseURI",
      "outputs": [
        {
          "internalType": "string",
          "name": "",
          "type": "string"
        }
      ],
      "stateMutability": "view",
      "type": "function"
    },
    {
      "inputs": [],
      "name": "cost",
      "outputs": [
        {
          "internalType": "uint256",
          "name": "",
          "type": "uint256"
        }
      ],
      "stateMutability": "view",
      "type": "function"
    },
    {
      "inputs": [
        {
          "internalType": "uint256",
          "name": "tokenId",
          "type": "uint256"
        }
      ],
      "name": "getApproved",
      "outputs": [
        {
          "internalType": "address",
          "name": "",
          "type": "address"
        }
      ],
      "stateMutability": "view",
      "type": "function"
    },
    {
      "inputs": [
        {
          "internalType": "address",
          "name": "owner",
          "type": "address"
        },
        {
          "internalType": "address",
          "name": "operator",
          "type": "address"
        }
      ],
      "name": "isApprovedForAll",
      "outputs": [
        {
          "internalType": "bool",
          "name": "",
          "type": "bool"
        }
      ],
      "stateMutability": "view",
      "type": "function"
    },
    {
      "inputs": [
        {
          "internalType": "address",
          "name": "_address",
          "type": "address"
        }
      ],
      "name": "isOnList",
      "outputs": [
        {
          "internalType": "bool",
          "name": "",
          "type": "bool"
        }
      ],
      "stateMutability": "view",
      "type": "function"
    },
    {
      "inputs": [],
      "name": "maxMint",
      "outputs": [
        {
          "internalType": "uint256",
          "name": "",
          "type": "uint256"
        }
      ],
      "stateMutability": "view",
      "type": "function"
    },
    {
      "inputs": [],
      "name": "maxSupply",
      "outputs": [
        {
          "internalType": "uint256",
          "name": "",
          "type": "uint256"
        }
      ],
      "stateMutability": "view",
      "type": "function"
    },
    {
      "inputs": [
        {
          "internalType": "uint256",
          "name": "_mintAmount",
          "type": "uint256"
        }
      ],
      "name": "mint",
      "outputs": [],
      "stateMutability": "payable",
      "type": "function"
    },
    {
      "inputs": [],
      "name": "name",
      "outputs": [
        {
          "internalType": "string",
          "name": "",
          "type": "string"
        }
      ],
      "stateMutability": "view",
      "type": "function"
    },
    {
      "inputs": [],
      "name": "owner",
      "outputs": [
        {
          "internalType": "address",
          "name": "",
          "type": "address"
        }
      ],
      "stateMutability": "view",
      "type": "function"
    },
    {
      "inputs": [
        {
          "internalType": "uint256",
          "name": "tokenId",
          "type": "uint256"
        }
      ],
      "name": "ownerOf",
      "outputs": [
        {
          "internalType": "address",
          "name": "",
          "type": "address"
        }
      ],
      "stateMutability": "view",
      "type": "function"
    },
    {
      "inputs": [],
      "name": "pauseMint",
      "outputs": [],
      "stateMutability": "nonpayable",
      "type": "function"
    },
    {
      "inputs": [],
      "name": "pauseMinting",
      "outputs": [
        {
          "internalType": "bool",
          "name": "",
          "type": "bool"
        }
      ],
      "stateMutability": "view",
      "type": "function"
    },
    {
      "inputs": [],
      "name": "renounceOwnership",
      "outputs": [],
      "stateMutability": "nonpayable",
      "type": "function"
    },
    {
      "inputs": [],
      "name": "royaltyRate",
      "outputs": [
        {
          "internalType": "uint256",
          "name": "",
          "type": "uint256"
        }
      ],
      "stateMutability": "view",
      "type": "function"
    },
    {
      "inputs": [],
      "name": "royaltyReceiver",
      "outputs": [
        {
          "internalType": "address",
          "name": "",
          "type": "address"
        }
      ],
      "stateMutability": "view",
      "type": "function"
    },
    {
      "inputs": [
        {
          "internalType": "address",
          "name": "from",
          "type": "address"
        },
        {
          "internalType": "address",
          "name": "to",
          "type": "address"
        },
        {
          "internalType": "uint256",
          "name": "tokenId",
          "type": "uint256"
        }
      ],
      "name": "safeTransferFrom",
      "outputs": [],
      "stateMutability": "nonpayable",
      "type": "function"
    },
    {
      "inputs": [
        {
          "internalType": "address",
          "name": "from",
          "type": "address"
        },
        {
          "internalType": "address",
          "name": "to",
          "type": "address"
        },
        {
          "internalType": "uint256",
          "name": "tokenId",
          "type": "uint256"
        },
        {
          "internalType": "bytes",
          "name": "data",
          "type": "bytes"
        }
      ],
      "name": "safeTransferFrom",
      "outputs": [],
      "stateMutability": "nonpayable",
      "type": "function"
    },
    {
      "inputs": [
        {
          "internalType": "address",
          "name": "operator",
          "type": "address"
        },
        {
          "internalType": "bool",
          "name": "approved",
          "type": "bool"
        }
      ],
      "name": "setApprovalForAll",
      "outputs": [],
      "stateMutability": "nonpayable",
      "type": "function"
    },
    {
      "inputs": [
        {
          "internalType": "uint256",
          "name": "_newCost",
          "type": "uint256"
        }
      ],
      "name": "setCost",
      "outputs": [],
      "stateMutability": "nonpayable",
      "type": "function"
    },
    {
      "inputs": [
        {
          "internalType": "uint256",
          "name": "_royaltyRate",
          "type": "uint256"
        }
      ],
      "name": "setRoyaltyRate",
      "outputs": [],
      "stateMutability": "nonpayable",
      "type": "function"
    },
    {
      "inputs": [
        {
          "internalType": "address",
          "name": "_royaltyReceiver",
          "type": "address"
        }
      ],
      "name": "setRoyaltyReceiver",
      "outputs": [],
      "stateMutability": "nonpayable",
      "type": "function"
    },
    {
      "inputs": [
        {
          "internalType": "bytes4",
          "name": "interfaceId",
          "type": "bytes4"
        }
      ],
      "name": "supportsInterface",
      "outputs": [
        {
          "internalType": "bool",
          "name": "",
          "type": "bool"
        }
      ],
      "stateMutability": "view",
      "type": "function"
    },
    {
      "inputs": [],
      "name": "symbol",
      "outputs": [
        {
          "internalType": "string",
          "name": "",
          "type": "string"
        }
      ],
      "stateMutability": "view",
      "type": "function"
    },
    {
      "inputs": [
        {
          "internalType": "uint256",
          "name": "index",
          "type": "uint256"
        }
      ],
      "name": "tokenByIndex",
      "outputs": [
        {
          "internalType": "uint256",
          "name": "",
          "type": "uint256"
        }
      ],
      "stateMutability": "view",
      "type": "function"
    },
    {
      "inputs": [
        {
          "internalType": "address",
          "name": "owner",
          "type": "address"
        },
        {
          "internalType": "uint256",
          "name": "index",
          "type": "uint256"
        }
      ],
      "name": "tokenOfOwnerByIndex",
      "outputs": [
        {
          "internalType": "uint256",
          "name": "",
          "type": "uint256"
        }
      ],
      "stateMutability": "view",
      "type": "function"
    },
    {
      "inputs": [
        {
          "internalType": "uint256",
          "name": "_tokenId",
          "type": "uint256"
        }
      ],
      "name": "tokenURI",
      "outputs": [
        {
          "internalType": "string",
          "name": "",
          "type": "string"
        }
      ],
      "stateMutability": "view",
      "type": "function"
    },
    {
      "inputs": [],
      "name": "totalSupply",
      "outputs": [
        {
          "internalType": "uint256",
          "name": "",
          "type": "uint256"
        }
      ],
      "stateMutability": "view",
      "type": "function"
    },
    {
      "inputs": [
        {
          "internalType": "address",
          "name": "from",
          "type": "address"
        },
        {
          "internalType": "address",
          "name": "to",
          "type": "address"
        },
        {
          "internalType": "uint256",
          "name": "tokenId",
          "type": "uint256"
        }
      ],
      "name": "transferFrom",
      "outputs": [],
      "stateMutability": "nonpayable",
      "type": "function"
    },
    {
      "inputs": [
        {
          "internalType": "address",
          "name": "newOwner",
          "type": "address"
        }
      ],
      "name": "transferOwnership",
      "outputs": [],
      "stateMutability": "nonpayable",
      "type": "function"
    },
    {
      "inputs": [],
      "name": "unPauseMint",
      "outputs": [],
      "stateMutability": "nonpayable",
      "type": "function"
    },
    {
      "inputs": [
        {
          "internalType": "address",
          "name": "_owner",
          "type": "address"
        }
      ],
      "name": "walletOfOwner",
      "outputs": [
        {
          "internalType": "uint256[]",
          "name": "",
          "type": "uint256[]"
        }
      ],
      "stateMutability": "view",
      "type": "function"
    },
    {
      "inputs": [],
      "name": "withdraw",
      "outputs": [],
      "stateMutability": "nonpayable",
      "type": "function"
    }
  ],
  "bytecode": "0x60806040526040518060400160405280600581526020017f2e6a736f6e000000000000000000000000000000000000000000000000000000815250601090805190602001906200005192919062000298565b506000601160006101000a81548160ff0219169083151502179055503480156200007a57600080fd5b5060405162004c5b38038062004c5b8339818101604052810190620000a0919062000585565b88888160009080519060200190620000ba92919062000298565b508060019080519060200190620000d392919062000298565b505050620000f6620000ea620001ca60201b60201c565b620001d260201b60201c565b6127108111156200013e576040517f08c379a0000000000000000000000000000000000000000000000000000000008152600401620001359062000722565b60405180910390fd5b86600b8190555085600c8190555084600d8190555083600e8190555082600f90805190602001906200017292919062000298565b5081601160016101000a81548173ffffffffffffffffffffffffffffffffffffffff021916908373ffffffffffffffffffffffffffffffffffffffff16021790555080601281905550505050505050505050620007a9565b600033905090565b6000600a60009054906101000a900473ffffffffffffffffffffffffffffffffffffffff16905081600a60006101000a81548173ffffffffffffffffffffffffffffffffffffffff021916908373ffffffffffffffffffffffffffffffffffffffff1602179055508173ffffffffffffffffffffffffffffffffffffffff168173ffffffffffffffffffffffffffffffffffffffff167f8be0079c531659141344cd1fd0a4f28419497f9722a3daafe3b4186f6b6457e060405160405180910390a35050565b828054620002a69062000773565b90600052602060002090601f016020900481019282620002ca576000855562000316565b82601f10620002e557805160ff191683800117855562000316565b8280016001018555821562000316579182015b8281111562000315578251825591602001919060010190620002f8565b5b50905062000325919062000329565b5090565b5b80821115620003445760008160009055506001016200032a565b5090565b6000604051905090565b600080fd5b600080fd5b600080fd5b600080fd5b6000601f19601f8301169050919050565b7f4e487b7100000000000000000000000000000000000000000000000000000000600052604160045260246000fd5b620003b18262000366565b810181811067ffffffffffffffff82111715620003d357620003d262000377565b5b80604052505050565b6000620003e862000348565b9050620003f68282620003a6565b919050565b600067ffffffffffffffff82111562000419576200041862000377565b5b620004248262000366565b9050602081019050919050565b60005b838110156200045157808201518184015260208101905062000434565b8381111562000461576000848401525b50505050565b60006200047e6200047884620003fb565b620003dc565b9050828152602081018484840111156200049d576200049c62000361565b5b620004aa84828562000431565b509392505050565b600082601f830112620004ca57620004c96200035c565b5b8151620004dc84826020860162000467565b91505092915050565b6000819050919050565b620004fa81620004e5565b81146200050657600080fd5b50565b6000815190506200051a81620004ef565b92915050565b600073ffffffffffffffffffffffffffffffffffffffff82169050919050565b60006200054d8262000520565b9050919050565b6200055f8162000540565b81146200056b57600080fd5b50565b6000815190506200057f8162000554565b92915050565b60008060008060008060008060006101208a8c031215620005ab57620005aa62000352565b5b60008a015167ffffffffffffffff811115620005cc57620005cb62000357565b5b620005da8c828d01620004b2565b99505060208a015167ffffffffffffffff811115620005fe57620005fd62000357565b5b6200060c8c828d01620004b2565b98505060406200061f8c828d0162000509565b9750506060620006328c828d0162000509565b9650506080620006458c828d0162000509565b95505060a0620006588c828d0162000509565b94505060c08a015167ffffffffffffffff8111156200067c576200067b62000357565b5b6200068a8c828d01620004b2565b93505060e06200069d8c828d016200056e565b925050610100620006b18c828d0162000509565b9150509295985092959850929598565b600082825260208201905092915050565b7f526f79616c74792063616e6e6f74206578636565642031303025000000000000600082015250565b60006200070a601a83620006c1565b91506200071782620006d2565b602082019050919050565b600060208201905081810360008301526200073d81620006fb565b9050919050565b7f4e487b7100000000000000000000000000000000000000000000000000000000600052602260045260246000fd5b600060028204905060018216806200078c57607f821691505b60208210811415620007a357620007a262000744565b5b50919050565b6144a280620007b96000396000f3fe6080604052600436106102255760003560e01c806370a0823111610123578063a22cb465116100ab578063cd85cdb51161006f578063cd85cdb5146107fa578063d5abeb0114610811578063da8fbf2a1461083c578063e985e9c514610867578063f2fde38b146108a457610225565b8063a22cb46514610715578063b88d4fde1461073e578063c4d1510d14610767578063c668286214610792578063c87b56dd146107bd57610225565b80638da5cb5b116100f25780638da5cb5b1461064f5780638dc251e31461067a57806395d89b41146106a35780639fbc8713146106ce578063a0712d68146106f957610225565b806370a0823114610593578063715018a6146105d05780637330daac146105e75780637501f7411461062457610225565b80632f745c59116101b157806344a0d68a1161017557806344a0d68a1461049c5780634f6ccce7146104c5578063537782a2146105025780636352211e1461052b5780636c0360eb1461056857610225565b80632f745c59146103b957806338eada1c146103f65780633ccfd60b1461041f57806342842e0e14610436578063438b63001461045f57610225565b8063095ea7b3116101f8578063095ea7b3146102fa5780630be218d61461032357806313faede61461033a57806318160ddd1461036557806323b872dd1461039057610225565b8063014679961461022a57806301ffc9a71461025557806306fdde0314610292578063081812fc146102bd575b600080fd5b34801561023657600080fd5b5061023f6108cd565b60405161024c9190612c8e565b60405180910390f35b34801561026157600080fd5b5061027c60048036038101906102779190612d15565b6108d3565b6040516102899190612d5d565b60405180910390f35b34801561029e57600080fd5b506102a761094d565b6040516102b49190612e11565b60405180910390f35b3480156102c957600080fd5b506102e460048036038101906102df9190612e5f565b6109df565b6040516102f19190612ecd565b60405180910390f35b34801561030657600080fd5b50610321600480360381019061031c9190612f14565b610a25565b005b34801561032f57600080fd5b50610338610b3d565b005b34801561034657600080fd5b5061034f610b62565b60405161035c9190612c8e565b60405180910390f35b34801561037157600080fd5b5061037a610b68565b6040516103879190612c8e565b60405180910390f35b34801561039c57600080fd5b506103b760048036038101906103b29190612f54565b610b75565b005b3480156103c557600080fd5b506103e060048036038101906103db9190612f14565b610bd5565b6040516103ed9190612c8e565b60405180910390f35b34801561040257600080fd5b5061041d60048036038101906104189190612fa7565b610c7a565b005b34801561042b57600080fd5b50610434610cdd565b005b34801561044257600080fd5b5061045d60048036038101906104589190612f54565b610d9d565b005b34801561046b57600080fd5b5061048660048036038101906104819190612fa7565b610dbd565b6040516104939190613092565b60405180910390f35b3480156104a857600080fd5b506104c360048036038101906104be9190612e5f565b610e6b565b005b3480156104d157600080fd5b506104ec60048036038101906104e79190612e5f565b610e7d565b6040516104f99190612c8e565b60405180910390f35b34801561050e57600080fd5b5061052960048036038101906105249190612e5f565b610eee565b005b34801561053757600080fd5b50610552600480360381019061054d9190612e5f565b610f45565b60405161055f9190612ecd565b60405180910390f35b34801561057457600080fd5b5061057d610fcc565b60405161058a9190612e11565b60405180910390f35b34801561059f57600080fd5b506105ba60048036038101906105b59190612fa7565b61105a565b6040516105c79190612c8e565b60405180910390f35b3480156105dc57600080fd5b506105e5611112565b005b3480156105f357600080fd5b5061060e60048036038101906106099190612fa7565b611126565b60405161061b9190612d5d565b60405180910390f35b34801561063057600080fd5b5061063961117b565b6040516106469190612c8e565b60405180910390f35b34801561065b57600080fd5b50610664611181565b6040516106719190612ecd565b60405180910390f35b34801561068657600080fd5b506106a1600480360381019061069c9190612fa7565b6111ab565b005b3480156106af57600080fd5b506106b86111f7565b6040516106c59190612e11565b60405180910390f35b3480156106da57600080fd5b506106e3611289565b6040516106f09190612ecd565b60405180910390f35b610713600480360381019061070e9190612e5f565b6112af565b005b34801561072157600080fd5b5061073c600480360381019061073791906130e0565b611534565b005b34801561074a57600080fd5b5061076560048036038101906107609190613255565b61154a565b005b34801561077357600080fd5b5061077c6115ac565b6040516107899190612c8e565b60405180910390f35b34801561079e57600080fd5b506107a76115b2565b6040516107b49190612e11565b60405180910390f35b3480156107c957600080fd5b506107e460048036038101906107df9190612e5f565b611640565b6040516107f19190612e11565b60405180910390f35b34801561080657600080fd5b5061080f6116bf565b005b34801561081d57600080fd5b506108266116e4565b6040516108339190612c8e565b60405180910390f35b34801561084857600080fd5b506108516116ea565b60405161085e9190612d5d565b60405180910390f35b34801561087357600080fd5b5061088e600480360381019061088991906132d8565b6116fd565b60405161089b9190612d5d565b60405180910390f35b3480156108b057600080fd5b506108cb60048036038101906108c69190612fa7565b611791565b005b600e5481565b60007f780e9d63000000000000000000000000000000000000000000000000000000007bffffffffffffffffffffffffffffffffffffffffffffffffffffffff1916827bffffffffffffffffffffffffffffffffffffffffffffffffffffffff19161480610946575061094582611815565b5b9050919050565b60606000805461095c90613347565b80601f016020809104026020016040519081016040528092919081815260200182805461098890613347565b80156109d55780601f106109aa576101008083540402835291602001916109d5565b820191906000526020600020905b8154815290600101906020018083116109b857829003601f168201915b5050505050905090565b60006109ea826118f7565b6004600083815260200190815260200160002060009054906101000a900473ffffffffffffffffffffffffffffffffffffffff169050919050565b6000610a3082610f45565b90508073ffffffffffffffffffffffffffffffffffffffff168373ffffffffffffffffffffffffffffffffffffffff161415610aa1576040517f08c379a0000000000000000000000000000000000000000000000000000000008152600401610a98906133eb565b60405180910390fd5b8073ffffffffffffffffffffffffffffffffffffffff16610ac0611942565b73ffffffffffffffffffffffffffffffffffffffff161480610aef5750610aee81610ae9611942565b6116fd565b5b610b2e576040517f08c379a0000000000000000000000000000000000000000000000000000000008152600401610b259061347d565b60405180910390fd5b610b38838361194a565b505050565b610b45611a03565b6000601160006101000a81548160ff021916908315150217905550565b600b5481565b6000600880549050905090565b610b86610b80611942565b82611a81565b610bc5576040517f08c379a0000000000000000000000000000000000000000000000000000000008152600401610bbc9061350f565b60405180910390fd5b610bd0838383611b16565b505050565b6000610be08361105a565b8210610c21576040517f08c379a0000000000000000000000000000000000000000000000000000000008152600401610c18906135a1565b60405180910390fd5b600660008473ffffffffffffffffffffffffffffffffffffffff1673ffffffffffffffffffffffffffffffffffffffff168152602001908152602001600020600083815260200190815260200160002054905092915050565b610c82611a03565b600081604051602001610c959190613609565b60405160208183030381529060405280519060200120905060016013600083815260200190815260200160002060006101000a81548160ff0219169083151502179055505050565b610ce5611a03565b600047905060003373ffffffffffffffffffffffffffffffffffffffff1682604051610d1090613655565b60006040518083038185875af1925050503d8060008114610d4d576040519150601f19603f3d011682016040523d82523d6000602084013e610d52565b606091505b5050905080610d6057600080fd5b7f8353ffcac0876ad14e226d9783c04540bfebf13871e868157d2a391cad98e9188233604051610d9192919061366a565b60405180910390a15050565b610db88383836040518060200160405280600081525061154a565b505050565b60606000610dca8361105a565b905060008167ffffffffffffffff811115610de857610de761312a565b5b604051908082528060200260200182016040528015610e165781602001602082028036833780820191505090505b50905060005b82811015610e6057610e2e8582610bd5565b828281518110610e4157610e40613693565b5b6020026020010181815250508080610e58906136f1565b915050610e1c565b508092505050919050565b610e73611a03565b80600b8190555050565b6000610e87610b68565b8210610ec8576040517f08c379a0000000000000000000000000000000000000000000000000000000008152600401610ebf906137ac565b60405180910390fd5b60088281548110610edc57610edb613693565b5b90600052602060002001549050919050565b610ef6611a03565b612710811115610f3b576040517f08c379a0000000000000000000000000000000000000000000000000000000008152600401610f3290613818565b60405180910390fd5b8060128190555050565b600080610f5183611e10565b9050600073ffffffffffffffffffffffffffffffffffffffff168173ffffffffffffffffffffffffffffffffffffffff161415610fc3576040517f08c379a0000000000000000000000000000000000000000000000000000000008152600401610fba90613884565b60405180910390fd5b80915050919050565b600f8054610fd990613347565b80601f016020809104026020016040519081016040528092919081815260200182805461100590613347565b80156110525780601f1061102757610100808354040283529160200191611052565b820191906000526020600020905b81548152906001019060200180831161103557829003601f168201915b505050505081565b60008073ffffffffffffffffffffffffffffffffffffffff168273ffffffffffffffffffffffffffffffffffffffff1614156110cb576040517f08c379a00000000000000000000000000000000000000000000000000000000081526004016110c290613916565b60405180910390fd5b600360008373ffffffffffffffffffffffffffffffffffffffff1673ffffffffffffffffffffffffffffffffffffffff168152602001908152602001600020549050919050565b61111a611a03565b6111246000611e4d565b565b6000808260405160200161113a9190613609565b6040516020818303038152906040528051906020012090506013600082815260200190815260200160002060009054906101000a900460ff16915050919050565b600d5481565b6000600a60009054906101000a900473ffffffffffffffffffffffffffffffffffffffff16905090565b6111b3611a03565b80601160016101000a81548173ffffffffffffffffffffffffffffffffffffffff021916908373ffffffffffffffffffffffffffffffffffffffff16021790555050565b60606001805461120690613347565b80601f016020809104026020016040519081016040528092919081815260200182805461123290613347565b801561127f5780601f106112545761010080835404028352916020019161127f565b820191906000526020600020905b81548152906001019060200180831161126257829003601f168201915b5050505050905090565b601160019054906101000a900473ffffffffffffffffffffffffffffffffffffffff1681565b600e544210156112f4576040517f08c379a00000000000000000000000000000000000000000000000000000000081526004016112eb90613982565b60405180910390fd5b601160009054906101000a900460ff1615611344576040517f08c379a000000000000000000000000000000000000000000000000000000000815260040161133b906139ee565b60405180910390fd5b61134d33611126565b61138c576040517f08c379a000000000000000000000000000000000000000000000000000000000815260040161138390613a80565b60405180910390fd5b600081116113cf576040517f08c379a00000000000000000000000000000000000000000000000000000000081526004016113c690613aec565b60405180910390fd5b80600b546113dd9190613b0c565b34101561141f576040517f08c379a000000000000000000000000000000000000000000000000000000000815260040161141690613bb2565b60405180910390fd5b600d54811115611464576040517f08c379a000000000000000000000000000000000000000000000000000000000815260040161145b90613c1e565b60405180910390fd5b600061146e610b68565b9050600c54828261147f9190613c3e565b11156114c0576040517f08c379a00000000000000000000000000000000000000000000000000000000081526004016114b790613ce0565b60405180910390fd5b6000600190505b8281116114f6576114e33382846114de9190613c3e565b611f13565b80806114ee906136f1565b9150506114c7565b507ff3cea5493d790af0133817606f7350a91d7f154ea52eaa79d179d4d231e50102823360405161152892919061366a565b60405180910390a15050565b61154661153f611942565b8383611f31565b5050565b61155b611555611942565b83611a81565b61159a576040517f08c379a00000000000000000000000000000000000000000000000000000000081526004016115919061350f565b60405180910390fd5b6115a68484848461209e565b50505050565b60125481565b601080546115bf90613347565b80601f01602080910402602001604051908101604052809291908181526020018280546115eb90613347565b80156116385780601f1061160d57610100808354040283529160200191611638565b820191906000526020600020905b81548152906001019060200180831161161b57829003601f168201915b505050505081565b606061164b826120fa565b61168a576040517f08c379a000000000000000000000000000000000000000000000000000000000815260040161168190613d4c565b60405180910390fd5b600f6116958361213b565b60106040516020016116a993929190613e3c565b6040516020818303038152906040529050919050565b6116c7611a03565b6001601160006101000a81548160ff021916908315150217905550565b600c5481565b601160009054906101000a900460ff1681565b6000600560008473ffffffffffffffffffffffffffffffffffffffff1673ffffffffffffffffffffffffffffffffffffffff16815260200190815260200160002060008373ffffffffffffffffffffffffffffffffffffffff1673ffffffffffffffffffffffffffffffffffffffff16815260200190815260200160002060009054906101000a900460ff16905092915050565b611799611a03565b600073ffffffffffffffffffffffffffffffffffffffff168173ffffffffffffffffffffffffffffffffffffffff161415611809576040517f08c379a000000000000000000000000000000000000000000000000000000000815260040161180090613edf565b60405180910390fd5b61181281611e4d565b50565b60007f80ac58cd000000000000000000000000000000000000000000000000000000007bffffffffffffffffffffffffffffffffffffffffffffffffffffffff1916827bffffffffffffffffffffffffffffffffffffffffffffffffffffffff191614806118e057507f5b5e139f000000000000000000000000000000000000000000000000000000007bffffffffffffffffffffffffffffffffffffffffffffffffffffffff1916827bffffffffffffffffffffffffffffffffffffffffffffffffffffffff1916145b806118f057506118ef82612213565b5b9050919050565b611900816120fa565b61193f576040517f08c379a000000000000000000000000000000000000000000000000000000000815260040161193690613884565b60405180910390fd5b50565b600033905090565b816004600083815260200190815260200160002060006101000a81548173ffffffffffffffffffffffffffffffffffffffff021916908373ffffffffffffffffffffffffffffffffffffffff160217905550808273ffffffffffffffffffffffffffffffffffffffff166119bd83610f45565b73ffffffffffffffffffffffffffffffffffffffff167f8c5be1e5ebec7d5bd14f71427d1e84f3dd0314c0f7b2291e5b200ac8c7c3b92560405160405180910390a45050565b611a0b611942565b73ffffffffffffffffffffffffffffffffffffffff16611a29611181565b73ffffffffffffffffffffffffffffffffffffffff1614611a7f576040517f08c379a0000000000000000000000000000000000000000000000000000000008152600401611a7690613f4b565b60405180910390fd5b565b600080611a8d83610f45565b90508073ffffffffffffffffffffffffffffffffffffffff168473ffffffffffffffffffffffffffffffffffffffff161480611acf5750611ace81856116fd565b5b80611b0d57508373ffffffffffffffffffffffffffffffffffffffff16611af5846109df565b73ffffffffffffffffffffffffffffffffffffffff16145b91505092915050565b8273ffffffffffffffffffffffffffffffffffffffff16611b3682610f45565b73ffffffffffffffffffffffffffffffffffffffff1614611b8c576040517f08c379a0000000000000000000000000000000000000000000000000000000008152600401611b8390613fdd565b60405180910390fd5b600073ffffffffffffffffffffffffffffffffffffffff168273ffffffffffffffffffffffffffffffffffffffff161415611bfc576040517f08c379a0000000000000000000000000000000000000000000000000000000008152600401611bf39061406f565b60405180910390fd5b611c09838383600161227d565b8273ffffffffffffffffffffffffffffffffffffffff16611c2982610f45565b73ffffffffffffffffffffffffffffffffffffffff1614611c7f576040517f08c379a0000000000000000000000000000000000000000000000000000000008152600401611c7690613fdd565b60405180910390fd5b6004600082815260200190815260200160002060006101000a81549073ffffffffffffffffffffffffffffffffffffffff02191690556001600360008573ffffffffffffffffffffffffffffffffffffffff1673ffffffffffffffffffffffffffffffffffffffff168152602001908152602001600020600082825403925050819055506001600360008473ffffffffffffffffffffffffffffffffffffffff1673ffffffffffffffffffffffffffffffffffffffff16815260200190815260200160002060008282540192505081905550816002600083815260200190815260200160002060006101000a81548173ffffffffffffffffffffffffffffffffffffffff021916908373ffffffffffffffffffffffffffffffffffffffff160217905550808273ffffffffffffffffffffffffffffffffffffffff168473ffffffffffffffffffffffffffffffffffffffff167fddf252ad1be2c89b69c2b068fc378daa952ba7f163c4a11628f55a4df523b3ef60405160405180910390a4611e0b83838360016123dd565b505050565b60006002600083815260200190815260200160002060009054906101000a900473ffffffffffffffffffffffffffffffffffffffff169050919050565b6000600a60009054906101000a900473ffffffffffffffffffffffffffffffffffffffff16905081600a60006101000a81548173ffffffffffffffffffffffffffffffffffffffff021916908373ffffffffffffffffffffffffffffffffffffffff1602179055508173ffffffffffffffffffffffffffffffffffffffff168173ffffffffffffffffffffffffffffffffffffffff167f8be0079c531659141344cd1fd0a4f28419497f9722a3daafe3b4186f6b6457e060405160405180910390a35050565b611f2d8282604051806020016040528060008152506123e3565b5050565b8173ffffffffffffffffffffffffffffffffffffffff168373ffffffffffffffffffffffffffffffffffffffff161415611fa0576040517f08c379a0000000000000000000000000000000000000000000000000000000008152600401611f97906140db565b60405180910390fd5b80600560008573ffffffffffffffffffffffffffffffffffffffff1673ffffffffffffffffffffffffffffffffffffffff16815260200190815260200160002060008473ffffffffffffffffffffffffffffffffffffffff1673ffffffffffffffffffffffffffffffffffffffff16815260200190815260200160002060006101000a81548160ff0219169083151502179055508173ffffffffffffffffffffffffffffffffffffffff168373ffffffffffffffffffffffffffffffffffffffff167f17307eab39ab6107e8899845ad3d59bd9653f200f220920489ca2b5937696c31836040516120919190612d5d565b60405180910390a3505050565b6120a9848484611b16565b6120b58484848461243e565b6120f4576040517f08c379a00000000000000000000000000000000000000000000000000000000081526004016120eb9061416d565b60405180910390fd5b50505050565b60008073ffffffffffffffffffffffffffffffffffffffff1661211c83611e10565b73ffffffffffffffffffffffffffffffffffffffff1614159050919050565b60606000600161214a846125d5565b01905060008167ffffffffffffffff8111156121695761216861312a565b5b6040519080825280601f01601f19166020018201604052801561219b5781602001600182028036833780820191505090505b509050600082602001820190505b600115612208578080600190039150507f3031323334353637383961626364656600000000000000000000000000000000600a86061a8153600a85816121f2576121f161418d565b5b049450600085141561220357612208565b6121a9565b819350505050919050565b60007f01ffc9a7000000000000000000000000000000000000000000000000000000007bffffffffffffffffffffffffffffffffffffffffffffffffffffffff1916827bffffffffffffffffffffffffffffffffffffffffffffffffffffffff1916149050919050565b61228984848484612728565b60018111156122cd576040517f08c379a00000000000000000000000000000000000000000000000000000000081526004016122c49061422e565b60405180910390fd5b6000829050600073ffffffffffffffffffffffffffffffffffffffff168573ffffffffffffffffffffffffffffffffffffffff161415612315576123108161272e565b612354565b8373ffffffffffffffffffffffffffffffffffffffff168573ffffffffffffffffffffffffffffffffffffffff1614612353576123528582612777565b5b5b600073ffffffffffffffffffffffffffffffffffffffff168473ffffffffffffffffffffffffffffffffffffffff16141561239757612392816128e4565b6123d6565b8473ffffffffffffffffffffffffffffffffffffffff168473ffffffffffffffffffffffffffffffffffffffff16146123d5576123d484826129b5565b5b5b5050505050565b50505050565b6123ed8383612a34565b6123fa600084848461243e565b612439576040517f08c379a00000000000000000000000000000000000000000000000000000000081526004016124309061416d565b60405180910390fd5b505050565b600061245f8473ffffffffffffffffffffffffffffffffffffffff16612c52565b156125c8578373ffffffffffffffffffffffffffffffffffffffff1663150b7a02612488611942565b8786866040518563ffffffff1660e01b81526004016124aa94939291906142a3565b602060405180830381600087803b1580156124c457600080fd5b505af19250505080156124f557506040513d601f19601f820116820180604052508101906124f29190614304565b60015b612578573d8060008114612525576040519150601f19603f3d011682016040523d82523d6000602084013e61252a565b606091505b50600081511415612570576040517f08c379a00000000000000000000000000000000000000000000000000000000081526004016125679061416d565b60405180910390fd5b805181602001fd5b63150b7a0260e01b7bffffffffffffffffffffffffffffffffffffffffffffffffffffffff1916817bffffffffffffffffffffffffffffffffffffffffffffffffffffffff1916149150506125cd565b600190505b949350505050565b600080600090507a184f03e93ff9f4daa797ed6e38ed64bf6a1f0100000000000000008310612633577a184f03e93ff9f4daa797ed6e38ed64bf6a1f01000000000000000083816126295761262861418d565b5b0492506040810190505b6d04ee2d6d415b85acef81000000008310612670576d04ee2d6d415b85acef810000000083816126665761266561418d565b5b0492506020810190505b662386f26fc10000831061269f57662386f26fc1000083816126955761269461418d565b5b0492506010810190505b6305f5e10083106126c8576305f5e10083816126be576126bd61418d565b5b0492506008810190505b61271083106126ed5761271083816126e3576126e261418d565b5b0492506004810190505b6064831061271057606483816127065761270561418d565b5b0492506002810190505b600a831061271f576001810190505b80915050919050565b50505050565b6008805490506009600083815260200190815260200160002081905550600881908060018154018082558091505060019003906000526020600020016000909190919091505550565b600060016127848461105a565b61278e9190614331565b9050600060076000848152602001908152602001600020549050818114612873576000600660008673ffffffffffffffffffffffffffffffffffffffff1673ffffffffffffffffffffffffffffffffffffffff168152602001908152602001600020600084815260200190815260200160002054905080600660008773ffffffffffffffffffffffffffffffffffffffff1673ffffffffffffffffffffffffffffffffffffffff168152602001908152602001600020600084815260200190815260200160002081905550816007600083815260200190815260200160002081905550505b6007600084815260200190815260200160002060009055600660008573ffffffffffffffffffffffffffffffffffffffff1673ffffffffffffffffffffffffffffffffffffffff16815260200190815260200160002060008381526020019081526020016000206000905550505050565b600060016008805490506128f89190614331565b905060006009600084815260200190815260200160002054905060006008838154811061292857612927613693565b5b90600052602060002001549050806008838154811061294a57612949613693565b5b90600052602060002001819055508160096000838152602001908152602001600020819055506009600085815260200190815260200160002060009055600880548061299957612998614365565b5b6001900381819060005260206000200160009055905550505050565b60006129c08361105a565b905081600660008573ffffffffffffffffffffffffffffffffffffffff1673ffffffffffffffffffffffffffffffffffffffff168152602001908152602001600020600083815260200190815260200160002081905550806007600084815260200190815260200160002081905550505050565b600073ffffffffffffffffffffffffffffffffffffffff168273ffffffffffffffffffffffffffffffffffffffff161415612aa4576040517f08c379a0000000000000000000000000000000000000000000000000000000008152600401612a9b906143e0565b60405180910390fd5b612aad816120fa565b15612aed576040517f08c379a0000000000000000000000000000000000000000000000000000000008152600401612ae49061444c565b60405180910390fd5b612afb60008383600161227d565b612b04816120fa565b15612b44576040517f08c379a0000000000000000000000000000000000000000000000000000000008152600401612b3b9061444c565b60405180910390fd5b6001600360008473ffffffffffffffffffffffffffffffffffffffff1673ffffffffffffffffffffffffffffffffffffffff16815260200190815260200160002060008282540192505081905550816002600083815260200190815260200160002060006101000a81548173ffffffffffffffffffffffffffffffffffffffff021916908373ffffffffffffffffffffffffffffffffffffffff160217905550808273ffffffffffffffffffffffffffffffffffffffff16600073ffffffffffffffffffffffffffffffffffffffff167fddf252ad1be2c89b69c2b068fc378daa952ba7f163c4a11628f55a4df523b3ef60405160405180910390a4612c4e6000838360016123dd565b5050565b6000808273ffffffffffffffffffffffffffffffffffffffff163b119050919050565b6000819050919050565b612c8881612c75565b82525050565b6000602082019050612ca36000830184612c7f565b92915050565b6000604051905090565b600080fd5b600080fd5b60007fffffffff0000000000000000000000000000000000000000000000000000000082169050919050565b612cf281612cbd565b8114612cfd57600080fd5b50565b600081359050612d0f81612ce9565b92915050565b600060208284031215612d2b57612d2a612cb3565b5b6000612d3984828501612d00565b91505092915050565b60008115159050919050565b612d5781612d42565b82525050565b6000602082019050612d726000830184612d4e565b92915050565b600081519050919050565b600082825260208201905092915050565b60005b83811015612db2578082015181840152602081019050612d97565b83811115612dc1576000848401525b50505050565b6000601f19601f8301169050919050565b6000612de382612d78565b612ded8185612d83565b9350612dfd818560208601612d94565b612e0681612dc7565b840191505092915050565b60006020820190508181036000830152612e2b8184612dd8565b905092915050565b612e3c81612c75565b8114612e4757600080fd5b50565b600081359050612e5981612e33565b92915050565b600060208284031215612e7557612e74612cb3565b5b6000612e8384828501612e4a565b91505092915050565b600073ffffffffffffffffffffffffffffffffffffffff82169050919050565b6000612eb782612e8c565b9050919050565b612ec781612eac565b82525050565b6000602082019050612ee26000830184612ebe565b92915050565b612ef181612eac565b8114612efc57600080fd5b50565b600081359050612f0e81612ee8565b92915050565b60008060408385031215612f2b57612f2a612cb3565b5b6000612f3985828601612eff565b9250506020612f4a85828601612e4a565b9150509250929050565b600080600060608486031215612f6d57612f6c612cb3565b5b6000612f7b86828701612eff565b9350506020612f8c86828701612eff565b9250506040612f9d86828701612e4a565b9150509250925092565b600060208284031215612fbd57612fbc612cb3565b5b6000612fcb84828501612eff565b91505092915050565b600081519050919050565b600082825260208201905092915050565b6000819050602082019050919050565b61300981612c75565b82525050565b600061301b8383613000565b60208301905092915050565b6000602082019050919050565b600061303f82612fd4565b6130498185612fdf565b935061305483612ff0565b8060005b8381101561308557815161306c888261300f565b975061307783613027565b925050600181019050613058565b5085935050505092915050565b600060208201905081810360008301526130ac8184613034565b905092915050565b6130bd81612d42565b81146130c857600080fd5b50565b6000813590506130da816130b4565b92915050565b600080604083850312156130f7576130f6612cb3565b5b600061310585828601612eff565b9250506020613116858286016130cb565b9150509250929050565b600080fd5b600080fd5b7f4e487b7100000000000000000000000000000000000000000000000000000000600052604160045260246000fd5b61316282612dc7565b810181811067ffffffffffffffff821117156131815761318061312a565b5b80604052505050565b6000613194612ca9565b90506131a08282613159565b919050565b600067ffffffffffffffff8211156131c0576131bf61312a565b5b6131c982612dc7565b9050602081019050919050565b82818337600083830152505050565b60006131f86131f3846131a5565b61318a565b90508281526020810184848401111561321457613213613125565b5b61321f8482856131d6565b509392505050565b600082601f83011261323c5761323b613120565b5b813561324c8482602086016131e5565b91505092915050565b6000806000806080858703121561326f5761326e612cb3565b5b600061327d87828801612eff565b945050602061328e87828801612eff565b935050604061329f87828801612e4a565b925050606085013567ffffffffffffffff8111156132c0576132bf612cb8565b5b6132cc87828801613227565b91505092959194509250565b600080604083850312156132ef576132ee612cb3565b5b60006132fd85828601612eff565b925050602061330e85828601612eff565b9150509250929050565b7f4e487b7100000000000000000000000000000000000000000000000000000000600052602260045260246000fd5b6000600282049050600182168061335f57607f821691505b6020821081141561337357613372613318565b5b50919050565b7f4552433732313a20617070726f76616c20746f2063757272656e74206f776e6560008201527f7200000000000000000000000000000000000000000000000000000000000000602082015250565b60006133d5602183612d83565b91506133e082613379565b604082019050919050565b60006020820190508181036000830152613404816133c8565b9050919050565b7f4552433732313a20617070726f76652063616c6c6572206973206e6f7420746f60008201527f6b656e206f776e6572206f7220617070726f76656420666f7220616c6c000000602082015250565b6000613467603d83612d83565b91506134728261340b565b604082019050919050565b600060208201905081810360008301526134968161345a565b9050919050565b7f4552433732313a2063616c6c6572206973206e6f7420746f6b656e206f776e6560008201527f72206f7220617070726f76656400000000000000000000000000000000000000602082015250565b60006134f9602d83612d83565b91506135048261349d565b604082019050919050565b60006020820190508181036000830152613528816134ec565b9050919050565b7f455243373231456e756d657261626c653a206f776e657220696e646578206f7560008201527f74206f6620626f756e6473000000000000000000000000000000000000000000602082015250565b600061358b602b83612d83565b91506135968261352f565b604082019050919050565b600060208201905081810360008301526135ba8161357e565b9050919050565b60008160601b9050919050565b60006135d9826135c1565b9050919050565b60006135eb826135ce565b9050919050565b6136036135fe82612eac565b6135e0565b82525050565b600061361582846135f2565b60148201915081905092915050565b600081905092915050565b50565b600061363f600083613624565b915061364a8261362f565b600082019050919050565b600061366082613632565b9150819050919050565b600060408201905061367f6000830185612c7f565b61368c6020830184612ebe565b9392505050565b7f4e487b7100000000000000000000000000000000000000000000000000000000600052603260045260246000fd5b7f4e487b7100000000000000000000000000000000000000000000000000000000600052601160045260246000fd5b60006136fc82612c75565b91507fffffffffffffffffffffffffffffffffffffffffffffffffffffffffffffffff82141561372f5761372e6136c2565b5b600182019050919050565b7f455243373231456e756d657261626c653a20676c6f62616c20696e646578206f60008201527f7574206f6620626f756e64730000000000000000000000000000000000000000602082015250565b6000613796602c83612d83565b91506137a18261373a565b604082019050919050565b600060208201905081810360008301526137c581613789565b9050919050565b7f526f79616c74792063616e6e6f742062652061626f7665203130302500000000600082015250565b6000613802601c83612d83565b915061380d826137cc565b602082019050919050565b60006020820190508181036000830152613831816137f5565b9050919050565b7f4552433732313a20696e76616c696420746f6b656e2049440000000000000000600082015250565b600061386e601883612d83565b915061387982613838565b602082019050919050565b6000602082019050818103600083015261389d81613861565b9050919050565b7f4552433732313a2061646472657373207a65726f206973206e6f74206120766160008201527f6c6964206f776e65720000000000000000000000000000000000000000000000602082015250565b6000613900602983612d83565b915061390b826138a4565b604082019050919050565b6000602082019050818103600083015261392f816138f3565b9050919050565b7f4d696e74696e67206e6f74206f70656e20796574000000000000000000000000600082015250565b600061396c601483612d83565b915061397782613936565b602082019050919050565b6000602082019050818103600083015261399b8161395f565b9050919050565b7f4d696e74696e6720686173206265656e20706175736564000000000000000000600082015250565b60006139d8601783612d83565b91506139e3826139a2565b602082019050919050565b60006020820190508181036000830152613a07816139cb565b9050919050565b7f746869732061646472657373206973206e6f74206f6e2074686520616c6c6f7760008201527f206c697374000000000000000000000000000000000000000000000000000000602082015250565b6000613a6a602583612d83565b9150613a7582613a0e565b604082019050919050565b60006020820190508181036000830152613a9981613a5d565b9050919050565b7f6d757374206d696e74206174206c656173742031204e46540000000000000000600082015250565b6000613ad6601883612d83565b9150613ae182613aa0565b602082019050919050565b60006020820190508181036000830152613b0581613ac9565b9050919050565b6000613b1782612c75565b9150613b2283612c75565b9250817fffffffffffffffffffffffffffffffffffffffffffffffffffffffffffffffff0483118215151615613b5b57613b5a6136c2565b5b828202905092915050565b7f696e737566666963656e74207061796d656e7400000000000000000000000000600082015250565b6000613b9c601383612d83565b9150613ba782613b66565b602082019050919050565b60006020820190508181036000830152613bcb81613b8f565b9050919050565b7f43616e6e6f74206d696e74206d6f7265207468616e2035204e46547300000000600082015250565b6000613c08601c83612d83565b9150613c1382613bd2565b602082019050919050565b60006020820190508181036000830152613c3781613bfb565b9050919050565b6000613c4982612c75565b9150613c5483612c75565b9250827fffffffffffffffffffffffffffffffffffffffffffffffffffffffffffffffff03821115613c8957613c886136c2565b5b828201905092915050565b7f6578636565646564206d617820737570706c7900000000000000000000000000600082015250565b6000613cca601383612d83565b9150613cd582613c94565b602082019050919050565b60006020820190508181036000830152613cf981613cbd565b9050919050565b7f746f6b656e20646f6573206e6f74206578697374000000000000000000000000600082015250565b6000613d36601483612d83565b9150613d4182613d00565b602082019050919050565b60006020820190508181036000830152613d6581613d29565b9050919050565b600081905092915050565b60008190508160005260206000209050919050565b60008154613d9981613347565b613da38186613d6c565b94506001821660008114613dbe5760018114613dcf57613e02565b60ff19831686528186019350613e02565b613dd885613d77565b60005b83811015613dfa57815481890152600182019150602081019050613ddb565b838801955050505b50505092915050565b6000613e1682612d78565b613e208185613d6c565b9350613e30818560208601612d94565b80840191505092915050565b6000613e488286613d8c565b9150613e548285613e0b565b9150613e608284613d8c565b9150819050949350505050565b7f4f776e61626c653a206e6577206f776e657220697320746865207a65726f206160008201527f6464726573730000000000000000000000000000000000000000000000000000602082015250565b6000613ec9602683612d83565b9150613ed482613e6d565b604082019050919050565b60006020820190508181036000830152613ef881613ebc565b9050919050565b7f4f776e61626c653a2063616c6c6572206973206e6f7420746865206f776e6572600082015250565b6000613f35602083612d83565b9150613f4082613eff565b602082019050919050565b60006020820190508181036000830152613f6481613f28565b9050919050565b7f4552433732313a207472616e736665722066726f6d20696e636f72726563742060008201527f6f776e6572000000000000000000000000000000000000000000000000000000602082015250565b6000613fc7602583612d83565b9150613fd282613f6b565b604082019050919050565b60006020820190508181036000830152613ff681613fba565b9050919050565b7f4552433732313a207472616e7366657220746f20746865207a65726f2061646460008201527f7265737300000000000000000000000000000000000000000000000000000000602082015250565b6000614059602483612d83565b915061406482613ffd565b604082019050919050565b600060208201905081810360008301526140888161404c565b9050919050565b7f4552433732313a20617070726f766520746f2063616c6c657200000000000000600082015250565b60006140c5601983612d83565b91506140d08261408f565b602082019050919050565b600060208201905081810360008301526140f4816140b8565b9050919050565b7f4552433732313a207472616e7366657220746f206e6f6e20455243373231526560008201527f63656976657220696d706c656d656e7465720000000000000000000000000000602082015250565b6000614157603283612d83565b9150614162826140fb565b604082019050919050565b600060208201905081810360008301526141868161414a565b9050919050565b7f4e487b7100000000000000000000000000000000000000000000000000000000600052601260045260246000fd5b7f455243373231456e756d657261626c653a20636f6e736563757469766520747260008201527f616e7366657273206e6f7420737570706f727465640000000000000000000000602082015250565b6000614218603583612d83565b9150614223826141bc565b604082019050919050565b600060208201905081810360008301526142478161420b565b9050919050565b600081519050919050565b600082825260208201905092915050565b60006142758261424e565b61427f8185614259565b935061428f818560208601612d94565b61429881612dc7565b840191505092915050565b60006080820190506142b86000830187612ebe565b6142c56020830186612ebe565b6142d26040830185612c7f565b81810360608301526142e4818461426a565b905095945050505050565b6000815190506142fe81612ce9565b92915050565b60006020828403121561431a57614319612cb3565b5b6000614328848285016142ef565b91505092915050565b600061433c82612c75565b915061434783612c75565b92508282101561435a576143596136c2565b5b828203905092915050565b7f4e487b7100000000000000000000000000000000000000000000000000000000600052603160045260246000fd5b7f4552433732313a206d696e7420746f20746865207a65726f2061646472657373600082015250565b60006143ca602083612d83565b91506143d582614394565b602082019050919050565b600060208201905081810360008301526143f9816143bd565b9050919050565b7f4552433732313a20746f6b656e20616c7265616479206d696e74656400000000600082015250565b6000614436601c83612d83565b915061444182614400565b602082019050919050565b6000602082019050818103600083015261446581614429565b905091905056fea2646970667358221220c11d0456cd8a3466c190cf45bc7c809ac257219ed5c2b524084f8c3adfefabe464736f6c63430008090033",
  "linkReferences": {},
  "deployedLinkReferences": {}
}