{
  "_format": "hh-sol-artifact-1",
  "contractName": "NFT",
  "sourceName": "contracts/NFT.sol",
  "abi": [
    {
      "inputs": [
        {
          "internalType": "string",
          "name": "_name",
          "type": "string"
        },
        {
          "internalType": "string",
          "name": "_symbol",
          "type": "string"
        },
        {
          "internalType": "uint256",
          "name": "_cost",
          "type": "uint256"
        },
        {
          "internalType": "uint256",
          "name": "_maxSupply",
          "type": "uint256"
        },
        {
          "internalType": "uint256",
          "name": "_maxMint",
          "type": "uint256"
        },
        {
          "internalType": "uint256",
          "name": "_allowMintingOn",
          "type": "uint256"
        },
        {
          "internalType": "string",
          "name": "_baseURI",
          "type": "string"
        }
      ],
      "stateMutability": "nonpayable",
      "type": "constructor"
    },
    {
      "anonymous": false,
      "inputs": [
        {
          "indexed": true,
          "internalType": "address",
          "name": "owner",
          "type": "address"
        },
        {
          "indexed": true,
          "internalType": "address",
          "name": "approved",
          "type": "address"
        },
        {
          "indexed": true,
          "internalType": "uint256",
          "name": "tokenId",
          "type": "uint256"
        }
      ],
      "name": "Approval",
      "type": "event"
    },
    {
      "anonymous": false,
      "inputs": [
        {
          "indexed": true,
          "internalType": "address",
          "name": "owner",
          "type": "address"
        },
        {
          "indexed": true,
          "internalType": "address",
          "name": "operator",
          "type": "address"
        },
        {
          "indexed": false,
          "internalType": "bool",
          "name": "approved",
          "type": "bool"
        }
      ],
      "name": "ApprovalForAll",
      "type": "event"
    },
    {
      "anonymous": false,
      "inputs": [
        {
          "indexed": false,
          "internalType": "uint256",
          "name": "amount",
          "type": "uint256"
        },
        {
          "indexed": false,
          "internalType": "address",
          "name": "minter",
          "type": "address"
        }
      ],
      "name": "Mint",
      "type": "event"
    },
    {
      "anonymous": false,
      "inputs": [
        {
          "indexed": true,
          "internalType": "address",
          "name": "previousOwner",
          "type": "address"
        },
        {
          "indexed": true,
          "internalType": "address",
          "name": "newOwner",
          "type": "address"
        }
      ],
      "name": "OwnershipTransferred",
      "type": "event"
    },
    {
      "anonymous": false,
      "inputs": [
        {
          "indexed": true,
          "internalType": "address",
          "name": "from",
          "type": "address"
        },
        {
          "indexed": true,
          "internalType": "address",
          "name": "to",
          "type": "address"
        },
        {
          "indexed": true,
          "internalType": "uint256",
          "name": "tokenId",
          "type": "uint256"
        }
      ],
      "name": "Transfer",
      "type": "event"
    },
    {
      "anonymous": false,
      "inputs": [
        {
          "indexed": false,
          "internalType": "uint256",
          "name": "amount",
          "type": "uint256"
        },
        {
          "indexed": false,
          "internalType": "address",
          "name": "owner",
          "type": "address"
        }
      ],
      "name": "Withdraw",
      "type": "event"
    },
    {
      "inputs": [
        {
          "internalType": "address",
          "name": "_address",
          "type": "address"
        }
      ],
      "name": "addAddress",
      "outputs": [],
      "stateMutability": "nonpayable",
      "type": "function"
    },
    {
      "inputs": [],
      "name": "allowMintingOn",
      "outputs": [
        {
          "internalType": "uint256",
          "name": "",
          "type": "uint256"
        }
      ],
      "stateMutability": "view",
      "type": "function"
    },
    {
      "inputs": [
        {
          "internalType": "address",
          "name": "to",
          "type": "address"
        },
        {
          "internalType": "uint256",
          "name": "tokenId",
          "type": "uint256"
        }
      ],
      "name": "approve",
      "outputs": [],
      "stateMutability": "nonpayable",
      "type": "function"
    },
    {
      "inputs": [
        {
          "internalType": "address",
          "name": "owner",
          "type": "address"
        }
      ],
      "name": "balanceOf",
      "outputs": [
        {
          "internalType": "uint256",
          "name": "",
          "type": "uint256"
        }
      ],
      "stateMutability": "view",
      "type": "function"
    },
    {
      "inputs": [],
      "name": "baseExtension",
      "outputs": [
        {
          "internalType": "string",
          "name": "",
          "type": "string"
        }
      ],
      "stateMutability": "view",
      "type": "function"
    },
    {
      "inputs": [],
      "name": "baseURI",
      "outputs": [
        {
          "internalType": "string",
          "name": "",
          "type": "string"
        }
      ],
      "stateMutability": "view",
      "type": "function"
    },
    {
      "inputs": [],
      "name": "cost",
      "outputs": [
        {
          "internalType": "uint256",
          "name": "",
          "type": "uint256"
        }
      ],
      "stateMutability": "view",
      "type": "function"
    },
    {
      "inputs": [
        {
          "internalType": "uint256",
          "name": "tokenId",
          "type": "uint256"
        }
      ],
      "name": "getApproved",
      "outputs": [
        {
          "internalType": "address",
          "name": "",
          "type": "address"
        }
      ],
      "stateMutability": "view",
      "type": "function"
    },
    {
      "inputs": [
        {
          "internalType": "address",
          "name": "owner",
          "type": "address"
        },
        {
          "internalType": "address",
          "name": "operator",
          "type": "address"
        }
      ],
      "name": "isApprovedForAll",
      "outputs": [
        {
          "internalType": "bool",
          "name": "",
          "type": "bool"
        }
      ],
      "stateMutability": "view",
      "type": "function"
    },
    {
      "inputs": [
        {
          "internalType": "address",
          "name": "_address",
          "type": "address"
        }
      ],
      "name": "isOnList",
      "outputs": [
        {
          "internalType": "bool",
          "name": "",
          "type": "bool"
        }
      ],
      "stateMutability": "view",
      "type": "function"
    },
    {
      "inputs": [],
      "name": "maxMint",
      "outputs": [
        {
          "internalType": "uint256",
          "name": "",
          "type": "uint256"
        }
      ],
      "stateMutability": "view",
      "type": "function"
    },
    {
      "inputs": [],
      "name": "maxSupply",
      "outputs": [
        {
          "internalType": "uint256",
          "name": "",
          "type": "uint256"
        }
      ],
      "stateMutability": "view",
      "type": "function"
    },
    {
      "inputs": [
        {
          "internalType": "uint256",
          "name": "_mintAmount",
          "type": "uint256"
        }
      ],
      "name": "mint",
      "outputs": [],
      "stateMutability": "payable",
      "type": "function"
    },
    {
      "inputs": [],
      "name": "name",
      "outputs": [
        {
          "internalType": "string",
          "name": "",
          "type": "string"
        }
      ],
      "stateMutability": "view",
      "type": "function"
    },
    {
      "inputs": [],
      "name": "owner",
      "outputs": [
        {
          "internalType": "address",
          "name": "",
          "type": "address"
        }
      ],
      "stateMutability": "view",
      "type": "function"
    },
    {
      "inputs": [
        {
          "internalType": "uint256",
          "name": "tokenId",
          "type": "uint256"
        }
      ],
      "name": "ownerOf",
      "outputs": [
        {
          "internalType": "address",
          "name": "",
          "type": "address"
        }
      ],
      "stateMutability": "view",
      "type": "function"
    },
    {
      "inputs": [],
      "name": "pauseMint",
      "outputs": [],
      "stateMutability": "nonpayable",
      "type": "function"
    },
    {
      "inputs": [],
      "name": "pauseMinting",
      "outputs": [
        {
          "internalType": "bool",
          "name": "",
          "type": "bool"
        }
      ],
      "stateMutability": "view",
      "type": "function"
    },
    {
      "inputs": [],
      "name": "renounceOwnership",
      "outputs": [],
      "stateMutability": "nonpayable",
      "type": "function"
    },
    {
      "inputs": [
        {
          "internalType": "address",
          "name": "from",
          "type": "address"
        },
        {
          "internalType": "address",
          "name": "to",
          "type": "address"
        },
        {
          "internalType": "uint256",
          "name": "tokenId",
          "type": "uint256"
        }
      ],
      "name": "safeTransferFrom",
      "outputs": [],
      "stateMutability": "nonpayable",
      "type": "function"
    },
    {
      "inputs": [
        {
          "internalType": "address",
          "name": "from",
          "type": "address"
        },
        {
          "internalType": "address",
          "name": "to",
          "type": "address"
        },
        {
          "internalType": "uint256",
          "name": "tokenId",
          "type": "uint256"
        },
        {
          "internalType": "bytes",
          "name": "data",
          "type": "bytes"
        }
      ],
      "name": "safeTransferFrom",
      "outputs": [],
      "stateMutability": "nonpayable",
      "type": "function"
    },
    {
      "inputs": [
        {
          "internalType": "address",
          "name": "operator",
          "type": "address"
        },
        {
          "internalType": "bool",
          "name": "approved",
          "type": "bool"
        }
      ],
      "name": "setApprovalForAll",
      "outputs": [],
      "stateMutability": "nonpayable",
      "type": "function"
    },
    {
      "inputs": [
        {
          "internalType": "uint256",
          "name": "_newCost",
          "type": "uint256"
        }
      ],
      "name": "setCost",
      "outputs": [],
      "stateMutability": "nonpayable",
      "type": "function"
    },
    {
      "inputs": [
        {
          "internalType": "uint256",
          "name": "",
          "type": "uint256"
        }
      ],
      "name": "stakedTimestamps",
      "outputs": [
        {
          "internalType": "uint256",
          "name": "",
          "type": "uint256"
        }
      ],
      "stateMutability": "view",
      "type": "function"
    },
    {
      "inputs": [
        {
          "internalType": "bytes4",
          "name": "interfaceId",
          "type": "bytes4"
        }
      ],
      "name": "supportsInterface",
      "outputs": [
        {
          "internalType": "bool",
          "name": "",
          "type": "bool"
        }
      ],
      "stateMutability": "view",
      "type": "function"
    },
    {
      "inputs": [],
      "name": "symbol",
      "outputs": [
        {
          "internalType": "string",
          "name": "",
          "type": "string"
        }
      ],
      "stateMutability": "view",
      "type": "function"
    },
    {
      "inputs": [
        {
          "internalType": "uint256",
          "name": "index",
          "type": "uint256"
        }
      ],
      "name": "tokenByIndex",
      "outputs": [
        {
          "internalType": "uint256",
          "name": "",
          "type": "uint256"
        }
      ],
      "stateMutability": "view",
      "type": "function"
    },
    {
      "inputs": [
        {
          "internalType": "address",
          "name": "owner",
          "type": "address"
        },
        {
          "internalType": "uint256",
          "name": "index",
          "type": "uint256"
        }
      ],
      "name": "tokenOfOwnerByIndex",
      "outputs": [
        {
          "internalType": "uint256",
          "name": "",
          "type": "uint256"
        }
      ],
      "stateMutability": "view",
      "type": "function"
    },
    {
      "inputs": [
        {
          "internalType": "uint256",
          "name": "_tokenId",
          "type": "uint256"
        }
      ],
      "name": "tokenURI",
      "outputs": [
        {
          "internalType": "string",
          "name": "",
          "type": "string"
        }
      ],
      "stateMutability": "view",
      "type": "function"
    },
    {
      "inputs": [],
      "name": "totalSupply",
      "outputs": [
        {
          "internalType": "uint256",
          "name": "",
          "type": "uint256"
        }
      ],
      "stateMutability": "view",
      "type": "function"
    },
    {
      "inputs": [
        {
          "internalType": "address",
          "name": "from",
          "type": "address"
        },
        {
          "internalType": "address",
          "name": "to",
          "type": "address"
        },
        {
          "internalType": "uint256",
          "name": "tokenId",
          "type": "uint256"
        }
      ],
      "name": "transferFrom",
      "outputs": [],
      "stateMutability": "nonpayable",
      "type": "function"
    },
    {
      "inputs": [
        {
          "internalType": "address",
          "name": "newOwner",
          "type": "address"
        }
      ],
      "name": "transferOwnership",
      "outputs": [],
      "stateMutability": "nonpayable",
      "type": "function"
    },
    {
      "inputs": [],
      "name": "unPauseMint",
      "outputs": [],
      "stateMutability": "nonpayable",
      "type": "function"
    },
    {
      "inputs": [
        {
          "internalType": "address",
          "name": "_owner",
          "type": "address"
        }
      ],
      "name": "walletOfOwner",
      "outputs": [
        {
          "internalType": "uint256[]",
          "name": "",
          "type": "uint256[]"
        }
      ],
      "stateMutability": "view",
      "type": "function"
    },
    {
      "inputs": [],
      "name": "withdraw",
      "outputs": [],
      "stateMutability": "nonpayable",
      "type": "function"
    }
  ],
  "bytecode": "0x60806040526040518060400160405280600581526020017f2e6a736f6e000000000000000000000000000000000000000000000000000000815250601090805190602001906200005192919062000206565b506000601160006101000a81548160ff0219169083151502179055503480156200007a57600080fd5b5060405162004906380380620049068339818101604052810190620000a091906200048e565b86868160009080519060200190620000ba92919062000206565b508060019080519060200190620000d392919062000206565b505050620000f6620000ea6200013860201b60201c565b6200014060201b60201c565b84600b8190555083600c8190555082600d8190555081600e8190555080600f90805190602001906200012a92919062000206565b505050505050505062000603565b600033905090565b6000600a60009054906101000a900473ffffffffffffffffffffffffffffffffffffffff16905081600a60006101000a81548173ffffffffffffffffffffffffffffffffffffffff021916908373ffffffffffffffffffffffffffffffffffffffff1602179055508173ffffffffffffffffffffffffffffffffffffffff168173ffffffffffffffffffffffffffffffffffffffff167f8be0079c531659141344cd1fd0a4f28419497f9722a3daafe3b4186f6b6457e060405160405180910390a35050565b8280546200021490620005cd565b90600052602060002090601f01602090048101928262000238576000855562000284565b82601f106200025357805160ff191683800117855562000284565b8280016001018555821562000284579182015b828111156200028357825182559160200191906001019062000266565b5b50905062000293919062000297565b5090565b5b80821115620002b257600081600090555060010162000298565b5090565b6000604051905090565b600080fd5b600080fd5b600080fd5b600080fd5b6000601f19601f8301169050919050565b7f4e487b7100000000000000000000000000000000000000000000000000000000600052604160045260246000fd5b6200031f82620002d4565b810181811067ffffffffffffffff82111715620003415762000340620002e5565b5b80604052505050565b600062000356620002b6565b905062000364828262000314565b919050565b600067ffffffffffffffff821115620003875762000386620002e5565b5b6200039282620002d4565b9050602081019050919050565b60005b83811015620003bf578082015181840152602081019050620003a2565b83811115620003cf576000848401525b50505050565b6000620003ec620003e68462000369565b6200034a565b9050828152602081018484840111156200040b576200040a620002cf565b5b620004188482856200039f565b509392505050565b600082601f830112620004385762000437620002ca565b5b81516200044a848260208601620003d5565b91505092915050565b6000819050919050565b620004688162000453565b81146200047457600080fd5b50565b60008151905062000488816200045d565b92915050565b600080600080600080600060e0888a031215620004b057620004af620002c0565b5b600088015167ffffffffffffffff811115620004d157620004d0620002c5565b5b620004df8a828b0162000420565b975050602088015167ffffffffffffffff811115620005035762000502620002c5565b5b620005118a828b0162000420565b9650506040620005248a828b0162000477565b9550506060620005378a828b0162000477565b94505060806200054a8a828b0162000477565b93505060a06200055d8a828b0162000477565b92505060c088015167ffffffffffffffff811115620005815762000580620002c5565b5b6200058f8a828b0162000420565b91505092959891949750929550565b7f4e487b7100000000000000000000000000000000000000000000000000000000600052602260045260246000fd5b60006002820490506001821680620005e657607f821691505b60208210811415620005fd57620005fc6200059e565b5b50919050565b6142f380620006136000396000f3fe6080604052600436106102045760003560e01c80636352211e11610118578063a22cb465116100a0578063cd85cdb51161006f578063cd85cdb51461076e578063d5abeb0114610785578063da8fbf2a146107b0578063e985e9c5146107db578063f2fde38b1461081857610204565b8063a22cb465146106b4578063b88d4fde146106dd578063c668286214610706578063c87b56dd1461073157610204565b80637330daac116100e75780637330daac146105da5780637501f741146106175780638da5cb5b1461064257806395d89b411461066d578063a0712d681461069857610204565b80636352211e1461051e5780636c0360eb1461055b57806370a0823114610586578063715018a6146105c357610204565b80631adc100c1161019b5780633ccfd60b1161016a5780633ccfd60b1461043b57806342842e0e14610452578063438b63001461047b57806344a0d68a146104b85780634f6ccce7146104e157610204565b80631adc100c1461036f57806323b872dd146103ac5780632f745c59146103d557806338eada1c1461041257610204565b8063095ea7b3116101d7578063095ea7b3146102d95780630be218d61461030257806313faede61461031957806318160ddd1461034457610204565b8063014679961461020957806301ffc9a71461023457806306fdde0314610271578063081812fc1461029c575b600080fd5b34801561021557600080fd5b5061021e610841565b60405161022b9190612b4b565b60405180910390f35b34801561024057600080fd5b5061025b60048036038101906102569190612bd2565b610847565b6040516102689190612c1a565b60405180910390f35b34801561027d57600080fd5b506102866108c1565b6040516102939190612cce565b60405180910390f35b3480156102a857600080fd5b506102c360048036038101906102be9190612d1c565b610953565b6040516102d09190612d8a565b60405180910390f35b3480156102e557600080fd5b5061030060048036038101906102fb9190612dd1565b610999565b005b34801561030e57600080fd5b50610317610ab1565b005b34801561032557600080fd5b5061032e610ad6565b60405161033b9190612b4b565b60405180910390f35b34801561035057600080fd5b50610359610adc565b6040516103669190612b4b565b60405180910390f35b34801561037b57600080fd5b5061039660048036038101906103919190612d1c565b610ae9565b6040516103a39190612b4b565b60405180910390f35b3480156103b857600080fd5b506103d360048036038101906103ce9190612e11565b610b01565b005b3480156103e157600080fd5b506103fc60048036038101906103f79190612dd1565b610b61565b6040516104099190612b4b565b60405180910390f35b34801561041e57600080fd5b5061043960048036038101906104349190612e64565b610c06565b005b34801561044757600080fd5b50610450610c69565b005b34801561045e57600080fd5b5061047960048036038101906104749190612e11565b610d29565b005b34801561048757600080fd5b506104a2600480360381019061049d9190612e64565b610d49565b6040516104af9190612f4f565b60405180910390f35b3480156104c457600080fd5b506104df60048036038101906104da9190612d1c565b610df7565b005b3480156104ed57600080fd5b5061050860048036038101906105039190612d1c565b610e09565b6040516105159190612b4b565b60405180910390f35b34801561052a57600080fd5b5061054560048036038101906105409190612d1c565b610e7a565b6040516105529190612d8a565b60405180910390f35b34801561056757600080fd5b50610570610f01565b60405161057d9190612cce565b60405180910390f35b34801561059257600080fd5b506105ad60048036038101906105a89190612e64565b610f8f565b6040516105ba9190612b4b565b60405180910390f35b3480156105cf57600080fd5b506105d8611047565b005b3480156105e657600080fd5b5061060160048036038101906105fc9190612e64565b61105b565b60405161060e9190612c1a565b60405180910390f35b34801561062357600080fd5b5061062c6110b0565b6040516106399190612b4b565b60405180910390f35b34801561064e57600080fd5b506106576110b6565b6040516106649190612d8a565b60405180910390f35b34801561067957600080fd5b506106826110e0565b60405161068f9190612cce565b60405180910390f35b6106b260048036038101906106ad9190612d1c565b611172565b005b3480156106c057600080fd5b506106db60048036038101906106d69190612f9d565b6113f7565b005b3480156106e957600080fd5b5061070460048036038101906106ff9190613112565b61140d565b005b34801561071257600080fd5b5061071b61146f565b6040516107289190612cce565b60405180910390f35b34801561073d57600080fd5b5061075860048036038101906107539190612d1c565b6114fd565b6040516107659190612cce565b60405180910390f35b34801561077a57600080fd5b5061078361157c565b005b34801561079157600080fd5b5061079a6115a1565b6040516107a79190612b4b565b60405180910390f35b3480156107bc57600080fd5b506107c56115a7565b6040516107d29190612c1a565b60405180910390f35b3480156107e757600080fd5b5061080260048036038101906107fd9190613195565b6115ba565b60405161080f9190612c1a565b60405180910390f35b34801561082457600080fd5b5061083f600480360381019061083a9190612e64565b61164e565b005b600e5481565b60007f780e9d63000000000000000000000000000000000000000000000000000000007bffffffffffffffffffffffffffffffffffffffffffffffffffffffff1916827bffffffffffffffffffffffffffffffffffffffffffffffffffffffff191614806108ba57506108b9826116d2565b5b9050919050565b6060600080546108d090613204565b80601f01602080910402602001604051908101604052809291908181526020018280546108fc90613204565b80156109495780601f1061091e57610100808354040283529160200191610949565b820191906000526020600020905b81548152906001019060200180831161092c57829003601f168201915b5050505050905090565b600061095e826117b4565b6004600083815260200190815260200160002060009054906101000a900473ffffffffffffffffffffffffffffffffffffffff169050919050565b60006109a482610e7a565b90508073ffffffffffffffffffffffffffffffffffffffff168373ffffffffffffffffffffffffffffffffffffffff161415610a15576040517f08c379a0000000000000000000000000000000000000000000000000000000008152600401610a0c906132a8565b60405180910390fd5b8073ffffffffffffffffffffffffffffffffffffffff16610a346117ff565b73ffffffffffffffffffffffffffffffffffffffff161480610a635750610a6281610a5d6117ff565b6115ba565b5b610aa2576040517f08c379a0000000000000000000000000000000000000000000000000000000008152600401610a999061333a565b60405180910390fd5b610aac8383611807565b505050565b610ab96118c0565b6000601160006101000a81548160ff021916908315150217905550565b600b5481565b6000600880549050905090565b60136020528060005260406000206000915090505481565b610b12610b0c6117ff565b8261193e565b610b51576040517f08c379a0000000000000000000000000000000000000000000000000000000008152600401610b48906133cc565b60405180910390fd5b610b5c8383836119d3565b505050565b6000610b6c83610f8f565b8210610bad576040517f08c379a0000000000000000000000000000000000000000000000000000000008152600401610ba49061345e565b60405180910390fd5b600660008473ffffffffffffffffffffffffffffffffffffffff1673ffffffffffffffffffffffffffffffffffffffff168152602001908152602001600020600083815260200190815260200160002054905092915050565b610c0e6118c0565b600081604051602001610c2191906134c6565b60405160208183030381529060405280519060200120905060016012600083815260200190815260200160002060006101000a81548160ff0219169083151502179055505050565b610c716118c0565b600047905060003373ffffffffffffffffffffffffffffffffffffffff1682604051610c9c90613512565b60006040518083038185875af1925050503d8060008114610cd9576040519150601f19603f3d011682016040523d82523d6000602084013e610cde565b606091505b5050905080610cec57600080fd5b7f8353ffcac0876ad14e226d9783c04540bfebf13871e868157d2a391cad98e9188233604051610d1d929190613527565b60405180910390a15050565b610d448383836040518060200160405280600081525061140d565b505050565b60606000610d5683610f8f565b905060008167ffffffffffffffff811115610d7457610d73612fe7565b5b604051908082528060200260200182016040528015610da25781602001602082028036833780820191505090505b50905060005b82811015610dec57610dba8582610b61565b828281518110610dcd57610dcc613550565b5b6020026020010181815250508080610de4906135ae565b915050610da8565b508092505050919050565b610dff6118c0565b80600b8190555050565b6000610e13610adc565b8210610e54576040517f08c379a0000000000000000000000000000000000000000000000000000000008152600401610e4b90613669565b60405180910390fd5b60088281548110610e6857610e67613550565b5b90600052602060002001549050919050565b600080610e8683611ccd565b9050600073ffffffffffffffffffffffffffffffffffffffff168173ffffffffffffffffffffffffffffffffffffffff161415610ef8576040517f08c379a0000000000000000000000000000000000000000000000000000000008152600401610eef906136d5565b60405180910390fd5b80915050919050565b600f8054610f0e90613204565b80601f0160208091040260200160405190810160405280929190818152602001828054610f3a90613204565b8015610f875780601f10610f5c57610100808354040283529160200191610f87565b820191906000526020600020905b815481529060010190602001808311610f6a57829003601f168201915b505050505081565b60008073ffffffffffffffffffffffffffffffffffffffff168273ffffffffffffffffffffffffffffffffffffffff161415611000576040517f08c379a0000000000000000000000000000000000000000000000000000000008152600401610ff790613767565b60405180910390fd5b600360008373ffffffffffffffffffffffffffffffffffffffff1673ffffffffffffffffffffffffffffffffffffffff168152602001908152602001600020549050919050565b61104f6118c0565b6110596000611d0a565b565b6000808260405160200161106f91906134c6565b6040516020818303038152906040528051906020012090506012600082815260200190815260200160002060009054906101000a900460ff16915050919050565b600d5481565b6000600a60009054906101000a900473ffffffffffffffffffffffffffffffffffffffff16905090565b6060600180546110ef90613204565b80601f016020809104026020016040519081016040528092919081815260200182805461111b90613204565b80156111685780601f1061113d57610100808354040283529160200191611168565b820191906000526020600020905b81548152906001019060200180831161114b57829003601f168201915b5050505050905090565b600e544210156111b7576040517f08c379a00000000000000000000000000000000000000000000000000000000081526004016111ae906137d3565b60405180910390fd5b601160009054906101000a900460ff1615611207576040517f08c379a00000000000000000000000000000000000000000000000000000000081526004016111fe9061383f565b60405180910390fd5b6112103361105b565b61124f576040517f08c379a0000000000000000000000000000000000000000000000000000000008152600401611246906138d1565b60405180910390fd5b60008111611292576040517f08c379a00000000000000000000000000000000000000000000000000000000081526004016112899061393d565b60405180910390fd5b80600b546112a0919061395d565b3410156112e2576040517f08c379a00000000000000000000000000000000000000000000000000000000081526004016112d990613a03565b60405180910390fd5b600d54811115611327576040517f08c379a000000000000000000000000000000000000000000000000000000000815260040161131e90613a6f565b60405180910390fd5b6000611331610adc565b9050600c5482826113429190613a8f565b1115611383576040517f08c379a000000000000000000000000000000000000000000000000000000000815260040161137a90613b31565b60405180910390fd5b6000600190505b8281116113b9576113a63382846113a19190613a8f565b611dd0565b80806113b1906135ae565b91505061138a565b507ff3cea5493d790af0133817606f7350a91d7f154ea52eaa79d179d4d231e5010282336040516113eb929190613527565b60405180910390a15050565b6114096114026117ff565b8383611dee565b5050565b61141e6114186117ff565b8361193e565b61145d576040517f08c379a0000000000000000000000000000000000000000000000000000000008152600401611454906133cc565b60405180910390fd5b61146984848484611f5b565b50505050565b6010805461147c90613204565b80601f01602080910402602001604051908101604052809291908181526020018280546114a890613204565b80156114f55780601f106114ca576101008083540402835291602001916114f5565b820191906000526020600020905b8154815290600101906020018083116114d857829003601f168201915b505050505081565b606061150882611fb7565b611547576040517f08c379a000000000000000000000000000000000000000000000000000000000815260040161153e90613b9d565b60405180910390fd5b600f61155283611ff8565b601060405160200161156693929190613c8d565b6040516020818303038152906040529050919050565b6115846118c0565b6001601160006101000a81548160ff021916908315150217905550565b600c5481565b601160009054906101000a900460ff1681565b6000600560008473ffffffffffffffffffffffffffffffffffffffff1673ffffffffffffffffffffffffffffffffffffffff16815260200190815260200160002060008373ffffffffffffffffffffffffffffffffffffffff1673ffffffffffffffffffffffffffffffffffffffff16815260200190815260200160002060009054906101000a900460ff16905092915050565b6116566118c0565b600073ffffffffffffffffffffffffffffffffffffffff168173ffffffffffffffffffffffffffffffffffffffff1614156116c6576040517f08c379a00000000000000000000000000000000000000000000000000000000081526004016116bd90613d30565b60405180910390fd5b6116cf81611d0a565b50565b60007f80ac58cd000000000000000000000000000000000000000000000000000000007bffffffffffffffffffffffffffffffffffffffffffffffffffffffff1916827bffffffffffffffffffffffffffffffffffffffffffffffffffffffff1916148061179d57507f5b5e139f000000000000000000000000000000000000000000000000000000007bffffffffffffffffffffffffffffffffffffffffffffffffffffffff1916827bffffffffffffffffffffffffffffffffffffffffffffffffffffffff1916145b806117ad57506117ac826120d0565b5b9050919050565b6117bd81611fb7565b6117fc576040517f08c379a00000000000000000000000000000000000000000000000000000000081526004016117f3906136d5565b60405180910390fd5b50565b600033905090565b816004600083815260200190815260200160002060006101000a81548173ffffffffffffffffffffffffffffffffffffffff021916908373ffffffffffffffffffffffffffffffffffffffff160217905550808273ffffffffffffffffffffffffffffffffffffffff1661187a83610e7a565b73ffffffffffffffffffffffffffffffffffffffff167f8c5be1e5ebec7d5bd14f71427d1e84f3dd0314c0f7b2291e5b200ac8c7c3b92560405160405180910390a45050565b6118c86117ff565b73ffffffffffffffffffffffffffffffffffffffff166118e66110b6565b73ffffffffffffffffffffffffffffffffffffffff161461193c576040517f08c379a000000000000000000000000000000000000000000000000000000000815260040161193390613d9c565b60405180910390fd5b565b60008061194a83610e7a565b90508073ffffffffffffffffffffffffffffffffffffffff168473ffffffffffffffffffffffffffffffffffffffff16148061198c575061198b81856115ba565b5b806119ca57508373ffffffffffffffffffffffffffffffffffffffff166119b284610953565b73ffffffffffffffffffffffffffffffffffffffff16145b91505092915050565b8273ffffffffffffffffffffffffffffffffffffffff166119f382610e7a565b73ffffffffffffffffffffffffffffffffffffffff1614611a49576040517f08c379a0000000000000000000000000000000000000000000000000000000008152600401611a4090613e2e565b60405180910390fd5b600073ffffffffffffffffffffffffffffffffffffffff168273ffffffffffffffffffffffffffffffffffffffff161415611ab9576040517f08c379a0000000000000000000000000000000000000000000000000000000008152600401611ab090613ec0565b60405180910390fd5b611ac6838383600161213a565b8273ffffffffffffffffffffffffffffffffffffffff16611ae682610e7a565b73ffffffffffffffffffffffffffffffffffffffff1614611b3c576040517f08c379a0000000000000000000000000000000000000000000000000000000008152600401611b3390613e2e565b60405180910390fd5b6004600082815260200190815260200160002060006101000a81549073ffffffffffffffffffffffffffffffffffffffff02191690556001600360008573ffffffffffffffffffffffffffffffffffffffff1673ffffffffffffffffffffffffffffffffffffffff168152602001908152602001600020600082825403925050819055506001600360008473ffffffffffffffffffffffffffffffffffffffff1673ffffffffffffffffffffffffffffffffffffffff16815260200190815260200160002060008282540192505081905550816002600083815260200190815260200160002060006101000a81548173ffffffffffffffffffffffffffffffffffffffff021916908373ffffffffffffffffffffffffffffffffffffffff160217905550808273ffffffffffffffffffffffffffffffffffffffff168473ffffffffffffffffffffffffffffffffffffffff167fddf252ad1be2c89b69c2b068fc378daa952ba7f163c4a11628f55a4df523b3ef60405160405180910390a4611cc8838383600161229a565b505050565b60006002600083815260200190815260200160002060009054906101000a900473ffffffffffffffffffffffffffffffffffffffff169050919050565b6000600a60009054906101000a900473ffffffffffffffffffffffffffffffffffffffff16905081600a60006101000a81548173ffffffffffffffffffffffffffffffffffffffff021916908373ffffffffffffffffffffffffffffffffffffffff1602179055508173ffffffffffffffffffffffffffffffffffffffff168173ffffffffffffffffffffffffffffffffffffffff167f8be0079c531659141344cd1fd0a4f28419497f9722a3daafe3b4186f6b6457e060405160405180910390a35050565b611dea8282604051806020016040528060008152506122a0565b5050565b8173ffffffffffffffffffffffffffffffffffffffff168373ffffffffffffffffffffffffffffffffffffffff161415611e5d576040517f08c379a0000000000000000000000000000000000000000000000000000000008152600401611e5490613f2c565b60405180910390fd5b80600560008573ffffffffffffffffffffffffffffffffffffffff1673ffffffffffffffffffffffffffffffffffffffff16815260200190815260200160002060008473ffffffffffffffffffffffffffffffffffffffff1673ffffffffffffffffffffffffffffffffffffffff16815260200190815260200160002060006101000a81548160ff0219169083151502179055508173ffffffffffffffffffffffffffffffffffffffff168373ffffffffffffffffffffffffffffffffffffffff167f17307eab39ab6107e8899845ad3d59bd9653f200f220920489ca2b5937696c3183604051611f4e9190612c1a565b60405180910390a3505050565b611f668484846119d3565b611f72848484846122fb565b611fb1576040517f08c379a0000000000000000000000000000000000000000000000000000000008152600401611fa890613fbe565b60405180910390fd5b50505050565b60008073ffffffffffffffffffffffffffffffffffffffff16611fd983611ccd565b73ffffffffffffffffffffffffffffffffffffffff1614159050919050565b60606000600161200784612492565b01905060008167ffffffffffffffff81111561202657612025612fe7565b5b6040519080825280601f01601f1916602001820160405280156120585781602001600182028036833780820191505090505b509050600082602001820190505b6001156120c5578080600190039150507f3031323334353637383961626364656600000000000000000000000000000000600a86061a8153600a85816120af576120ae613fde565b5b04945060008514156120c0576120c5565b612066565b819350505050919050565b60007f01ffc9a7000000000000000000000000000000000000000000000000000000007bffffffffffffffffffffffffffffffffffffffffffffffffffffffff1916827bffffffffffffffffffffffffffffffffffffffffffffffffffffffff1916149050919050565b612146848484846125e5565b600181111561218a576040517f08c379a00000000000000000000000000000000000000000000000000000000081526004016121819061407f565b60405180910390fd5b6000829050600073ffffffffffffffffffffffffffffffffffffffff168573ffffffffffffffffffffffffffffffffffffffff1614156121d2576121cd816125eb565b612211565b8373ffffffffffffffffffffffffffffffffffffffff168573ffffffffffffffffffffffffffffffffffffffff16146122105761220f8582612634565b5b5b600073ffffffffffffffffffffffffffffffffffffffff168473ffffffffffffffffffffffffffffffffffffffff1614156122545761224f816127a1565b612293565b8473ffffffffffffffffffffffffffffffffffffffff168473ffffffffffffffffffffffffffffffffffffffff1614612292576122918482612872565b5b5b5050505050565b50505050565b6122aa83836128f1565b6122b760008484846122fb565b6122f6576040517f08c379a00000000000000000000000000000000000000000000000000000000081526004016122ed90613fbe565b60405180910390fd5b505050565b600061231c8473ffffffffffffffffffffffffffffffffffffffff16612b0f565b15612485578373ffffffffffffffffffffffffffffffffffffffff1663150b7a026123456117ff565b8786866040518563ffffffff1660e01b815260040161236794939291906140f4565b602060405180830381600087803b15801561238157600080fd5b505af19250505080156123b257506040513d601f19601f820116820180604052508101906123af9190614155565b60015b612435573d80600081146123e2576040519150601f19603f3d011682016040523d82523d6000602084013e6123e7565b606091505b5060008151141561242d576040517f08c379a000000000000000000000000000000000000000000000000000000000815260040161242490613fbe565b60405180910390fd5b805181602001fd5b63150b7a0260e01b7bffffffffffffffffffffffffffffffffffffffffffffffffffffffff1916817bffffffffffffffffffffffffffffffffffffffffffffffffffffffff19161491505061248a565b600190505b949350505050565b600080600090507a184f03e93ff9f4daa797ed6e38ed64bf6a1f01000000000000000083106124f0577a184f03e93ff9f4daa797ed6e38ed64bf6a1f01000000000000000083816124e6576124e5613fde565b5b0492506040810190505b6d04ee2d6d415b85acef8100000000831061252d576d04ee2d6d415b85acef8100000000838161252357612522613fde565b5b0492506020810190505b662386f26fc10000831061255c57662386f26fc10000838161255257612551613fde565b5b0492506010810190505b6305f5e1008310612585576305f5e100838161257b5761257a613fde565b5b0492506008810190505b61271083106125aa5761271083816125a05761259f613fde565b5b0492506004810190505b606483106125cd57606483816125c3576125c2613fde565b5b0492506002810190505b600a83106125dc576001810190505b80915050919050565b50505050565b6008805490506009600083815260200190815260200160002081905550600881908060018154018082558091505060019003906000526020600020016000909190919091505550565b6000600161264184610f8f565b61264b9190614182565b9050600060076000848152602001908152602001600020549050818114612730576000600660008673ffffffffffffffffffffffffffffffffffffffff1673ffffffffffffffffffffffffffffffffffffffff168152602001908152602001600020600084815260200190815260200160002054905080600660008773ffffffffffffffffffffffffffffffffffffffff1673ffffffffffffffffffffffffffffffffffffffff168152602001908152602001600020600084815260200190815260200160002081905550816007600083815260200190815260200160002081905550505b6007600084815260200190815260200160002060009055600660008573ffffffffffffffffffffffffffffffffffffffff1673ffffffffffffffffffffffffffffffffffffffff16815260200190815260200160002060008381526020019081526020016000206000905550505050565b600060016008805490506127b59190614182565b90506000600960008481526020019081526020016000205490506000600883815481106127e5576127e4613550565b5b90600052602060002001549050806008838154811061280757612806613550565b5b906000526020600020018190555081600960008381526020019081526020016000208190555060096000858152602001908152602001600020600090556008805480612856576128556141b6565b5b6001900381819060005260206000200160009055905550505050565b600061287d83610f8f565b905081600660008573ffffffffffffffffffffffffffffffffffffffff1673ffffffffffffffffffffffffffffffffffffffff168152602001908152602001600020600083815260200190815260200160002081905550806007600084815260200190815260200160002081905550505050565b600073ffffffffffffffffffffffffffffffffffffffff168273ffffffffffffffffffffffffffffffffffffffff161415612961576040517f08c379a000000000000000000000000000000000000000000000000000000000815260040161295890614231565b60405180910390fd5b61296a81611fb7565b156129aa576040517f08c379a00000000000000000000000000000000000000000000000000000000081526004016129a19061429d565b60405180910390fd5b6129b860008383600161213a565b6129c181611fb7565b15612a01576040517f08c379a00000000000000000000000000000000000000000000000000000000081526004016129f89061429d565b60405180910390fd5b6001600360008473ffffffffffffffffffffffffffffffffffffffff1673ffffffffffffffffffffffffffffffffffffffff16815260200190815260200160002060008282540192505081905550816002600083815260200190815260200160002060006101000a81548173ffffffffffffffffffffffffffffffffffffffff021916908373ffffffffffffffffffffffffffffffffffffffff160217905550808273ffffffffffffffffffffffffffffffffffffffff16600073ffffffffffffffffffffffffffffffffffffffff167fddf252ad1be2c89b69c2b068fc378daa952ba7f163c4a11628f55a4df523b3ef60405160405180910390a4612b0b60008383600161229a565b5050565b6000808273ffffffffffffffffffffffffffffffffffffffff163b119050919050565b6000819050919050565b612b4581612b32565b82525050565b6000602082019050612b606000830184612b3c565b92915050565b6000604051905090565b600080fd5b600080fd5b60007fffffffff0000000000000000000000000000000000000000000000000000000082169050919050565b612baf81612b7a565b8114612bba57600080fd5b50565b600081359050612bcc81612ba6565b92915050565b600060208284031215612be857612be7612b70565b5b6000612bf684828501612bbd565b91505092915050565b60008115159050919050565b612c1481612bff565b82525050565b6000602082019050612c2f6000830184612c0b565b92915050565b600081519050919050565b600082825260208201905092915050565b60005b83811015612c6f578082015181840152602081019050612c54565b83811115612c7e576000848401525b50505050565b6000601f19601f8301169050919050565b6000612ca082612c35565b612caa8185612c40565b9350612cba818560208601612c51565b612cc381612c84565b840191505092915050565b60006020820190508181036000830152612ce88184612c95565b905092915050565b612cf981612b32565b8114612d0457600080fd5b50565b600081359050612d1681612cf0565b92915050565b600060208284031215612d3257612d31612b70565b5b6000612d4084828501612d07565b91505092915050565b600073ffffffffffffffffffffffffffffffffffffffff82169050919050565b6000612d7482612d49565b9050919050565b612d8481612d69565b82525050565b6000602082019050612d9f6000830184612d7b565b92915050565b612dae81612d69565b8114612db957600080fd5b50565b600081359050612dcb81612da5565b92915050565b60008060408385031215612de857612de7612b70565b5b6000612df685828601612dbc565b9250506020612e0785828601612d07565b9150509250929050565b600080600060608486031215612e2a57612e29612b70565b5b6000612e3886828701612dbc565b9350506020612e4986828701612dbc565b9250506040612e5a86828701612d07565b9150509250925092565b600060208284031215612e7a57612e79612b70565b5b6000612e8884828501612dbc565b91505092915050565b600081519050919050565b600082825260208201905092915050565b6000819050602082019050919050565b612ec681612b32565b82525050565b6000612ed88383612ebd565b60208301905092915050565b6000602082019050919050565b6000612efc82612e91565b612f068185612e9c565b9350612f1183612ead565b8060005b83811015612f42578151612f298882612ecc565b9750612f3483612ee4565b925050600181019050612f15565b5085935050505092915050565b60006020820190508181036000830152612f698184612ef1565b905092915050565b612f7a81612bff565b8114612f8557600080fd5b50565b600081359050612f9781612f71565b92915050565b60008060408385031215612fb457612fb3612b70565b5b6000612fc285828601612dbc565b9250506020612fd385828601612f88565b9150509250929050565b600080fd5b600080fd5b7f4e487b7100000000000000000000000000000000000000000000000000000000600052604160045260246000fd5b61301f82612c84565b810181811067ffffffffffffffff8211171561303e5761303d612fe7565b5b80604052505050565b6000613051612b66565b905061305d8282613016565b919050565b600067ffffffffffffffff82111561307d5761307c612fe7565b5b61308682612c84565b9050602081019050919050565b82818337600083830152505050565b60006130b56130b084613062565b613047565b9050828152602081018484840111156130d1576130d0612fe2565b5b6130dc848285613093565b509392505050565b600082601f8301126130f9576130f8612fdd565b5b81356131098482602086016130a2565b91505092915050565b6000806000806080858703121561312c5761312b612b70565b5b600061313a87828801612dbc565b945050602061314b87828801612dbc565b935050604061315c87828801612d07565b925050606085013567ffffffffffffffff81111561317d5761317c612b75565b5b613189878288016130e4565b91505092959194509250565b600080604083850312156131ac576131ab612b70565b5b60006131ba85828601612dbc565b92505060206131cb85828601612dbc565b9150509250929050565b7f4e487b7100000000000000000000000000000000000000000000000000000000600052602260045260246000fd5b6000600282049050600182168061321c57607f821691505b602082108114156132305761322f6131d5565b5b50919050565b7f4552433732313a20617070726f76616c20746f2063757272656e74206f776e6560008201527f7200000000000000000000000000000000000000000000000000000000000000602082015250565b6000613292602183612c40565b915061329d82613236565b604082019050919050565b600060208201905081810360008301526132c181613285565b9050919050565b7f4552433732313a20617070726f76652063616c6c6572206973206e6f7420746f60008201527f6b656e206f776e6572206f7220617070726f76656420666f7220616c6c000000602082015250565b6000613324603d83612c40565b915061332f826132c8565b604082019050919050565b6000602082019050818103600083015261335381613317565b9050919050565b7f4552433732313a2063616c6c6572206973206e6f7420746f6b656e206f776e6560008201527f72206f7220617070726f76656400000000000000000000000000000000000000602082015250565b60006133b6602d83612c40565b91506133c18261335a565b604082019050919050565b600060208201905081810360008301526133e5816133a9565b9050919050565b7f455243373231456e756d657261626c653a206f776e657220696e646578206f7560008201527f74206f6620626f756e6473000000000000000000000000000000000000000000602082015250565b6000613448602b83612c40565b9150613453826133ec565b604082019050919050565b600060208201905081810360008301526134778161343b565b9050919050565b60008160601b9050919050565b60006134968261347e565b9050919050565b60006134a88261348b565b9050919050565b6134c06134bb82612d69565b61349d565b82525050565b60006134d282846134af565b60148201915081905092915050565b600081905092915050565b50565b60006134fc6000836134e1565b9150613507826134ec565b600082019050919050565b600061351d826134ef565b9150819050919050565b600060408201905061353c6000830185612b3c565b6135496020830184612d7b565b9392505050565b7f4e487b7100000000000000000000000000000000000000000000000000000000600052603260045260246000fd5b7f4e487b7100000000000000000000000000000000000000000000000000000000600052601160045260246000fd5b60006135b982612b32565b91507fffffffffffffffffffffffffffffffffffffffffffffffffffffffffffffffff8214156135ec576135eb61357f565b5b600182019050919050565b7f455243373231456e756d657261626c653a20676c6f62616c20696e646578206f60008201527f7574206f6620626f756e64730000000000000000000000000000000000000000602082015250565b6000613653602c83612c40565b915061365e826135f7565b604082019050919050565b6000602082019050818103600083015261368281613646565b9050919050565b7f4552433732313a20696e76616c696420746f6b656e2049440000000000000000600082015250565b60006136bf601883612c40565b91506136ca82613689565b602082019050919050565b600060208201905081810360008301526136ee816136b2565b9050919050565b7f4552433732313a2061646472657373207a65726f206973206e6f74206120766160008201527f6c6964206f776e65720000000000000000000000000000000000000000000000602082015250565b6000613751602983612c40565b915061375c826136f5565b604082019050919050565b6000602082019050818103600083015261378081613744565b9050919050565b7f4d696e74696e67206e6f74206f70656e20796574000000000000000000000000600082015250565b60006137bd601483612c40565b91506137c882613787565b602082019050919050565b600060208201905081810360008301526137ec816137b0565b9050919050565b7f4d696e74696e6720686173206265656e20706175736564000000000000000000600082015250565b6000613829601783612c40565b9150613834826137f3565b602082019050919050565b600060208201905081810360008301526138588161381c565b9050919050565b7f746869732061646472657373206973206e6f74206f6e2074686520616c6c6f7760008201527f206c697374000000000000000000000000000000000000000000000000000000602082015250565b60006138bb602583612c40565b91506138c68261385f565b604082019050919050565b600060208201905081810360008301526138ea816138ae565b9050919050565b7f6d757374206d696e74206174206c656173742031204e46540000000000000000600082015250565b6000613927601883612c40565b9150613932826138f1565b602082019050919050565b600060208201905081810360008301526139568161391a565b9050919050565b600061396882612b32565b915061397383612b32565b9250817fffffffffffffffffffffffffffffffffffffffffffffffffffffffffffffffff04831182151516156139ac576139ab61357f565b5b828202905092915050565b7f696e737566666963656e74207061796d656e7400000000000000000000000000600082015250565b60006139ed601383612c40565b91506139f8826139b7565b602082019050919050565b60006020820190508181036000830152613a1c816139e0565b9050919050565b7f43616e6e6f74206d696e74206d6f7265207468616e2035204e46547300000000600082015250565b6000613a59601c83612c40565b9150613a6482613a23565b602082019050919050565b60006020820190508181036000830152613a8881613a4c565b9050919050565b6000613a9a82612b32565b9150613aa583612b32565b9250827fffffffffffffffffffffffffffffffffffffffffffffffffffffffffffffffff03821115613ada57613ad961357f565b5b828201905092915050565b7f6578636565646564206d617820737570706c7900000000000000000000000000600082015250565b6000613b1b601383612c40565b9150613b2682613ae5565b602082019050919050565b60006020820190508181036000830152613b4a81613b0e565b9050919050565b7f746f6b656e20646f6573206e6f74206578697374000000000000000000000000600082015250565b6000613b87601483612c40565b9150613b9282613b51565b602082019050919050565b60006020820190508181036000830152613bb681613b7a565b9050919050565b600081905092915050565b60008190508160005260206000209050919050565b60008154613bea81613204565b613bf48186613bbd565b94506001821660008114613c0f5760018114613c2057613c53565b60ff19831686528186019350613c53565b613c2985613bc8565b60005b83811015613c4b57815481890152600182019150602081019050613c2c565b838801955050505b50505092915050565b6000613c6782612c35565b613c718185613bbd565b9350613c81818560208601612c51565b80840191505092915050565b6000613c998286613bdd565b9150613ca58285613c5c565b9150613cb18284613bdd565b9150819050949350505050565b7f4f776e61626c653a206e6577206f776e657220697320746865207a65726f206160008201527f6464726573730000000000000000000000000000000000000000000000000000602082015250565b6000613d1a602683612c40565b9150613d2582613cbe565b604082019050919050565b60006020820190508181036000830152613d4981613d0d565b9050919050565b7f4f776e61626c653a2063616c6c6572206973206e6f7420746865206f776e6572600082015250565b6000613d86602083612c40565b9150613d9182613d50565b602082019050919050565b60006020820190508181036000830152613db581613d79565b9050919050565b7f4552433732313a207472616e736665722066726f6d20696e636f72726563742060008201527f6f776e6572000000000000000000000000000000000000000000000000000000602082015250565b6000613e18602583612c40565b9150613e2382613dbc565b604082019050919050565b60006020820190508181036000830152613e4781613e0b565b9050919050565b7f4552433732313a207472616e7366657220746f20746865207a65726f2061646460008201527f7265737300000000000000000000000000000000000000000000000000000000602082015250565b6000613eaa602483612c40565b9150613eb582613e4e565b604082019050919050565b60006020820190508181036000830152613ed981613e9d565b9050919050565b7f4552433732313a20617070726f766520746f2063616c6c657200000000000000600082015250565b6000613f16601983612c40565b9150613f2182613ee0565b602082019050919050565b60006020820190508181036000830152613f4581613f09565b9050919050565b7f4552433732313a207472616e7366657220746f206e6f6e20455243373231526560008201527f63656976657220696d706c656d656e7465720000000000000000000000000000602082015250565b6000613fa8603283612c40565b9150613fb382613f4c565b604082019050919050565b60006020820190508181036000830152613fd781613f9b565b9050919050565b7f4e487b7100000000000000000000000000000000000000000000000000000000600052601260045260246000fd5b7f455243373231456e756d657261626c653a20636f6e736563757469766520747260008201527f616e7366657273206e6f7420737570706f727465640000000000000000000000602082015250565b6000614069603583612c40565b91506140748261400d565b604082019050919050565b600060208201905081810360008301526140988161405c565b9050919050565b600081519050919050565b600082825260208201905092915050565b60006140c68261409f565b6140d081856140aa565b93506140e0818560208601612c51565b6140e981612c84565b840191505092915050565b60006080820190506141096000830187612d7b565b6141166020830186612d7b565b6141236040830185612b3c565b818103606083015261413581846140bb565b905095945050505050565b60008151905061414f81612ba6565b92915050565b60006020828403121561416b5761416a612b70565b5b600061417984828501614140565b91505092915050565b600061418d82612b32565b915061419883612b32565b9250828210156141ab576141aa61357f565b5b828203905092915050565b7f4e487b7100000000000000000000000000000000000000000000000000000000600052603160045260246000fd5b7f4552433732313a206d696e7420746f20746865207a65726f2061646472657373600082015250565b600061421b602083612c40565b9150614226826141e5565b602082019050919050565b6000602082019050818103600083015261424a8161420e565b9050919050565b7f4552433732313a20746f6b656e20616c7265616479206d696e74656400000000600082015250565b6000614287601c83612c40565b915061429282614251565b602082019050919050565b600060208201905081810360008301526142b68161427a565b905091905056fea26469706673582212205c17a0b856507411eb0efc1ac6aa05a446e87ecd462be5a641dbe150e9151c1564736f6c63430008090033",
  "linkReferences": {},
  "deployedLinkReferences": {}
}