{
  "_format": "hh-sol-artifact-1",
  "contractName": "NFTStaking",
  "sourceName": "contracts/NFTStaking.sol",
  "abi": [
    {
      "inputs": [
        {
          "internalType": "address",
          "name": "_nftAddress",
          "type": "address"
        },
        {
          "internalType": "address",
          "name": "_rewardTokenAddress",
          "type": "address"
        }
      ],
      "stateMutability": "nonpayable",
      "type": "constructor"
    },
    {
      "anonymous": false,
      "inputs": [
        {
          "indexed": true,
          "internalType": "address",
          "name": "user",
          "type": "address"
        },
        {
          "indexed": false,
          "internalType": "uint256",
          "name": "tokenId",
          "type": "uint256"
        }
      ],
      "name": "NFTStaked",
      "type": "event"
    },
    {
      "anonymous": false,
      "inputs": [
        {
          "indexed": true,
          "internalType": "address",
          "name": "user",
          "type": "address"
        },
        {
          "indexed": false,
          "internalType": "uint256",
          "name": "tokenId",
          "type": "uint256"
        }
      ],
      "name": "NFTUnStaked",
      "type": "event"
    },
    {
      "anonymous": false,
      "inputs": [
        {
          "indexed": true,
          "internalType": "address",
          "name": "previousOwner",
          "type": "address"
        },
        {
          "indexed": true,
          "internalType": "address",
          "name": "newOwner",
          "type": "address"
        }
      ],
      "name": "OwnershipTransferred",
      "type": "event"
    },
    {
      "inputs": [
        {
          "internalType": "uint256",
          "name": "tokenId",
          "type": "uint256"
        }
      ],
      "name": "calcReward",
      "outputs": [
        {
          "internalType": "uint256",
          "name": "",
          "type": "uint256"
        }
      ],
      "stateMutability": "view",
      "type": "function"
    },
    {
      "inputs": [
        {
          "internalType": "uint256",
          "name": "tokenId",
          "type": "uint256"
        }
      ],
      "name": "claimRewards",
      "outputs": [],
      "stateMutability": "payable",
      "type": "function"
    },
    {
      "inputs": [
        {
          "internalType": "uint256",
          "name": "tokenId",
          "type": "uint256"
        }
      ],
      "name": "isStaked",
      "outputs": [
        {
          "internalType": "bool",
          "name": "",
          "type": "bool"
        }
      ],
      "stateMutability": "view",
      "type": "function"
    },
    {
      "inputs": [
        {
          "internalType": "address",
          "name": "",
          "type": "address"
        },
        {
          "internalType": "address",
          "name": "",
          "type": "address"
        },
        {
          "internalType": "uint256",
          "name": "",
          "type": "uint256"
        },
        {
          "internalType": "bytes",
          "name": "",
          "type": "bytes"
        }
      ],
      "name": "onERC721Received",
      "outputs": [
        {
          "internalType": "bytes4",
          "name": "",
          "type": "bytes4"
        }
      ],
      "stateMutability": "pure",
      "type": "function"
    },
    {
      "inputs": [],
      "name": "owner",
      "outputs": [
        {
          "internalType": "address",
          "name": "",
          "type": "address"
        }
      ],
      "stateMutability": "view",
      "type": "function"
    },
    {
      "inputs": [],
      "name": "renounceOwnership",
      "outputs": [],
      "stateMutability": "nonpayable",
      "type": "function"
    },
    {
      "inputs": [],
      "name": "rewardRate",
      "outputs": [
        {
          "internalType": "uint256",
          "name": "",
          "type": "uint256"
        }
      ],
      "stateMutability": "view",
      "type": "function"
    },
    {
      "inputs": [],
      "name": "rewardToken",
      "outputs": [
        {
          "internalType": "contract RewardsToken",
          "name": "",
          "type": "address"
        }
      ],
      "stateMutability": "view",
      "type": "function"
    },
    {
      "inputs": [
        {
          "internalType": "uint256",
          "name": "_newRate",
          "type": "uint256"
        }
      ],
      "name": "setRewardRate",
      "outputs": [],
      "stateMutability": "nonpayable",
      "type": "function"
    },
    {
      "inputs": [
        {
          "internalType": "uint256",
          "name": "tokenId",
          "type": "uint256"
        }
      ],
      "name": "stakeNFT",
      "outputs": [],
      "stateMutability": "nonpayable",
      "type": "function"
    },
    {
      "inputs": [
        {
          "internalType": "uint256",
          "name": "",
          "type": "uint256"
        }
      ],
      "name": "stakedTimestamps",
      "outputs": [
        {
          "internalType": "uint256",
          "name": "",
          "type": "uint256"
        }
      ],
      "stateMutability": "view",
      "type": "function"
    },
    {
      "inputs": [
        {
          "internalType": "uint256",
          "name": "",
          "type": "uint256"
        }
      ],
      "name": "stakedTokens",
      "outputs": [
        {
          "internalType": "bool",
          "name": "",
          "type": "bool"
        }
      ],
      "stateMutability": "view",
      "type": "function"
    },
    {
      "inputs": [
        {
          "internalType": "address",
          "name": "newOwner",
          "type": "address"
        }
      ],
      "name": "transferOwnership",
      "outputs": [],
      "stateMutability": "nonpayable",
      "type": "function"
    },
    {
      "inputs": [
        {
          "internalType": "uint256",
          "name": "tokenId",
          "type": "uint256"
        }
      ],
      "name": "unstakeNFT",
      "outputs": [],
      "stateMutability": "nonpayable",
      "type": "function"
    }
  ],
  "bytecode": "0x6080604052670de0b6b3a76400006006553480156200001d57600080fd5b50604051620017f3380380620017f3833981810160405281019062000043919062000223565b6200006362000057620000ed60201b60201c565b620000f560201b60201c565b80600260006101000a81548173ffffffffffffffffffffffffffffffffffffffff021916908373ffffffffffffffffffffffffffffffffffffffff16021790555081600160006101000a81548173ffffffffffffffffffffffffffffffffffffffff021916908373ffffffffffffffffffffffffffffffffffffffff16021790555050506200026a565b600033905090565b60008060009054906101000a900473ffffffffffffffffffffffffffffffffffffffff169050816000806101000a81548173ffffffffffffffffffffffffffffffffffffffff021916908373ffffffffffffffffffffffffffffffffffffffff1602179055508173ffffffffffffffffffffffffffffffffffffffff168173ffffffffffffffffffffffffffffffffffffffff167f8be0079c531659141344cd1fd0a4f28419497f9722a3daafe3b4186f6b6457e060405160405180910390a35050565b600080fd5b600073ffffffffffffffffffffffffffffffffffffffff82169050919050565b6000620001eb82620001be565b9050919050565b620001fd81620001de565b81146200020957600080fd5b50565b6000815190506200021d81620001f2565b92915050565b600080604083850312156200023d576200023c620001b9565b5b60006200024d858286016200020c565b925050602062000260858286016200020c565b9150509250929050565b611579806200027a6000396000f3fe6080604052600436106100dd5760003560e01c80638da5cb5b1161007f578063c078855511610059578063c0788555146102b1578063c1dfa0bb146102ee578063f2fde38b14610317578063f7c618c114610340576100dd565b80638da5cb5b146102205780639e447fc61461024b578063baa51f8614610274576100dd565b8063544c465c116100bb578063544c465c146101785780636eb604e0146101b5578063715018a6146101de5780637b0a47ee146101f5576100dd565b80630962ef79146100e2578063150b7a02146100fe5780631adc100c1461013b575b600080fd5b6100fc60048036038101906100f79190610d8b565b61036b565b005b34801561010a57600080fd5b5061012560048036038101906101209190610e7b565b610517565b6040516101329190610f3e565b60405180910390f35b34801561014757600080fd5b50610162600480360381019061015d9190610d8b565b61052c565b60405161016f9190610f68565b60405180910390f35b34801561018457600080fd5b5061019f600480360381019061019a9190610d8b565b610544565b6040516101ac9190610f68565b60405180910390f35b3480156101c157600080fd5b506101dc60048036038101906101d79190610d8b565b61058c565b005b3480156101ea57600080fd5b506101f361087d565b005b34801561020157600080fd5b5061020a610891565b6040516102179190610f68565b60405180910390f35b34801561022c57600080fd5b50610235610897565b6040516102429190610f92565b60405180910390f35b34801561025757600080fd5b50610272600480360381019061026d9190610d8b565b6108c0565b005b34801561028057600080fd5b5061029b60048036038101906102969190610d8b565b6108d2565b6040516102a89190610fc8565b60405180910390f35b3480156102bd57600080fd5b506102d860048036038101906102d39190610d8b565b6108fc565b6040516102e59190610fc8565b60405180910390f35b3480156102fa57600080fd5b5061031560048036038101906103109190610d8b565b61091c565b005b34801561032357600080fd5b5061033e60048036038101906103399190610fe3565b610b2b565b005b34801561034c57600080fd5b50610355610baf565b604051610362919061106f565b60405180910390f35b3373ffffffffffffffffffffffffffffffffffffffff166004600083815260200190815260200160002060009054906101000a900473ffffffffffffffffffffffffffffffffffffffff1673ffffffffffffffffffffffffffffffffffffffff16146103d657600080fd5b60003073ffffffffffffffffffffffffffffffffffffffff1663544c465c836040518263ffffffff1660e01b81526004016104119190610f68565b60206040518083038186803b15801561042957600080fd5b505afa15801561043d573d6000803e3d6000fd5b505050506040513d601f19601f82011682018060405250810190610461919061109f565b9050600260009054906101000a900473ffffffffffffffffffffffffffffffffffffffff1673ffffffffffffffffffffffffffffffffffffffff1663a9059cbb33836040518363ffffffff1660e01b81526004016104c09291906110cc565b602060405180830381600087803b1580156104da57600080fd5b505af11580156104ee573d6000803e3d6000fd5b505050506040513d601f19601f820116820180604052508101906105129190611121565b505050565b600063150b7a0260e01b905095945050505050565b60056020528060005260406000206000915090505481565b60008061056d600560008581526020019081526020016000205442610bd590919063ffffffff16565b905061058460065482610beb90919063ffffffff16565b915050919050565b3373ffffffffffffffffffffffffffffffffffffffff16600160009054906101000a900473ffffffffffffffffffffffffffffffffffffffff1673ffffffffffffffffffffffffffffffffffffffff16636352211e836040518263ffffffff1660e01b81526004016105fe9190610f68565b60206040518083038186803b15801561061657600080fd5b505afa15801561062a573d6000803e3d6000fd5b505050506040513d601f19601f8201168201806040525081019061064e9190611163565b73ffffffffffffffffffffffffffffffffffffffff16146106a4576040517f08c379a000000000000000000000000000000000000000000000000000000000815260040161069b906111ed565b60405180910390fd5b6003600082815260200190815260200160002060009054906101000a900460ff1615610705576040517f08c379a00000000000000000000000000000000000000000000000000000000081526004016106fc90611259565b60405180910390fd5b60016003600083815260200190815260200160002060006101000a81548160ff021916908315150217905550336004600083815260200190815260200160002060006101000a81548173ffffffffffffffffffffffffffffffffffffffff021916908373ffffffffffffffffffffffffffffffffffffffff160217905550426005600083815260200190815260200160002081905550600160009054906101000a900473ffffffffffffffffffffffffffffffffffffffff1673ffffffffffffffffffffffffffffffffffffffff166342842e0e3330846040518463ffffffff1660e01b81526004016107fa93929190611279565b600060405180830381600087803b15801561081457600080fd5b505af1158015610828573d6000803e3d6000fd5b505050503373ffffffffffffffffffffffffffffffffffffffff167f0cda5cf38f6592672c7b4a22ff3d50874d1913629bd5ffedc27b7b40503d60fd826040516108729190610f68565b60405180910390a250565b610885610c01565b61088f6000610c7f565b565b60065481565b60008060009054906101000a900473ffffffffffffffffffffffffffffffffffffffff16905090565b6108c8610c01565b8060068190555050565b60006003600083815260200190815260200160002060009054906101000a900460ff169050919050565b60036020528060005260406000206000915054906101000a900460ff1681565b6003600082815260200190815260200160002060009054906101000a900460ff1661097c576040517f08c379a0000000000000000000000000000000000000000000000000000000008152600401610973906112fc565b60405180910390fd5b3373ffffffffffffffffffffffffffffffffffffffff166004600083815260200190815260200160002060009054906101000a900473ffffffffffffffffffffffffffffffffffffffff1673ffffffffffffffffffffffffffffffffffffffff1614610a1d576040517f08c379a0000000000000000000000000000000000000000000000000000000008152600401610a1490611368565b60405180910390fd5b60006003600083815260200190815260200160002060006101000a81548160ff021916908315150217905550600160009054906101000a900473ffffffffffffffffffffffffffffffffffffffff1673ffffffffffffffffffffffffffffffffffffffff166323b872dd3033846040518463ffffffff1660e01b8152600401610aa893929190611279565b600060405180830381600087803b158015610ac257600080fd5b505af1158015610ad6573d6000803e3d6000fd5b505050503373ffffffffffffffffffffffffffffffffffffffff167f271ed0c37be3f8f9995b73285229a62d4a92eacde24603406c9b76e864385eb882604051610b209190610f68565b60405180910390a250565b610b33610c01565b600073ffffffffffffffffffffffffffffffffffffffff168173ffffffffffffffffffffffffffffffffffffffff161415610ba3576040517f08c379a0000000000000000000000000000000000000000000000000000000008152600401610b9a906113fa565b60405180910390fd5b610bac81610c7f565b50565b600260009054906101000a900473ffffffffffffffffffffffffffffffffffffffff1681565b60008183610be39190611449565b905092915050565b60008183610bf9919061147d565b905092915050565b610c09610d43565b73ffffffffffffffffffffffffffffffffffffffff16610c27610897565b73ffffffffffffffffffffffffffffffffffffffff1614610c7d576040517f08c379a0000000000000000000000000000000000000000000000000000000008152600401610c7490611523565b60405180910390fd5b565b60008060009054906101000a900473ffffffffffffffffffffffffffffffffffffffff169050816000806101000a81548173ffffffffffffffffffffffffffffffffffffffff021916908373ffffffffffffffffffffffffffffffffffffffff1602179055508173ffffffffffffffffffffffffffffffffffffffff168173ffffffffffffffffffffffffffffffffffffffff167f8be0079c531659141344cd1fd0a4f28419497f9722a3daafe3b4186f6b6457e060405160405180910390a35050565b600033905090565b600080fd5b600080fd5b6000819050919050565b610d6881610d55565b8114610d7357600080fd5b50565b600081359050610d8581610d5f565b92915050565b600060208284031215610da157610da0610d4b565b5b6000610daf84828501610d76565b91505092915050565b600073ffffffffffffffffffffffffffffffffffffffff82169050919050565b6000610de382610db8565b9050919050565b610df381610dd8565b8114610dfe57600080fd5b50565b600081359050610e1081610dea565b92915050565b600080fd5b600080fd5b600080fd5b60008083601f840112610e3b57610e3a610e16565b5b8235905067ffffffffffffffff811115610e5857610e57610e1b565b5b602083019150836001820283011115610e7457610e73610e20565b5b9250929050565b600080600080600060808688031215610e9757610e96610d4b565b5b6000610ea588828901610e01565b9550506020610eb688828901610e01565b9450506040610ec788828901610d76565b935050606086013567ffffffffffffffff811115610ee857610ee7610d50565b5b610ef488828901610e25565b92509250509295509295909350565b60007fffffffff0000000000000000000000000000000000000000000000000000000082169050919050565b610f3881610f03565b82525050565b6000602082019050610f536000830184610f2f565b92915050565b610f6281610d55565b82525050565b6000602082019050610f7d6000830184610f59565b92915050565b610f8c81610dd8565b82525050565b6000602082019050610fa76000830184610f83565b92915050565b60008115159050919050565b610fc281610fad565b82525050565b6000602082019050610fdd6000830184610fb9565b92915050565b600060208284031215610ff957610ff8610d4b565b5b600061100784828501610e01565b91505092915050565b6000819050919050565b600061103561103061102b84610db8565b611010565b610db8565b9050919050565b60006110478261101a565b9050919050565b60006110598261103c565b9050919050565b6110698161104e565b82525050565b60006020820190506110846000830184611060565b92915050565b60008151905061109981610d5f565b92915050565b6000602082840312156110b5576110b4610d4b565b5b60006110c38482850161108a565b91505092915050565b60006040820190506110e16000830185610f83565b6110ee6020830184610f59565b9392505050565b6110fe81610fad565b811461110957600080fd5b50565b60008151905061111b816110f5565b92915050565b60006020828403121561113757611136610d4b565b5b60006111458482850161110c565b91505092915050565b60008151905061115d81610dea565b92915050565b60006020828403121561117957611178610d4b565b5b60006111878482850161114e565b91505092915050565b600082825260208201905092915050565b7f4e6f7420746865206f776e657200000000000000000000000000000000000000600082015250565b60006111d7600d83611190565b91506111e2826111a1565b602082019050919050565b60006020820190508181036000830152611206816111ca565b9050919050565b7f546f6b656e20616c7265616479207374616b6564000000000000000000000000600082015250565b6000611243601483611190565b915061124e8261120d565b602082019050919050565b6000602082019050818103600083015261127281611236565b9050919050565b600060608201905061128e6000830186610f83565b61129b6020830185610f83565b6112a86040830184610f59565b949350505050565b7f546f6b656e206973206e6f74207374616b656400000000000000000000000000600082015250565b60006112e6601383611190565b91506112f1826112b0565b602082019050919050565b60006020820190508181036000830152611315816112d9565b9050919050565b7f596f7520646964206e6f7420646573706f7369742074686973204e4654000000600082015250565b6000611352601d83611190565b915061135d8261131c565b602082019050919050565b6000602082019050818103600083015261138181611345565b9050919050565b7f4f776e61626c653a206e6577206f776e657220697320746865207a65726f206160008201527f6464726573730000000000000000000000000000000000000000000000000000602082015250565b60006113e4602683611190565b91506113ef82611388565b604082019050919050565b60006020820190508181036000830152611413816113d7565b9050919050565b7f4e487b7100000000000000000000000000000000000000000000000000000000600052601160045260246000fd5b600061145482610d55565b915061145f83610d55565b9250828210156114725761147161141a565b5b828203905092915050565b600061148882610d55565b915061149383610d55565b9250817fffffffffffffffffffffffffffffffffffffffffffffffffffffffffffffffff04831182151516156114cc576114cb61141a565b5b828202905092915050565b7f4f776e61626c653a2063616c6c6572206973206e6f7420746865206f776e6572600082015250565b600061150d602083611190565b9150611518826114d7565b602082019050919050565b6000602082019050818103600083015261153c81611500565b905091905056fea2646970667358221220ae53dc93f6436ed7b186a58510da9dc47fd6f1e2b7b6b62d8fe7e210adc9312564736f6c63430008090033",
  "linkReferences": {},
  "deployedLinkReferences": {}
}