{
  "_format": "hh-sol-artifact-1",
  "contractName": "NFTStaking",
  "sourceName": "contracts/NFTStaking.sol",
  "abi": [
    {
      "inputs": [
        {
          "internalType": "address",
          "name": "_nftAddress",
          "type": "address"
        }
      ],
      "stateMutability": "nonpayable",
      "type": "constructor"
    },
    {
      "anonymous": false,
      "inputs": [
        {
          "indexed": true,
          "internalType": "address",
          "name": "user",
          "type": "address"
        },
        {
          "indexed": false,
          "internalType": "uint256",
          "name": "tokenId",
          "type": "uint256"
        }
      ],
      "name": "NFTStaked",
      "type": "event"
    },
    {
      "anonymous": false,
      "inputs": [
        {
          "indexed": true,
          "internalType": "address",
          "name": "previousOwner",
          "type": "address"
        },
        {
          "indexed": true,
          "internalType": "address",
          "name": "newOwner",
          "type": "address"
        }
      ],
      "name": "OwnershipTransferred",
      "type": "event"
    },
    {
      "inputs": [
        {
          "internalType": "uint256",
          "name": "tokenId",
          "type": "uint256"
        }
      ],
      "name": "isStaked",
      "outputs": [
        {
          "internalType": "bool",
          "name": "",
          "type": "bool"
        }
      ],
      "stateMutability": "view",
      "type": "function"
    },
    {
      "inputs": [],
      "name": "nft",
      "outputs": [
        {
          "internalType": "contract IERC721",
          "name": "",
          "type": "address"
        }
      ],
      "stateMutability": "view",
      "type": "function"
    },
    {
      "inputs": [
        {
          "internalType": "address",
          "name": "",
          "type": "address"
        },
        {
          "internalType": "address",
          "name": "",
          "type": "address"
        },
        {
          "internalType": "uint256",
          "name": "",
          "type": "uint256"
        },
        {
          "internalType": "bytes",
          "name": "",
          "type": "bytes"
        }
      ],
      "name": "onERC721Received",
      "outputs": [
        {
          "internalType": "bytes4",
          "name": "",
          "type": "bytes4"
        }
      ],
      "stateMutability": "pure",
      "type": "function"
    },
    {
      "inputs": [],
      "name": "owner",
      "outputs": [
        {
          "internalType": "address",
          "name": "",
          "type": "address"
        }
      ],
      "stateMutability": "view",
      "type": "function"
    },
    {
      "inputs": [],
      "name": "renounceOwnership",
      "outputs": [],
      "stateMutability": "nonpayable",
      "type": "function"
    },
    {
      "inputs": [
        {
          "internalType": "uint256",
          "name": "tokenId",
          "type": "uint256"
        }
      ],
      "name": "stakeNFT",
      "outputs": [],
      "stateMutability": "nonpayable",
      "type": "function"
    },
    {
      "inputs": [
        {
          "internalType": "uint256",
          "name": "",
          "type": "uint256"
        }
      ],
      "name": "stakedTokens",
      "outputs": [
        {
          "internalType": "bool",
          "name": "",
          "type": "bool"
        }
      ],
      "stateMutability": "view",
      "type": "function"
    },
    {
      "inputs": [
        {
          "internalType": "address",
          "name": "newOwner",
          "type": "address"
        }
      ],
      "name": "transferOwnership",
      "outputs": [],
      "stateMutability": "nonpayable",
      "type": "function"
    },
    {
      "inputs": [
        {
          "internalType": "uint256",
          "name": "tokenId",
          "type": "uint256"
        }
      ],
      "name": "unstakeNFT",
      "outputs": [],
      "stateMutability": "nonpayable",
      "type": "function"
    }
  ],
  "bytecode": "0x60806040523480156200001157600080fd5b50604051620011fb380380620011fb8339818101604052810190620000379190620001d5565b620000576200004b6200009f60201b60201c565b620000a760201b60201c565b80600160006101000a81548173ffffffffffffffffffffffffffffffffffffffff021916908373ffffffffffffffffffffffffffffffffffffffff1602179055505062000207565b600033905090565b60008060009054906101000a900473ffffffffffffffffffffffffffffffffffffffff169050816000806101000a81548173ffffffffffffffffffffffffffffffffffffffff021916908373ffffffffffffffffffffffffffffffffffffffff1602179055508173ffffffffffffffffffffffffffffffffffffffff168173ffffffffffffffffffffffffffffffffffffffff167f8be0079c531659141344cd1fd0a4f28419497f9722a3daafe3b4186f6b6457e060405160405180910390a35050565b600080fd5b600073ffffffffffffffffffffffffffffffffffffffff82169050919050565b60006200019d8262000170565b9050919050565b620001af8162000190565b8114620001bb57600080fd5b50565b600081519050620001cf81620001a4565b92915050565b600060208284031215620001ee57620001ed6200016b565b5b6000620001fe84828501620001be565b91505092915050565b610fe480620002176000396000f3fe608060405234801561001057600080fd5b50600436106100935760003560e01c80638da5cb5b116100665780638da5cb5b1461010c578063baa51f861461012a578063c07885551461015a578063c1dfa0bb1461018a578063f2fde38b146101a657610093565b8063150b7a021461009857806347ccca02146100c85780636eb604e0146100e6578063715018a614610102575b600080fd5b6100b260048036038101906100ad9190610a14565b6101c2565b6040516100bf9190610ad7565b60405180910390f35b6100d06101d7565b6040516100dd9190610b51565b60405180910390f35b61010060048036038101906100fb9190610b6c565b6101fd565b005b61010a610484565b005b610114610498565b6040516101219190610ba8565b60405180910390f35b610144600480360381019061013f9190610b6c565b6104c1565b6040516101519190610bde565b60405180910390f35b610174600480360381019061016f9190610b6c565b6104eb565b6040516101819190610bde565b60405180910390f35b6101a4600480360381019061019f9190610b6c565b61050b565b005b6101c060048036038101906101bb9190610bf9565b610743565b005b600063150b7a0260e01b905095945050505050565b600160009054906101000a900473ffffffffffffffffffffffffffffffffffffffff1681565b3373ffffffffffffffffffffffffffffffffffffffff16600160009054906101000a900473ffffffffffffffffffffffffffffffffffffffff1673ffffffffffffffffffffffffffffffffffffffff16636352211e836040518263ffffffff1660e01b815260040161026f9190610c35565b60206040518083038186803b15801561028757600080fd5b505afa15801561029b573d6000803e3d6000fd5b505050506040513d601f19601f820116820180604052508101906102bf9190610c65565b73ffffffffffffffffffffffffffffffffffffffff1614610315576040517f08c379a000000000000000000000000000000000000000000000000000000000815260040161030c90610cef565b60405180910390fd5b6002600082815260200190815260200160002060009054906101000a900460ff1615610376576040517f08c379a000000000000000000000000000000000000000000000000000000000815260040161036d90610d5b565b60405180910390fd5b600160009054906101000a900473ffffffffffffffffffffffffffffffffffffffff1673ffffffffffffffffffffffffffffffffffffffff166342842e0e3330846040518463ffffffff1660e01b81526004016103d593929190610d7b565b600060405180830381600087803b1580156103ef57600080fd5b505af1158015610403573d6000803e3d6000fd5b5050505060016002600083815260200190815260200160002060006101000a81548160ff0219169083151502179055503373ffffffffffffffffffffffffffffffffffffffff167f0cda5cf38f6592672c7b4a22ff3d50874d1913629bd5ffedc27b7b40503d60fd826040516104799190610c35565b60405180910390a250565b61048c6107c7565b6104966000610845565b565b60008060009054906101000a900473ffffffffffffffffffffffffffffffffffffffff16905090565b60006002600083815260200190815260200160002060009054906101000a900460ff169050919050565b60026020528060005260406000206000915054906101000a900460ff1681565b6002600082815260200190815260200160002060009054906101000a900460ff1661056b576040517f08c379a000000000000000000000000000000000000000000000000000000000815260040161056290610dfe565b60405180910390fd5b3073ffffffffffffffffffffffffffffffffffffffff16600160009054906101000a900473ffffffffffffffffffffffffffffffffffffffff1673ffffffffffffffffffffffffffffffffffffffff16636352211e836040518263ffffffff1660e01b81526004016105dd9190610c35565b60206040518083038186803b1580156105f557600080fd5b505afa158015610609573d6000803e3d6000fd5b505050506040513d601f19601f8201168201806040525081019061062d9190610c65565b73ffffffffffffffffffffffffffffffffffffffff1614610683576040517f08c379a000000000000000000000000000000000000000000000000000000000815260040161067a90610e90565b60405180910390fd5b600160009054906101000a900473ffffffffffffffffffffffffffffffffffffffff1673ffffffffffffffffffffffffffffffffffffffff166323b872dd3033846040518463ffffffff1660e01b81526004016106e293929190610d7b565b600060405180830381600087803b1580156106fc57600080fd5b505af1158015610710573d6000803e3d6000fd5b5050505060006002600083815260200190815260200160002060006101000a81548160ff02191690831515021790555050565b61074b6107c7565b600073ffffffffffffffffffffffffffffffffffffffff168173ffffffffffffffffffffffffffffffffffffffff1614156107bb576040517f08c379a00000000000000000000000000000000000000000000000000000000081526004016107b290610f22565b60405180910390fd5b6107c481610845565b50565b6107cf610909565b73ffffffffffffffffffffffffffffffffffffffff166107ed610498565b73ffffffffffffffffffffffffffffffffffffffff1614610843576040517f08c379a000000000000000000000000000000000000000000000000000000000815260040161083a90610f8e565b60405180910390fd5b565b60008060009054906101000a900473ffffffffffffffffffffffffffffffffffffffff169050816000806101000a81548173ffffffffffffffffffffffffffffffffffffffff021916908373ffffffffffffffffffffffffffffffffffffffff1602179055508173ffffffffffffffffffffffffffffffffffffffff168173ffffffffffffffffffffffffffffffffffffffff167f8be0079c531659141344cd1fd0a4f28419497f9722a3daafe3b4186f6b6457e060405160405180910390a35050565b600033905090565b600080fd5b600080fd5b600073ffffffffffffffffffffffffffffffffffffffff82169050919050565b60006109468261091b565b9050919050565b6109568161093b565b811461096157600080fd5b50565b6000813590506109738161094d565b92915050565b6000819050919050565b61098c81610979565b811461099757600080fd5b50565b6000813590506109a981610983565b92915050565b600080fd5b600080fd5b600080fd5b60008083601f8401126109d4576109d36109af565b5b8235905067ffffffffffffffff8111156109f1576109f06109b4565b5b602083019150836001820283011115610a0d57610a0c6109b9565b5b9250929050565b600080600080600060808688031215610a3057610a2f610911565b5b6000610a3e88828901610964565b9550506020610a4f88828901610964565b9450506040610a608882890161099a565b935050606086013567ffffffffffffffff811115610a8157610a80610916565b5b610a8d888289016109be565b92509250509295509295909350565b60007fffffffff0000000000000000000000000000000000000000000000000000000082169050919050565b610ad181610a9c565b82525050565b6000602082019050610aec6000830184610ac8565b92915050565b6000819050919050565b6000610b17610b12610b0d8461091b565b610af2565b61091b565b9050919050565b6000610b2982610afc565b9050919050565b6000610b3b82610b1e565b9050919050565b610b4b81610b30565b82525050565b6000602082019050610b666000830184610b42565b92915050565b600060208284031215610b8257610b81610911565b5b6000610b908482850161099a565b91505092915050565b610ba28161093b565b82525050565b6000602082019050610bbd6000830184610b99565b92915050565b60008115159050919050565b610bd881610bc3565b82525050565b6000602082019050610bf36000830184610bcf565b92915050565b600060208284031215610c0f57610c0e610911565b5b6000610c1d84828501610964565b91505092915050565b610c2f81610979565b82525050565b6000602082019050610c4a6000830184610c26565b92915050565b600081519050610c5f8161094d565b92915050565b600060208284031215610c7b57610c7a610911565b5b6000610c8984828501610c50565b91505092915050565b600082825260208201905092915050565b7f4e6f7420746865206f776e657200000000000000000000000000000000000000600082015250565b6000610cd9600d83610c92565b9150610ce482610ca3565b602082019050919050565b60006020820190508181036000830152610d0881610ccc565b9050919050565b7f546f6b656e20616c7265616479207374616b6564000000000000000000000000600082015250565b6000610d45601483610c92565b9150610d5082610d0f565b602082019050919050565b60006020820190508181036000830152610d7481610d38565b9050919050565b6000606082019050610d906000830186610b99565b610d9d6020830185610b99565b610daa6040830184610c26565b949350505050565b7f546f6b656e206973206e6f74207374616b656400000000000000000000000000600082015250565b6000610de8601383610c92565b9150610df382610db2565b602082019050919050565b60006020820190508181036000830152610e1781610ddb565b9050919050565b7f436f6e7472616374206973206e6f7420746865206f776e6572206f662074686960008201527f73204e4654000000000000000000000000000000000000000000000000000000602082015250565b6000610e7a602583610c92565b9150610e8582610e1e565b604082019050919050565b60006020820190508181036000830152610ea981610e6d565b9050919050565b7f4f776e61626c653a206e6577206f776e657220697320746865207a65726f206160008201527f6464726573730000000000000000000000000000000000000000000000000000602082015250565b6000610f0c602683610c92565b9150610f1782610eb0565b604082019050919050565b60006020820190508181036000830152610f3b81610eff565b9050919050565b7f4f776e61626c653a2063616c6c6572206973206e6f7420746865206f776e6572600082015250565b6000610f78602083610c92565b9150610f8382610f42565b602082019050919050565b60006020820190508181036000830152610fa781610f6b565b905091905056fea26469706673582212205e3ee29ad9af5b5869e1045b9e334dc23fdc86b8fdcccb2bd162f1beeb4f727f64736f6c63430008090033",
  "linkReferences": {},
  "deployedLinkReferences": {}
}