{
  "_format": "hh-sol-artifact-1",
  "contractName": "MyNFT",
  "sourceName": "contracts/MyNFT.sol",
  "abi": [
    {
      "inputs": [
        {
          "internalType": "string",
          "name": "_name",
          "type": "string"
        },
        {
          "internalType": "string",
          "name": "_symbol",
          "type": "string"
        },
        {
          "internalType": "uint256",
          "name": "_cost",
          "type": "uint256"
        },
        {
          "internalType": "uint256",
          "name": "_maxSupply",
          "type": "uint256"
        },
        {
          "internalType": "uint256",
          "name": "_allowMintingOn",
          "type": "uint256"
        },
        {
          "internalType": "string",
          "name": "_baseURI",
          "type": "string"
        }
      ],
      "stateMutability": "nonpayable",
      "type": "constructor"
    },
    {
      "anonymous": false,
      "inputs": [
        {
          "indexed": true,
          "internalType": "address",
          "name": "owner",
          "type": "address"
        },
        {
          "indexed": true,
          "internalType": "address",
          "name": "approved",
          "type": "address"
        },
        {
          "indexed": true,
          "internalType": "uint256",
          "name": "tokenId",
          "type": "uint256"
        }
      ],
      "name": "Approval",
      "type": "event"
    },
    {
      "anonymous": false,
      "inputs": [
        {
          "indexed": true,
          "internalType": "address",
          "name": "owner",
          "type": "address"
        },
        {
          "indexed": true,
          "internalType": "address",
          "name": "operator",
          "type": "address"
        },
        {
          "indexed": false,
          "internalType": "bool",
          "name": "approved",
          "type": "bool"
        }
      ],
      "name": "ApprovalForAll",
      "type": "event"
    },
    {
      "anonymous": false,
      "inputs": [
        {
          "indexed": true,
          "internalType": "address",
          "name": "previousOwner",
          "type": "address"
        },
        {
          "indexed": true,
          "internalType": "address",
          "name": "newOwner",
          "type": "address"
        }
      ],
      "name": "OwnershipTransferred",
      "type": "event"
    },
    {
      "anonymous": false,
      "inputs": [
        {
          "indexed": true,
          "internalType": "address",
          "name": "from",
          "type": "address"
        },
        {
          "indexed": true,
          "internalType": "address",
          "name": "to",
          "type": "address"
        },
        {
          "indexed": true,
          "internalType": "uint256",
          "name": "tokenId",
          "type": "uint256"
        }
      ],
      "name": "Transfer",
      "type": "event"
    },
    {
      "inputs": [
        {
          "internalType": "address",
          "name": "_address",
          "type": "address"
        }
      ],
      "name": "addAddress",
      "outputs": [],
      "stateMutability": "nonpayable",
      "type": "function"
    },
    {
      "inputs": [],
      "name": "allowMintingOn",
      "outputs": [
        {
          "internalType": "uint256",
          "name": "",
          "type": "uint256"
        }
      ],
      "stateMutability": "view",
      "type": "function"
    },
    {
      "inputs": [
        {
          "internalType": "address",
          "name": "to",
          "type": "address"
        },
        {
          "internalType": "uint256",
          "name": "tokenId",
          "type": "uint256"
        }
      ],
      "name": "approve",
      "outputs": [],
      "stateMutability": "nonpayable",
      "type": "function"
    },
    {
      "inputs": [
        {
          "internalType": "address",
          "name": "owner",
          "type": "address"
        }
      ],
      "name": "balanceOf",
      "outputs": [
        {
          "internalType": "uint256",
          "name": "",
          "type": "uint256"
        }
      ],
      "stateMutability": "view",
      "type": "function"
    },
    {
      "inputs": [],
      "name": "baseURI",
      "outputs": [
        {
          "internalType": "string",
          "name": "",
          "type": "string"
        }
      ],
      "stateMutability": "view",
      "type": "function"
    },
    {
      "inputs": [],
      "name": "cost",
      "outputs": [
        {
          "internalType": "uint256",
          "name": "",
          "type": "uint256"
        }
      ],
      "stateMutability": "view",
      "type": "function"
    },
    {
      "inputs": [
        {
          "internalType": "uint256",
          "name": "tokenId",
          "type": "uint256"
        }
      ],
      "name": "getApproved",
      "outputs": [
        {
          "internalType": "address",
          "name": "",
          "type": "address"
        }
      ],
      "stateMutability": "view",
      "type": "function"
    },
    {
      "inputs": [
        {
          "internalType": "address",
          "name": "owner",
          "type": "address"
        },
        {
          "internalType": "address",
          "name": "operator",
          "type": "address"
        }
      ],
      "name": "isApprovedForAll",
      "outputs": [
        {
          "internalType": "bool",
          "name": "",
          "type": "bool"
        }
      ],
      "stateMutability": "view",
      "type": "function"
    },
    {
      "inputs": [
        {
          "internalType": "address",
          "name": "_address",
          "type": "address"
        }
      ],
      "name": "isOnList",
      "outputs": [
        {
          "internalType": "bool",
          "name": "",
          "type": "bool"
        }
      ],
      "stateMutability": "view",
      "type": "function"
    },
    {
      "inputs": [],
      "name": "maxSupply",
      "outputs": [
        {
          "internalType": "uint256",
          "name": "",
          "type": "uint256"
        }
      ],
      "stateMutability": "view",
      "type": "function"
    },
    {
      "inputs": [
        {
          "internalType": "address",
          "name": "to",
          "type": "address"
        },
        {
          "internalType": "uint256",
          "name": "tokenId",
          "type": "uint256"
        }
      ],
      "name": "mint",
      "outputs": [],
      "stateMutability": "nonpayable",
      "type": "function"
    },
    {
      "inputs": [],
      "name": "name",
      "outputs": [
        {
          "internalType": "string",
          "name": "",
          "type": "string"
        }
      ],
      "stateMutability": "view",
      "type": "function"
    },
    {
      "inputs": [],
      "name": "owner",
      "outputs": [
        {
          "internalType": "address",
          "name": "",
          "type": "address"
        }
      ],
      "stateMutability": "view",
      "type": "function"
    },
    {
      "inputs": [
        {
          "internalType": "uint256",
          "name": "tokenId",
          "type": "uint256"
        }
      ],
      "name": "ownerOf",
      "outputs": [
        {
          "internalType": "address",
          "name": "",
          "type": "address"
        }
      ],
      "stateMutability": "view",
      "type": "function"
    },
    {
      "inputs": [],
      "name": "renounceOwnership",
      "outputs": [],
      "stateMutability": "nonpayable",
      "type": "function"
    },
    {
      "inputs": [
        {
          "internalType": "address",
          "name": "from",
          "type": "address"
        },
        {
          "internalType": "address",
          "name": "to",
          "type": "address"
        },
        {
          "internalType": "uint256",
          "name": "tokenId",
          "type": "uint256"
        }
      ],
      "name": "safeTransferFrom",
      "outputs": [],
      "stateMutability": "nonpayable",
      "type": "function"
    },
    {
      "inputs": [
        {
          "internalType": "address",
          "name": "from",
          "type": "address"
        },
        {
          "internalType": "address",
          "name": "to",
          "type": "address"
        },
        {
          "internalType": "uint256",
          "name": "tokenId",
          "type": "uint256"
        },
        {
          "internalType": "bytes",
          "name": "data",
          "type": "bytes"
        }
      ],
      "name": "safeTransferFrom",
      "outputs": [],
      "stateMutability": "nonpayable",
      "type": "function"
    },
    {
      "inputs": [
        {
          "internalType": "address",
          "name": "operator",
          "type": "address"
        },
        {
          "internalType": "bool",
          "name": "approved",
          "type": "bool"
        }
      ],
      "name": "setApprovalForAll",
      "outputs": [],
      "stateMutability": "nonpayable",
      "type": "function"
    },
    {
      "inputs": [
        {
          "internalType": "bytes4",
          "name": "interfaceId",
          "type": "bytes4"
        }
      ],
      "name": "supportsInterface",
      "outputs": [
        {
          "internalType": "bool",
          "name": "",
          "type": "bool"
        }
      ],
      "stateMutability": "view",
      "type": "function"
    },
    {
      "inputs": [],
      "name": "symbol",
      "outputs": [
        {
          "internalType": "string",
          "name": "",
          "type": "string"
        }
      ],
      "stateMutability": "view",
      "type": "function"
    },
    {
      "inputs": [
        {
          "internalType": "uint256",
          "name": "index",
          "type": "uint256"
        }
      ],
      "name": "tokenByIndex",
      "outputs": [
        {
          "internalType": "uint256",
          "name": "",
          "type": "uint256"
        }
      ],
      "stateMutability": "view",
      "type": "function"
    },
    {
      "inputs": [
        {
          "internalType": "address",
          "name": "owner",
          "type": "address"
        },
        {
          "internalType": "uint256",
          "name": "index",
          "type": "uint256"
        }
      ],
      "name": "tokenOfOwnerByIndex",
      "outputs": [
        {
          "internalType": "uint256",
          "name": "",
          "type": "uint256"
        }
      ],
      "stateMutability": "view",
      "type": "function"
    },
    {
      "inputs": [
        {
          "internalType": "uint256",
          "name": "tokenId",
          "type": "uint256"
        }
      ],
      "name": "tokenURI",
      "outputs": [
        {
          "internalType": "string",
          "name": "",
          "type": "string"
        }
      ],
      "stateMutability": "view",
      "type": "function"
    },
    {
      "inputs": [],
      "name": "totalSupply",
      "outputs": [
        {
          "internalType": "uint256",
          "name": "",
          "type": "uint256"
        }
      ],
      "stateMutability": "view",
      "type": "function"
    },
    {
      "inputs": [
        {
          "internalType": "address",
          "name": "from",
          "type": "address"
        },
        {
          "internalType": "address",
          "name": "to",
          "type": "address"
        },
        {
          "internalType": "uint256",
          "name": "tokenId",
          "type": "uint256"
        }
      ],
      "name": "transferFrom",
      "outputs": [],
      "stateMutability": "nonpayable",
      "type": "function"
    },
    {
      "inputs": [
        {
          "internalType": "address",
          "name": "newOwner",
          "type": "address"
        }
      ],
      "name": "transferOwnership",
      "outputs": [],
      "stateMutability": "nonpayable",
      "type": "function"
    }
  ],
  "bytecode": "0x60806040523480156200001157600080fd5b5060405162003a4c38038062003a4c83398181016040528101906200003791906200041d565b858581600090805190602001906200005192919062000195565b5080600190805190602001906200006a92919062000195565b5050506200008d62000081620000c760201b60201c565b620000cf60201b60201c565b83600b8190555082600c8190555081600d8190555080600e9080519060200190620000ba92919062000195565b505050505050506200057b565b600033905090565b6000600a60009054906101000a900473ffffffffffffffffffffffffffffffffffffffff16905081600a60006101000a81548173ffffffffffffffffffffffffffffffffffffffff021916908373ffffffffffffffffffffffffffffffffffffffff1602179055508173ffffffffffffffffffffffffffffffffffffffff168173ffffffffffffffffffffffffffffffffffffffff167f8be0079c531659141344cd1fd0a4f28419497f9722a3daafe3b4186f6b6457e060405160405180910390a35050565b828054620001a39062000545565b90600052602060002090601f016020900481019282620001c7576000855562000213565b82601f10620001e257805160ff191683800117855562000213565b8280016001018555821562000213579182015b8281111562000212578251825591602001919060010190620001f5565b5b50905062000222919062000226565b5090565b5b808211156200024157600081600090555060010162000227565b5090565b6000604051905090565b600080fd5b600080fd5b600080fd5b600080fd5b6000601f19601f8301169050919050565b7f4e487b7100000000000000000000000000000000000000000000000000000000600052604160045260246000fd5b620002ae8262000263565b810181811067ffffffffffffffff82111715620002d057620002cf62000274565b5b80604052505050565b6000620002e562000245565b9050620002f38282620002a3565b919050565b600067ffffffffffffffff82111562000316576200031562000274565b5b620003218262000263565b9050602081019050919050565b60005b838110156200034e57808201518184015260208101905062000331565b838111156200035e576000848401525b50505050565b60006200037b6200037584620002f8565b620002d9565b9050828152602081018484840111156200039a57620003996200025e565b5b620003a78482856200032e565b509392505050565b600082601f830112620003c757620003c662000259565b5b8151620003d984826020860162000364565b91505092915050565b6000819050919050565b620003f781620003e2565b81146200040357600080fd5b50565b6000815190506200041781620003ec565b92915050565b60008060008060008060c087890312156200043d576200043c6200024f565b5b600087015167ffffffffffffffff8111156200045e576200045d62000254565b5b6200046c89828a01620003af565b965050602087015167ffffffffffffffff81111562000490576200048f62000254565b5b6200049e89828a01620003af565b9550506040620004b189828a0162000406565b9450506060620004c489828a0162000406565b9350506080620004d789828a0162000406565b92505060a087015167ffffffffffffffff811115620004fb57620004fa62000254565b5b6200050989828a01620003af565b9150509295509295509295565b7f4e487b7100000000000000000000000000000000000000000000000000000000600052602260045260246000fd5b600060028204905060018216806200055e57607f821691505b6020821081141562000575576200057462000516565b5b50919050565b6134c1806200058b6000396000f3fe608060405234801561001057600080fd5b506004361061018e5760003560e01c80636352211e116100de57806395d89b4111610097578063c87b56dd11610071578063c87b56dd14610483578063d5abeb01146104b3578063e985e9c5146104d1578063f2fde38b146105015761018e565b806395d89b411461042d578063a22cb4651461044b578063b88d4fde146104675761018e565b80636352211e146103575780636c0360eb1461038757806370a08231146103a5578063715018a6146103d55780637330daac146103df5780638da5cb5b1461040f5761018e565b806318160ddd1161014b57806338eada1c1161012557806338eada1c146102d357806340c10f19146102ef57806342842e0e1461030b5780634f6ccce7146103275761018e565b806318160ddd1461026957806323b872dd146102875780632f745c59146102a35761018e565b8063014679961461019357806301ffc9a7146101b157806306fdde03146101e1578063081812fc146101ff578063095ea7b31461022f57806313faede61461024b575b600080fd5b61019b61051d565b6040516101a891906122f6565b60405180910390f35b6101cb60048036038101906101c6919061237d565b610523565b6040516101d891906123c5565b60405180910390f35b6101e961059d565b6040516101f69190612479565b60405180910390f35b610219600480360381019061021491906124c7565b61062f565b6040516102269190612535565b60405180910390f35b6102496004803603810190610244919061257c565b610675565b005b61025361078d565b60405161026091906122f6565b60405180910390f35b610271610793565b60405161027e91906122f6565b60405180910390f35b6102a1600480360381019061029c91906125bc565b6107a0565b005b6102bd60048036038101906102b8919061257c565b610800565b6040516102ca91906122f6565b60405180910390f35b6102ed60048036038101906102e8919061260f565b6108a5565b005b6103096004803603810190610304919061257c565b610908565b005b610325600480360381019061032091906125bc565b61095e565b005b610341600480360381019061033c91906124c7565b61097e565b60405161034e91906122f6565b60405180910390f35b610371600480360381019061036c91906124c7565b6109ef565b60405161037e9190612535565b60405180910390f35b61038f610a76565b60405161039c9190612479565b60405180910390f35b6103bf60048036038101906103ba919061260f565b610b04565b6040516103cc91906122f6565b60405180910390f35b6103dd610bbc565b005b6103f960048036038101906103f4919061260f565b610bd0565b60405161040691906123c5565b60405180910390f35b610417610c25565b6040516104249190612535565b60405180910390f35b610435610c4f565b6040516104429190612479565b60405180910390f35b61046560048036038101906104609190612668565b610ce1565b005b610481600480360381019061047c91906127dd565b610cf7565b005b61049d600480360381019061049891906124c7565b610d59565b6040516104aa9190612479565b60405180910390f35b6104bb610dc1565b6040516104c891906122f6565b60405180910390f35b6104eb60048036038101906104e69190612860565b610dc7565b6040516104f891906123c5565b60405180910390f35b61051b6004803603810190610516919061260f565b610e5b565b005b600d5481565b60007f780e9d63000000000000000000000000000000000000000000000000000000007bffffffffffffffffffffffffffffffffffffffffffffffffffffffff1916827bffffffffffffffffffffffffffffffffffffffffffffffffffffffff19161480610596575061059582610edf565b5b9050919050565b6060600080546105ac906128cf565b80601f01602080910402602001604051908101604052809291908181526020018280546105d8906128cf565b80156106255780601f106105fa57610100808354040283529160200191610625565b820191906000526020600020905b81548152906001019060200180831161060857829003601f168201915b5050505050905090565b600061063a82610fc1565b6004600083815260200190815260200160002060009054906101000a900473ffffffffffffffffffffffffffffffffffffffff169050919050565b6000610680826109ef565b90508073ffffffffffffffffffffffffffffffffffffffff168373ffffffffffffffffffffffffffffffffffffffff1614156106f1576040517f08c379a00000000000000000000000000000000000000000000000000000000081526004016106e890612973565b60405180910390fd5b8073ffffffffffffffffffffffffffffffffffffffff1661071061100c565b73ffffffffffffffffffffffffffffffffffffffff16148061073f575061073e8161073961100c565b610dc7565b5b61077e576040517f08c379a000000000000000000000000000000000000000000000000000000000815260040161077590612a05565b60405180910390fd5b6107888383611014565b505050565b600b5481565b6000600880549050905090565b6107b16107ab61100c565b826110cd565b6107f0576040517f08c379a00000000000000000000000000000000000000000000000000000000081526004016107e790612a97565b60405180910390fd5b6107fb838383611162565b505050565b600061080b83610b04565b821061084c576040517f08c379a000000000000000000000000000000000000000000000000000000000815260040161084390612b29565b60405180910390fd5b600660008473ffffffffffffffffffffffffffffffffffffffff1673ffffffffffffffffffffffffffffffffffffffff168152602001908152602001600020600083815260200190815260200160002054905092915050565b6108ad61145c565b6000816040516020016108c09190612b91565b6040516020818303038152906040528051906020012090506001600f600083815260200190815260200160002060006101000a81548160ff0219169083151502179055505050565b61091133610bd0565b610950576040517f08c379a000000000000000000000000000000000000000000000000000000000815260040161094790612c1e565b60405180910390fd5b61095a82826114da565b5050565b61097983838360405180602001604052806000815250610cf7565b505050565b6000610988610793565b82106109c9576040517f08c379a00000000000000000000000000000000000000000000000000000000081526004016109c090612cb0565b60405180910390fd5b600882815481106109dd576109dc612cd0565b5b90600052602060002001549050919050565b6000806109fb836116f8565b9050600073ffffffffffffffffffffffffffffffffffffffff168173ffffffffffffffffffffffffffffffffffffffff161415610a6d576040517f08c379a0000000000000000000000000000000000000000000000000000000008152600401610a6490612d4b565b60405180910390fd5b80915050919050565b600e8054610a83906128cf565b80601f0160208091040260200160405190810160405280929190818152602001828054610aaf906128cf565b8015610afc5780601f10610ad157610100808354040283529160200191610afc565b820191906000526020600020905b815481529060010190602001808311610adf57829003601f168201915b505050505081565b60008073ffffffffffffffffffffffffffffffffffffffff168273ffffffffffffffffffffffffffffffffffffffff161415610b75576040517f08c379a0000000000000000000000000000000000000000000000000000000008152600401610b6c90612ddd565b60405180910390fd5b600360008373ffffffffffffffffffffffffffffffffffffffff1673ffffffffffffffffffffffffffffffffffffffff168152602001908152602001600020549050919050565b610bc461145c565b610bce6000611735565b565b60008082604051602001610be49190612b91565b604051602081830303815290604052805190602001209050600f600082815260200190815260200160002060009054906101000a900460ff16915050919050565b6000600a60009054906101000a900473ffffffffffffffffffffffffffffffffffffffff16905090565b606060018054610c5e906128cf565b80601f0160208091040260200160405190810160405280929190818152602001828054610c8a906128cf565b8015610cd75780601f10610cac57610100808354040283529160200191610cd7565b820191906000526020600020905b815481529060010190602001808311610cba57829003601f168201915b5050505050905090565b610cf3610cec61100c565b83836117fb565b5050565b610d08610d0261100c565b836110cd565b610d47576040517f08c379a0000000000000000000000000000000000000000000000000000000008152600401610d3e90612a97565b60405180910390fd5b610d5384848484611968565b50505050565b6060610d6482610fc1565b6000610d6e6119c4565b90506000815111610d8e5760405180602001604052806000815250610db9565b80610d98846119db565b604051602001610da9929190612e39565b6040516020818303038152906040525b915050919050565b600c5481565b6000600560008473ffffffffffffffffffffffffffffffffffffffff1673ffffffffffffffffffffffffffffffffffffffff16815260200190815260200160002060008373ffffffffffffffffffffffffffffffffffffffff1673ffffffffffffffffffffffffffffffffffffffff16815260200190815260200160002060009054906101000a900460ff16905092915050565b610e6361145c565b600073ffffffffffffffffffffffffffffffffffffffff168173ffffffffffffffffffffffffffffffffffffffff161415610ed3576040517f08c379a0000000000000000000000000000000000000000000000000000000008152600401610eca90612ecf565b60405180910390fd5b610edc81611735565b50565b60007f80ac58cd000000000000000000000000000000000000000000000000000000007bffffffffffffffffffffffffffffffffffffffffffffffffffffffff1916827bffffffffffffffffffffffffffffffffffffffffffffffffffffffff19161480610faa57507f5b5e139f000000000000000000000000000000000000000000000000000000007bffffffffffffffffffffffffffffffffffffffffffffffffffffffff1916827bffffffffffffffffffffffffffffffffffffffffffffffffffffffff1916145b80610fba5750610fb982611ab3565b5b9050919050565b610fca81611b1d565b611009576040517f08c379a000000000000000000000000000000000000000000000000000000000815260040161100090612d4b565b60405180910390fd5b50565b600033905090565b816004600083815260200190815260200160002060006101000a81548173ffffffffffffffffffffffffffffffffffffffff021916908373ffffffffffffffffffffffffffffffffffffffff160217905550808273ffffffffffffffffffffffffffffffffffffffff16611087836109ef565b73ffffffffffffffffffffffffffffffffffffffff167f8c5be1e5ebec7d5bd14f71427d1e84f3dd0314c0f7b2291e5b200ac8c7c3b92560405160405180910390a45050565b6000806110d9836109ef565b90508073ffffffffffffffffffffffffffffffffffffffff168473ffffffffffffffffffffffffffffffffffffffff16148061111b575061111a8185610dc7565b5b8061115957508373ffffffffffffffffffffffffffffffffffffffff166111418461062f565b73ffffffffffffffffffffffffffffffffffffffff16145b91505092915050565b8273ffffffffffffffffffffffffffffffffffffffff16611182826109ef565b73ffffffffffffffffffffffffffffffffffffffff16146111d8576040517f08c379a00000000000000000000000000000000000000000000000000000000081526004016111cf90612f61565b60405180910390fd5b600073ffffffffffffffffffffffffffffffffffffffff168273ffffffffffffffffffffffffffffffffffffffff161415611248576040517f08c379a000000000000000000000000000000000000000000000000000000000815260040161123f90612ff3565b60405180910390fd5b6112558383836001611b5e565b8273ffffffffffffffffffffffffffffffffffffffff16611275826109ef565b73ffffffffffffffffffffffffffffffffffffffff16146112cb576040517f08c379a00000000000000000000000000000000000000000000000000000000081526004016112c290612f61565b60405180910390fd5b6004600082815260200190815260200160002060006101000a81549073ffffffffffffffffffffffffffffffffffffffff02191690556001600360008573ffffffffffffffffffffffffffffffffffffffff1673ffffffffffffffffffffffffffffffffffffffff168152602001908152602001600020600082825403925050819055506001600360008473ffffffffffffffffffffffffffffffffffffffff1673ffffffffffffffffffffffffffffffffffffffff16815260200190815260200160002060008282540192505081905550816002600083815260200190815260200160002060006101000a81548173ffffffffffffffffffffffffffffffffffffffff021916908373ffffffffffffffffffffffffffffffffffffffff160217905550808273ffffffffffffffffffffffffffffffffffffffff168473ffffffffffffffffffffffffffffffffffffffff167fddf252ad1be2c89b69c2b068fc378daa952ba7f163c4a11628f55a4df523b3ef60405160405180910390a46114578383836001611cbe565b505050565b61146461100c565b73ffffffffffffffffffffffffffffffffffffffff16611482610c25565b73ffffffffffffffffffffffffffffffffffffffff16146114d8576040517f08c379a00000000000000000000000000000000000000000000000000000000081526004016114cf9061305f565b60405180910390fd5b565b600073ffffffffffffffffffffffffffffffffffffffff168273ffffffffffffffffffffffffffffffffffffffff16141561154a576040517f08c379a0000000000000000000000000000000000000000000000000000000008152600401611541906130cb565b60405180910390fd5b61155381611b1d565b15611593576040517f08c379a000000000000000000000000000000000000000000000000000000000815260040161158a90613137565b60405180910390fd5b6115a1600083836001611b5e565b6115aa81611b1d565b156115ea576040517f08c379a00000000000000000000000000000000000000000000000000000000081526004016115e190613137565b60405180910390fd5b6001600360008473ffffffffffffffffffffffffffffffffffffffff1673ffffffffffffffffffffffffffffffffffffffff16815260200190815260200160002060008282540192505081905550816002600083815260200190815260200160002060006101000a81548173ffffffffffffffffffffffffffffffffffffffff021916908373ffffffffffffffffffffffffffffffffffffffff160217905550808273ffffffffffffffffffffffffffffffffffffffff16600073ffffffffffffffffffffffffffffffffffffffff167fddf252ad1be2c89b69c2b068fc378daa952ba7f163c4a11628f55a4df523b3ef60405160405180910390a46116f4600083836001611cbe565b5050565b60006002600083815260200190815260200160002060009054906101000a900473ffffffffffffffffffffffffffffffffffffffff169050919050565b6000600a60009054906101000a900473ffffffffffffffffffffffffffffffffffffffff16905081600a60006101000a81548173ffffffffffffffffffffffffffffffffffffffff021916908373ffffffffffffffffffffffffffffffffffffffff1602179055508173ffffffffffffffffffffffffffffffffffffffff168173ffffffffffffffffffffffffffffffffffffffff167f8be0079c531659141344cd1fd0a4f28419497f9722a3daafe3b4186f6b6457e060405160405180910390a35050565b8173ffffffffffffffffffffffffffffffffffffffff168373ffffffffffffffffffffffffffffffffffffffff16141561186a576040517f08c379a0000000000000000000000000000000000000000000000000000000008152600401611861906131a3565b60405180910390fd5b80600560008573ffffffffffffffffffffffffffffffffffffffff1673ffffffffffffffffffffffffffffffffffffffff16815260200190815260200160002060008473ffffffffffffffffffffffffffffffffffffffff1673ffffffffffffffffffffffffffffffffffffffff16815260200190815260200160002060006101000a81548160ff0219169083151502179055508173ffffffffffffffffffffffffffffffffffffffff168373ffffffffffffffffffffffffffffffffffffffff167f17307eab39ab6107e8899845ad3d59bd9653f200f220920489ca2b5937696c318360405161195b91906123c5565b60405180910390a3505050565b611973848484611162565b61197f84848484611cc4565b6119be576040517f08c379a00000000000000000000000000000000000000000000000000000000081526004016119b590613235565b60405180910390fd5b50505050565b606060405180602001604052806000815250905090565b6060600060016119ea84611e5b565b01905060008167ffffffffffffffff811115611a0957611a086126b2565b5b6040519080825280601f01601f191660200182016040528015611a3b5781602001600182028036833780820191505090505b509050600082602001820190505b600115611aa8578080600190039150507f3031323334353637383961626364656600000000000000000000000000000000600a86061a8153600a8581611a9257611a91613255565b5b0494506000851415611aa357611aa8565b611a49565b819350505050919050565b60007f01ffc9a7000000000000000000000000000000000000000000000000000000007bffffffffffffffffffffffffffffffffffffffffffffffffffffffff1916827bffffffffffffffffffffffffffffffffffffffffffffffffffffffff1916149050919050565b60008073ffffffffffffffffffffffffffffffffffffffff16611b3f836116f8565b73ffffffffffffffffffffffffffffffffffffffff1614159050919050565b611b6a84848484611fae565b6001811115611bae576040517f08c379a0000000000000000000000000000000000000000000000000000000008152600401611ba5906132f6565b60405180910390fd5b6000829050600073ffffffffffffffffffffffffffffffffffffffff168573ffffffffffffffffffffffffffffffffffffffff161415611bf657611bf181611fb4565b611c35565b8373ffffffffffffffffffffffffffffffffffffffff168573ffffffffffffffffffffffffffffffffffffffff1614611c3457611c338582611ffd565b5b5b600073ffffffffffffffffffffffffffffffffffffffff168473ffffffffffffffffffffffffffffffffffffffff161415611c7857611c738161216a565b611cb7565b8473ffffffffffffffffffffffffffffffffffffffff168473ffffffffffffffffffffffffffffffffffffffff1614611cb657611cb5848261223b565b5b5b5050505050565b50505050565b6000611ce58473ffffffffffffffffffffffffffffffffffffffff166122ba565b15611e4e578373ffffffffffffffffffffffffffffffffffffffff1663150b7a02611d0e61100c565b8786866040518563ffffffff1660e01b8152600401611d30949392919061336b565b602060405180830381600087803b158015611d4a57600080fd5b505af1925050508015611d7b57506040513d601f19601f82011682018060405250810190611d7891906133cc565b60015b611dfe573d8060008114611dab576040519150601f19603f3d011682016040523d82523d6000602084013e611db0565b606091505b50600081511415611df6576040517f08c379a0000000000000000000000000000000000000000000000000000000008152600401611ded90613235565b60405180910390fd5b805181602001fd5b63150b7a0260e01b7bffffffffffffffffffffffffffffffffffffffffffffffffffffffff1916817bffffffffffffffffffffffffffffffffffffffffffffffffffffffff191614915050611e53565b600190505b949350505050565b600080600090507a184f03e93ff9f4daa797ed6e38ed64bf6a1f0100000000000000008310611eb9577a184f03e93ff9f4daa797ed6e38ed64bf6a1f0100000000000000008381611eaf57611eae613255565b5b0492506040810190505b6d04ee2d6d415b85acef81000000008310611ef6576d04ee2d6d415b85acef81000000008381611eec57611eeb613255565b5b0492506020810190505b662386f26fc100008310611f2557662386f26fc100008381611f1b57611f1a613255565b5b0492506010810190505b6305f5e1008310611f4e576305f5e1008381611f4457611f43613255565b5b0492506008810190505b6127108310611f73576127108381611f6957611f68613255565b5b0492506004810190505b60648310611f965760648381611f8c57611f8b613255565b5b0492506002810190505b600a8310611fa5576001810190505b80915050919050565b50505050565b6008805490506009600083815260200190815260200160002081905550600881908060018154018082558091505060019003906000526020600020016000909190919091505550565b6000600161200a84610b04565b6120149190613428565b90506000600760008481526020019081526020016000205490508181146120f9576000600660008673ffffffffffffffffffffffffffffffffffffffff1673ffffffffffffffffffffffffffffffffffffffff168152602001908152602001600020600084815260200190815260200160002054905080600660008773ffffffffffffffffffffffffffffffffffffffff1673ffffffffffffffffffffffffffffffffffffffff168152602001908152602001600020600084815260200190815260200160002081905550816007600083815260200190815260200160002081905550505b6007600084815260200190815260200160002060009055600660008573ffffffffffffffffffffffffffffffffffffffff1673ffffffffffffffffffffffffffffffffffffffff16815260200190815260200160002060008381526020019081526020016000206000905550505050565b6000600160088054905061217e9190613428565b90506000600960008481526020019081526020016000205490506000600883815481106121ae576121ad612cd0565b5b9060005260206000200154905080600883815481106121d0576121cf612cd0565b5b90600052602060002001819055508160096000838152602001908152602001600020819055506009600085815260200190815260200160002060009055600880548061221f5761221e61345c565b5b6001900381819060005260206000200160009055905550505050565b600061224683610b04565b905081600660008573ffffffffffffffffffffffffffffffffffffffff1673ffffffffffffffffffffffffffffffffffffffff168152602001908152602001600020600083815260200190815260200160002081905550806007600084815260200190815260200160002081905550505050565b6000808273ffffffffffffffffffffffffffffffffffffffff163b119050919050565b6000819050919050565b6122f0816122dd565b82525050565b600060208201905061230b60008301846122e7565b92915050565b6000604051905090565b600080fd5b600080fd5b60007fffffffff0000000000000000000000000000000000000000000000000000000082169050919050565b61235a81612325565b811461236557600080fd5b50565b60008135905061237781612351565b92915050565b6000602082840312156123935761239261231b565b5b60006123a184828501612368565b91505092915050565b60008115159050919050565b6123bf816123aa565b82525050565b60006020820190506123da60008301846123b6565b92915050565b600081519050919050565b600082825260208201905092915050565b60005b8381101561241a5780820151818401526020810190506123ff565b83811115612429576000848401525b50505050565b6000601f19601f8301169050919050565b600061244b826123e0565b61245581856123eb565b93506124658185602086016123fc565b61246e8161242f565b840191505092915050565b600060208201905081810360008301526124938184612440565b905092915050565b6124a4816122dd565b81146124af57600080fd5b50565b6000813590506124c18161249b565b92915050565b6000602082840312156124dd576124dc61231b565b5b60006124eb848285016124b2565b91505092915050565b600073ffffffffffffffffffffffffffffffffffffffff82169050919050565b600061251f826124f4565b9050919050565b61252f81612514565b82525050565b600060208201905061254a6000830184612526565b92915050565b61255981612514565b811461256457600080fd5b50565b60008135905061257681612550565b92915050565b600080604083850312156125935761259261231b565b5b60006125a185828601612567565b92505060206125b2858286016124b2565b9150509250929050565b6000806000606084860312156125d5576125d461231b565b5b60006125e386828701612567565b93505060206125f486828701612567565b9250506040612605868287016124b2565b9150509250925092565b6000602082840312156126255761262461231b565b5b600061263384828501612567565b91505092915050565b612645816123aa565b811461265057600080fd5b50565b6000813590506126628161263c565b92915050565b6000806040838503121561267f5761267e61231b565b5b600061268d85828601612567565b925050602061269e85828601612653565b9150509250929050565b600080fd5b600080fd5b7f4e487b7100000000000000000000000000000000000000000000000000000000600052604160045260246000fd5b6126ea8261242f565b810181811067ffffffffffffffff82111715612709576127086126b2565b5b80604052505050565b600061271c612311565b905061272882826126e1565b919050565b600067ffffffffffffffff821115612748576127476126b2565b5b6127518261242f565b9050602081019050919050565b82818337600083830152505050565b600061278061277b8461272d565b612712565b90508281526020810184848401111561279c5761279b6126ad565b5b6127a784828561275e565b509392505050565b600082601f8301126127c4576127c36126a8565b5b81356127d484826020860161276d565b91505092915050565b600080600080608085870312156127f7576127f661231b565b5b600061280587828801612567565b945050602061281687828801612567565b9350506040612827878288016124b2565b925050606085013567ffffffffffffffff81111561284857612847612320565b5b612854878288016127af565b91505092959194509250565b600080604083850312156128775761287661231b565b5b600061288585828601612567565b925050602061289685828601612567565b9150509250929050565b7f4e487b7100000000000000000000000000000000000000000000000000000000600052602260045260246000fd5b600060028204905060018216806128e757607f821691505b602082108114156128fb576128fa6128a0565b5b50919050565b7f4552433732313a20617070726f76616c20746f2063757272656e74206f776e6560008201527f7200000000000000000000000000000000000000000000000000000000000000602082015250565b600061295d6021836123eb565b915061296882612901565b604082019050919050565b6000602082019050818103600083015261298c81612950565b9050919050565b7f4552433732313a20617070726f76652063616c6c6572206973206e6f7420746f60008201527f6b656e206f776e6572206f7220617070726f76656420666f7220616c6c000000602082015250565b60006129ef603d836123eb565b91506129fa82612993565b604082019050919050565b60006020820190508181036000830152612a1e816129e2565b9050919050565b7f4552433732313a2063616c6c6572206973206e6f7420746f6b656e206f776e6560008201527f72206f7220617070726f76656400000000000000000000000000000000000000602082015250565b6000612a81602d836123eb565b9150612a8c82612a25565b604082019050919050565b60006020820190508181036000830152612ab081612a74565b9050919050565b7f455243373231456e756d657261626c653a206f776e657220696e646578206f7560008201527f74206f6620626f756e6473000000000000000000000000000000000000000000602082015250565b6000612b13602b836123eb565b9150612b1e82612ab7565b604082019050919050565b60006020820190508181036000830152612b4281612b06565b9050919050565b60008160601b9050919050565b6000612b6182612b49565b9050919050565b6000612b7382612b56565b9050919050565b612b8b612b8682612514565b612b68565b82525050565b6000612b9d8284612b7a565b60148201915081905092915050565b7f746869732061646472657373206973206e6f7420616c6c6f77656420746f206260008201527f757920746f6b656e730000000000000000000000000000000000000000000000602082015250565b6000612c086029836123eb565b9150612c1382612bac565b604082019050919050565b60006020820190508181036000830152612c3781612bfb565b9050919050565b7f455243373231456e756d657261626c653a20676c6f62616c20696e646578206f60008201527f7574206f6620626f756e64730000000000000000000000000000000000000000602082015250565b6000612c9a602c836123eb565b9150612ca582612c3e565b604082019050919050565b60006020820190508181036000830152612cc981612c8d565b9050919050565b7f4e487b7100000000000000000000000000000000000000000000000000000000600052603260045260246000fd5b7f4552433732313a20696e76616c696420746f6b656e2049440000000000000000600082015250565b6000612d356018836123eb565b9150612d4082612cff565b602082019050919050565b60006020820190508181036000830152612d6481612d28565b9050919050565b7f4552433732313a2061646472657373207a65726f206973206e6f74206120766160008201527f6c6964206f776e65720000000000000000000000000000000000000000000000602082015250565b6000612dc76029836123eb565b9150612dd282612d6b565b604082019050919050565b60006020820190508181036000830152612df681612dba565b9050919050565b600081905092915050565b6000612e13826123e0565b612e1d8185612dfd565b9350612e2d8185602086016123fc565b80840191505092915050565b6000612e458285612e08565b9150612e518284612e08565b91508190509392505050565b7f4f776e61626c653a206e6577206f776e657220697320746865207a65726f206160008201527f6464726573730000000000000000000000000000000000000000000000000000602082015250565b6000612eb96026836123eb565b9150612ec482612e5d565b604082019050919050565b60006020820190508181036000830152612ee881612eac565b9050919050565b7f4552433732313a207472616e736665722066726f6d20696e636f72726563742060008201527f6f776e6572000000000000000000000000000000000000000000000000000000602082015250565b6000612f4b6025836123eb565b9150612f5682612eef565b604082019050919050565b60006020820190508181036000830152612f7a81612f3e565b9050919050565b7f4552433732313a207472616e7366657220746f20746865207a65726f2061646460008201527f7265737300000000000000000000000000000000000000000000000000000000602082015250565b6000612fdd6024836123eb565b9150612fe882612f81565b604082019050919050565b6000602082019050818103600083015261300c81612fd0565b9050919050565b7f4f776e61626c653a2063616c6c6572206973206e6f7420746865206f776e6572600082015250565b60006130496020836123eb565b915061305482613013565b602082019050919050565b600060208201905081810360008301526130788161303c565b9050919050565b7f4552433732313a206d696e7420746f20746865207a65726f2061646472657373600082015250565b60006130b56020836123eb565b91506130c08261307f565b602082019050919050565b600060208201905081810360008301526130e4816130a8565b9050919050565b7f4552433732313a20746f6b656e20616c7265616479206d696e74656400000000600082015250565b6000613121601c836123eb565b915061312c826130eb565b602082019050919050565b6000602082019050818103600083015261315081613114565b9050919050565b7f4552433732313a20617070726f766520746f2063616c6c657200000000000000600082015250565b600061318d6019836123eb565b915061319882613157565b602082019050919050565b600060208201905081810360008301526131bc81613180565b9050919050565b7f4552433732313a207472616e7366657220746f206e6f6e20455243373231526560008201527f63656976657220696d706c656d656e7465720000000000000000000000000000602082015250565b600061321f6032836123eb565b915061322a826131c3565b604082019050919050565b6000602082019050818103600083015261324e81613212565b9050919050565b7f4e487b7100000000000000000000000000000000000000000000000000000000600052601260045260246000fd5b7f455243373231456e756d657261626c653a20636f6e736563757469766520747260008201527f616e7366657273206e6f7420737570706f727465640000000000000000000000602082015250565b60006132e06035836123eb565b91506132eb82613284565b604082019050919050565b6000602082019050818103600083015261330f816132d3565b9050919050565b600081519050919050565b600082825260208201905092915050565b600061333d82613316565b6133478185613321565b93506133578185602086016123fc565b6133608161242f565b840191505092915050565b60006080820190506133806000830187612526565b61338d6020830186612526565b61339a60408301856122e7565b81810360608301526133ac8184613332565b905095945050505050565b6000815190506133c681612351565b92915050565b6000602082840312156133e2576133e161231b565b5b60006133f0848285016133b7565b91505092915050565b7f4e487b7100000000000000000000000000000000000000000000000000000000600052601160045260246000fd5b6000613433826122dd565b915061343e836122dd565b925082821015613451576134506133f9565b5b828203905092915050565b7f4e487b7100000000000000000000000000000000000000000000000000000000600052603160045260246000fdfea2646970667358221220acd96b45167a10b2dec6ef8f0ec5a7afa80b74a61a4c8443b701fb956e32f41664736f6c63430008090033",
  "linkReferences": {},
  "deployedLinkReferences": {}
}