{
  "_format": "hh-sol-artifact-1",
  "contractName": "MyNFT",
  "sourceName": "contracts/MyNFT.sol",
  "abi": [
    {
      "inputs": [
        {
          "internalType": "string",
          "name": "_name",
          "type": "string"
        },
        {
          "internalType": "string",
          "name": "_symbol",
          "type": "string"
        },
        {
          "internalType": "uint256",
          "name": "_cost",
          "type": "uint256"
        },
        {
          "internalType": "uint256",
          "name": "_maxSupply",
          "type": "uint256"
        },
        {
          "internalType": "uint256",
          "name": "_allowMintingOn",
          "type": "uint256"
        },
        {
          "internalType": "string",
          "name": "_baseURI",
          "type": "string"
        }
      ],
      "stateMutability": "nonpayable",
      "type": "constructor"
    },
    {
      "anonymous": false,
      "inputs": [
        {
          "indexed": true,
          "internalType": "address",
          "name": "owner",
          "type": "address"
        },
        {
          "indexed": true,
          "internalType": "address",
          "name": "approved",
          "type": "address"
        },
        {
          "indexed": true,
          "internalType": "uint256",
          "name": "tokenId",
          "type": "uint256"
        }
      ],
      "name": "Approval",
      "type": "event"
    },
    {
      "anonymous": false,
      "inputs": [
        {
          "indexed": true,
          "internalType": "address",
          "name": "owner",
          "type": "address"
        },
        {
          "indexed": true,
          "internalType": "address",
          "name": "operator",
          "type": "address"
        },
        {
          "indexed": false,
          "internalType": "bool",
          "name": "approved",
          "type": "bool"
        }
      ],
      "name": "ApprovalForAll",
      "type": "event"
    },
    {
      "anonymous": false,
      "inputs": [
        {
          "indexed": false,
          "internalType": "uint256",
          "name": "amount",
          "type": "uint256"
        },
        {
          "indexed": false,
          "internalType": "address",
          "name": "minter",
          "type": "address"
        }
      ],
      "name": "Mint",
      "type": "event"
    },
    {
      "anonymous": false,
      "inputs": [
        {
          "indexed": true,
          "internalType": "address",
          "name": "previousOwner",
          "type": "address"
        },
        {
          "indexed": true,
          "internalType": "address",
          "name": "newOwner",
          "type": "address"
        }
      ],
      "name": "OwnershipTransferred",
      "type": "event"
    },
    {
      "anonymous": false,
      "inputs": [
        {
          "indexed": true,
          "internalType": "address",
          "name": "from",
          "type": "address"
        },
        {
          "indexed": true,
          "internalType": "address",
          "name": "to",
          "type": "address"
        },
        {
          "indexed": true,
          "internalType": "uint256",
          "name": "tokenId",
          "type": "uint256"
        }
      ],
      "name": "Transfer",
      "type": "event"
    },
    {
      "inputs": [
        {
          "internalType": "address",
          "name": "_address",
          "type": "address"
        }
      ],
      "name": "addAddress",
      "outputs": [],
      "stateMutability": "nonpayable",
      "type": "function"
    },
    {
      "inputs": [],
      "name": "allowMintingOn",
      "outputs": [
        {
          "internalType": "uint256",
          "name": "",
          "type": "uint256"
        }
      ],
      "stateMutability": "view",
      "type": "function"
    },
    {
      "inputs": [
        {
          "internalType": "address",
          "name": "to",
          "type": "address"
        },
        {
          "internalType": "uint256",
          "name": "tokenId",
          "type": "uint256"
        }
      ],
      "name": "approve",
      "outputs": [],
      "stateMutability": "nonpayable",
      "type": "function"
    },
    {
      "inputs": [
        {
          "internalType": "address",
          "name": "owner",
          "type": "address"
        }
      ],
      "name": "balanceOf",
      "outputs": [
        {
          "internalType": "uint256",
          "name": "",
          "type": "uint256"
        }
      ],
      "stateMutability": "view",
      "type": "function"
    },
    {
      "inputs": [],
      "name": "baseExtension",
      "outputs": [
        {
          "internalType": "string",
          "name": "",
          "type": "string"
        }
      ],
      "stateMutability": "view",
      "type": "function"
    },
    {
      "inputs": [],
      "name": "baseURI",
      "outputs": [
        {
          "internalType": "string",
          "name": "",
          "type": "string"
        }
      ],
      "stateMutability": "view",
      "type": "function"
    },
    {
      "inputs": [],
      "name": "cost",
      "outputs": [
        {
          "internalType": "uint256",
          "name": "",
          "type": "uint256"
        }
      ],
      "stateMutability": "view",
      "type": "function"
    },
    {
      "inputs": [
        {
          "internalType": "uint256",
          "name": "tokenId",
          "type": "uint256"
        }
      ],
      "name": "getApproved",
      "outputs": [
        {
          "internalType": "address",
          "name": "",
          "type": "address"
        }
      ],
      "stateMutability": "view",
      "type": "function"
    },
    {
      "inputs": [
        {
          "internalType": "address",
          "name": "owner",
          "type": "address"
        },
        {
          "internalType": "address",
          "name": "operator",
          "type": "address"
        }
      ],
      "name": "isApprovedForAll",
      "outputs": [
        {
          "internalType": "bool",
          "name": "",
          "type": "bool"
        }
      ],
      "stateMutability": "view",
      "type": "function"
    },
    {
      "inputs": [
        {
          "internalType": "address",
          "name": "_address",
          "type": "address"
        }
      ],
      "name": "isOnList",
      "outputs": [
        {
          "internalType": "bool",
          "name": "",
          "type": "bool"
        }
      ],
      "stateMutability": "view",
      "type": "function"
    },
    {
      "inputs": [],
      "name": "maxSupply",
      "outputs": [
        {
          "internalType": "uint256",
          "name": "",
          "type": "uint256"
        }
      ],
      "stateMutability": "view",
      "type": "function"
    },
    {
      "inputs": [
        {
          "internalType": "uint256",
          "name": "_mintAmount",
          "type": "uint256"
        }
      ],
      "name": "mint",
      "outputs": [],
      "stateMutability": "payable",
      "type": "function"
    },
    {
      "inputs": [],
      "name": "name",
      "outputs": [
        {
          "internalType": "string",
          "name": "",
          "type": "string"
        }
      ],
      "stateMutability": "view",
      "type": "function"
    },
    {
      "inputs": [],
      "name": "owner",
      "outputs": [
        {
          "internalType": "address",
          "name": "",
          "type": "address"
        }
      ],
      "stateMutability": "view",
      "type": "function"
    },
    {
      "inputs": [
        {
          "internalType": "uint256",
          "name": "tokenId",
          "type": "uint256"
        }
      ],
      "name": "ownerOf",
      "outputs": [
        {
          "internalType": "address",
          "name": "",
          "type": "address"
        }
      ],
      "stateMutability": "view",
      "type": "function"
    },
    {
      "inputs": [],
      "name": "renounceOwnership",
      "outputs": [],
      "stateMutability": "nonpayable",
      "type": "function"
    },
    {
      "inputs": [
        {
          "internalType": "address",
          "name": "from",
          "type": "address"
        },
        {
          "internalType": "address",
          "name": "to",
          "type": "address"
        },
        {
          "internalType": "uint256",
          "name": "tokenId",
          "type": "uint256"
        }
      ],
      "name": "safeTransferFrom",
      "outputs": [],
      "stateMutability": "nonpayable",
      "type": "function"
    },
    {
      "inputs": [
        {
          "internalType": "address",
          "name": "from",
          "type": "address"
        },
        {
          "internalType": "address",
          "name": "to",
          "type": "address"
        },
        {
          "internalType": "uint256",
          "name": "tokenId",
          "type": "uint256"
        },
        {
          "internalType": "bytes",
          "name": "data",
          "type": "bytes"
        }
      ],
      "name": "safeTransferFrom",
      "outputs": [],
      "stateMutability": "nonpayable",
      "type": "function"
    },
    {
      "inputs": [
        {
          "internalType": "address",
          "name": "operator",
          "type": "address"
        },
        {
          "internalType": "bool",
          "name": "approved",
          "type": "bool"
        }
      ],
      "name": "setApprovalForAll",
      "outputs": [],
      "stateMutability": "nonpayable",
      "type": "function"
    },
    {
      "inputs": [
        {
          "internalType": "bytes4",
          "name": "interfaceId",
          "type": "bytes4"
        }
      ],
      "name": "supportsInterface",
      "outputs": [
        {
          "internalType": "bool",
          "name": "",
          "type": "bool"
        }
      ],
      "stateMutability": "view",
      "type": "function"
    },
    {
      "inputs": [],
      "name": "symbol",
      "outputs": [
        {
          "internalType": "string",
          "name": "",
          "type": "string"
        }
      ],
      "stateMutability": "view",
      "type": "function"
    },
    {
      "inputs": [
        {
          "internalType": "uint256",
          "name": "index",
          "type": "uint256"
        }
      ],
      "name": "tokenByIndex",
      "outputs": [
        {
          "internalType": "uint256",
          "name": "",
          "type": "uint256"
        }
      ],
      "stateMutability": "view",
      "type": "function"
    },
    {
      "inputs": [
        {
          "internalType": "address",
          "name": "owner",
          "type": "address"
        },
        {
          "internalType": "uint256",
          "name": "index",
          "type": "uint256"
        }
      ],
      "name": "tokenOfOwnerByIndex",
      "outputs": [
        {
          "internalType": "uint256",
          "name": "",
          "type": "uint256"
        }
      ],
      "stateMutability": "view",
      "type": "function"
    },
    {
      "inputs": [
        {
          "internalType": "uint256",
          "name": "_tokenId",
          "type": "uint256"
        }
      ],
      "name": "tokenURI",
      "outputs": [
        {
          "internalType": "string",
          "name": "",
          "type": "string"
        }
      ],
      "stateMutability": "view",
      "type": "function"
    },
    {
      "inputs": [],
      "name": "totalSupply",
      "outputs": [
        {
          "internalType": "uint256",
          "name": "",
          "type": "uint256"
        }
      ],
      "stateMutability": "view",
      "type": "function"
    },
    {
      "inputs": [
        {
          "internalType": "address",
          "name": "from",
          "type": "address"
        },
        {
          "internalType": "address",
          "name": "to",
          "type": "address"
        },
        {
          "internalType": "uint256",
          "name": "tokenId",
          "type": "uint256"
        }
      ],
      "name": "transferFrom",
      "outputs": [],
      "stateMutability": "nonpayable",
      "type": "function"
    },
    {
      "inputs": [
        {
          "internalType": "address",
          "name": "newOwner",
          "type": "address"
        }
      ],
      "name": "transferOwnership",
      "outputs": [],
      "stateMutability": "nonpayable",
      "type": "function"
    }
  ],
  "bytecode": "0x60806040526040518060400160405280600581526020017f2e6a736f6e000000000000000000000000000000000000000000000000000000815250600f908051906020019062000051929190620001e3565b503480156200005f57600080fd5b50604051620042983803806200429883398181016040528101906200008591906200046b565b858581600090805190602001906200009f929190620001e3565b508060019080519060200190620000b8929190620001e3565b505050620000db620000cf6200011560201b60201c565b6200011d60201b60201c565b83600b8190555082600c8190555081600d8190555080600e908051906020019062000108929190620001e3565b50505050505050620005c9565b600033905090565b6000600a60009054906101000a900473ffffffffffffffffffffffffffffffffffffffff16905081600a60006101000a81548173ffffffffffffffffffffffffffffffffffffffff021916908373ffffffffffffffffffffffffffffffffffffffff1602179055508173ffffffffffffffffffffffffffffffffffffffff168173ffffffffffffffffffffffffffffffffffffffff167f8be0079c531659141344cd1fd0a4f28419497f9722a3daafe3b4186f6b6457e060405160405180910390a35050565b828054620001f19062000593565b90600052602060002090601f01602090048101928262000215576000855562000261565b82601f106200023057805160ff191683800117855562000261565b8280016001018555821562000261579182015b828111156200026057825182559160200191906001019062000243565b5b50905062000270919062000274565b5090565b5b808211156200028f57600081600090555060010162000275565b5090565b6000604051905090565b600080fd5b600080fd5b600080fd5b600080fd5b6000601f19601f8301169050919050565b7f4e487b7100000000000000000000000000000000000000000000000000000000600052604160045260246000fd5b620002fc82620002b1565b810181811067ffffffffffffffff821117156200031e576200031d620002c2565b5b80604052505050565b60006200033362000293565b9050620003418282620002f1565b919050565b600067ffffffffffffffff821115620003645762000363620002c2565b5b6200036f82620002b1565b9050602081019050919050565b60005b838110156200039c5780820151818401526020810190506200037f565b83811115620003ac576000848401525b50505050565b6000620003c9620003c38462000346565b62000327565b905082815260208101848484011115620003e857620003e7620002ac565b5b620003f58482856200037c565b509392505050565b600082601f830112620004155762000414620002a7565b5b815162000427848260208601620003b2565b91505092915050565b6000819050919050565b620004458162000430565b81146200045157600080fd5b50565b60008151905062000465816200043a565b92915050565b60008060008060008060c087890312156200048b576200048a6200029d565b5b600087015167ffffffffffffffff811115620004ac57620004ab620002a2565b5b620004ba89828a01620003fd565b965050602087015167ffffffffffffffff811115620004de57620004dd620002a2565b5b620004ec89828a01620003fd565b9550506040620004ff89828a0162000454565b94505060606200051289828a0162000454565b93505060806200052589828a0162000454565b92505060a087015167ffffffffffffffff811115620005495762000548620002a2565b5b6200055789828a01620003fd565b9150509295509295509295565b7f4e487b7100000000000000000000000000000000000000000000000000000000600052602260045260246000fd5b60006002820490506001821680620005ac57607f821691505b60208210811415620005c357620005c262000564565b5b50919050565b613cbf80620005d96000396000f3fe60806040526004361061019c5760003560e01c80636c0360eb116100ec578063a22cb4651161008a578063c87b56dd11610064578063c87b56dd146105cd578063d5abeb011461060a578063e985e9c514610635578063f2fde38b146106725761019c565b8063a22cb46514610550578063b88d4fde14610579578063c6682862146105a25761019c565b80637330daac116100c65780637330daac146104a15780638da5cb5b146104de57806395d89b4114610509578063a0712d68146105345761019c565b80636c0360eb1461042257806370a082311461044d578063715018a61461048a5761019c565b806318160ddd1161015957806338eada1c1161013357806338eada1c1461035657806342842e0e1461037f5780634f6ccce7146103a85780636352211e146103e55761019c565b806318160ddd146102c557806323b872dd146102f05780632f745c59146103195761019c565b806301467996146101a157806301ffc9a7146101cc57806306fdde0314610209578063081812fc14610234578063095ea7b31461027157806313faede61461029a575b600080fd5b3480156101ad57600080fd5b506101b661069b565b6040516101c39190612715565b60405180910390f35b3480156101d857600080fd5b506101f360048036038101906101ee919061279c565b6106a1565b60405161020091906127e4565b60405180910390f35b34801561021557600080fd5b5061021e61071b565b60405161022b9190612898565b60405180910390f35b34801561024057600080fd5b5061025b600480360381019061025691906128e6565b6107ad565b6040516102689190612954565b60405180910390f35b34801561027d57600080fd5b506102986004803603810190610293919061299b565b6107f3565b005b3480156102a657600080fd5b506102af61090b565b6040516102bc9190612715565b60405180910390f35b3480156102d157600080fd5b506102da610911565b6040516102e79190612715565b60405180910390f35b3480156102fc57600080fd5b50610317600480360381019061031291906129db565b61091e565b005b34801561032557600080fd5b50610340600480360381019061033b919061299b565b61097e565b60405161034d9190612715565b60405180910390f35b34801561036257600080fd5b5061037d60048036038101906103789190612a2e565b610a23565b005b34801561038b57600080fd5b506103a660048036038101906103a191906129db565b610a86565b005b3480156103b457600080fd5b506103cf60048036038101906103ca91906128e6565b610aa6565b6040516103dc9190612715565b60405180910390f35b3480156103f157600080fd5b5061040c600480360381019061040791906128e6565b610b17565b6040516104199190612954565b60405180910390f35b34801561042e57600080fd5b50610437610b9e565b6040516104449190612898565b60405180910390f35b34801561045957600080fd5b50610474600480360381019061046f9190612a2e565b610c2c565b6040516104819190612715565b60405180910390f35b34801561049657600080fd5b5061049f610ce4565b005b3480156104ad57600080fd5b506104c860048036038101906104c39190612a2e565b610cf8565b6040516104d591906127e4565b60405180910390f35b3480156104ea57600080fd5b506104f3610d4d565b6040516105009190612954565b60405180910390f35b34801561051557600080fd5b5061051e610d77565b60405161052b9190612898565b60405180910390f35b61054e600480360381019061054991906128e6565b610e09565b005b34801561055c57600080fd5b5061057760048036038101906105729190612a87565b610ff9565b005b34801561058557600080fd5b506105a0600480360381019061059b9190612bfc565b61100f565b005b3480156105ae57600080fd5b506105b7611071565b6040516105c49190612898565b60405180910390f35b3480156105d957600080fd5b506105f460048036038101906105ef91906128e6565b6110ff565b6040516106019190612898565b60405180910390f35b34801561061657600080fd5b5061061f61117e565b60405161062c9190612715565b60405180910390f35b34801561064157600080fd5b5061065c60048036038101906106579190612c7f565b611184565b60405161066991906127e4565b60405180910390f35b34801561067e57600080fd5b5061069960048036038101906106949190612a2e565b611218565b005b600d5481565b60007f780e9d63000000000000000000000000000000000000000000000000000000007bffffffffffffffffffffffffffffffffffffffffffffffffffffffff1916827bffffffffffffffffffffffffffffffffffffffffffffffffffffffff1916148061071457506107138261129c565b5b9050919050565b60606000805461072a90612cee565b80601f016020809104026020016040519081016040528092919081815260200182805461075690612cee565b80156107a35780601f10610778576101008083540402835291602001916107a3565b820191906000526020600020905b81548152906001019060200180831161078657829003601f168201915b5050505050905090565b60006107b88261137e565b6004600083815260200190815260200160002060009054906101000a900473ffffffffffffffffffffffffffffffffffffffff169050919050565b60006107fe82610b17565b90508073ffffffffffffffffffffffffffffffffffffffff168373ffffffffffffffffffffffffffffffffffffffff16141561086f576040517f08c379a000000000000000000000000000000000000000000000000000000000815260040161086690612d92565b60405180910390fd5b8073ffffffffffffffffffffffffffffffffffffffff1661088e6113c9565b73ffffffffffffffffffffffffffffffffffffffff1614806108bd57506108bc816108b76113c9565b611184565b5b6108fc576040517f08c379a00000000000000000000000000000000000000000000000000000000081526004016108f390612e24565b60405180910390fd5b61090683836113d1565b505050565b600b5481565b6000600880549050905090565b61092f6109296113c9565b8261148a565b61096e576040517f08c379a000000000000000000000000000000000000000000000000000000000815260040161096590612eb6565b60405180910390fd5b61097983838361151f565b505050565b600061098983610c2c565b82106109ca576040517f08c379a00000000000000000000000000000000000000000000000000000000081526004016109c190612f48565b60405180910390fd5b600660008473ffffffffffffffffffffffffffffffffffffffff1673ffffffffffffffffffffffffffffffffffffffff168152602001908152602001600020600083815260200190815260200160002054905092915050565b610a2b611819565b600081604051602001610a3e9190612fb0565b60405160208183030381529060405280519060200120905060016010600083815260200190815260200160002060006101000a81548160ff0219169083151502179055505050565b610aa18383836040518060200160405280600081525061100f565b505050565b6000610ab0610911565b8210610af1576040517f08c379a0000000000000000000000000000000000000000000000000000000008152600401610ae89061303d565b60405180910390fd5b60088281548110610b0557610b0461305d565b5b90600052602060002001549050919050565b600080610b2383611897565b9050600073ffffffffffffffffffffffffffffffffffffffff168173ffffffffffffffffffffffffffffffffffffffff161415610b95576040517f08c379a0000000000000000000000000000000000000000000000000000000008152600401610b8c906130d8565b60405180910390fd5b80915050919050565b600e8054610bab90612cee565b80601f0160208091040260200160405190810160405280929190818152602001828054610bd790612cee565b8015610c245780601f10610bf957610100808354040283529160200191610c24565b820191906000526020600020905b815481529060010190602001808311610c0757829003601f168201915b505050505081565b60008073ffffffffffffffffffffffffffffffffffffffff168273ffffffffffffffffffffffffffffffffffffffff161415610c9d576040517f08c379a0000000000000000000000000000000000000000000000000000000008152600401610c949061316a565b60405180910390fd5b600360008373ffffffffffffffffffffffffffffffffffffffff1673ffffffffffffffffffffffffffffffffffffffff168152602001908152602001600020549050919050565b610cec611819565b610cf660006118d4565b565b60008082604051602001610d0c9190612fb0565b6040516020818303038152906040528051906020012090506010600082815260200190815260200160002060009054906101000a900460ff16915050919050565b6000600a60009054906101000a900473ffffffffffffffffffffffffffffffffffffffff16905090565b606060018054610d8690612cee565b80601f0160208091040260200160405190810160405280929190818152602001828054610db290612cee565b8015610dff5780601f10610dd457610100808354040283529160200191610dff565b820191906000526020600020905b815481529060010190602001808311610de257829003601f168201915b5050505050905090565b600d54421015610e4e576040517f08c379a0000000000000000000000000000000000000000000000000000000008152600401610e45906131d6565b60405180910390fd5b610e5733610cf8565b610e96576040517f08c379a0000000000000000000000000000000000000000000000000000000008152600401610e8d90613268565b60405180910390fd5b60008111610ed9576040517f08c379a0000000000000000000000000000000000000000000000000000000008152600401610ed0906132d4565b60405180910390fd5b80600b54610ee79190613323565b341015610f29576040517f08c379a0000000000000000000000000000000000000000000000000000000008152600401610f20906133c9565b60405180910390fd5b6000610f33610911565b9050600c548282610f4491906133e9565b1115610f85576040517f08c379a0000000000000000000000000000000000000000000000000000000008152600401610f7c9061348b565b60405180910390fd5b6000600190505b828111610fbb57610fa8338284610fa391906133e9565b61199a565b8080610fb3906134ab565b915050610f8c565b507ff3cea5493d790af0133817606f7350a91d7f154ea52eaa79d179d4d231e501028233604051610fed9291906134f4565b60405180910390a15050565b61100b6110046113c9565b83836119b8565b5050565b61102061101a6113c9565b8361148a565b61105f576040517f08c379a000000000000000000000000000000000000000000000000000000000815260040161105690612eb6565b60405180910390fd5b61106b84848484611b25565b50505050565b600f805461107e90612cee565b80601f01602080910402602001604051908101604052809291908181526020018280546110aa90612cee565b80156110f75780601f106110cc576101008083540402835291602001916110f7565b820191906000526020600020905b8154815290600101906020018083116110da57829003601f168201915b505050505081565b606061110a82611b81565b611149576040517f08c379a000000000000000000000000000000000000000000000000000000000815260040161114090613569565b60405180910390fd5b600e61115483611bc2565b600f60405160200161116893929190613659565b6040516020818303038152906040529050919050565b600c5481565b6000600560008473ffffffffffffffffffffffffffffffffffffffff1673ffffffffffffffffffffffffffffffffffffffff16815260200190815260200160002060008373ffffffffffffffffffffffffffffffffffffffff1673ffffffffffffffffffffffffffffffffffffffff16815260200190815260200160002060009054906101000a900460ff16905092915050565b611220611819565b600073ffffffffffffffffffffffffffffffffffffffff168173ffffffffffffffffffffffffffffffffffffffff161415611290576040517f08c379a0000000000000000000000000000000000000000000000000000000008152600401611287906136fc565b60405180910390fd5b611299816118d4565b50565b60007f80ac58cd000000000000000000000000000000000000000000000000000000007bffffffffffffffffffffffffffffffffffffffffffffffffffffffff1916827bffffffffffffffffffffffffffffffffffffffffffffffffffffffff1916148061136757507f5b5e139f000000000000000000000000000000000000000000000000000000007bffffffffffffffffffffffffffffffffffffffffffffffffffffffff1916827bffffffffffffffffffffffffffffffffffffffffffffffffffffffff1916145b80611377575061137682611c9a565b5b9050919050565b61138781611b81565b6113c6576040517f08c379a00000000000000000000000000000000000000000000000000000000081526004016113bd906130d8565b60405180910390fd5b50565b600033905090565b816004600083815260200190815260200160002060006101000a81548173ffffffffffffffffffffffffffffffffffffffff021916908373ffffffffffffffffffffffffffffffffffffffff160217905550808273ffffffffffffffffffffffffffffffffffffffff1661144483610b17565b73ffffffffffffffffffffffffffffffffffffffff167f8c5be1e5ebec7d5bd14f71427d1e84f3dd0314c0f7b2291e5b200ac8c7c3b92560405160405180910390a45050565b60008061149683610b17565b90508073ffffffffffffffffffffffffffffffffffffffff168473ffffffffffffffffffffffffffffffffffffffff1614806114d857506114d78185611184565b5b8061151657508373ffffffffffffffffffffffffffffffffffffffff166114fe846107ad565b73ffffffffffffffffffffffffffffffffffffffff16145b91505092915050565b8273ffffffffffffffffffffffffffffffffffffffff1661153f82610b17565b73ffffffffffffffffffffffffffffffffffffffff1614611595576040517f08c379a000000000000000000000000000000000000000000000000000000000815260040161158c9061378e565b60405180910390fd5b600073ffffffffffffffffffffffffffffffffffffffff168273ffffffffffffffffffffffffffffffffffffffff161415611605576040517f08c379a00000000000000000000000000000000000000000000000000000000081526004016115fc90613820565b60405180910390fd5b6116128383836001611d04565b8273ffffffffffffffffffffffffffffffffffffffff1661163282610b17565b73ffffffffffffffffffffffffffffffffffffffff1614611688576040517f08c379a000000000000000000000000000000000000000000000000000000000815260040161167f9061378e565b60405180910390fd5b6004600082815260200190815260200160002060006101000a81549073ffffffffffffffffffffffffffffffffffffffff02191690556001600360008573ffffffffffffffffffffffffffffffffffffffff1673ffffffffffffffffffffffffffffffffffffffff168152602001908152602001600020600082825403925050819055506001600360008473ffffffffffffffffffffffffffffffffffffffff1673ffffffffffffffffffffffffffffffffffffffff16815260200190815260200160002060008282540192505081905550816002600083815260200190815260200160002060006101000a81548173ffffffffffffffffffffffffffffffffffffffff021916908373ffffffffffffffffffffffffffffffffffffffff160217905550808273ffffffffffffffffffffffffffffffffffffffff168473ffffffffffffffffffffffffffffffffffffffff167fddf252ad1be2c89b69c2b068fc378daa952ba7f163c4a11628f55a4df523b3ef60405160405180910390a46118148383836001611e64565b505050565b6118216113c9565b73ffffffffffffffffffffffffffffffffffffffff1661183f610d4d565b73ffffffffffffffffffffffffffffffffffffffff1614611895576040517f08c379a000000000000000000000000000000000000000000000000000000000815260040161188c9061388c565b60405180910390fd5b565b60006002600083815260200190815260200160002060009054906101000a900473ffffffffffffffffffffffffffffffffffffffff169050919050565b6000600a60009054906101000a900473ffffffffffffffffffffffffffffffffffffffff16905081600a60006101000a81548173ffffffffffffffffffffffffffffffffffffffff021916908373ffffffffffffffffffffffffffffffffffffffff1602179055508173ffffffffffffffffffffffffffffffffffffffff168173ffffffffffffffffffffffffffffffffffffffff167f8be0079c531659141344cd1fd0a4f28419497f9722a3daafe3b4186f6b6457e060405160405180910390a35050565b6119b4828260405180602001604052806000815250611e6a565b5050565b8173ffffffffffffffffffffffffffffffffffffffff168373ffffffffffffffffffffffffffffffffffffffff161415611a27576040517f08c379a0000000000000000000000000000000000000000000000000000000008152600401611a1e906138f8565b60405180910390fd5b80600560008573ffffffffffffffffffffffffffffffffffffffff1673ffffffffffffffffffffffffffffffffffffffff16815260200190815260200160002060008473ffffffffffffffffffffffffffffffffffffffff1673ffffffffffffffffffffffffffffffffffffffff16815260200190815260200160002060006101000a81548160ff0219169083151502179055508173ffffffffffffffffffffffffffffffffffffffff168373ffffffffffffffffffffffffffffffffffffffff167f17307eab39ab6107e8899845ad3d59bd9653f200f220920489ca2b5937696c3183604051611b1891906127e4565b60405180910390a3505050565b611b3084848461151f565b611b3c84848484611ec5565b611b7b576040517f08c379a0000000000000000000000000000000000000000000000000000000008152600401611b729061398a565b60405180910390fd5b50505050565b60008073ffffffffffffffffffffffffffffffffffffffff16611ba383611897565b73ffffffffffffffffffffffffffffffffffffffff1614159050919050565b606060006001611bd18461205c565b01905060008167ffffffffffffffff811115611bf057611bef612ad1565b5b6040519080825280601f01601f191660200182016040528015611c225781602001600182028036833780820191505090505b509050600082602001820190505b600115611c8f578080600190039150507f3031323334353637383961626364656600000000000000000000000000000000600a86061a8153600a8581611c7957611c786139aa565b5b0494506000851415611c8a57611c8f565b611c30565b819350505050919050565b60007f01ffc9a7000000000000000000000000000000000000000000000000000000007bffffffffffffffffffffffffffffffffffffffffffffffffffffffff1916827bffffffffffffffffffffffffffffffffffffffffffffffffffffffff1916149050919050565b611d10848484846121af565b6001811115611d54576040517f08c379a0000000000000000000000000000000000000000000000000000000008152600401611d4b90613a4b565b60405180910390fd5b6000829050600073ffffffffffffffffffffffffffffffffffffffff168573ffffffffffffffffffffffffffffffffffffffff161415611d9c57611d97816121b5565b611ddb565b8373ffffffffffffffffffffffffffffffffffffffff168573ffffffffffffffffffffffffffffffffffffffff1614611dda57611dd985826121fe565b5b5b600073ffffffffffffffffffffffffffffffffffffffff168473ffffffffffffffffffffffffffffffffffffffff161415611e1e57611e198161236b565b611e5d565b8473ffffffffffffffffffffffffffffffffffffffff168473ffffffffffffffffffffffffffffffffffffffff1614611e5c57611e5b848261243c565b5b5b5050505050565b50505050565b611e7483836124bb565b611e816000848484611ec5565b611ec0576040517f08c379a0000000000000000000000000000000000000000000000000000000008152600401611eb79061398a565b60405180910390fd5b505050565b6000611ee68473ffffffffffffffffffffffffffffffffffffffff166126d9565b1561204f578373ffffffffffffffffffffffffffffffffffffffff1663150b7a02611f0f6113c9565b8786866040518563ffffffff1660e01b8152600401611f319493929190613ac0565b602060405180830381600087803b158015611f4b57600080fd5b505af1925050508015611f7c57506040513d601f19601f82011682018060405250810190611f799190613b21565b60015b611fff573d8060008114611fac576040519150601f19603f3d011682016040523d82523d6000602084013e611fb1565b606091505b50600081511415611ff7576040517f08c379a0000000000000000000000000000000000000000000000000000000008152600401611fee9061398a565b60405180910390fd5b805181602001fd5b63150b7a0260e01b7bffffffffffffffffffffffffffffffffffffffffffffffffffffffff1916817bffffffffffffffffffffffffffffffffffffffffffffffffffffffff191614915050612054565b600190505b949350505050565b600080600090507a184f03e93ff9f4daa797ed6e38ed64bf6a1f01000000000000000083106120ba577a184f03e93ff9f4daa797ed6e38ed64bf6a1f01000000000000000083816120b0576120af6139aa565b5b0492506040810190505b6d04ee2d6d415b85acef810000000083106120f7576d04ee2d6d415b85acef810000000083816120ed576120ec6139aa565b5b0492506020810190505b662386f26fc10000831061212657662386f26fc10000838161211c5761211b6139aa565b5b0492506010810190505b6305f5e100831061214f576305f5e1008381612145576121446139aa565b5b0492506008810190505b612710831061217457612710838161216a576121696139aa565b5b0492506004810190505b60648310612197576064838161218d5761218c6139aa565b5b0492506002810190505b600a83106121a6576001810190505b80915050919050565b50505050565b6008805490506009600083815260200190815260200160002081905550600881908060018154018082558091505060019003906000526020600020016000909190919091505550565b6000600161220b84610c2c565b6122159190613b4e565b90506000600760008481526020019081526020016000205490508181146122fa576000600660008673ffffffffffffffffffffffffffffffffffffffff1673ffffffffffffffffffffffffffffffffffffffff168152602001908152602001600020600084815260200190815260200160002054905080600660008773ffffffffffffffffffffffffffffffffffffffff1673ffffffffffffffffffffffffffffffffffffffff168152602001908152602001600020600084815260200190815260200160002081905550816007600083815260200190815260200160002081905550505b6007600084815260200190815260200160002060009055600660008573ffffffffffffffffffffffffffffffffffffffff1673ffffffffffffffffffffffffffffffffffffffff16815260200190815260200160002060008381526020019081526020016000206000905550505050565b6000600160088054905061237f9190613b4e565b90506000600960008481526020019081526020016000205490506000600883815481106123af576123ae61305d565b5b9060005260206000200154905080600883815481106123d1576123d061305d565b5b9060005260206000200181905550816009600083815260200190815260200160002081905550600960008581526020019081526020016000206000905560088054806124205761241f613b82565b5b6001900381819060005260206000200160009055905550505050565b600061244783610c2c565b905081600660008573ffffffffffffffffffffffffffffffffffffffff1673ffffffffffffffffffffffffffffffffffffffff168152602001908152602001600020600083815260200190815260200160002081905550806007600084815260200190815260200160002081905550505050565b600073ffffffffffffffffffffffffffffffffffffffff168273ffffffffffffffffffffffffffffffffffffffff16141561252b576040517f08c379a000000000000000000000000000000000000000000000000000000000815260040161252290613bfd565b60405180910390fd5b61253481611b81565b15612574576040517f08c379a000000000000000000000000000000000000000000000000000000000815260040161256b90613c69565b60405180910390fd5b612582600083836001611d04565b61258b81611b81565b156125cb576040517f08c379a00000000000000000000000000000000000000000000000000000000081526004016125c290613c69565b60405180910390fd5b6001600360008473ffffffffffffffffffffffffffffffffffffffff1673ffffffffffffffffffffffffffffffffffffffff16815260200190815260200160002060008282540192505081905550816002600083815260200190815260200160002060006101000a81548173ffffffffffffffffffffffffffffffffffffffff021916908373ffffffffffffffffffffffffffffffffffffffff160217905550808273ffffffffffffffffffffffffffffffffffffffff16600073ffffffffffffffffffffffffffffffffffffffff167fddf252ad1be2c89b69c2b068fc378daa952ba7f163c4a11628f55a4df523b3ef60405160405180910390a46126d5600083836001611e64565b5050565b6000808273ffffffffffffffffffffffffffffffffffffffff163b119050919050565b6000819050919050565b61270f816126fc565b82525050565b600060208201905061272a6000830184612706565b92915050565b6000604051905090565b600080fd5b600080fd5b60007fffffffff0000000000000000000000000000000000000000000000000000000082169050919050565b61277981612744565b811461278457600080fd5b50565b60008135905061279681612770565b92915050565b6000602082840312156127b2576127b161273a565b5b60006127c084828501612787565b91505092915050565b60008115159050919050565b6127de816127c9565b82525050565b60006020820190506127f960008301846127d5565b92915050565b600081519050919050565b600082825260208201905092915050565b60005b8381101561283957808201518184015260208101905061281e565b83811115612848576000848401525b50505050565b6000601f19601f8301169050919050565b600061286a826127ff565b612874818561280a565b935061288481856020860161281b565b61288d8161284e565b840191505092915050565b600060208201905081810360008301526128b2818461285f565b905092915050565b6128c3816126fc565b81146128ce57600080fd5b50565b6000813590506128e0816128ba565b92915050565b6000602082840312156128fc576128fb61273a565b5b600061290a848285016128d1565b91505092915050565b600073ffffffffffffffffffffffffffffffffffffffff82169050919050565b600061293e82612913565b9050919050565b61294e81612933565b82525050565b60006020820190506129696000830184612945565b92915050565b61297881612933565b811461298357600080fd5b50565b6000813590506129958161296f565b92915050565b600080604083850312156129b2576129b161273a565b5b60006129c085828601612986565b92505060206129d1858286016128d1565b9150509250929050565b6000806000606084860312156129f4576129f361273a565b5b6000612a0286828701612986565b9350506020612a1386828701612986565b9250506040612a24868287016128d1565b9150509250925092565b600060208284031215612a4457612a4361273a565b5b6000612a5284828501612986565b91505092915050565b612a64816127c9565b8114612a6f57600080fd5b50565b600081359050612a8181612a5b565b92915050565b60008060408385031215612a9e57612a9d61273a565b5b6000612aac85828601612986565b9250506020612abd85828601612a72565b9150509250929050565b600080fd5b600080fd5b7f4e487b7100000000000000000000000000000000000000000000000000000000600052604160045260246000fd5b612b098261284e565b810181811067ffffffffffffffff82111715612b2857612b27612ad1565b5b80604052505050565b6000612b3b612730565b9050612b478282612b00565b919050565b600067ffffffffffffffff821115612b6757612b66612ad1565b5b612b708261284e565b9050602081019050919050565b82818337600083830152505050565b6000612b9f612b9a84612b4c565b612b31565b905082815260208101848484011115612bbb57612bba612acc565b5b612bc6848285612b7d565b509392505050565b600082601f830112612be357612be2612ac7565b5b8135612bf3848260208601612b8c565b91505092915050565b60008060008060808587031215612c1657612c1561273a565b5b6000612c2487828801612986565b9450506020612c3587828801612986565b9350506040612c46878288016128d1565b925050606085013567ffffffffffffffff811115612c6757612c6661273f565b5b612c7387828801612bce565b91505092959194509250565b60008060408385031215612c9657612c9561273a565b5b6000612ca485828601612986565b9250506020612cb585828601612986565b9150509250929050565b7f4e487b7100000000000000000000000000000000000000000000000000000000600052602260045260246000fd5b60006002820490506001821680612d0657607f821691505b60208210811415612d1a57612d19612cbf565b5b50919050565b7f4552433732313a20617070726f76616c20746f2063757272656e74206f776e6560008201527f7200000000000000000000000000000000000000000000000000000000000000602082015250565b6000612d7c60218361280a565b9150612d8782612d20565b604082019050919050565b60006020820190508181036000830152612dab81612d6f565b9050919050565b7f4552433732313a20617070726f76652063616c6c6572206973206e6f7420746f60008201527f6b656e206f776e6572206f7220617070726f76656420666f7220616c6c000000602082015250565b6000612e0e603d8361280a565b9150612e1982612db2565b604082019050919050565b60006020820190508181036000830152612e3d81612e01565b9050919050565b7f4552433732313a2063616c6c6572206973206e6f7420746f6b656e206f776e6560008201527f72206f7220617070726f76656400000000000000000000000000000000000000602082015250565b6000612ea0602d8361280a565b9150612eab82612e44565b604082019050919050565b60006020820190508181036000830152612ecf81612e93565b9050919050565b7f455243373231456e756d657261626c653a206f776e657220696e646578206f7560008201527f74206f6620626f756e6473000000000000000000000000000000000000000000602082015250565b6000612f32602b8361280a565b9150612f3d82612ed6565b604082019050919050565b60006020820190508181036000830152612f6181612f25565b9050919050565b60008160601b9050919050565b6000612f8082612f68565b9050919050565b6000612f9282612f75565b9050919050565b612faa612fa582612933565b612f87565b82525050565b6000612fbc8284612f99565b60148201915081905092915050565b7f455243373231456e756d657261626c653a20676c6f62616c20696e646578206f60008201527f7574206f6620626f756e64730000000000000000000000000000000000000000602082015250565b6000613027602c8361280a565b915061303282612fcb565b604082019050919050565b600060208201905081810360008301526130568161301a565b9050919050565b7f4e487b7100000000000000000000000000000000000000000000000000000000600052603260045260246000fd5b7f4552433732313a20696e76616c696420746f6b656e2049440000000000000000600082015250565b60006130c260188361280a565b91506130cd8261308c565b602082019050919050565b600060208201905081810360008301526130f1816130b5565b9050919050565b7f4552433732313a2061646472657373207a65726f206973206e6f74206120766160008201527f6c6964206f776e65720000000000000000000000000000000000000000000000602082015250565b600061315460298361280a565b915061315f826130f8565b604082019050919050565b6000602082019050818103600083015261318381613147565b9050919050565b7f4d696e74696e67206e6f74206f70656e20796574000000000000000000000000600082015250565b60006131c060148361280a565b91506131cb8261318a565b602082019050919050565b600060208201905081810360008301526131ef816131b3565b9050919050565b7f746869732061646472657373206973206e6f74206f6e2074686520616c6c6f7760008201527f206c697374000000000000000000000000000000000000000000000000000000602082015250565b600061325260258361280a565b915061325d826131f6565b604082019050919050565b6000602082019050818103600083015261328181613245565b9050919050565b7f6d757374206d696e74206174206c656173742031204e46540000000000000000600082015250565b60006132be60188361280a565b91506132c982613288565b602082019050919050565b600060208201905081810360008301526132ed816132b1565b9050919050565b7f4e487b7100000000000000000000000000000000000000000000000000000000600052601160045260246000fd5b600061332e826126fc565b9150613339836126fc565b9250817fffffffffffffffffffffffffffffffffffffffffffffffffffffffffffffffff0483118215151615613372576133716132f4565b5b828202905092915050565b7f696e737566666963656e74207061796d656e7400000000000000000000000000600082015250565b60006133b360138361280a565b91506133be8261337d565b602082019050919050565b600060208201905081810360008301526133e2816133a6565b9050919050565b60006133f4826126fc565b91506133ff836126fc565b9250827fffffffffffffffffffffffffffffffffffffffffffffffffffffffffffffffff03821115613434576134336132f4565b5b828201905092915050565b7f6578636565646564206d617820737570706c7900000000000000000000000000600082015250565b600061347560138361280a565b91506134808261343f565b602082019050919050565b600060208201905081810360008301526134a481613468565b9050919050565b60006134b6826126fc565b91507fffffffffffffffffffffffffffffffffffffffffffffffffffffffffffffffff8214156134e9576134e86132f4565b5b600182019050919050565b60006040820190506135096000830185612706565b6135166020830184612945565b9392505050565b7f746f6b656e20646f6573206e6f74206578697374000000000000000000000000600082015250565b600061355360148361280a565b915061355e8261351d565b602082019050919050565b6000602082019050818103600083015261358281613546565b9050919050565b600081905092915050565b60008190508160005260206000209050919050565b600081546135b681612cee565b6135c08186613589565b945060018216600081146135db57600181146135ec5761361f565b60ff1983168652818601935061361f565b6135f585613594565b60005b83811015613617578154818901526001820191506020810190506135f8565b838801955050505b50505092915050565b6000613633826127ff565b61363d8185613589565b935061364d81856020860161281b565b80840191505092915050565b600061366582866135a9565b91506136718285613628565b915061367d82846135a9565b9150819050949350505050565b7f4f776e61626c653a206e6577206f776e657220697320746865207a65726f206160008201527f6464726573730000000000000000000000000000000000000000000000000000602082015250565b60006136e660268361280a565b91506136f18261368a565b604082019050919050565b60006020820190508181036000830152613715816136d9565b9050919050565b7f4552433732313a207472616e736665722066726f6d20696e636f72726563742060008201527f6f776e6572000000000000000000000000000000000000000000000000000000602082015250565b600061377860258361280a565b91506137838261371c565b604082019050919050565b600060208201905081810360008301526137a78161376b565b9050919050565b7f4552433732313a207472616e7366657220746f20746865207a65726f2061646460008201527f7265737300000000000000000000000000000000000000000000000000000000602082015250565b600061380a60248361280a565b9150613815826137ae565b604082019050919050565b60006020820190508181036000830152613839816137fd565b9050919050565b7f4f776e61626c653a2063616c6c6572206973206e6f7420746865206f776e6572600082015250565b600061387660208361280a565b915061388182613840565b602082019050919050565b600060208201905081810360008301526138a581613869565b9050919050565b7f4552433732313a20617070726f766520746f2063616c6c657200000000000000600082015250565b60006138e260198361280a565b91506138ed826138ac565b602082019050919050565b60006020820190508181036000830152613911816138d5565b9050919050565b7f4552433732313a207472616e7366657220746f206e6f6e20455243373231526560008201527f63656976657220696d706c656d656e7465720000000000000000000000000000602082015250565b600061397460328361280a565b915061397f82613918565b604082019050919050565b600060208201905081810360008301526139a381613967565b9050919050565b7f4e487b7100000000000000000000000000000000000000000000000000000000600052601260045260246000fd5b7f455243373231456e756d657261626c653a20636f6e736563757469766520747260008201527f616e7366657273206e6f7420737570706f727465640000000000000000000000602082015250565b6000613a3560358361280a565b9150613a40826139d9565b604082019050919050565b60006020820190508181036000830152613a6481613a28565b9050919050565b600081519050919050565b600082825260208201905092915050565b6000613a9282613a6b565b613a9c8185613a76565b9350613aac81856020860161281b565b613ab58161284e565b840191505092915050565b6000608082019050613ad56000830187612945565b613ae26020830186612945565b613aef6040830185612706565b8181036060830152613b018184613a87565b905095945050505050565b600081519050613b1b81612770565b92915050565b600060208284031215613b3757613b3661273a565b5b6000613b4584828501613b0c565b91505092915050565b6000613b59826126fc565b9150613b64836126fc565b925082821015613b7757613b766132f4565b5b828203905092915050565b7f4e487b7100000000000000000000000000000000000000000000000000000000600052603160045260246000fd5b7f4552433732313a206d696e7420746f20746865207a65726f2061646472657373600082015250565b6000613be760208361280a565b9150613bf282613bb1565b602082019050919050565b60006020820190508181036000830152613c1681613bda565b9050919050565b7f4552433732313a20746f6b656e20616c7265616479206d696e74656400000000600082015250565b6000613c53601c8361280a565b9150613c5e82613c1d565b602082019050919050565b60006020820190508181036000830152613c8281613c46565b905091905056fea26469706673582212206c78f2ca190a78f28b711ad51abd567a91e6f0e4c43e8f362f6af3f4da20dc3d64736f6c63430008090033",
  "linkReferences": {},
  "deployedLinkReferences": {}
}