{
  "_format": "hh-sol-artifact-1",
  "contractName": "MyNFT",
  "sourceName": "contracts/MyNFT.sol",
  "abi": [
    {
      "inputs": [
        {
          "internalType": "string",
          "name": "_name",
          "type": "string"
        },
        {
          "internalType": "string",
          "name": "_symbol",
          "type": "string"
        },
        {
          "internalType": "uint256",
          "name": "_cost",
          "type": "uint256"
        },
        {
          "internalType": "uint256",
          "name": "_maxSupply",
          "type": "uint256"
        },
        {
          "internalType": "uint256",
          "name": "_allowMintingOn",
          "type": "uint256"
        },
        {
          "internalType": "string",
          "name": "_baseURI",
          "type": "string"
        }
      ],
      "stateMutability": "nonpayable",
      "type": "constructor"
    },
    {
      "anonymous": false,
      "inputs": [
        {
          "indexed": true,
          "internalType": "address",
          "name": "owner",
          "type": "address"
        },
        {
          "indexed": true,
          "internalType": "address",
          "name": "approved",
          "type": "address"
        },
        {
          "indexed": true,
          "internalType": "uint256",
          "name": "tokenId",
          "type": "uint256"
        }
      ],
      "name": "Approval",
      "type": "event"
    },
    {
      "anonymous": false,
      "inputs": [
        {
          "indexed": true,
          "internalType": "address",
          "name": "owner",
          "type": "address"
        },
        {
          "indexed": true,
          "internalType": "address",
          "name": "operator",
          "type": "address"
        },
        {
          "indexed": false,
          "internalType": "bool",
          "name": "approved",
          "type": "bool"
        }
      ],
      "name": "ApprovalForAll",
      "type": "event"
    },
    {
      "anonymous": false,
      "inputs": [
        {
          "indexed": true,
          "internalType": "address",
          "name": "previousOwner",
          "type": "address"
        },
        {
          "indexed": true,
          "internalType": "address",
          "name": "newOwner",
          "type": "address"
        }
      ],
      "name": "OwnershipTransferred",
      "type": "event"
    },
    {
      "anonymous": false,
      "inputs": [
        {
          "indexed": true,
          "internalType": "address",
          "name": "from",
          "type": "address"
        },
        {
          "indexed": true,
          "internalType": "address",
          "name": "to",
          "type": "address"
        },
        {
          "indexed": true,
          "internalType": "uint256",
          "name": "tokenId",
          "type": "uint256"
        }
      ],
      "name": "Transfer",
      "type": "event"
    },
    {
      "inputs": [
        {
          "internalType": "address",
          "name": "_address",
          "type": "address"
        }
      ],
      "name": "addAddress",
      "outputs": [],
      "stateMutability": "nonpayable",
      "type": "function"
    },
    {
      "inputs": [],
      "name": "allowMintingOn",
      "outputs": [
        {
          "internalType": "uint256",
          "name": "",
          "type": "uint256"
        }
      ],
      "stateMutability": "view",
      "type": "function"
    },
    {
      "inputs": [
        {
          "internalType": "address",
          "name": "to",
          "type": "address"
        },
        {
          "internalType": "uint256",
          "name": "tokenId",
          "type": "uint256"
        }
      ],
      "name": "approve",
      "outputs": [],
      "stateMutability": "nonpayable",
      "type": "function"
    },
    {
      "inputs": [
        {
          "internalType": "address",
          "name": "owner",
          "type": "address"
        }
      ],
      "name": "balanceOf",
      "outputs": [
        {
          "internalType": "uint256",
          "name": "",
          "type": "uint256"
        }
      ],
      "stateMutability": "view",
      "type": "function"
    },
    {
      "inputs": [],
      "name": "baseURI",
      "outputs": [
        {
          "internalType": "string",
          "name": "",
          "type": "string"
        }
      ],
      "stateMutability": "view",
      "type": "function"
    },
    {
      "inputs": [],
      "name": "cost",
      "outputs": [
        {
          "internalType": "uint256",
          "name": "",
          "type": "uint256"
        }
      ],
      "stateMutability": "view",
      "type": "function"
    },
    {
      "inputs": [
        {
          "internalType": "uint256",
          "name": "tokenId",
          "type": "uint256"
        }
      ],
      "name": "getApproved",
      "outputs": [
        {
          "internalType": "address",
          "name": "",
          "type": "address"
        }
      ],
      "stateMutability": "view",
      "type": "function"
    },
    {
      "inputs": [
        {
          "internalType": "address",
          "name": "owner",
          "type": "address"
        },
        {
          "internalType": "address",
          "name": "operator",
          "type": "address"
        }
      ],
      "name": "isApprovedForAll",
      "outputs": [
        {
          "internalType": "bool",
          "name": "",
          "type": "bool"
        }
      ],
      "stateMutability": "view",
      "type": "function"
    },
    {
      "inputs": [
        {
          "internalType": "address",
          "name": "_address",
          "type": "address"
        }
      ],
      "name": "isOnList",
      "outputs": [
        {
          "internalType": "bool",
          "name": "",
          "type": "bool"
        }
      ],
      "stateMutability": "view",
      "type": "function"
    },
    {
      "inputs": [],
      "name": "maxSupply",
      "outputs": [
        {
          "internalType": "uint256",
          "name": "",
          "type": "uint256"
        }
      ],
      "stateMutability": "view",
      "type": "function"
    },
    {
      "inputs": [
        {
          "internalType": "uint256",
          "name": "_mintAmount",
          "type": "uint256"
        }
      ],
      "name": "mint",
      "outputs": [],
      "stateMutability": "payable",
      "type": "function"
    },
    {
      "inputs": [],
      "name": "name",
      "outputs": [
        {
          "internalType": "string",
          "name": "",
          "type": "string"
        }
      ],
      "stateMutability": "view",
      "type": "function"
    },
    {
      "inputs": [],
      "name": "owner",
      "outputs": [
        {
          "internalType": "address",
          "name": "",
          "type": "address"
        }
      ],
      "stateMutability": "view",
      "type": "function"
    },
    {
      "inputs": [
        {
          "internalType": "uint256",
          "name": "tokenId",
          "type": "uint256"
        }
      ],
      "name": "ownerOf",
      "outputs": [
        {
          "internalType": "address",
          "name": "",
          "type": "address"
        }
      ],
      "stateMutability": "view",
      "type": "function"
    },
    {
      "inputs": [],
      "name": "renounceOwnership",
      "outputs": [],
      "stateMutability": "nonpayable",
      "type": "function"
    },
    {
      "inputs": [
        {
          "internalType": "address",
          "name": "from",
          "type": "address"
        },
        {
          "internalType": "address",
          "name": "to",
          "type": "address"
        },
        {
          "internalType": "uint256",
          "name": "tokenId",
          "type": "uint256"
        }
      ],
      "name": "safeTransferFrom",
      "outputs": [],
      "stateMutability": "nonpayable",
      "type": "function"
    },
    {
      "inputs": [
        {
          "internalType": "address",
          "name": "from",
          "type": "address"
        },
        {
          "internalType": "address",
          "name": "to",
          "type": "address"
        },
        {
          "internalType": "uint256",
          "name": "tokenId",
          "type": "uint256"
        },
        {
          "internalType": "bytes",
          "name": "data",
          "type": "bytes"
        }
      ],
      "name": "safeTransferFrom",
      "outputs": [],
      "stateMutability": "nonpayable",
      "type": "function"
    },
    {
      "inputs": [
        {
          "internalType": "address",
          "name": "operator",
          "type": "address"
        },
        {
          "internalType": "bool",
          "name": "approved",
          "type": "bool"
        }
      ],
      "name": "setApprovalForAll",
      "outputs": [],
      "stateMutability": "nonpayable",
      "type": "function"
    },
    {
      "inputs": [
        {
          "internalType": "bytes4",
          "name": "interfaceId",
          "type": "bytes4"
        }
      ],
      "name": "supportsInterface",
      "outputs": [
        {
          "internalType": "bool",
          "name": "",
          "type": "bool"
        }
      ],
      "stateMutability": "view",
      "type": "function"
    },
    {
      "inputs": [],
      "name": "symbol",
      "outputs": [
        {
          "internalType": "string",
          "name": "",
          "type": "string"
        }
      ],
      "stateMutability": "view",
      "type": "function"
    },
    {
      "inputs": [
        {
          "internalType": "uint256",
          "name": "index",
          "type": "uint256"
        }
      ],
      "name": "tokenByIndex",
      "outputs": [
        {
          "internalType": "uint256",
          "name": "",
          "type": "uint256"
        }
      ],
      "stateMutability": "view",
      "type": "function"
    },
    {
      "inputs": [
        {
          "internalType": "address",
          "name": "owner",
          "type": "address"
        },
        {
          "internalType": "uint256",
          "name": "index",
          "type": "uint256"
        }
      ],
      "name": "tokenOfOwnerByIndex",
      "outputs": [
        {
          "internalType": "uint256",
          "name": "",
          "type": "uint256"
        }
      ],
      "stateMutability": "view",
      "type": "function"
    },
    {
      "inputs": [
        {
          "internalType": "uint256",
          "name": "tokenId",
          "type": "uint256"
        }
      ],
      "name": "tokenURI",
      "outputs": [
        {
          "internalType": "string",
          "name": "",
          "type": "string"
        }
      ],
      "stateMutability": "view",
      "type": "function"
    },
    {
      "inputs": [],
      "name": "totalSupply",
      "outputs": [
        {
          "internalType": "uint256",
          "name": "",
          "type": "uint256"
        }
      ],
      "stateMutability": "view",
      "type": "function"
    },
    {
      "inputs": [
        {
          "internalType": "address",
          "name": "from",
          "type": "address"
        },
        {
          "internalType": "address",
          "name": "to",
          "type": "address"
        },
        {
          "internalType": "uint256",
          "name": "tokenId",
          "type": "uint256"
        }
      ],
      "name": "transferFrom",
      "outputs": [],
      "stateMutability": "nonpayable",
      "type": "function"
    },
    {
      "inputs": [
        {
          "internalType": "address",
          "name": "newOwner",
          "type": "address"
        }
      ],
      "name": "transferOwnership",
      "outputs": [],
      "stateMutability": "nonpayable",
      "type": "function"
    }
  ],
  "bytecode": "0x60806040523480156200001157600080fd5b5060405162003e9c38038062003e9c83398181016040528101906200003791906200041d565b858581600090805190602001906200005192919062000195565b5080600190805190602001906200006a92919062000195565b5050506200008d62000081620000c760201b60201c565b620000cf60201b60201c565b83600b8190555082600c8190555081600d8190555080600e9080519060200190620000ba92919062000195565b505050505050506200057b565b600033905090565b6000600a60009054906101000a900473ffffffffffffffffffffffffffffffffffffffff16905081600a60006101000a81548173ffffffffffffffffffffffffffffffffffffffff021916908373ffffffffffffffffffffffffffffffffffffffff1602179055508173ffffffffffffffffffffffffffffffffffffffff168173ffffffffffffffffffffffffffffffffffffffff167f8be0079c531659141344cd1fd0a4f28419497f9722a3daafe3b4186f6b6457e060405160405180910390a35050565b828054620001a39062000545565b90600052602060002090601f016020900481019282620001c7576000855562000213565b82601f10620001e257805160ff191683800117855562000213565b8280016001018555821562000213579182015b8281111562000212578251825591602001919060010190620001f5565b5b50905062000222919062000226565b5090565b5b808211156200024157600081600090555060010162000227565b5090565b6000604051905090565b600080fd5b600080fd5b600080fd5b600080fd5b6000601f19601f8301169050919050565b7f4e487b7100000000000000000000000000000000000000000000000000000000600052604160045260246000fd5b620002ae8262000263565b810181811067ffffffffffffffff82111715620002d057620002cf62000274565b5b80604052505050565b6000620002e562000245565b9050620002f38282620002a3565b919050565b600067ffffffffffffffff82111562000316576200031562000274565b5b620003218262000263565b9050602081019050919050565b60005b838110156200034e57808201518184015260208101905062000331565b838111156200035e576000848401525b50505050565b60006200037b6200037584620002f8565b620002d9565b9050828152602081018484840111156200039a57620003996200025e565b5b620003a78482856200032e565b509392505050565b600082601f830112620003c757620003c662000259565b5b8151620003d984826020860162000364565b91505092915050565b6000819050919050565b620003f781620003e2565b81146200040357600080fd5b50565b6000815190506200041781620003ec565b92915050565b60008060008060008060c087890312156200043d576200043c6200024f565b5b600087015167ffffffffffffffff8111156200045e576200045d62000254565b5b6200046c89828a01620003af565b965050602087015167ffffffffffffffff81111562000490576200048f62000254565b5b6200049e89828a01620003af565b9550506040620004b189828a0162000406565b9450506060620004c489828a0162000406565b9350506080620004d789828a0162000406565b92505060a087015167ffffffffffffffff811115620004fb57620004fa62000254565b5b6200050989828a01620003af565b9150509295509295509295565b7f4e487b7100000000000000000000000000000000000000000000000000000000600052602260045260246000fd5b600060028204905060018216806200055e57607f821691505b6020821081141562000575576200057462000516565b5b50919050565b613911806200058b6000396000f3fe6080604052600436106101815760003560e01c80636c0360eb116100d1578063a0712d681161008a578063c87b56dd11610064578063c87b56dd14610587578063d5abeb01146105c4578063e985e9c5146105ef578063f2fde38b1461062c57610181565b8063a0712d6814610519578063a22cb46514610535578063b88d4fde1461055e57610181565b80636c0360eb1461040757806370a0823114610432578063715018a61461046f5780637330daac146104865780638da5cb5b146104c357806395d89b41146104ee57610181565b806318160ddd1161013e57806338eada1c1161011857806338eada1c1461033b57806342842e0e146103645780634f6ccce71461038d5780636352211e146103ca57610181565b806318160ddd146102aa57806323b872dd146102d55780632f745c59146102fe57610181565b8063014679961461018657806301ffc9a7146101b157806306fdde03146101ee578063081812fc14610219578063095ea7b31461025657806313faede61461027f575b600080fd5b34801561019257600080fd5b5061019b610655565b6040516101a89190612575565b60405180910390f35b3480156101bd57600080fd5b506101d860048036038101906101d391906125fc565b61065b565b6040516101e59190612644565b60405180910390f35b3480156101fa57600080fd5b506102036106d5565b60405161021091906126f8565b60405180910390f35b34801561022557600080fd5b50610240600480360381019061023b9190612746565b610767565b60405161024d91906127b4565b60405180910390f35b34801561026257600080fd5b5061027d600480360381019061027891906127fb565b6107ad565b005b34801561028b57600080fd5b506102946108c5565b6040516102a19190612575565b60405180910390f35b3480156102b657600080fd5b506102bf6108cb565b6040516102cc9190612575565b60405180910390f35b3480156102e157600080fd5b506102fc60048036038101906102f7919061283b565b6108d8565b005b34801561030a57600080fd5b50610325600480360381019061032091906127fb565b610938565b6040516103329190612575565b60405180910390f35b34801561034757600080fd5b50610362600480360381019061035d919061288e565b6109dd565b005b34801561037057600080fd5b5061038b6004803603810190610386919061283b565b610a40565b005b34801561039957600080fd5b506103b460048036038101906103af9190612746565b610a60565b6040516103c19190612575565b60405180910390f35b3480156103d657600080fd5b506103f160048036038101906103ec9190612746565b610ad1565b6040516103fe91906127b4565b60405180910390f35b34801561041357600080fd5b5061041c610b58565b60405161042991906126f8565b60405180910390f35b34801561043e57600080fd5b506104596004803603810190610454919061288e565b610be6565b6040516104669190612575565b60405180910390f35b34801561047b57600080fd5b50610484610c9e565b005b34801561049257600080fd5b506104ad60048036038101906104a8919061288e565b610cb2565b6040516104ba9190612644565b60405180910390f35b3480156104cf57600080fd5b506104d8610d07565b6040516104e591906127b4565b60405180910390f35b3480156104fa57600080fd5b50610503610d31565b60405161051091906126f8565b60405180910390f35b610533600480360381019061052e9190612746565b610dc3565b005b34801561054157600080fd5b5061055c600480360381019061055791906128e7565b610ee7565b005b34801561056a57600080fd5b5061058560048036038101906105809190612a5c565b610efd565b005b34801561059357600080fd5b506105ae60048036038101906105a99190612746565b610f5f565b6040516105bb91906126f8565b60405180910390f35b3480156105d057600080fd5b506105d9610fc7565b6040516105e69190612575565b60405180910390f35b3480156105fb57600080fd5b5061061660048036038101906106119190612adf565b610fcd565b6040516106239190612644565b60405180910390f35b34801561063857600080fd5b50610653600480360381019061064e919061288e565b611061565b005b600d5481565b60007f780e9d63000000000000000000000000000000000000000000000000000000007bffffffffffffffffffffffffffffffffffffffffffffffffffffffff1916827bffffffffffffffffffffffffffffffffffffffffffffffffffffffff191614806106ce57506106cd826110e5565b5b9050919050565b6060600080546106e490612b4e565b80601f016020809104026020016040519081016040528092919081815260200182805461071090612b4e565b801561075d5780601f106107325761010080835404028352916020019161075d565b820191906000526020600020905b81548152906001019060200180831161074057829003601f168201915b5050505050905090565b6000610772826111c7565b6004600083815260200190815260200160002060009054906101000a900473ffffffffffffffffffffffffffffffffffffffff169050919050565b60006107b882610ad1565b90508073ffffffffffffffffffffffffffffffffffffffff168373ffffffffffffffffffffffffffffffffffffffff161415610829576040517f08c379a000000000000000000000000000000000000000000000000000000000815260040161082090612bf2565b60405180910390fd5b8073ffffffffffffffffffffffffffffffffffffffff16610848611212565b73ffffffffffffffffffffffffffffffffffffffff161480610877575061087681610871611212565b610fcd565b5b6108b6576040517f08c379a00000000000000000000000000000000000000000000000000000000081526004016108ad90612c84565b60405180910390fd5b6108c0838361121a565b505050565b600b5481565b6000600880549050905090565b6108e96108e3611212565b826112d3565b610928576040517f08c379a000000000000000000000000000000000000000000000000000000000815260040161091f90612d16565b60405180910390fd5b610933838383611368565b505050565b600061094383610be6565b8210610984576040517f08c379a000000000000000000000000000000000000000000000000000000000815260040161097b90612da8565b60405180910390fd5b600660008473ffffffffffffffffffffffffffffffffffffffff1673ffffffffffffffffffffffffffffffffffffffff168152602001908152602001600020600083815260200190815260200160002054905092915050565b6109e5611662565b6000816040516020016109f89190612e10565b6040516020818303038152906040528051906020012090506001600f600083815260200190815260200160002060006101000a81548160ff0219169083151502179055505050565b610a5b83838360405180602001604052806000815250610efd565b505050565b6000610a6a6108cb565b8210610aab576040517f08c379a0000000000000000000000000000000000000000000000000000000008152600401610aa290612e9d565b60405180910390fd5b60088281548110610abf57610abe612ebd565b5b90600052602060002001549050919050565b600080610add836116e0565b9050600073ffffffffffffffffffffffffffffffffffffffff168173ffffffffffffffffffffffffffffffffffffffff161415610b4f576040517f08c379a0000000000000000000000000000000000000000000000000000000008152600401610b4690612f38565b60405180910390fd5b80915050919050565b600e8054610b6590612b4e565b80601f0160208091040260200160405190810160405280929190818152602001828054610b9190612b4e565b8015610bde5780601f10610bb357610100808354040283529160200191610bde565b820191906000526020600020905b815481529060010190602001808311610bc157829003601f168201915b505050505081565b60008073ffffffffffffffffffffffffffffffffffffffff168273ffffffffffffffffffffffffffffffffffffffff161415610c57576040517f08c379a0000000000000000000000000000000000000000000000000000000008152600401610c4e90612fca565b60405180910390fd5b600360008373ffffffffffffffffffffffffffffffffffffffff1673ffffffffffffffffffffffffffffffffffffffff168152602001908152602001600020549050919050565b610ca6611662565b610cb0600061171d565b565b60008082604051602001610cc69190612e10565b604051602081830303815290604052805190602001209050600f600082815260200190815260200160002060009054906101000a900460ff16915050919050565b6000600a60009054906101000a900473ffffffffffffffffffffffffffffffffffffffff16905090565b606060018054610d4090612b4e565b80601f0160208091040260200160405190810160405280929190818152602001828054610d6c90612b4e565b8015610db95780601f10610d8e57610100808354040283529160200191610db9565b820191906000526020600020905b815481529060010190602001808311610d9c57829003601f168201915b5050505050905090565b600d54421015610e08576040517f08c379a0000000000000000000000000000000000000000000000000000000008152600401610dff90613036565b60405180910390fd5b610e1133610cb2565b610e50576040517f08c379a0000000000000000000000000000000000000000000000000000000008152600401610e47906130c8565b60405180910390fd5b80600b54610e5e9190613117565b341015610ea0576040517f08c379a0000000000000000000000000000000000000000000000000000000008152600401610e97906131bd565b60405180910390fd5b6000610eaa6108cb565b90506000600190505b828111610ee257610ecf338284610eca91906131dd565b6117e3565b8080610eda90613233565b915050610eb3565b505050565b610ef9610ef2611212565b8383611801565b5050565b610f0e610f08611212565b836112d3565b610f4d576040517f08c379a0000000000000000000000000000000000000000000000000000000008152600401610f4490612d16565b60405180910390fd5b610f598484848461196e565b50505050565b6060610f6a826111c7565b6000610f746119ca565b90506000815111610f945760405180602001604052806000815250610fbf565b80610f9e846119e1565b604051602001610faf9291906132b8565b6040516020818303038152906040525b915050919050565b600c5481565b6000600560008473ffffffffffffffffffffffffffffffffffffffff1673ffffffffffffffffffffffffffffffffffffffff16815260200190815260200160002060008373ffffffffffffffffffffffffffffffffffffffff1673ffffffffffffffffffffffffffffffffffffffff16815260200190815260200160002060009054906101000a900460ff16905092915050565b611069611662565b600073ffffffffffffffffffffffffffffffffffffffff168173ffffffffffffffffffffffffffffffffffffffff1614156110d9576040517f08c379a00000000000000000000000000000000000000000000000000000000081526004016110d09061334e565b60405180910390fd5b6110e28161171d565b50565b60007f80ac58cd000000000000000000000000000000000000000000000000000000007bffffffffffffffffffffffffffffffffffffffffffffffffffffffff1916827bffffffffffffffffffffffffffffffffffffffffffffffffffffffff191614806111b057507f5b5e139f000000000000000000000000000000000000000000000000000000007bffffffffffffffffffffffffffffffffffffffffffffffffffffffff1916827bffffffffffffffffffffffffffffffffffffffffffffffffffffffff1916145b806111c057506111bf82611ab9565b5b9050919050565b6111d081611b23565b61120f576040517f08c379a000000000000000000000000000000000000000000000000000000000815260040161120690612f38565b60405180910390fd5b50565b600033905090565b816004600083815260200190815260200160002060006101000a81548173ffffffffffffffffffffffffffffffffffffffff021916908373ffffffffffffffffffffffffffffffffffffffff160217905550808273ffffffffffffffffffffffffffffffffffffffff1661128d83610ad1565b73ffffffffffffffffffffffffffffffffffffffff167f8c5be1e5ebec7d5bd14f71427d1e84f3dd0314c0f7b2291e5b200ac8c7c3b92560405160405180910390a45050565b6000806112df83610ad1565b90508073ffffffffffffffffffffffffffffffffffffffff168473ffffffffffffffffffffffffffffffffffffffff16148061132157506113208185610fcd565b5b8061135f57508373ffffffffffffffffffffffffffffffffffffffff1661134784610767565b73ffffffffffffffffffffffffffffffffffffffff16145b91505092915050565b8273ffffffffffffffffffffffffffffffffffffffff1661138882610ad1565b73ffffffffffffffffffffffffffffffffffffffff16146113de576040517f08c379a00000000000000000000000000000000000000000000000000000000081526004016113d5906133e0565b60405180910390fd5b600073ffffffffffffffffffffffffffffffffffffffff168273ffffffffffffffffffffffffffffffffffffffff16141561144e576040517f08c379a000000000000000000000000000000000000000000000000000000000815260040161144590613472565b60405180910390fd5b61145b8383836001611b64565b8273ffffffffffffffffffffffffffffffffffffffff1661147b82610ad1565b73ffffffffffffffffffffffffffffffffffffffff16146114d1576040517f08c379a00000000000000000000000000000000000000000000000000000000081526004016114c8906133e0565b60405180910390fd5b6004600082815260200190815260200160002060006101000a81549073ffffffffffffffffffffffffffffffffffffffff02191690556001600360008573ffffffffffffffffffffffffffffffffffffffff1673ffffffffffffffffffffffffffffffffffffffff168152602001908152602001600020600082825403925050819055506001600360008473ffffffffffffffffffffffffffffffffffffffff1673ffffffffffffffffffffffffffffffffffffffff16815260200190815260200160002060008282540192505081905550816002600083815260200190815260200160002060006101000a81548173ffffffffffffffffffffffffffffffffffffffff021916908373ffffffffffffffffffffffffffffffffffffffff160217905550808273ffffffffffffffffffffffffffffffffffffffff168473ffffffffffffffffffffffffffffffffffffffff167fddf252ad1be2c89b69c2b068fc378daa952ba7f163c4a11628f55a4df523b3ef60405160405180910390a461165d8383836001611cc4565b505050565b61166a611212565b73ffffffffffffffffffffffffffffffffffffffff16611688610d07565b73ffffffffffffffffffffffffffffffffffffffff16146116de576040517f08c379a00000000000000000000000000000000000000000000000000000000081526004016116d5906134de565b60405180910390fd5b565b60006002600083815260200190815260200160002060009054906101000a900473ffffffffffffffffffffffffffffffffffffffff169050919050565b6000600a60009054906101000a900473ffffffffffffffffffffffffffffffffffffffff16905081600a60006101000a81548173ffffffffffffffffffffffffffffffffffffffff021916908373ffffffffffffffffffffffffffffffffffffffff1602179055508173ffffffffffffffffffffffffffffffffffffffff168173ffffffffffffffffffffffffffffffffffffffff167f8be0079c531659141344cd1fd0a4f28419497f9722a3daafe3b4186f6b6457e060405160405180910390a35050565b6117fd828260405180602001604052806000815250611cca565b5050565b8173ffffffffffffffffffffffffffffffffffffffff168373ffffffffffffffffffffffffffffffffffffffff161415611870576040517f08c379a00000000000000000000000000000000000000000000000000000000081526004016118679061354a565b60405180910390fd5b80600560008573ffffffffffffffffffffffffffffffffffffffff1673ffffffffffffffffffffffffffffffffffffffff16815260200190815260200160002060008473ffffffffffffffffffffffffffffffffffffffff1673ffffffffffffffffffffffffffffffffffffffff16815260200190815260200160002060006101000a81548160ff0219169083151502179055508173ffffffffffffffffffffffffffffffffffffffff168373ffffffffffffffffffffffffffffffffffffffff167f17307eab39ab6107e8899845ad3d59bd9653f200f220920489ca2b5937696c31836040516119619190612644565b60405180910390a3505050565b611979848484611368565b61198584848484611d25565b6119c4576040517f08c379a00000000000000000000000000000000000000000000000000000000081526004016119bb906135dc565b60405180910390fd5b50505050565b606060405180602001604052806000815250905090565b6060600060016119f084611ebc565b01905060008167ffffffffffffffff811115611a0f57611a0e612931565b5b6040519080825280601f01601f191660200182016040528015611a415781602001600182028036833780820191505090505b509050600082602001820190505b600115611aae578080600190039150507f3031323334353637383961626364656600000000000000000000000000000000600a86061a8153600a8581611a9857611a976135fc565b5b0494506000851415611aa957611aae565b611a4f565b819350505050919050565b60007f01ffc9a7000000000000000000000000000000000000000000000000000000007bffffffffffffffffffffffffffffffffffffffffffffffffffffffff1916827bffffffffffffffffffffffffffffffffffffffffffffffffffffffff1916149050919050565b60008073ffffffffffffffffffffffffffffffffffffffff16611b45836116e0565b73ffffffffffffffffffffffffffffffffffffffff1614159050919050565b611b708484848461200f565b6001811115611bb4576040517f08c379a0000000000000000000000000000000000000000000000000000000008152600401611bab9061369d565b60405180910390fd5b6000829050600073ffffffffffffffffffffffffffffffffffffffff168573ffffffffffffffffffffffffffffffffffffffff161415611bfc57611bf781612015565b611c3b565b8373ffffffffffffffffffffffffffffffffffffffff168573ffffffffffffffffffffffffffffffffffffffff1614611c3a57611c39858261205e565b5b5b600073ffffffffffffffffffffffffffffffffffffffff168473ffffffffffffffffffffffffffffffffffffffff161415611c7e57611c79816121cb565b611cbd565b8473ffffffffffffffffffffffffffffffffffffffff168473ffffffffffffffffffffffffffffffffffffffff1614611cbc57611cbb848261229c565b5b5b5050505050565b50505050565b611cd4838361231b565b611ce16000848484611d25565b611d20576040517f08c379a0000000000000000000000000000000000000000000000000000000008152600401611d17906135dc565b60405180910390fd5b505050565b6000611d468473ffffffffffffffffffffffffffffffffffffffff16612539565b15611eaf578373ffffffffffffffffffffffffffffffffffffffff1663150b7a02611d6f611212565b8786866040518563ffffffff1660e01b8152600401611d919493929190613712565b602060405180830381600087803b158015611dab57600080fd5b505af1925050508015611ddc57506040513d601f19601f82011682018060405250810190611dd99190613773565b60015b611e5f573d8060008114611e0c576040519150601f19603f3d011682016040523d82523d6000602084013e611e11565b606091505b50600081511415611e57576040517f08c379a0000000000000000000000000000000000000000000000000000000008152600401611e4e906135dc565b60405180910390fd5b805181602001fd5b63150b7a0260e01b7bffffffffffffffffffffffffffffffffffffffffffffffffffffffff1916817bffffffffffffffffffffffffffffffffffffffffffffffffffffffff191614915050611eb4565b600190505b949350505050565b600080600090507a184f03e93ff9f4daa797ed6e38ed64bf6a1f0100000000000000008310611f1a577a184f03e93ff9f4daa797ed6e38ed64bf6a1f0100000000000000008381611f1057611f0f6135fc565b5b0492506040810190505b6d04ee2d6d415b85acef81000000008310611f57576d04ee2d6d415b85acef81000000008381611f4d57611f4c6135fc565b5b0492506020810190505b662386f26fc100008310611f8657662386f26fc100008381611f7c57611f7b6135fc565b5b0492506010810190505b6305f5e1008310611faf576305f5e1008381611fa557611fa46135fc565b5b0492506008810190505b6127108310611fd4576127108381611fca57611fc96135fc565b5b0492506004810190505b60648310611ff75760648381611fed57611fec6135fc565b5b0492506002810190505b600a8310612006576001810190505b80915050919050565b50505050565b6008805490506009600083815260200190815260200160002081905550600881908060018154018082558091505060019003906000526020600020016000909190919091505550565b6000600161206b84610be6565b61207591906137a0565b905060006007600084815260200190815260200160002054905081811461215a576000600660008673ffffffffffffffffffffffffffffffffffffffff1673ffffffffffffffffffffffffffffffffffffffff168152602001908152602001600020600084815260200190815260200160002054905080600660008773ffffffffffffffffffffffffffffffffffffffff1673ffffffffffffffffffffffffffffffffffffffff168152602001908152602001600020600084815260200190815260200160002081905550816007600083815260200190815260200160002081905550505b6007600084815260200190815260200160002060009055600660008573ffffffffffffffffffffffffffffffffffffffff1673ffffffffffffffffffffffffffffffffffffffff16815260200190815260200160002060008381526020019081526020016000206000905550505050565b600060016008805490506121df91906137a0565b905060006009600084815260200190815260200160002054905060006008838154811061220f5761220e612ebd565b5b90600052602060002001549050806008838154811061223157612230612ebd565b5b9060005260206000200181905550816009600083815260200190815260200160002081905550600960008581526020019081526020016000206000905560088054806122805761227f6137d4565b5b6001900381819060005260206000200160009055905550505050565b60006122a783610be6565b905081600660008573ffffffffffffffffffffffffffffffffffffffff1673ffffffffffffffffffffffffffffffffffffffff168152602001908152602001600020600083815260200190815260200160002081905550806007600084815260200190815260200160002081905550505050565b600073ffffffffffffffffffffffffffffffffffffffff168273ffffffffffffffffffffffffffffffffffffffff16141561238b576040517f08c379a00000000000000000000000000000000000000000000000000000000081526004016123829061384f565b60405180910390fd5b61239481611b23565b156123d4576040517f08c379a00000000000000000000000000000000000000000000000000000000081526004016123cb906138bb565b60405180910390fd5b6123e2600083836001611b64565b6123eb81611b23565b1561242b576040517f08c379a0000000000000000000000000000000000000000000000000000000008152600401612422906138bb565b60405180910390fd5b6001600360008473ffffffffffffffffffffffffffffffffffffffff1673ffffffffffffffffffffffffffffffffffffffff16815260200190815260200160002060008282540192505081905550816002600083815260200190815260200160002060006101000a81548173ffffffffffffffffffffffffffffffffffffffff021916908373ffffffffffffffffffffffffffffffffffffffff160217905550808273ffffffffffffffffffffffffffffffffffffffff16600073ffffffffffffffffffffffffffffffffffffffff167fddf252ad1be2c89b69c2b068fc378daa952ba7f163c4a11628f55a4df523b3ef60405160405180910390a4612535600083836001611cc4565b5050565b6000808273ffffffffffffffffffffffffffffffffffffffff163b119050919050565b6000819050919050565b61256f8161255c565b82525050565b600060208201905061258a6000830184612566565b92915050565b6000604051905090565b600080fd5b600080fd5b60007fffffffff0000000000000000000000000000000000000000000000000000000082169050919050565b6125d9816125a4565b81146125e457600080fd5b50565b6000813590506125f6816125d0565b92915050565b6000602082840312156126125761261161259a565b5b6000612620848285016125e7565b91505092915050565b60008115159050919050565b61263e81612629565b82525050565b60006020820190506126596000830184612635565b92915050565b600081519050919050565b600082825260208201905092915050565b60005b8381101561269957808201518184015260208101905061267e565b838111156126a8576000848401525b50505050565b6000601f19601f8301169050919050565b60006126ca8261265f565b6126d4818561266a565b93506126e481856020860161267b565b6126ed816126ae565b840191505092915050565b6000602082019050818103600083015261271281846126bf565b905092915050565b6127238161255c565b811461272e57600080fd5b50565b6000813590506127408161271a565b92915050565b60006020828403121561275c5761275b61259a565b5b600061276a84828501612731565b91505092915050565b600073ffffffffffffffffffffffffffffffffffffffff82169050919050565b600061279e82612773565b9050919050565b6127ae81612793565b82525050565b60006020820190506127c960008301846127a5565b92915050565b6127d881612793565b81146127e357600080fd5b50565b6000813590506127f5816127cf565b92915050565b600080604083850312156128125761281161259a565b5b6000612820858286016127e6565b925050602061283185828601612731565b9150509250929050565b6000806000606084860312156128545761285361259a565b5b6000612862868287016127e6565b9350506020612873868287016127e6565b925050604061288486828701612731565b9150509250925092565b6000602082840312156128a4576128a361259a565b5b60006128b2848285016127e6565b91505092915050565b6128c481612629565b81146128cf57600080fd5b50565b6000813590506128e1816128bb565b92915050565b600080604083850312156128fe576128fd61259a565b5b600061290c858286016127e6565b925050602061291d858286016128d2565b9150509250929050565b600080fd5b600080fd5b7f4e487b7100000000000000000000000000000000000000000000000000000000600052604160045260246000fd5b612969826126ae565b810181811067ffffffffffffffff8211171561298857612987612931565b5b80604052505050565b600061299b612590565b90506129a78282612960565b919050565b600067ffffffffffffffff8211156129c7576129c6612931565b5b6129d0826126ae565b9050602081019050919050565b82818337600083830152505050565b60006129ff6129fa846129ac565b612991565b905082815260208101848484011115612a1b57612a1a61292c565b5b612a268482856129dd565b509392505050565b600082601f830112612a4357612a42612927565b5b8135612a538482602086016129ec565b91505092915050565b60008060008060808587031215612a7657612a7561259a565b5b6000612a84878288016127e6565b9450506020612a95878288016127e6565b9350506040612aa687828801612731565b925050606085013567ffffffffffffffff811115612ac757612ac661259f565b5b612ad387828801612a2e565b91505092959194509250565b60008060408385031215612af657612af561259a565b5b6000612b04858286016127e6565b9250506020612b15858286016127e6565b9150509250929050565b7f4e487b7100000000000000000000000000000000000000000000000000000000600052602260045260246000fd5b60006002820490506001821680612b6657607f821691505b60208210811415612b7a57612b79612b1f565b5b50919050565b7f4552433732313a20617070726f76616c20746f2063757272656e74206f776e6560008201527f7200000000000000000000000000000000000000000000000000000000000000602082015250565b6000612bdc60218361266a565b9150612be782612b80565b604082019050919050565b60006020820190508181036000830152612c0b81612bcf565b9050919050565b7f4552433732313a20617070726f76652063616c6c6572206973206e6f7420746f60008201527f6b656e206f776e6572206f7220617070726f76656420666f7220616c6c000000602082015250565b6000612c6e603d8361266a565b9150612c7982612c12565b604082019050919050565b60006020820190508181036000830152612c9d81612c61565b9050919050565b7f4552433732313a2063616c6c6572206973206e6f7420746f6b656e206f776e6560008201527f72206f7220617070726f76656400000000000000000000000000000000000000602082015250565b6000612d00602d8361266a565b9150612d0b82612ca4565b604082019050919050565b60006020820190508181036000830152612d2f81612cf3565b9050919050565b7f455243373231456e756d657261626c653a206f776e657220696e646578206f7560008201527f74206f6620626f756e6473000000000000000000000000000000000000000000602082015250565b6000612d92602b8361266a565b9150612d9d82612d36565b604082019050919050565b60006020820190508181036000830152612dc181612d85565b9050919050565b60008160601b9050919050565b6000612de082612dc8565b9050919050565b6000612df282612dd5565b9050919050565b612e0a612e0582612793565b612de7565b82525050565b6000612e1c8284612df9565b60148201915081905092915050565b7f455243373231456e756d657261626c653a20676c6f62616c20696e646578206f60008201527f7574206f6620626f756e64730000000000000000000000000000000000000000602082015250565b6000612e87602c8361266a565b9150612e9282612e2b565b604082019050919050565b60006020820190508181036000830152612eb681612e7a565b9050919050565b7f4e487b7100000000000000000000000000000000000000000000000000000000600052603260045260246000fd5b7f4552433732313a20696e76616c696420746f6b656e2049440000000000000000600082015250565b6000612f2260188361266a565b9150612f2d82612eec565b602082019050919050565b60006020820190508181036000830152612f5181612f15565b9050919050565b7f4552433732313a2061646472657373207a65726f206973206e6f74206120766160008201527f6c6964206f776e65720000000000000000000000000000000000000000000000602082015250565b6000612fb460298361266a565b9150612fbf82612f58565b604082019050919050565b60006020820190508181036000830152612fe381612fa7565b9050919050565b7f4d696e74696e67206e6f74206f70656e20796574000000000000000000000000600082015250565b600061302060148361266a565b915061302b82612fea565b602082019050919050565b6000602082019050818103600083015261304f81613013565b9050919050565b7f746869732061646472657373206973206e6f74206f6e2074686520616c6c6f7760008201527f206c697374000000000000000000000000000000000000000000000000000000602082015250565b60006130b260258361266a565b91506130bd82613056565b604082019050919050565b600060208201905081810360008301526130e1816130a5565b9050919050565b7f4e487b7100000000000000000000000000000000000000000000000000000000600052601160045260246000fd5b60006131228261255c565b915061312d8361255c565b9250817fffffffffffffffffffffffffffffffffffffffffffffffffffffffffffffffff0483118215151615613166576131656130e8565b5b828202905092915050565b7f696e737566666963656e74207061796d656e7400000000000000000000000000600082015250565b60006131a760138361266a565b91506131b282613171565b602082019050919050565b600060208201905081810360008301526131d68161319a565b9050919050565b60006131e88261255c565b91506131f38361255c565b9250827fffffffffffffffffffffffffffffffffffffffffffffffffffffffffffffffff03821115613228576132276130e8565b5b828201905092915050565b600061323e8261255c565b91507fffffffffffffffffffffffffffffffffffffffffffffffffffffffffffffffff821415613271576132706130e8565b5b600182019050919050565b600081905092915050565b60006132928261265f565b61329c818561327c565b93506132ac81856020860161267b565b80840191505092915050565b60006132c48285613287565b91506132d08284613287565b91508190509392505050565b7f4f776e61626c653a206e6577206f776e657220697320746865207a65726f206160008201527f6464726573730000000000000000000000000000000000000000000000000000602082015250565b600061333860268361266a565b9150613343826132dc565b604082019050919050565b600060208201905081810360008301526133678161332b565b9050919050565b7f4552433732313a207472616e736665722066726f6d20696e636f72726563742060008201527f6f776e6572000000000000000000000000000000000000000000000000000000602082015250565b60006133ca60258361266a565b91506133d58261336e565b604082019050919050565b600060208201905081810360008301526133f9816133bd565b9050919050565b7f4552433732313a207472616e7366657220746f20746865207a65726f2061646460008201527f7265737300000000000000000000000000000000000000000000000000000000602082015250565b600061345c60248361266a565b915061346782613400565b604082019050919050565b6000602082019050818103600083015261348b8161344f565b9050919050565b7f4f776e61626c653a2063616c6c6572206973206e6f7420746865206f776e6572600082015250565b60006134c860208361266a565b91506134d382613492565b602082019050919050565b600060208201905081810360008301526134f7816134bb565b9050919050565b7f4552433732313a20617070726f766520746f2063616c6c657200000000000000600082015250565b600061353460198361266a565b915061353f826134fe565b602082019050919050565b6000602082019050818103600083015261356381613527565b9050919050565b7f4552433732313a207472616e7366657220746f206e6f6e20455243373231526560008201527f63656976657220696d706c656d656e7465720000000000000000000000000000602082015250565b60006135c660328361266a565b91506135d18261356a565b604082019050919050565b600060208201905081810360008301526135f5816135b9565b9050919050565b7f4e487b7100000000000000000000000000000000000000000000000000000000600052601260045260246000fd5b7f455243373231456e756d657261626c653a20636f6e736563757469766520747260008201527f616e7366657273206e6f7420737570706f727465640000000000000000000000602082015250565b600061368760358361266a565b91506136928261362b565b604082019050919050565b600060208201905081810360008301526136b68161367a565b9050919050565b600081519050919050565b600082825260208201905092915050565b60006136e4826136bd565b6136ee81856136c8565b93506136fe81856020860161267b565b613707816126ae565b840191505092915050565b600060808201905061372760008301876127a5565b61373460208301866127a5565b6137416040830185612566565b818103606083015261375381846136d9565b905095945050505050565b60008151905061376d816125d0565b92915050565b6000602082840312156137895761378861259a565b5b60006137978482850161375e565b91505092915050565b60006137ab8261255c565b91506137b68361255c565b9250828210156137c9576137c86130e8565b5b828203905092915050565b7f4e487b7100000000000000000000000000000000000000000000000000000000600052603160045260246000fd5b7f4552433732313a206d696e7420746f20746865207a65726f2061646472657373600082015250565b600061383960208361266a565b915061384482613803565b602082019050919050565b600060208201905081810360008301526138688161382c565b9050919050565b7f4552433732313a20746f6b656e20616c7265616479206d696e74656400000000600082015250565b60006138a5601c8361266a565b91506138b08261386f565b602082019050919050565b600060208201905081810360008301526138d481613898565b905091905056fea2646970667358221220771ccc76b2f32c03b33abdaccd481833e4f96870bde5c7bcf7323ca5c292306464736f6c63430008090033",
  "linkReferences": {},
  "deployedLinkReferences": {}
}