{
  "_format": "hh-sol-artifact-1",
  "contractName": "MyNFT",
  "sourceName": "contracts/MyNFT.sol",
  "abi": [
    {
      "inputs": [
        {
          "internalType": "string",
          "name": "_name",
          "type": "string"
        },
        {
          "internalType": "string",
          "name": "_symbol",
          "type": "string"
        },
        {
          "internalType": "uint256",
          "name": "_cost",
          "type": "uint256"
        },
        {
          "internalType": "uint256",
          "name": "_maxSupply",
          "type": "uint256"
        }
      ],
      "stateMutability": "nonpayable",
      "type": "constructor"
    },
    {
      "anonymous": false,
      "inputs": [
        {
          "indexed": true,
          "internalType": "address",
          "name": "owner",
          "type": "address"
        },
        {
          "indexed": true,
          "internalType": "address",
          "name": "approved",
          "type": "address"
        },
        {
          "indexed": true,
          "internalType": "uint256",
          "name": "tokenId",
          "type": "uint256"
        }
      ],
      "name": "Approval",
      "type": "event"
    },
    {
      "anonymous": false,
      "inputs": [
        {
          "indexed": true,
          "internalType": "address",
          "name": "owner",
          "type": "address"
        },
        {
          "indexed": true,
          "internalType": "address",
          "name": "operator",
          "type": "address"
        },
        {
          "indexed": false,
          "internalType": "bool",
          "name": "approved",
          "type": "bool"
        }
      ],
      "name": "ApprovalForAll",
      "type": "event"
    },
    {
      "anonymous": false,
      "inputs": [
        {
          "indexed": true,
          "internalType": "address",
          "name": "previousOwner",
          "type": "address"
        },
        {
          "indexed": true,
          "internalType": "address",
          "name": "newOwner",
          "type": "address"
        }
      ],
      "name": "OwnershipTransferred",
      "type": "event"
    },
    {
      "anonymous": false,
      "inputs": [
        {
          "indexed": true,
          "internalType": "address",
          "name": "from",
          "type": "address"
        },
        {
          "indexed": true,
          "internalType": "address",
          "name": "to",
          "type": "address"
        },
        {
          "indexed": true,
          "internalType": "uint256",
          "name": "tokenId",
          "type": "uint256"
        }
      ],
      "name": "Transfer",
      "type": "event"
    },
    {
      "inputs": [
        {
          "internalType": "address",
          "name": "_address",
          "type": "address"
        }
      ],
      "name": "addAddress",
      "outputs": [],
      "stateMutability": "nonpayable",
      "type": "function"
    },
    {
      "inputs": [
        {
          "internalType": "address",
          "name": "to",
          "type": "address"
        },
        {
          "internalType": "uint256",
          "name": "tokenId",
          "type": "uint256"
        }
      ],
      "name": "approve",
      "outputs": [],
      "stateMutability": "nonpayable",
      "type": "function"
    },
    {
      "inputs": [
        {
          "internalType": "address",
          "name": "owner",
          "type": "address"
        }
      ],
      "name": "balanceOf",
      "outputs": [
        {
          "internalType": "uint256",
          "name": "",
          "type": "uint256"
        }
      ],
      "stateMutability": "view",
      "type": "function"
    },
    {
      "inputs": [],
      "name": "cost",
      "outputs": [
        {
          "internalType": "uint256",
          "name": "",
          "type": "uint256"
        }
      ],
      "stateMutability": "view",
      "type": "function"
    },
    {
      "inputs": [
        {
          "internalType": "uint256",
          "name": "tokenId",
          "type": "uint256"
        }
      ],
      "name": "getApproved",
      "outputs": [
        {
          "internalType": "address",
          "name": "",
          "type": "address"
        }
      ],
      "stateMutability": "view",
      "type": "function"
    },
    {
      "inputs": [
        {
          "internalType": "address",
          "name": "owner",
          "type": "address"
        },
        {
          "internalType": "address",
          "name": "operator",
          "type": "address"
        }
      ],
      "name": "isApprovedForAll",
      "outputs": [
        {
          "internalType": "bool",
          "name": "",
          "type": "bool"
        }
      ],
      "stateMutability": "view",
      "type": "function"
    },
    {
      "inputs": [
        {
          "internalType": "address",
          "name": "_address",
          "type": "address"
        }
      ],
      "name": "isOnList",
      "outputs": [
        {
          "internalType": "bool",
          "name": "",
          "type": "bool"
        }
      ],
      "stateMutability": "view",
      "type": "function"
    },
    {
      "inputs": [],
      "name": "maxSupply",
      "outputs": [
        {
          "internalType": "uint256",
          "name": "",
          "type": "uint256"
        }
      ],
      "stateMutability": "view",
      "type": "function"
    },
    {
      "inputs": [
        {
          "internalType": "address",
          "name": "to",
          "type": "address"
        },
        {
          "internalType": "uint256",
          "name": "tokenId",
          "type": "uint256"
        }
      ],
      "name": "mint",
      "outputs": [],
      "stateMutability": "nonpayable",
      "type": "function"
    },
    {
      "inputs": [],
      "name": "name",
      "outputs": [
        {
          "internalType": "string",
          "name": "",
          "type": "string"
        }
      ],
      "stateMutability": "view",
      "type": "function"
    },
    {
      "inputs": [],
      "name": "owner",
      "outputs": [
        {
          "internalType": "address",
          "name": "",
          "type": "address"
        }
      ],
      "stateMutability": "view",
      "type": "function"
    },
    {
      "inputs": [
        {
          "internalType": "uint256",
          "name": "tokenId",
          "type": "uint256"
        }
      ],
      "name": "ownerOf",
      "outputs": [
        {
          "internalType": "address",
          "name": "",
          "type": "address"
        }
      ],
      "stateMutability": "view",
      "type": "function"
    },
    {
      "inputs": [],
      "name": "renounceOwnership",
      "outputs": [],
      "stateMutability": "nonpayable",
      "type": "function"
    },
    {
      "inputs": [
        {
          "internalType": "address",
          "name": "from",
          "type": "address"
        },
        {
          "internalType": "address",
          "name": "to",
          "type": "address"
        },
        {
          "internalType": "uint256",
          "name": "tokenId",
          "type": "uint256"
        }
      ],
      "name": "safeTransferFrom",
      "outputs": [],
      "stateMutability": "nonpayable",
      "type": "function"
    },
    {
      "inputs": [
        {
          "internalType": "address",
          "name": "from",
          "type": "address"
        },
        {
          "internalType": "address",
          "name": "to",
          "type": "address"
        },
        {
          "internalType": "uint256",
          "name": "tokenId",
          "type": "uint256"
        },
        {
          "internalType": "bytes",
          "name": "data",
          "type": "bytes"
        }
      ],
      "name": "safeTransferFrom",
      "outputs": [],
      "stateMutability": "nonpayable",
      "type": "function"
    },
    {
      "inputs": [
        {
          "internalType": "address",
          "name": "operator",
          "type": "address"
        },
        {
          "internalType": "bool",
          "name": "approved",
          "type": "bool"
        }
      ],
      "name": "setApprovalForAll",
      "outputs": [],
      "stateMutability": "nonpayable",
      "type": "function"
    },
    {
      "inputs": [
        {
          "internalType": "bytes4",
          "name": "interfaceId",
          "type": "bytes4"
        }
      ],
      "name": "supportsInterface",
      "outputs": [
        {
          "internalType": "bool",
          "name": "",
          "type": "bool"
        }
      ],
      "stateMutability": "view",
      "type": "function"
    },
    {
      "inputs": [],
      "name": "symbol",
      "outputs": [
        {
          "internalType": "string",
          "name": "",
          "type": "string"
        }
      ],
      "stateMutability": "view",
      "type": "function"
    },
    {
      "inputs": [
        {
          "internalType": "uint256",
          "name": "index",
          "type": "uint256"
        }
      ],
      "name": "tokenByIndex",
      "outputs": [
        {
          "internalType": "uint256",
          "name": "",
          "type": "uint256"
        }
      ],
      "stateMutability": "view",
      "type": "function"
    },
    {
      "inputs": [
        {
          "internalType": "address",
          "name": "owner",
          "type": "address"
        },
        {
          "internalType": "uint256",
          "name": "index",
          "type": "uint256"
        }
      ],
      "name": "tokenOfOwnerByIndex",
      "outputs": [
        {
          "internalType": "uint256",
          "name": "",
          "type": "uint256"
        }
      ],
      "stateMutability": "view",
      "type": "function"
    },
    {
      "inputs": [
        {
          "internalType": "uint256",
          "name": "tokenId",
          "type": "uint256"
        }
      ],
      "name": "tokenURI",
      "outputs": [
        {
          "internalType": "string",
          "name": "",
          "type": "string"
        }
      ],
      "stateMutability": "view",
      "type": "function"
    },
    {
      "inputs": [],
      "name": "totalSupply",
      "outputs": [
        {
          "internalType": "uint256",
          "name": "",
          "type": "uint256"
        }
      ],
      "stateMutability": "view",
      "type": "function"
    },
    {
      "inputs": [
        {
          "internalType": "address",
          "name": "from",
          "type": "address"
        },
        {
          "internalType": "address",
          "name": "to",
          "type": "address"
        },
        {
          "internalType": "uint256",
          "name": "tokenId",
          "type": "uint256"
        }
      ],
      "name": "transferFrom",
      "outputs": [],
      "stateMutability": "nonpayable",
      "type": "function"
    },
    {
      "inputs": [
        {
          "internalType": "address",
          "name": "newOwner",
          "type": "address"
        }
      ],
      "name": "transferOwnership",
      "outputs": [],
      "stateMutability": "nonpayable",
      "type": "function"
    }
  ],
  "bytecode": "0x60806040523480156200001157600080fd5b50604051620038db380380620038db8339818101604052810190620000379190620003fb565b838381600090805190602001906200005192919062000173565b5080600190805190602001906200006a92919062000173565b5050506200008d62000081620000a560201b60201c565b620000ad60201b60201c565b81600b8190555080600c819055505050505062000510565b600033905090565b6000600a60009054906101000a900473ffffffffffffffffffffffffffffffffffffffff16905081600a60006101000a81548173ffffffffffffffffffffffffffffffffffffffff021916908373ffffffffffffffffffffffffffffffffffffffff1602179055508173ffffffffffffffffffffffffffffffffffffffff168173ffffffffffffffffffffffffffffffffffffffff167f8be0079c531659141344cd1fd0a4f28419497f9722a3daafe3b4186f6b6457e060405160405180910390a35050565b8280546200018190620004da565b90600052602060002090601f016020900481019282620001a55760008555620001f1565b82601f10620001c057805160ff1916838001178555620001f1565b82800160010185558215620001f1579182015b82811115620001f0578251825591602001919060010190620001d3565b5b50905062000200919062000204565b5090565b5b808211156200021f57600081600090555060010162000205565b5090565b6000604051905090565b600080fd5b600080fd5b600080fd5b600080fd5b6000601f19601f8301169050919050565b7f4e487b7100000000000000000000000000000000000000000000000000000000600052604160045260246000fd5b6200028c8262000241565b810181811067ffffffffffffffff82111715620002ae57620002ad62000252565b5b80604052505050565b6000620002c362000223565b9050620002d1828262000281565b919050565b600067ffffffffffffffff821115620002f457620002f362000252565b5b620002ff8262000241565b9050602081019050919050565b60005b838110156200032c5780820151818401526020810190506200030f565b838111156200033c576000848401525b50505050565b6000620003596200035384620002d6565b620002b7565b9050828152602081018484840111156200037857620003776200023c565b5b620003858482856200030c565b509392505050565b600082601f830112620003a557620003a462000237565b5b8151620003b784826020860162000342565b91505092915050565b6000819050919050565b620003d581620003c0565b8114620003e157600080fd5b50565b600081519050620003f581620003ca565b92915050565b600080600080608085870312156200041857620004176200022d565b5b600085015167ffffffffffffffff81111562000439576200043862000232565b5b62000447878288016200038d565b945050602085015167ffffffffffffffff8111156200046b576200046a62000232565b5b62000479878288016200038d565b93505060406200048c87828801620003e4565b92505060606200049f87828801620003e4565b91505092959194509250565b7f4e487b7100000000000000000000000000000000000000000000000000000000600052602260045260246000fd5b60006002820490506001821680620004f357607f821691505b602082108114156200050a5762000509620004ab565b5b50919050565b6133bb80620005206000396000f3fe608060405234801561001057600080fd5b50600436106101585760003560e01c80636352211e116100c3578063a22cb4651161007c578063a22cb465146103d9578063b88d4fde146103f5578063c87b56dd14610411578063d5abeb0114610441578063e985e9c51461045f578063f2fde38b1461048f57610158565b80636352211e1461030357806370a0823114610333578063715018a6146103635780637330daac1461036d5780638da5cb5b1461039d57806395d89b41146103bb57610158565b806323b872dd1161011557806323b872dd146102335780632f745c591461024f57806338eada1c1461027f57806340c10f191461029b57806342842e0e146102b75780634f6ccce7146102d357610158565b806301ffc9a71461015d57806306fdde031461018d578063081812fc146101ab578063095ea7b3146101db57806313faede6146101f757806318160ddd14610215575b600080fd5b61017760048036038101906101729190612243565b6104ab565b604051610184919061228b565b60405180910390f35b610195610525565b6040516101a2919061233f565b60405180910390f35b6101c560048036038101906101c09190612397565b6105b7565b6040516101d29190612405565b60405180910390f35b6101f560048036038101906101f0919061244c565b6105fd565b005b6101ff610715565b60405161020c919061249b565b60405180910390f35b61021d61071b565b60405161022a919061249b565b60405180910390f35b61024d600480360381019061024891906124b6565b610728565b005b6102696004803603810190610264919061244c565b610788565b604051610276919061249b565b60405180910390f35b61029960048036038101906102949190612509565b61082d565b005b6102b560048036038101906102b0919061244c565b610890565b005b6102d160048036038101906102cc91906124b6565b6108e6565b005b6102ed60048036038101906102e89190612397565b610906565b6040516102fa919061249b565b60405180910390f35b61031d60048036038101906103189190612397565b610977565b60405161032a9190612405565b60405180910390f35b61034d60048036038101906103489190612509565b6109fe565b60405161035a919061249b565b60405180910390f35b61036b610ab6565b005b61038760048036038101906103829190612509565b610aca565b604051610394919061228b565b60405180910390f35b6103a5610b1f565b6040516103b29190612405565b60405180910390f35b6103c3610b49565b6040516103d0919061233f565b60405180910390f35b6103f360048036038101906103ee9190612562565b610bdb565b005b61040f600480360381019061040a91906126d7565b610bf1565b005b61042b60048036038101906104269190612397565b610c53565b604051610438919061233f565b60405180910390f35b610449610cbb565b604051610456919061249b565b60405180910390f35b6104796004803603810190610474919061275a565b610cc1565b604051610486919061228b565b60405180910390f35b6104a960048036038101906104a49190612509565b610d55565b005b60007f780e9d63000000000000000000000000000000000000000000000000000000007bffffffffffffffffffffffffffffffffffffffffffffffffffffffff1916827bffffffffffffffffffffffffffffffffffffffffffffffffffffffff1916148061051e575061051d82610dd9565b5b9050919050565b606060008054610534906127c9565b80601f0160208091040260200160405190810160405280929190818152602001828054610560906127c9565b80156105ad5780601f10610582576101008083540402835291602001916105ad565b820191906000526020600020905b81548152906001019060200180831161059057829003601f168201915b5050505050905090565b60006105c282610ebb565b6004600083815260200190815260200160002060009054906101000a900473ffffffffffffffffffffffffffffffffffffffff169050919050565b600061060882610977565b90508073ffffffffffffffffffffffffffffffffffffffff168373ffffffffffffffffffffffffffffffffffffffff161415610679576040517f08c379a00000000000000000000000000000000000000000000000000000000081526004016106709061286d565b60405180910390fd5b8073ffffffffffffffffffffffffffffffffffffffff16610698610f06565b73ffffffffffffffffffffffffffffffffffffffff1614806106c757506106c6816106c1610f06565b610cc1565b5b610706576040517f08c379a00000000000000000000000000000000000000000000000000000000081526004016106fd906128ff565b60405180910390fd5b6107108383610f0e565b505050565b600b5481565b6000600880549050905090565b610739610733610f06565b82610fc7565b610778576040517f08c379a000000000000000000000000000000000000000000000000000000000815260040161076f90612991565b60405180910390fd5b61078383838361105c565b505050565b6000610793836109fe565b82106107d4576040517f08c379a00000000000000000000000000000000000000000000000000000000081526004016107cb90612a23565b60405180910390fd5b600660008473ffffffffffffffffffffffffffffffffffffffff1673ffffffffffffffffffffffffffffffffffffffff168152602001908152602001600020600083815260200190815260200160002054905092915050565b610835611356565b6000816040516020016108489190612a8b565b6040516020818303038152906040528051906020012090506001600d600083815260200190815260200160002060006101000a81548160ff0219169083151502179055505050565b61089933610aca565b6108d8576040517f08c379a00000000000000000000000000000000000000000000000000000000081526004016108cf90612b18565b60405180910390fd5b6108e282826113d4565b5050565b61090183838360405180602001604052806000815250610bf1565b505050565b600061091061071b565b8210610951576040517f08c379a000000000000000000000000000000000000000000000000000000000815260040161094890612baa565b60405180910390fd5b6008828154811061096557610964612bca565b5b90600052602060002001549050919050565b600080610983836115f2565b9050600073ffffffffffffffffffffffffffffffffffffffff168173ffffffffffffffffffffffffffffffffffffffff1614156109f5576040517f08c379a00000000000000000000000000000000000000000000000000000000081526004016109ec90612c45565b60405180910390fd5b80915050919050565b60008073ffffffffffffffffffffffffffffffffffffffff168273ffffffffffffffffffffffffffffffffffffffff161415610a6f576040517f08c379a0000000000000000000000000000000000000000000000000000000008152600401610a6690612cd7565b60405180910390fd5b600360008373ffffffffffffffffffffffffffffffffffffffff1673ffffffffffffffffffffffffffffffffffffffff168152602001908152602001600020549050919050565b610abe611356565b610ac8600061162f565b565b60008082604051602001610ade9190612a8b565b604051602081830303815290604052805190602001209050600d600082815260200190815260200160002060009054906101000a900460ff16915050919050565b6000600a60009054906101000a900473ffffffffffffffffffffffffffffffffffffffff16905090565b606060018054610b58906127c9565b80601f0160208091040260200160405190810160405280929190818152602001828054610b84906127c9565b8015610bd15780601f10610ba657610100808354040283529160200191610bd1565b820191906000526020600020905b815481529060010190602001808311610bb457829003601f168201915b5050505050905090565b610bed610be6610f06565b83836116f5565b5050565b610c02610bfc610f06565b83610fc7565b610c41576040517f08c379a0000000000000000000000000000000000000000000000000000000008152600401610c3890612991565b60405180910390fd5b610c4d84848484611862565b50505050565b6060610c5e82610ebb565b6000610c686118be565b90506000815111610c885760405180602001604052806000815250610cb3565b80610c92846118d5565b604051602001610ca3929190612d33565b6040516020818303038152906040525b915050919050565b600c5481565b6000600560008473ffffffffffffffffffffffffffffffffffffffff1673ffffffffffffffffffffffffffffffffffffffff16815260200190815260200160002060008373ffffffffffffffffffffffffffffffffffffffff1673ffffffffffffffffffffffffffffffffffffffff16815260200190815260200160002060009054906101000a900460ff16905092915050565b610d5d611356565b600073ffffffffffffffffffffffffffffffffffffffff168173ffffffffffffffffffffffffffffffffffffffff161415610dcd576040517f08c379a0000000000000000000000000000000000000000000000000000000008152600401610dc490612dc9565b60405180910390fd5b610dd68161162f565b50565b60007f80ac58cd000000000000000000000000000000000000000000000000000000007bffffffffffffffffffffffffffffffffffffffffffffffffffffffff1916827bffffffffffffffffffffffffffffffffffffffffffffffffffffffff19161480610ea457507f5b5e139f000000000000000000000000000000000000000000000000000000007bffffffffffffffffffffffffffffffffffffffffffffffffffffffff1916827bffffffffffffffffffffffffffffffffffffffffffffffffffffffff1916145b80610eb45750610eb3826119ad565b5b9050919050565b610ec481611a17565b610f03576040517f08c379a0000000000000000000000000000000000000000000000000000000008152600401610efa90612c45565b60405180910390fd5b50565b600033905090565b816004600083815260200190815260200160002060006101000a81548173ffffffffffffffffffffffffffffffffffffffff021916908373ffffffffffffffffffffffffffffffffffffffff160217905550808273ffffffffffffffffffffffffffffffffffffffff16610f8183610977565b73ffffffffffffffffffffffffffffffffffffffff167f8c5be1e5ebec7d5bd14f71427d1e84f3dd0314c0f7b2291e5b200ac8c7c3b92560405160405180910390a45050565b600080610fd383610977565b90508073ffffffffffffffffffffffffffffffffffffffff168473ffffffffffffffffffffffffffffffffffffffff16148061101557506110148185610cc1565b5b8061105357508373ffffffffffffffffffffffffffffffffffffffff1661103b846105b7565b73ffffffffffffffffffffffffffffffffffffffff16145b91505092915050565b8273ffffffffffffffffffffffffffffffffffffffff1661107c82610977565b73ffffffffffffffffffffffffffffffffffffffff16146110d2576040517f08c379a00000000000000000000000000000000000000000000000000000000081526004016110c990612e5b565b60405180910390fd5b600073ffffffffffffffffffffffffffffffffffffffff168273ffffffffffffffffffffffffffffffffffffffff161415611142576040517f08c379a000000000000000000000000000000000000000000000000000000000815260040161113990612eed565b60405180910390fd5b61114f8383836001611a58565b8273ffffffffffffffffffffffffffffffffffffffff1661116f82610977565b73ffffffffffffffffffffffffffffffffffffffff16146111c5576040517f08c379a00000000000000000000000000000000000000000000000000000000081526004016111bc90612e5b565b60405180910390fd5b6004600082815260200190815260200160002060006101000a81549073ffffffffffffffffffffffffffffffffffffffff02191690556001600360008573ffffffffffffffffffffffffffffffffffffffff1673ffffffffffffffffffffffffffffffffffffffff168152602001908152602001600020600082825403925050819055506001600360008473ffffffffffffffffffffffffffffffffffffffff1673ffffffffffffffffffffffffffffffffffffffff16815260200190815260200160002060008282540192505081905550816002600083815260200190815260200160002060006101000a81548173ffffffffffffffffffffffffffffffffffffffff021916908373ffffffffffffffffffffffffffffffffffffffff160217905550808273ffffffffffffffffffffffffffffffffffffffff168473ffffffffffffffffffffffffffffffffffffffff167fddf252ad1be2c89b69c2b068fc378daa952ba7f163c4a11628f55a4df523b3ef60405160405180910390a46113518383836001611bb8565b505050565b61135e610f06565b73ffffffffffffffffffffffffffffffffffffffff1661137c610b1f565b73ffffffffffffffffffffffffffffffffffffffff16146113d2576040517f08c379a00000000000000000000000000000000000000000000000000000000081526004016113c990612f59565b60405180910390fd5b565b600073ffffffffffffffffffffffffffffffffffffffff168273ffffffffffffffffffffffffffffffffffffffff161415611444576040517f08c379a000000000000000000000000000000000000000000000000000000000815260040161143b90612fc5565b60405180910390fd5b61144d81611a17565b1561148d576040517f08c379a000000000000000000000000000000000000000000000000000000000815260040161148490613031565b60405180910390fd5b61149b600083836001611a58565b6114a481611a17565b156114e4576040517f08c379a00000000000000000000000000000000000000000000000000000000081526004016114db90613031565b60405180910390fd5b6001600360008473ffffffffffffffffffffffffffffffffffffffff1673ffffffffffffffffffffffffffffffffffffffff16815260200190815260200160002060008282540192505081905550816002600083815260200190815260200160002060006101000a81548173ffffffffffffffffffffffffffffffffffffffff021916908373ffffffffffffffffffffffffffffffffffffffff160217905550808273ffffffffffffffffffffffffffffffffffffffff16600073ffffffffffffffffffffffffffffffffffffffff167fddf252ad1be2c89b69c2b068fc378daa952ba7f163c4a11628f55a4df523b3ef60405160405180910390a46115ee600083836001611bb8565b5050565b60006002600083815260200190815260200160002060009054906101000a900473ffffffffffffffffffffffffffffffffffffffff169050919050565b6000600a60009054906101000a900473ffffffffffffffffffffffffffffffffffffffff16905081600a60006101000a81548173ffffffffffffffffffffffffffffffffffffffff021916908373ffffffffffffffffffffffffffffffffffffffff1602179055508173ffffffffffffffffffffffffffffffffffffffff168173ffffffffffffffffffffffffffffffffffffffff167f8be0079c531659141344cd1fd0a4f28419497f9722a3daafe3b4186f6b6457e060405160405180910390a35050565b8173ffffffffffffffffffffffffffffffffffffffff168373ffffffffffffffffffffffffffffffffffffffff161415611764576040517f08c379a000000000000000000000000000000000000000000000000000000000815260040161175b9061309d565b60405180910390fd5b80600560008573ffffffffffffffffffffffffffffffffffffffff1673ffffffffffffffffffffffffffffffffffffffff16815260200190815260200160002060008473ffffffffffffffffffffffffffffffffffffffff1673ffffffffffffffffffffffffffffffffffffffff16815260200190815260200160002060006101000a81548160ff0219169083151502179055508173ffffffffffffffffffffffffffffffffffffffff168373ffffffffffffffffffffffffffffffffffffffff167f17307eab39ab6107e8899845ad3d59bd9653f200f220920489ca2b5937696c3183604051611855919061228b565b60405180910390a3505050565b61186d84848461105c565b61187984848484611bbe565b6118b8576040517f08c379a00000000000000000000000000000000000000000000000000000000081526004016118af9061312f565b60405180910390fd5b50505050565b606060405180602001604052806000815250905090565b6060600060016118e484611d55565b01905060008167ffffffffffffffff811115611903576119026125ac565b5b6040519080825280601f01601f1916602001820160405280156119355781602001600182028036833780820191505090505b509050600082602001820190505b6001156119a2578080600190039150507f3031323334353637383961626364656600000000000000000000000000000000600a86061a8153600a858161198c5761198b61314f565b5b049450600085141561199d576119a2565b611943565b819350505050919050565b60007f01ffc9a7000000000000000000000000000000000000000000000000000000007bffffffffffffffffffffffffffffffffffffffffffffffffffffffff1916827bffffffffffffffffffffffffffffffffffffffffffffffffffffffff1916149050919050565b60008073ffffffffffffffffffffffffffffffffffffffff16611a39836115f2565b73ffffffffffffffffffffffffffffffffffffffff1614159050919050565b611a6484848484611ea8565b6001811115611aa8576040517f08c379a0000000000000000000000000000000000000000000000000000000008152600401611a9f906131f0565b60405180910390fd5b6000829050600073ffffffffffffffffffffffffffffffffffffffff168573ffffffffffffffffffffffffffffffffffffffff161415611af057611aeb81611eae565b611b2f565b8373ffffffffffffffffffffffffffffffffffffffff168573ffffffffffffffffffffffffffffffffffffffff1614611b2e57611b2d8582611ef7565b5b5b600073ffffffffffffffffffffffffffffffffffffffff168473ffffffffffffffffffffffffffffffffffffffff161415611b7257611b6d81612064565b611bb1565b8473ffffffffffffffffffffffffffffffffffffffff168473ffffffffffffffffffffffffffffffffffffffff1614611bb057611baf8482612135565b5b5b5050505050565b50505050565b6000611bdf8473ffffffffffffffffffffffffffffffffffffffff166121b4565b15611d48578373ffffffffffffffffffffffffffffffffffffffff1663150b7a02611c08610f06565b8786866040518563ffffffff1660e01b8152600401611c2a9493929190613265565b602060405180830381600087803b158015611c4457600080fd5b505af1925050508015611c7557506040513d601f19601f82011682018060405250810190611c7291906132c6565b60015b611cf8573d8060008114611ca5576040519150601f19603f3d011682016040523d82523d6000602084013e611caa565b606091505b50600081511415611cf0576040517f08c379a0000000000000000000000000000000000000000000000000000000008152600401611ce79061312f565b60405180910390fd5b805181602001fd5b63150b7a0260e01b7bffffffffffffffffffffffffffffffffffffffffffffffffffffffff1916817bffffffffffffffffffffffffffffffffffffffffffffffffffffffff191614915050611d4d565b600190505b949350505050565b600080600090507a184f03e93ff9f4daa797ed6e38ed64bf6a1f0100000000000000008310611db3577a184f03e93ff9f4daa797ed6e38ed64bf6a1f0100000000000000008381611da957611da861314f565b5b0492506040810190505b6d04ee2d6d415b85acef81000000008310611df0576d04ee2d6d415b85acef81000000008381611de657611de561314f565b5b0492506020810190505b662386f26fc100008310611e1f57662386f26fc100008381611e1557611e1461314f565b5b0492506010810190505b6305f5e1008310611e48576305f5e1008381611e3e57611e3d61314f565b5b0492506008810190505b6127108310611e6d576127108381611e6357611e6261314f565b5b0492506004810190505b60648310611e905760648381611e8657611e8561314f565b5b0492506002810190505b600a8310611e9f576001810190505b80915050919050565b50505050565b6008805490506009600083815260200190815260200160002081905550600881908060018154018082558091505060019003906000526020600020016000909190919091505550565b60006001611f04846109fe565b611f0e9190613322565b9050600060076000848152602001908152602001600020549050818114611ff3576000600660008673ffffffffffffffffffffffffffffffffffffffff1673ffffffffffffffffffffffffffffffffffffffff168152602001908152602001600020600084815260200190815260200160002054905080600660008773ffffffffffffffffffffffffffffffffffffffff1673ffffffffffffffffffffffffffffffffffffffff168152602001908152602001600020600084815260200190815260200160002081905550816007600083815260200190815260200160002081905550505b6007600084815260200190815260200160002060009055600660008573ffffffffffffffffffffffffffffffffffffffff1673ffffffffffffffffffffffffffffffffffffffff16815260200190815260200160002060008381526020019081526020016000206000905550505050565b600060016008805490506120789190613322565b90506000600960008481526020019081526020016000205490506000600883815481106120a8576120a7612bca565b5b9060005260206000200154905080600883815481106120ca576120c9612bca565b5b90600052602060002001819055508160096000838152602001908152602001600020819055506009600085815260200190815260200160002060009055600880548061211957612118613356565b5b6001900381819060005260206000200160009055905550505050565b6000612140836109fe565b905081600660008573ffffffffffffffffffffffffffffffffffffffff1673ffffffffffffffffffffffffffffffffffffffff168152602001908152602001600020600083815260200190815260200160002081905550806007600084815260200190815260200160002081905550505050565b6000808273ffffffffffffffffffffffffffffffffffffffff163b119050919050565b6000604051905090565b600080fd5b600080fd5b60007fffffffff0000000000000000000000000000000000000000000000000000000082169050919050565b612220816121eb565b811461222b57600080fd5b50565b60008135905061223d81612217565b92915050565b600060208284031215612259576122586121e1565b5b60006122678482850161222e565b91505092915050565b60008115159050919050565b61228581612270565b82525050565b60006020820190506122a0600083018461227c565b92915050565b600081519050919050565b600082825260208201905092915050565b60005b838110156122e05780820151818401526020810190506122c5565b838111156122ef576000848401525b50505050565b6000601f19601f8301169050919050565b6000612311826122a6565b61231b81856122b1565b935061232b8185602086016122c2565b612334816122f5565b840191505092915050565b600060208201905081810360008301526123598184612306565b905092915050565b6000819050919050565b61237481612361565b811461237f57600080fd5b50565b6000813590506123918161236b565b92915050565b6000602082840312156123ad576123ac6121e1565b5b60006123bb84828501612382565b91505092915050565b600073ffffffffffffffffffffffffffffffffffffffff82169050919050565b60006123ef826123c4565b9050919050565b6123ff816123e4565b82525050565b600060208201905061241a60008301846123f6565b92915050565b612429816123e4565b811461243457600080fd5b50565b60008135905061244681612420565b92915050565b60008060408385031215612463576124626121e1565b5b600061247185828601612437565b925050602061248285828601612382565b9150509250929050565b61249581612361565b82525050565b60006020820190506124b0600083018461248c565b92915050565b6000806000606084860312156124cf576124ce6121e1565b5b60006124dd86828701612437565b93505060206124ee86828701612437565b92505060406124ff86828701612382565b9150509250925092565b60006020828403121561251f5761251e6121e1565b5b600061252d84828501612437565b91505092915050565b61253f81612270565b811461254a57600080fd5b50565b60008135905061255c81612536565b92915050565b60008060408385031215612579576125786121e1565b5b600061258785828601612437565b92505060206125988582860161254d565b9150509250929050565b600080fd5b600080fd5b7f4e487b7100000000000000000000000000000000000000000000000000000000600052604160045260246000fd5b6125e4826122f5565b810181811067ffffffffffffffff82111715612603576126026125ac565b5b80604052505050565b60006126166121d7565b905061262282826125db565b919050565b600067ffffffffffffffff821115612642576126416125ac565b5b61264b826122f5565b9050602081019050919050565b82818337600083830152505050565b600061267a61267584612627565b61260c565b905082815260208101848484011115612696576126956125a7565b5b6126a1848285612658565b509392505050565b600082601f8301126126be576126bd6125a2565b5b81356126ce848260208601612667565b91505092915050565b600080600080608085870312156126f1576126f06121e1565b5b60006126ff87828801612437565b945050602061271087828801612437565b935050604061272187828801612382565b925050606085013567ffffffffffffffff811115612742576127416121e6565b5b61274e878288016126a9565b91505092959194509250565b60008060408385031215612771576127706121e1565b5b600061277f85828601612437565b925050602061279085828601612437565b9150509250929050565b7f4e487b7100000000000000000000000000000000000000000000000000000000600052602260045260246000fd5b600060028204905060018216806127e157607f821691505b602082108114156127f5576127f461279a565b5b50919050565b7f4552433732313a20617070726f76616c20746f2063757272656e74206f776e6560008201527f7200000000000000000000000000000000000000000000000000000000000000602082015250565b60006128576021836122b1565b9150612862826127fb565b604082019050919050565b600060208201905081810360008301526128868161284a565b9050919050565b7f4552433732313a20617070726f76652063616c6c6572206973206e6f7420746f60008201527f6b656e206f776e6572206f7220617070726f76656420666f7220616c6c000000602082015250565b60006128e9603d836122b1565b91506128f48261288d565b604082019050919050565b60006020820190508181036000830152612918816128dc565b9050919050565b7f4552433732313a2063616c6c6572206973206e6f7420746f6b656e206f776e6560008201527f72206f7220617070726f76656400000000000000000000000000000000000000602082015250565b600061297b602d836122b1565b91506129868261291f565b604082019050919050565b600060208201905081810360008301526129aa8161296e565b9050919050565b7f455243373231456e756d657261626c653a206f776e657220696e646578206f7560008201527f74206f6620626f756e6473000000000000000000000000000000000000000000602082015250565b6000612a0d602b836122b1565b9150612a18826129b1565b604082019050919050565b60006020820190508181036000830152612a3c81612a00565b9050919050565b60008160601b9050919050565b6000612a5b82612a43565b9050919050565b6000612a6d82612a50565b9050919050565b612a85612a80826123e4565b612a62565b82525050565b6000612a978284612a74565b60148201915081905092915050565b7f746869732061646472657373206973206e6f7420616c6c6f77656420746f206260008201527f757920746f6b656e730000000000000000000000000000000000000000000000602082015250565b6000612b026029836122b1565b9150612b0d82612aa6565b604082019050919050565b60006020820190508181036000830152612b3181612af5565b9050919050565b7f455243373231456e756d657261626c653a20676c6f62616c20696e646578206f60008201527f7574206f6620626f756e64730000000000000000000000000000000000000000602082015250565b6000612b94602c836122b1565b9150612b9f82612b38565b604082019050919050565b60006020820190508181036000830152612bc381612b87565b9050919050565b7f4e487b7100000000000000000000000000000000000000000000000000000000600052603260045260246000fd5b7f4552433732313a20696e76616c696420746f6b656e2049440000000000000000600082015250565b6000612c2f6018836122b1565b9150612c3a82612bf9565b602082019050919050565b60006020820190508181036000830152612c5e81612c22565b9050919050565b7f4552433732313a2061646472657373207a65726f206973206e6f74206120766160008201527f6c6964206f776e65720000000000000000000000000000000000000000000000602082015250565b6000612cc16029836122b1565b9150612ccc82612c65565b604082019050919050565b60006020820190508181036000830152612cf081612cb4565b9050919050565b600081905092915050565b6000612d0d826122a6565b612d178185612cf7565b9350612d278185602086016122c2565b80840191505092915050565b6000612d3f8285612d02565b9150612d4b8284612d02565b91508190509392505050565b7f4f776e61626c653a206e6577206f776e657220697320746865207a65726f206160008201527f6464726573730000000000000000000000000000000000000000000000000000602082015250565b6000612db36026836122b1565b9150612dbe82612d57565b604082019050919050565b60006020820190508181036000830152612de281612da6565b9050919050565b7f4552433732313a207472616e736665722066726f6d20696e636f72726563742060008201527f6f776e6572000000000000000000000000000000000000000000000000000000602082015250565b6000612e456025836122b1565b9150612e5082612de9565b604082019050919050565b60006020820190508181036000830152612e7481612e38565b9050919050565b7f4552433732313a207472616e7366657220746f20746865207a65726f2061646460008201527f7265737300000000000000000000000000000000000000000000000000000000602082015250565b6000612ed76024836122b1565b9150612ee282612e7b565b604082019050919050565b60006020820190508181036000830152612f0681612eca565b9050919050565b7f4f776e61626c653a2063616c6c6572206973206e6f7420746865206f776e6572600082015250565b6000612f436020836122b1565b9150612f4e82612f0d565b602082019050919050565b60006020820190508181036000830152612f7281612f36565b9050919050565b7f4552433732313a206d696e7420746f20746865207a65726f2061646472657373600082015250565b6000612faf6020836122b1565b9150612fba82612f79565b602082019050919050565b60006020820190508181036000830152612fde81612fa2565b9050919050565b7f4552433732313a20746f6b656e20616c7265616479206d696e74656400000000600082015250565b600061301b601c836122b1565b915061302682612fe5565b602082019050919050565b6000602082019050818103600083015261304a8161300e565b9050919050565b7f4552433732313a20617070726f766520746f2063616c6c657200000000000000600082015250565b60006130876019836122b1565b915061309282613051565b602082019050919050565b600060208201905081810360008301526130b68161307a565b9050919050565b7f4552433732313a207472616e7366657220746f206e6f6e20455243373231526560008201527f63656976657220696d706c656d656e7465720000000000000000000000000000602082015250565b60006131196032836122b1565b9150613124826130bd565b604082019050919050565b600060208201905081810360008301526131488161310c565b9050919050565b7f4e487b7100000000000000000000000000000000000000000000000000000000600052601260045260246000fd5b7f455243373231456e756d657261626c653a20636f6e736563757469766520747260008201527f616e7366657273206e6f7420737570706f727465640000000000000000000000602082015250565b60006131da6035836122b1565b91506131e58261317e565b604082019050919050565b60006020820190508181036000830152613209816131cd565b9050919050565b600081519050919050565b600082825260208201905092915050565b600061323782613210565b613241818561321b565b93506132518185602086016122c2565b61325a816122f5565b840191505092915050565b600060808201905061327a60008301876123f6565b61328760208301866123f6565b613294604083018561248c565b81810360608301526132a6818461322c565b905095945050505050565b6000815190506132c081612217565b92915050565b6000602082840312156132dc576132db6121e1565b5b60006132ea848285016132b1565b91505092915050565b7f4e487b7100000000000000000000000000000000000000000000000000000000600052601160045260246000fd5b600061332d82612361565b915061333883612361565b92508282101561334b5761334a6132f3565b5b828203905092915050565b7f4e487b7100000000000000000000000000000000000000000000000000000000600052603160045260246000fdfea2646970667358221220dd7413436a41451909307c426882019f5b8e7afe1680e8b2ea5ef1b0bb8d893e64736f6c63430008090033",
  "linkReferences": {},
  "deployedLinkReferences": {}
}